{
  "_format": "hh-sol-artifact-1",
  "contractName": "ERC20",
  "sourceName": "contracts/token/ERC20/ERC20.sol",
  "abi": [
    {
      "inputs": [
        {
          "internalType": "string",
          "name": "name_",
          "type": "string"
        },
        {
          "internalType": "string",
          "name": "symbol_",
          "type": "string"
        }
      ],
      "stateMutability": "nonpayable",
      "type": "constructor"
    },
    {
      "anonymous": false,
      "inputs": [
        {
          "indexed": true,
          "internalType": "address",
          "name": "owner",
          "type": "address"
        },
        {
          "indexed": true,
          "internalType": "address",
          "name": "spender",
          "type": "address"
        },
        {
          "indexed": false,
          "internalType": "uint256",
          "name": "value",
          "type": "uint256"
        }
      ],
      "name": "Approval",
      "type": "event"
    },
    {
      "anonymous": false,
      "inputs": [
        {
          "indexed": true,
          "internalType": "address",
          "name": "from",
          "type": "address"
        },
        {
          "indexed": true,
          "internalType": "address",
          "name": "to",
          "type": "address"
        },
        {
          "indexed": false,
          "internalType": "uint256",
          "name": "value",
          "type": "uint256"
        }
      ],
      "name": "Transfer",
      "type": "event"
    },
    {
      "inputs": [],
      "name": "_msgData",
      "outputs": [
        {
          "internalType": "bytes",
          "name": "",
          "type": "bytes"
        }
      ],
      "stateMutability": "view",
      "type": "function"
    },
    {
      "inputs": [],
      "name": "_msgSender",
      "outputs": [
        {
          "internalType": "address",
          "name": "",
          "type": "address"
        }
      ],
      "stateMutability": "view",
      "type": "function"
    },
    {
      "inputs": [],
      "name": "_txSender",
      "outputs": [
        {
          "internalType": "address",
          "name": "",
          "type": "address"
        }
      ],
      "stateMutability": "view",
      "type": "function"
    },
    {
      "inputs": [],
      "name": "accessController",
      "outputs": [
        {
          "internalType": "contract IAccessControl",
          "name": "",
          "type": "address"
        }
      ],
      "stateMutability": "view",
      "type": "function"
    },
    {
      "inputs": [
        {
          "internalType": "address",
          "name": "owner",
          "type": "address"
        },
        {
          "internalType": "address",
          "name": "spender",
          "type": "address"
        }
      ],
      "name": "allowance",
      "outputs": [
        {
          "internalType": "uint256",
          "name": "",
          "type": "uint256"
        }
      ],
      "stateMutability": "view",
      "type": "function"
    },
    {
      "inputs": [
        {
          "internalType": "address",
          "name": "spender",
          "type": "address"
        },
        {
          "internalType": "uint256",
          "name": "amount",
          "type": "uint256"
        }
      ],
      "name": "approve",
      "outputs": [
        {
          "internalType": "bool",
          "name": "",
          "type": "bool"
        }
      ],
      "stateMutability": "nonpayable",
      "type": "function"
    },
    {
      "inputs": [
        {
          "internalType": "address",
          "name": "account",
          "type": "address"
        }
      ],
      "name": "balanceOf",
      "outputs": [
        {
          "internalType": "uint256",
          "name": "",
          "type": "uint256"
        }
      ],
      "stateMutability": "view",
      "type": "function"
    },
    {
      "inputs": [
        {
          "internalType": "address",
          "name": "ac_acccount",
          "type": "address"
        }
      ],
      "name": "connectAccessController",
      "outputs": [],
      "stateMutability": "nonpayable",
      "type": "function"
    },
    {
      "inputs": [],
      "name": "decimals",
      "outputs": [
        {
          "internalType": "uint8",
          "name": "",
          "type": "uint8"
        }
      ],
      "stateMutability": "view",
      "type": "function"
    },
    {
      "inputs": [
        {
          "internalType": "address",
          "name": "spender",
          "type": "address"
        },
        {
          "internalType": "uint256",
          "name": "subtractedValue",
          "type": "uint256"
        }
      ],
      "name": "decreaseAllowance",
      "outputs": [
        {
          "internalType": "bool",
          "name": "",
          "type": "bool"
        }
      ],
      "stateMutability": "nonpayable",
      "type": "function"
    },
    {
      "inputs": [],
      "name": "deposit",
      "outputs": [],
      "stateMutability": "payable",
      "type": "function"
    },
    {
      "inputs": [
        {
          "internalType": "string",
          "name": "role",
          "type": "string"
        },
        {
          "internalType": "address",
          "name": "account",
          "type": "address"
        }
      ],
      "name": "hasRole",
      "outputs": [
        {
          "internalType": "bool",
          "name": "",
          "type": "bool"
        }
      ],
      "stateMutability": "view",
      "type": "function"
    },
    {
      "inputs": [
        {
          "internalType": "address",
          "name": "spender",
          "type": "address"
        },
        {
          "internalType": "uint256",
          "name": "addedValue",
          "type": "uint256"
        }
      ],
      "name": "increaseAllowance",
      "outputs": [
        {
          "internalType": "bool",
          "name": "",
          "type": "bool"
        }
      ],
      "stateMutability": "nonpayable",
      "type": "function"
    },
    {
      "inputs": [
        {
          "internalType": "address",
          "name": "account",
          "type": "address"
        },
        {
          "internalType": "uint256",
          "name": "amount",
          "type": "uint256"
        }
      ],
      "name": "mint",
      "outputs": [],
      "stateMutability": "nonpayable",
      "type": "function"
    },
    {
      "inputs": [],
      "name": "name",
      "outputs": [
        {
          "internalType": "string",
          "name": "",
          "type": "string"
        }
      ],
      "stateMutability": "view",
      "type": "function"
    },
    {
      "inputs": [],
      "name": "symbol",
      "outputs": [
        {
          "internalType": "string",
          "name": "",
          "type": "string"
        }
      ],
      "stateMutability": "view",
      "type": "function"
    },
    {
      "inputs": [],
      "name": "totalSupply",
      "outputs": [
        {
          "internalType": "uint256",
          "name": "",
          "type": "uint256"
        }
      ],
      "stateMutability": "view",
      "type": "function"
    },
    {
      "inputs": [
        {
          "internalType": "address",
          "name": "recipient",
          "type": "address"
        },
        {
          "internalType": "uint256",
          "name": "amount",
          "type": "uint256"
        }
      ],
      "name": "transfer",
      "outputs": [
        {
          "internalType": "bool",
          "name": "",
          "type": "bool"
        }
      ],
      "stateMutability": "nonpayable",
      "type": "function"
    },
    {
      "inputs": [
        {
          "internalType": "address",
          "name": "sender",
          "type": "address"
        },
        {
          "internalType": "address",
          "name": "recipient",
          "type": "address"
        },
        {
          "internalType": "uint256",
          "name": "amount",
          "type": "uint256"
        }
      ],
      "name": "transferFrom",
      "outputs": [
        {
          "internalType": "bool",
          "name": "",
          "type": "bool"
        }
      ],
      "stateMutability": "nonpayable",
      "type": "function"
    }
  ],
  "bytecode": "0x60806040523480156200001157600080fd5b50604051620020d6380380620020d68339818101604052810190620000379190620002be565b81600490805190602001906200004f92919062000071565b5080600590805190602001906200006892919062000071565b505050620003a8565b8280546200007f9062000372565b90600052602060002090601f016020900481019282620000a35760008555620000ef565b82601f10620000be57805160ff1916838001178555620000ef565b82800160010185558215620000ef579182015b82811115620000ee578251825591602001919060010190620000d1565b5b509050620000fe919062000102565b5090565b5b808211156200011d57600081600090555060010162000103565b5090565b6000604051905090565b600080fd5b600080fd5b600080fd5b600080fd5b6000601f19601f8301169050919050565b7f4e487b7100000000000000000000000000000000000000000000000000000000600052604160045260246000fd5b6200018a826200013f565b810181811067ffffffffffffffff82111715620001ac57620001ab62000150565b5b80604052505050565b6000620001c162000121565b9050620001cf82826200017f565b919050565b600067ffffffffffffffff821115620001f257620001f162000150565b5b620001fd826200013f565b9050602081019050919050565b60005b838110156200022a5780820151818401526020810190506200020d565b838111156200023a576000848401525b50505050565b6000620002576200025184620001d4565b620001b5565b9050828152602081018484840111156200027657620002756200013a565b5b620002838482856200020a565b509392505050565b600082601f830112620002a357620002a262000135565b5b8151620002b584826020860162000240565b91505092915050565b60008060408385031215620002d857620002d76200012b565b5b600083015167ffffffffffffffff811115620002f957620002f862000130565b5b62000307858286016200028b565b925050602083015167ffffffffffffffff8111156200032b576200032a62000130565b5b62000339858286016200028b565b9150509250929050565b7f4e487b7100000000000000000000000000000000000000000000000000000000600052602260045260246000fd5b600060028204905060018216806200038b57607f821691505b60208210811415620003a257620003a162000343565b5b50919050565b611d1e80620003b86000396000f3fe6080604052600436106101145760003560e01c80636c9cd097116100a0578063a9059cbb11610064578063a9059cbb146103dc578063bc43cbaf14610419578063c877097d14610444578063d0e30db01461046f578063dd62ed3e1461047957610114565b80636c9cd097146102ce57806370a082311461030b5780638b49d47e1461034857806395d89b4114610374578063a457c2d71461039f57610114565b806323b872dd116100e757806323b872dd146101d7578063313ce56714610214578063395093511461023f57806340c10f191461027c57806352e5eb79146102a557610114565b806306fdde0314610119578063095ea7b314610144578063119df25f1461018157806318160ddd146101ac575b600080fd5b34801561012557600080fd5b5061012e6104b6565b60405161013b91906111ab565b60405180910390f35b34801561015057600080fd5b5061016b60048036038101906101669190611275565b610548565b60405161017891906112d0565b60405180910390f35b34801561018d57600080fd5b50610196610566565b6040516101a391906112fa565b60405180910390f35b3480156101b857600080fd5b506101c161056e565b6040516101ce9190611324565b60405180910390f35b3480156101e357600080fd5b506101fe60048036038101906101f9919061133f565b610578565b60405161020b91906112d0565b60405180910390f35b34801561022057600080fd5b5061022961066f565b60405161023691906113ae565b60405180910390f35b34801561024b57600080fd5b5061026660048036038101906102619190611275565b610678565b60405161027391906112d0565b60405180910390f35b34801561028857600080fd5b506102a3600480360381019061029e9190611275565b610724565b005b3480156102b157600080fd5b506102cc60048036038101906102c791906113c9565b6107b9565b005b3480156102da57600080fd5b506102f560048036038101906102f0919061152b565b6107fc565b60405161030291906112d0565b60405180910390f35b34801561031757600080fd5b50610332600480360381019061032d91906113c9565b6108b2565b60405161033f9190611324565b60405180910390f35b34801561035457600080fd5b5061035d6108fb565b60405161036b9291906115c5565b60405180910390f35b34801561038057600080fd5b50610389610908565b60405161039691906111ab565b60405180910390f35b3480156103ab57600080fd5b506103c660048036038101906103c19190611275565b61099a565b6040516103d391906112d0565b60405180910390f35b3480156103e857600080fd5b5061040360048036038101906103fe9190611275565b610a85565b60405161041091906112d0565b60405180910390f35b34801561042557600080fd5b5061042e610aa3565b60405161043b9190611648565b60405180910390f35b34801561045057600080fd5b50610459610ac7565b60405161046691906112fa565b60405180910390f35b610477610acf565b005b34801561048557600080fd5b506104a0600480360381019061049b9190611663565b610ad1565b6040516104ad9190611324565b60405180910390f35b6060600480546104c5906116d2565b80601f01602080910402602001604051908101604052809291908181526020018280546104f1906116d2565b801561053e5780601f106105135761010080835404028352916020019161053e565b820191906000526020600020905b81548152906001019060200180831161052157829003601f168201915b5050505050905090565b600061055c610555610566565b8484610b58565b6001905092915050565b600033905090565b6000600354905090565b600080600260008673ffffffffffffffffffffffffffffffffffffffff1673ffffffffffffffffffffffffffffffffffffffff16815260200190815260200160002060006105c4610566565b73ffffffffffffffffffffffffffffffffffffffff1673ffffffffffffffffffffffffffffffffffffffff16815260200190815260200160002054905082811015610644576040517f08c379a000000000000000000000000000000000000000000000000000000000815260040161063b90611776565b60405180910390fd5b61064f858585610d23565b6106638561065b610566565b858403610b58565b60019150509392505050565b60006012905090565b600061071a610685610566565b848460026000610693610566565b73ffffffffffffffffffffffffffffffffffffffff1673ffffffffffffffffffffffffffffffffffffffff16815260200190815260200160002060008873ffffffffffffffffffffffffffffffffffffffff1673ffffffffffffffffffffffffffffffffffffffff1681526020019081526020016000205461071591906117c5565b610b58565b6001905092915050565b61072c610566565b61076b6040518060400160405280600581526020017f6f776e6572000000000000000000000000000000000000000000000000000000815250826107fc565b6107aa576040517f08c379a00000000000000000000000000000000000000000000000000000000081526004016107a190611867565b60405180910390fd5b6107b48383610fa7565b505050565b806000806101000a81548173ffffffffffffffffffffffffffffffffffffffff021916908373ffffffffffffffffffffffffffffffffffffffff16021790555050565b60008060009054906101000a900473ffffffffffffffffffffffffffffffffffffffff1673ffffffffffffffffffffffffffffffffffffffff16636c9cd09784846040518363ffffffff1660e01b815260040161085a929190611887565b60206040518083038186803b15801561087257600080fd5b505afa158015610886573d6000803e3d6000fd5b505050506040513d601f19601f820116820180604052508101906108aa91906118e3565b905092915050565b6000600160008373ffffffffffffffffffffffffffffffffffffffff1673ffffffffffffffffffffffffffffffffffffffff168152602001908152602001600020549050919050565b3660008036915091509091565b606060058054610917906116d2565b80601f0160208091040260200160405190810160405280929190818152602001828054610943906116d2565b80156109905780601f1061096557610100808354040283529160200191610990565b820191906000526020600020905b81548152906001019060200180831161097357829003601f168201915b5050505050905090565b600080600260006109a9610566565b73ffffffffffffffffffffffffffffffffffffffff1673ffffffffffffffffffffffffffffffffffffffff16815260200190815260200160002060008573ffffffffffffffffffffffffffffffffffffffff1673ffffffffffffffffffffffffffffffffffffffff16815260200190815260200160002054905082811015610a66576040517f08c379a0000000000000000000000000000000000000000000000000000000008152600401610a5d90611982565b60405180910390fd5b610a7a610a71610566565b85858403610b58565b600191505092915050565b6000610a99610a92610566565b8484610d23565b6001905092915050565b60008054906101000a900473ffffffffffffffffffffffffffffffffffffffff1681565b600032905090565b565b6000600260008473ffffffffffffffffffffffffffffffffffffffff1673ffffffffffffffffffffffffffffffffffffffff16815260200190815260200160002060008373ffffffffffffffffffffffffffffffffffffffff1673ffffffffffffffffffffffffffffffffffffffff16815260200190815260200160002054905092915050565b600073ffffffffffffffffffffffffffffffffffffffff168373ffffffffffffffffffffffffffffffffffffffff161415610bc8576040517f08c379a0000000000000000000000000000000000000000000000000000000008152600401610bbf90611a14565b60405180910390fd5b600073ffffffffffffffffffffffffffffffffffffffff168273ffffffffffffffffffffffffffffffffffffffff161415610c38576040517f08c379a0000000000000000000000000000000000000000000000000000000008152600401610c2f90611aa6565b60405180910390fd5b80600260008573ffffffffffffffffffffffffffffffffffffffff1673ffffffffffffffffffffffffffffffffffffffff16815260200190815260200160002060008473ffffffffffffffffffffffffffffffffffffffff1673ffffffffffffffffffffffffffffffffffffffff168152602001908152602001600020819055508173ffffffffffffffffffffffffffffffffffffffff168373ffffffffffffffffffffffffffffffffffffffff167f8c5be1e5ebec7d5bd14f71427d1e84f3dd0314c0f7b2291e5b200ac8c7c3b92583604051610d169190611324565b60405180910390a3505050565b600073ffffffffffffffffffffffffffffffffffffffff168373ffffffffffffffffffffffffffffffffffffffff161415610d93576040517f08c379a0000000000000000000000000000000000000000000000000000000008152600401610d8a90611b38565b60405180910390fd5b600073ffffffffffffffffffffffffffffffffffffffff168273ffffffffffffffffffffffffffffffffffffffff161415610e03576040517f08c379a0000000000000000000000000000000000000000000000000000000008152600401610dfa90611bca565b60405180910390fd5b610e0e838383611108565b6000600160008573ffffffffffffffffffffffffffffffffffffffff1673ffffffffffffffffffffffffffffffffffffffff16815260200190815260200160002054905081811015610e95576040517f08c379a0000000000000000000000000000000000000000000000000000000008152600401610e8c90611c5c565b60405180910390fd5b818103600160008673ffffffffffffffffffffffffffffffffffffffff1673ffffffffffffffffffffffffffffffffffffffff1681526020019081526020016000208190555081600160008573ffffffffffffffffffffffffffffffffffffffff1673ffffffffffffffffffffffffffffffffffffffff1681526020019081526020016000206000828254610f2a91906117c5565b925050819055508273ffffffffffffffffffffffffffffffffffffffff168473ffffffffffffffffffffffffffffffffffffffff167fddf252ad1be2c89b69c2b068fc378daa952ba7f163c4a11628f55a4df523b3ef84604051610f8e9190611324565b60405180910390a3610fa184848461110d565b50505050565b600073ffffffffffffffffffffffffffffffffffffffff168273ffffffffffffffffffffffffffffffffffffffff161415611017576040517f08c379a000000000000000000000000000000000000000000000000000000000815260040161100e90611cc8565b60405180910390fd5b61102360008383611108565b806003600082825461103591906117c5565b9250508190555080600160008473ffffffffffffffffffffffffffffffffffffffff1673ffffffffffffffffffffffffffffffffffffffff168152602001908152602001600020600082825461108b91906117c5565b925050819055508173ffffffffffffffffffffffffffffffffffffffff16600073ffffffffffffffffffffffffffffffffffffffff167fddf252ad1be2c89b69c2b068fc378daa952ba7f163c4a11628f55a4df523b3ef836040516110f09190611324565b60405180910390a36111046000838361110d565b5050565b505050565b505050565b600081519050919050565b600082825260208201905092915050565b60005b8381101561114c578082015181840152602081019050611131565b8381111561115b576000848401525b50505050565b6000601f19601f8301169050919050565b600061117d82611112565b611187818561111d565b935061119781856020860161112e565b6111a081611161565b840191505092915050565b600060208201905081810360008301526111c58184611172565b905092915050565b6000604051905090565b600080fd5b600080fd5b600073ffffffffffffffffffffffffffffffffffffffff82169050919050565b600061120c826111e1565b9050919050565b61121c81611201565b811461122757600080fd5b50565b60008135905061123981611213565b92915050565b6000819050919050565b6112528161123f565b811461125d57600080fd5b50565b60008135905061126f81611249565b92915050565b6000806040838503121561128c5761128b6111d7565b5b600061129a8582860161122a565b92505060206112ab85828601611260565b9150509250929050565b60008115159050919050565b6112ca816112b5565b82525050565b60006020820190506112e560008301846112c1565b92915050565b6112f481611201565b82525050565b600060208201905061130f60008301846112eb565b92915050565b61131e8161123f565b82525050565b60006020820190506113396000830184611315565b92915050565b600080600060608486031215611358576113576111d7565b5b60006113668682870161122a565b93505060206113778682870161122a565b925050604061138886828701611260565b9150509250925092565b600060ff82169050919050565b6113a881611392565b82525050565b60006020820190506113c3600083018461139f565b92915050565b6000602082840312156113df576113de6111d7565b5b60006113ed8482850161122a565b91505092915050565b600080fd5b600080fd5b7f4e487b7100000000000000000000000000000000000000000000000000000000600052604160045260246000fd5b61143882611161565b810181811067ffffffffffffffff8211171561145757611456611400565b5b80604052505050565b600061146a6111cd565b9050611476828261142f565b919050565b600067ffffffffffffffff82111561149657611495611400565b5b61149f82611161565b9050602081019050919050565b82818337600083830152505050565b60006114ce6114c98461147b565b611460565b9050828152602081018484840111156114ea576114e96113fb565b5b6114f58482856114ac565b509392505050565b600082601f830112611512576115116113f6565b5b81356115228482602086016114bb565b91505092915050565b60008060408385031215611542576115416111d7565b5b600083013567ffffffffffffffff8111156115605761155f6111dc565b5b61156c858286016114fd565b925050602061157d8582860161122a565b9150509250929050565b600082825260208201905092915050565b60006115a48385611587565b93506115b18385846114ac565b6115ba83611161565b840190509392505050565b600060208201905081810360008301526115e0818486611598565b90509392505050565b6000819050919050565b600061160e611609611604846111e1565b6115e9565b6111e1565b9050919050565b6000611620826115f3565b9050919050565b600061163282611615565b9050919050565b61164281611627565b82525050565b600060208201905061165d6000830184611639565b92915050565b6000806040838503121561167a576116796111d7565b5b60006116888582860161122a565b92505060206116998582860161122a565b9150509250929050565b7f4e487b7100000000000000000000000000000000000000000000000000000000600052602260045260246000fd5b600060028204905060018216806116ea57607f821691505b602082108114156116fe576116fd6116a3565b5b50919050565b7f45524332303a207472616e7366657220616d6f756e742065786365656473206160008201527f6c6c6f77616e6365000000000000000000000000000000000000000000000000602082015250565b600061176060288361111d565b915061176b82611704565b604082019050919050565b6000602082019050818103600083015261178f81611753565b9050919050565b7f4e487b7100000000000000000000000000000000000000000000000000000000600052601160045260246000fd5b60006117d08261123f565b91506117db8361123f565b9250827fffffffffffffffffffffffffffffffffffffffffffffffffffffffffffffffff038211156118105761180f611796565b5b828201905092915050565b7f746865206163636f756e74206973206e6f74207468652061646d696e00000000600082015250565b6000611851601c8361111d565b915061185c8261181b565b602082019050919050565b6000602082019050818103600083015261188081611844565b9050919050565b600060408201905081810360008301526118a18185611172565b90506118b060208301846112eb565b9392505050565b6118c0816112b5565b81146118cb57600080fd5b50565b6000815190506118dd816118b7565b92915050565b6000602082840312156118f9576118f86111d7565b5b6000611907848285016118ce565b91505092915050565b7f45524332303a2064656372656173656420616c6c6f77616e63652062656c6f7760008201527f207a65726f000000000000000000000000000000000000000000000000000000602082015250565b600061196c60258361111d565b915061197782611910565b604082019050919050565b6000602082019050818103600083015261199b8161195f565b9050919050565b7f45524332303a20617070726f76652066726f6d20746865207a65726f2061646460008201527f7265737300000000000000000000000000000000000000000000000000000000602082015250565b60006119fe60248361111d565b9150611a09826119a2565b604082019050919050565b60006020820190508181036000830152611a2d816119f1565b9050919050565b7f45524332303a20617070726f766520746f20746865207a65726f20616464726560008201527f7373000000000000000000000000000000000000000000000000000000000000602082015250565b6000611a9060228361111d565b9150611a9b82611a34565b604082019050919050565b60006020820190508181036000830152611abf81611a83565b9050919050565b7f45524332303a207472616e736665722066726f6d20746865207a65726f20616460008201527f6472657373000000000000000000000000000000000000000000000000000000602082015250565b6000611b2260258361111d565b9150611b2d82611ac6565b604082019050919050565b60006020820190508181036000830152611b5181611b15565b9050919050565b7f45524332303a207472616e7366657220746f20746865207a65726f206164647260008201527f6573730000000000000000000000000000000000000000000000000000000000602082015250565b6000611bb460238361111d565b9150611bbf82611b58565b604082019050919050565b60006020820190508181036000830152611be381611ba7565b9050919050565b7f45524332303a207472616e7366657220616d6f756e742065786365656473206260008201527f616c616e63650000000000000000000000000000000000000000000000000000602082015250565b6000611c4660268361111d565b9150611c5182611bea565b604082019050919050565b60006020820190508181036000830152611c7581611c39565b9050919050565b7f45524332303a206d696e7420746f20746865207a65726f206164647265737300600082015250565b6000611cb2601f8361111d565b9150611cbd82611c7c565b602082019050919050565b60006020820190508181036000830152611ce181611ca5565b905091905056fea264697066735822122013b52e4406238473dc6e664a681ae9fbceba30ee8a10a0a85a8c385f61a6653b64736f6c63430008090033",
  "linkReferences": {},
  "deployedLinkReferences": {}
}