{
  "_format": "hh-sol-artifact-1",
  "contractName": "DepositNFTAdapter",
  "sourceName": "contracts/model/portfolio/token/DepositNFTAdapter.sol",
  "abi": [
    {
      "inputs": [
        {
          "internalType": "address",
          "name": "tokenAddress",
          "type": "address"
        }
      ],
      "name": "connectNFT",
      "outputs": [],
      "stateMutability": "nonpayable",
      "type": "function"
    },
    {
      "inputs": [],
      "name": "depositNFT",
      "outputs": [
        {
          "internalType": "contract IDepositNFT",
          "name": "",
          "type": "address"
        }
      ],
      "stateMutability": "view",
      "type": "function"
    }
  ],
  "bytecode": "0x608060405234801561001057600080fd5b5061021c806100206000396000f3fe608060405234801561001057600080fd5b50600436106100365760003560e01c806367e3c4d41461003b578063e017b58914610059575b600080fd5b610043610075565b604051610050919061015b565b60405180910390f35b610073600480360381019061006e91906101b9565b610099565b005b60008054906101000a900473ffffffffffffffffffffffffffffffffffffffff1681565b806000806101000a81548173ffffffffffffffffffffffffffffffffffffffff021916908373ffffffffffffffffffffffffffffffffffffffff16021790555050565b600073ffffffffffffffffffffffffffffffffffffffff82169050919050565b6000819050919050565b600061012161011c610117846100dc565b6100fc565b6100dc565b9050919050565b600061013382610106565b9050919050565b600061014582610128565b9050919050565b6101558161013a565b82525050565b6000602082019050610170600083018461014c565b92915050565b600080fd5b6000610186826100dc565b9050919050565b6101968161017b565b81146101a157600080fd5b50565b6000813590506101b38161018d565b92915050565b6000602082840312156101cf576101ce610176565b5b60006101dd848285016101a4565b9150509291505056fea26469706673582212208883c752592909c98483b7162ca90844dacc04692b5ff7a861c81f845333887264736f6c63430008090033",
  "linkReferences": {},
  "deployedLinkReferences": {}
}