{
  "_format": "hh-sol-artifact-1",
  "contractName": "ModelPortfolio",
  "sourceName": "contracts/model/portfolio/ModelPortfolio.sol",
  "abi": [
    {
      "inputs": [
        {
          "internalType": "string",
          "name": "_name",
          "type": "string"
        },
        {
          "internalType": "string",
          "name": "_baseTokenSymbol",
          "type": "string"
        },
        {
          "internalType": "string[]",
          "name": "_tokenSymbols",
          "type": "string[]"
        },
        {
          "internalType": "address[]",
          "name": "_tokenAddresses",
          "type": "address[]"
        }
      ],
      "stateMutability": "nonpayable",
      "type": "constructor"
    },
    {
      "anonymous": false,
      "inputs": [
        {
          "indexed": false,
          "internalType": "string[]",
          "name": "tokenSymbolPath",
          "type": "string[]"
        },
        {
          "indexed": false,
          "internalType": "uint256",
          "name": "amountIn",
          "type": "uint256"
        }
      ],
      "name": "SwapEvent",
      "type": "event"
    },
    {
      "anonymous": false,
      "inputs": [
        {
          "indexed": false,
          "internalType": "address",
          "name": "to",
          "type": "address"
        },
        {
          "indexed": false,
          "internalType": "string",
          "name": "tokenSymbol",
          "type": "string"
        },
        {
          "indexed": false,
          "internalType": "uint256",
          "name": "balance",
          "type": "uint256"
        },
        {
          "indexed": false,
          "internalType": "uint256",
          "name": "tokenBalance",
          "type": "uint256"
        }
      ],
      "name": "WithdrawToken",
      "type": "event"
    },
    {
      "anonymous": false,
      "inputs": [
        {
          "indexed": false,
          "internalType": "string",
          "name": "symbol",
          "type": "string"
        },
        {
          "indexed": false,
          "internalType": "int256",
          "name": "valueChange",
          "type": "int256"
        },
        {
          "indexed": false,
          "internalType": "uint256",
          "name": "initialValue",
          "type": "uint256"
        }
      ],
      "name": "rebalanceEvent",
      "type": "event"
    },
    {
      "anonymous": false,
      "inputs": [
        {
          "components": [
            {
              "internalType": "uint256",
              "name": "marketValue",
              "type": "uint256"
            },
            {
              "internalType": "uint256",
              "name": "depositValue",
              "type": "uint256"
            },
            {
              "internalType": "uint256",
              "name": "timestamp",
              "type": "uint256"
            },
            {
              "internalType": "uint256",
              "name": "blockNumber",
              "type": "uint256"
            },
            {
              "internalType": "string",
              "name": "baseTokenSymbol",
              "type": "string"
            }
          ],
          "indexed": false,
          "internalType": "struct PortfolioState",
          "name": "state",
          "type": "tuple"
        }
      ],
      "name": "updateStateEvent",
      "type": "event"
    },
    {
      "inputs": [
        {
          "internalType": "string[]",
          "name": "_tokenSymbols",
          "type": "string[]"
        },
        {
          "internalType": "address[]",
          "name": "_tokenAddresses",
          "type": "address[]"
        }
      ],
      "name": "addTokens",
      "outputs": [],
      "stateMutability": "nonpayable",
      "type": "function"
    },
    {
      "inputs": [],
      "name": "baseToken",
      "outputs": [
        {
          "internalType": "string",
          "name": "",
          "type": "string"
        }
      ],
      "stateMutability": "view",
      "type": "function"
    },
    {
      "inputs": [
        {
          "internalType": "address",
          "name": "tokenAddress",
          "type": "address"
        }
      ],
      "name": "connectNFT",
      "outputs": [],
      "stateMutability": "nonpayable",
      "type": "function"
    },
    {
      "inputs": [],
      "name": "deposit",
      "outputs": [],
      "stateMutability": "payable",
      "type": "function"
    },
    {
      "inputs": [],
      "name": "depositNFT",
      "outputs": [
        {
          "internalType": "contract IDepositNFT",
          "name": "",
          "type": "address"
        }
      ],
      "stateMutability": "view",
      "type": "function"
    },
    {
      "inputs": [],
      "name": "getExplain",
      "outputs": [
        {
          "internalType": "string",
          "name": "",
          "type": "string"
        }
      ],
      "stateMutability": "view",
      "type": "function"
    },
    {
      "inputs": [],
      "name": "getModel",
      "outputs": [
        {
          "internalType": "string",
          "name": "",
          "type": "string"
        }
      ],
      "stateMutability": "view",
      "type": "function"
    },
    {
      "inputs": [],
      "name": "getState",
      "outputs": [
        {
          "components": [
            {
              "internalType": "string",
              "name": "name",
              "type": "string"
            },
            {
              "components": [
                {
                  "internalType": "string",
                  "name": "explain",
                  "type": "string"
                },
                {
                  "internalType": "string",
                  "name": "model",
                  "type": "string"
                },
                {
                  "internalType": "string",
                  "name": "code",
                  "type": "string"
                }
              ],
              "internalType": "struct ModelURI",
              "name": "uri",
              "type": "tuple"
            }
          ],
          "internalType": "struct ModelState",
          "name": "",
          "type": "tuple"
        }
      ],
      "stateMutability": "view",
      "type": "function"
    },
    {
      "inputs": [],
      "name": "getStateHistory",
      "outputs": [
        {
          "components": [
            {
              "internalType": "uint256",
              "name": "marketValue",
              "type": "uint256"
            },
            {
              "internalType": "uint256",
              "name": "depositValue",
              "type": "uint256"
            },
            {
              "internalType": "uint256",
              "name": "timestamp",
              "type": "uint256"
            },
            {
              "internalType": "uint256",
              "name": "blockNumber",
              "type": "uint256"
            },
            {
              "internalType": "string",
              "name": "baseTokenSymbol",
              "type": "string"
            }
          ],
          "internalType": "struct PortfolioState[]",
          "name": "",
          "type": "tuple[]"
        }
      ],
      "stateMutability": "view",
      "type": "function"
    },
    {
      "inputs": [
        {
          "internalType": "string",
          "name": "tokenSymbol",
          "type": "string"
        }
      ],
      "name": "getTokenBalance",
      "outputs": [
        {
          "internalType": "uint256",
          "name": "balance",
          "type": "uint256"
        }
      ],
      "stateMutability": "view",
      "type": "function"
    },
    {
      "inputs": [],
      "name": "getTokenStateHistory",
      "outputs": [
        {
          "components": [
            {
              "internalType": "address",
              "name": "Address",
              "type": "address"
            },
            {
              "internalType": "string",
              "name": "symbol",
              "type": "string"
            },
            {
              "internalType": "uint256",
              "name": "value",
              "type": "uint256"
            },
            {
              "internalType": "uint256",
              "name": "balance",
              "type": "uint256"
            },
            {
              "internalType": "uint256",
              "name": "ratio",
              "type": "uint256"
            },
            {
              "internalType": "int256",
              "name": "valueChange",
              "type": "int256"
            },
            {
              "internalType": "int256",
              "name": "decimals",
              "type": "int256"
            },
            {
              "internalType": "uint256",
              "name": "index",
              "type": "uint256"
            }
          ],
          "internalType": "struct TokenState[][]",
          "name": "",
          "type": "tuple[][]"
        }
      ],
      "stateMutability": "view",
      "type": "function"
    },
    {
      "inputs": [],
      "name": "getTokens",
      "outputs": [
        {
          "internalType": "string[]",
          "name": "",
          "type": "string[]"
        }
      ],
      "stateMutability": "view",
      "type": "function"
    },
    {
      "inputs": [],
      "name": "getUserDepositValue",
      "outputs": [
        {
          "internalType": "uint256",
          "name": "",
          "type": "uint256"
        }
      ],
      "stateMutability": "view",
      "type": "function"
    },
    {
      "inputs": [],
      "name": "getUserMarketValue",
      "outputs": [
        {
          "internalType": "uint256",
          "name": "",
          "type": "uint256"
        }
      ],
      "stateMutability": "view",
      "type": "function"
    },
    {
      "inputs": [
        {
          "internalType": "address",
          "name": "owner",
          "type": "address"
        }
      ],
      "name": "getUserTokenStates",
      "outputs": [
        {
          "components": [
            {
              "internalType": "uint256",
              "name": "depositValue",
              "type": "uint256"
            },
            {
              "internalType": "uint256",
              "name": "marketValue",
              "type": "uint256"
            },
            {
              "internalType": "uint256",
              "name": "lastUpdateBlock",
              "type": "uint256"
            },
            {
              "components": [
                {
                  "internalType": "uint256",
                  "name": "marketValue",
                  "type": "uint256"
                },
                {
                  "internalType": "uint256",
                  "name": "depositValue",
                  "type": "uint256"
                },
                {
                  "internalType": "uint256",
                  "name": "timestamp",
                  "type": "uint256"
                },
                {
                  "internalType": "uint256",
                  "name": "blockNumber",
                  "type": "uint256"
                },
                {
                  "internalType": "string",
                  "name": "baseTokenSymbol",
                  "type": "string"
                }
              ],
              "internalType": "struct PortfolioState",
              "name": "portfolio",
              "type": "tuple"
            }
          ],
          "internalType": "struct NFTState[]",
          "name": "",
          "type": "tuple[]"
        }
      ],
      "stateMutability": "view",
      "type": "function"
    },
    {
      "inputs": [],
      "name": "hubToken",
      "outputs": [
        {
          "internalType": "string",
          "name": "",
          "type": "string"
        }
      ],
      "stateMutability": "view",
      "type": "function"
    },
    {
      "inputs": [],
      "name": "modelState",
      "outputs": [
        {
          "internalType": "string",
          "name": "name",
          "type": "string"
        },
        {
          "components": [
            {
              "internalType": "string",
              "name": "explain",
              "type": "string"
            },
            {
              "internalType": "string",
              "name": "model",
              "type": "string"
            },
            {
              "internalType": "string",
              "name": "code",
              "type": "string"
            }
          ],
          "internalType": "struct ModelURI",
          "name": "uri",
          "type": "tuple"
        }
      ],
      "stateMutability": "view",
      "type": "function"
    },
    {
      "inputs": [],
      "name": "name",
      "outputs": [
        {
          "internalType": "string",
          "name": "",
          "type": "string"
        }
      ],
      "stateMutability": "view",
      "type": "function"
    },
    {
      "inputs": [],
      "name": "percentBase",
      "outputs": [
        {
          "internalType": "uint256",
          "name": "",
          "type": "uint256"
        }
      ],
      "stateMutability": "view",
      "type": "function"
    },
    {
      "inputs": [
        {
          "internalType": "string[]",
          "name": "_tokenSymbols",
          "type": "string[]"
        },
        {
          "internalType": "uint256[]",
          "name": "tokenRatios",
          "type": "uint256[]"
        },
        {
          "internalType": "bool",
          "name": "swapBool",
          "type": "bool"
        }
      ],
      "name": "rebalancePortfolio",
      "outputs": [],
      "stateMutability": "nonpayable",
      "type": "function"
    },
    {
      "inputs": [
        {
          "internalType": "string[]",
          "name": "_tokenSymbols",
          "type": "string[]"
        }
      ],
      "name": "removeTokens",
      "outputs": [],
      "stateMutability": "nonpayable",
      "type": "function"
    },
    {
      "inputs": [
        {
          "internalType": "string",
          "name": "_baseTokenSymbol",
          "type": "string"
        }
      ],
      "name": "setBaseToken",
      "outputs": [],
      "stateMutability": "nonpayable",
      "type": "function"
    },
    {
      "inputs": [
        {
          "internalType": "string",
          "name": "uri",
          "type": "string"
        }
      ],
      "name": "setExplain",
      "outputs": [],
      "stateMutability": "nonpayable",
      "type": "function"
    },
    {
      "inputs": [
        {
          "internalType": "string",
          "name": "uri",
          "type": "string"
        }
      ],
      "name": "setModel",
      "outputs": [],
      "stateMutability": "nonpayable",
      "type": "function"
    },
    {
      "inputs": [
        {
          "components": [
            {
              "internalType": "string",
              "name": "name",
              "type": "string"
            },
            {
              "components": [
                {
                  "internalType": "string",
                  "name": "explain",
                  "type": "string"
                },
                {
                  "internalType": "string",
                  "name": "model",
                  "type": "string"
                },
                {
                  "internalType": "string",
                  "name": "code",
                  "type": "string"
                }
              ],
              "internalType": "struct ModelURI",
              "name": "uri",
              "type": "tuple"
            }
          ],
          "internalType": "struct ModelState",
          "name": "_modelState",
          "type": "tuple"
        }
      ],
      "name": "setState",
      "outputs": [],
      "stateMutability": "nonpayable",
      "type": "function"
    },
    {
      "inputs": [],
      "name": "state",
      "outputs": [
        {
          "internalType": "uint256",
          "name": "marketValue",
          "type": "uint256"
        },
        {
          "internalType": "uint256",
          "name": "depositValue",
          "type": "uint256"
        },
        {
          "internalType": "uint256",
          "name": "timestamp",
          "type": "uint256"
        },
        {
          "internalType": "uint256",
          "name": "blockNumber",
          "type": "uint256"
        },
        {
          "internalType": "string",
          "name": "baseTokenSymbol",
          "type": "string"
        }
      ],
      "stateMutability": "view",
      "type": "function"
    },
    {
      "inputs": [
        {
          "internalType": "uint256",
          "name": "",
          "type": "uint256"
        }
      ],
      "name": "stateHistory",
      "outputs": [
        {
          "internalType": "uint256",
          "name": "marketValue",
          "type": "uint256"
        },
        {
          "internalType": "uint256",
          "name": "depositValue",
          "type": "uint256"
        },
        {
          "internalType": "uint256",
          "name": "timestamp",
          "type": "uint256"
        },
        {
          "internalType": "uint256",
          "name": "blockNumber",
          "type": "uint256"
        },
        {
          "internalType": "string",
          "name": "baseTokenSymbol",
          "type": "string"
        }
      ],
      "stateMutability": "view",
      "type": "function"
    },
    {
      "inputs": [],
      "name": "sushiswapFactoryAddress",
      "outputs": [
        {
          "internalType": "address",
          "name": "",
          "type": "address"
        }
      ],
      "stateMutability": "view",
      "type": "function"
    },
    {
      "inputs": [],
      "name": "sushiswapRouterAddress",
      "outputs": [
        {
          "internalType": "address payable",
          "name": "",
          "type": "address"
        }
      ],
      "stateMutability": "view",
      "type": "function"
    },
    {
      "inputs": [
        {
          "internalType": "string[]",
          "name": "tokenSymbolPath",
          "type": "string[]"
        },
        {
          "internalType": "uint256",
          "name": "amountIn",
          "type": "uint256"
        }
      ],
      "name": "swap",
      "outputs": [],
      "stateMutability": "nonpayable",
      "type": "function"
    },
    {
      "inputs": [
        {
          "internalType": "string[]",
          "name": "tokenSymbolPath",
          "type": "string[]"
        },
        {
          "internalType": "uint256",
          "name": "amountInRatio",
          "type": "uint256"
        },
        {
          "internalType": "bool",
          "name": "swapBool",
          "type": "bool"
        }
      ],
      "name": "swapRatio",
      "outputs": [],
      "stateMutability": "nonpayable",
      "type": "function"
    },
    {
      "inputs": [
        {
          "internalType": "string",
          "name": "",
          "type": "string"
        }
      ],
      "name": "tokenStates",
      "outputs": [
        {
          "internalType": "address",
          "name": "Address",
          "type": "address"
        },
        {
          "internalType": "string",
          "name": "symbol",
          "type": "string"
        },
        {
          "internalType": "uint256",
          "name": "value",
          "type": "uint256"
        },
        {
          "internalType": "uint256",
          "name": "balance",
          "type": "uint256"
        },
        {
          "internalType": "uint256",
          "name": "ratio",
          "type": "uint256"
        },
        {
          "internalType": "int256",
          "name": "valueChange",
          "type": "int256"
        },
        {
          "internalType": "int256",
          "name": "decimals",
          "type": "int256"
        },
        {
          "internalType": "uint256",
          "name": "index",
          "type": "uint256"
        }
      ],
      "stateMutability": "view",
      "type": "function"
    },
    {
      "inputs": [
        {
          "internalType": "uint256",
          "name": "",
          "type": "uint256"
        }
      ],
      "name": "tokenStatesArray",
      "outputs": [
        {
          "internalType": "address",
          "name": "Address",
          "type": "address"
        },
        {
          "internalType": "string",
          "name": "symbol",
          "type": "string"
        },
        {
          "internalType": "uint256",
          "name": "value",
          "type": "uint256"
        },
        {
          "internalType": "uint256",
          "name": "balance",
          "type": "uint256"
        },
        {
          "internalType": "uint256",
          "name": "ratio",
          "type": "uint256"
        },
        {
          "internalType": "int256",
          "name": "valueChange",
          "type": "int256"
        },
        {
          "internalType": "int256",
          "name": "decimals",
          "type": "int256"
        },
        {
          "internalType": "uint256",
          "name": "index",
          "type": "uint256"
        }
      ],
      "stateMutability": "view",
      "type": "function"
    },
    {
      "inputs": [
        {
          "internalType": "uint256",
          "name": "",
          "type": "uint256"
        },
        {
          "internalType": "uint256",
          "name": "",
          "type": "uint256"
        }
      ],
      "name": "tokenStatesHistory",
      "outputs": [
        {
          "internalType": "address",
          "name": "Address",
          "type": "address"
        },
        {
          "internalType": "string",
          "name": "symbol",
          "type": "string"
        },
        {
          "internalType": "uint256",
          "name": "value",
          "type": "uint256"
        },
        {
          "internalType": "uint256",
          "name": "balance",
          "type": "uint256"
        },
        {
          "internalType": "uint256",
          "name": "ratio",
          "type": "uint256"
        },
        {
          "internalType": "int256",
          "name": "valueChange",
          "type": "int256"
        },
        {
          "internalType": "int256",
          "name": "decimals",
          "type": "int256"
        },
        {
          "internalType": "uint256",
          "name": "index",
          "type": "uint256"
        }
      ],
      "stateMutability": "view",
      "type": "function"
    },
    {
      "inputs": [
        {
          "internalType": "uint256",
          "name": "",
          "type": "uint256"
        }
      ],
      "name": "tokenSymbols",
      "outputs": [
        {
          "internalType": "string",
          "name": "",
          "type": "string"
        }
      ],
      "stateMutability": "view",
      "type": "function"
    },
    {
      "inputs": [],
      "name": "updateState",
      "outputs": [],
      "stateMutability": "nonpayable",
      "type": "function"
    },
    {
      "inputs": [],
      "name": "wethAddress",
      "outputs": [
        {
          "internalType": "address",
          "name": "",
          "type": "address"
        }
      ],
      "stateMutability": "view",
      "type": "function"
    },
    {
      "inputs": [
        {
          "internalType": "uint256",
          "name": "withdrawRatio",
          "type": "uint256"
        }
      ],
      "name": "withdraw",
      "outputs": [],
      "stateMutability": "nonpayable",
      "type": "function"
    },
    {
      "inputs": [],
      "name": "wrapETH",
      "outputs": [],
      "stateMutability": "payable",
      "type": "function"
    }
  ],
  "bytecode": "0x60806040526040518060400160405280600481526020017f5745544800000000000000000000000000000000000000000000000000000000815250600690805190602001906200005192919062000406565b506040518060400160405280600481526020017f5745544800000000000000000000000000000000000000000000000000000000815250600790805190602001906200009f92919062000406565b5073c02aaa39b223fe8d0a0e5c4f27ead9083c756cc2600860006101000a81548173ffffffffffffffffffffffffffffffffffffffff021916908373ffffffffffffffffffffffffffffffffffffffff160217905550600860009054906101000a900473ffffffffffffffffffffffffffffffffffffffff16600960006101000a81548173ffffffffffffffffffffffffffffffffffffffff021916908373ffffffffffffffffffffffffffffffffffffffff16021790555073d9e1ce17f2641f24ae83637ab66a2cca9c378b9f600a60006101000a81548173ffffffffffffffffffffffffffffffffffffffff021916908373ffffffffffffffffffffffffffffffffffffffff160217905550600a60009054906101000a900473ffffffffffffffffffffffffffffffffffffffff16600b60006101000a81548173ffffffffffffffffffffffffffffffffffffffff021916908373ffffffffffffffffffffffffffffffffffffffff16021790555073d9e1ce17f2641f24ae83637ab66a2cca9c378b9f600c60006101000a81548173ffffffffffffffffffffffffffffffffffffffff021916908373ffffffffffffffffffffffffffffffffffffffff160217905550600c60009054906101000a900473ffffffffffffffffffffffffffffffffffffffff16600d60006101000a81548173ffffffffffffffffffffffffffffffffffffffff021916908373ffffffffffffffffffffffffffffffffffffffff160217905550612710601855348015620002db57600080fd5b5060405162007a4d38038062007a4d83398181016040528101906200030191906200088a565b8380600190805190602001906200031a92919062000406565b50503073ffffffffffffffffffffffffffffffffffffffff1663dd487eba846040518263ffffffff1660e01b8152600401620003579190620009d5565b600060405180830381600087803b1580156200037257600080fd5b505af115801562000387573d6000803e3d6000fd5b505050503073ffffffffffffffffffffffffffffffffffffffff16639c1faa3583836040518363ffffffff1660e01b8152600401620003c892919062000be9565b600060405180830381600087803b158015620003e357600080fd5b505af1158015620003f8573d6000803e3d6000fd5b505050505050505062000c89565b828054620004149062000c53565b90600052602060002090601f01602090048101928262000438576000855562000484565b82601f106200045357805160ff191683800117855562000484565b8280016001018555821562000484579182015b828111156200048357825182559160200191906001019062000466565b5b50905062000493919062000497565b5090565b5b80821115620004b257600081600090555060010162000498565b5090565b6000604051905090565b600080fd5b600080fd5b600080fd5b600080fd5b6000601f19601f8301169050919050565b7f4e487b7100000000000000000000000000000000000000000000000000000000600052604160045260246000fd5b6200051f82620004d4565b810181811067ffffffffffffffff82111715620005415762000540620004e5565b5b80604052505050565b600062000556620004b6565b905062000564828262000514565b919050565b600067ffffffffffffffff821115620005875762000586620004e5565b5b6200059282620004d4565b9050602081019050919050565b60005b83811015620005bf578082015181840152602081019050620005a2565b83811115620005cf576000848401525b50505050565b6000620005ec620005e68462000569565b6200054a565b9050828152602081018484840111156200060b576200060a620004cf565b5b620006188482856200059f565b509392505050565b600082601f830112620006385762000637620004ca565b5b81516200064a848260208601620005d5565b91505092915050565b600067ffffffffffffffff821115620006715762000670620004e5565b5b602082029050602081019050919050565b600080fd5b60006200069e620006988462000653565b6200054a565b90508083825260208201905060208402830185811115620006c457620006c362000682565b5b835b818110156200071257805167ffffffffffffffff811115620006ed57620006ec620004ca565b5b808601620006fc898262000620565b85526020850194505050602081019050620006c6565b5050509392505050565b600082601f830112620007345762000733620004ca565b5b81516200074684826020860162000687565b91505092915050565b600067ffffffffffffffff8211156200076d576200076c620004e5565b5b602082029050602081019050919050565b600073ffffffffffffffffffffffffffffffffffffffff82169050919050565b6000620007ab826200077e565b9050919050565b620007bd816200079e565b8114620007c957600080fd5b50565b600081519050620007dd81620007b2565b92915050565b6000620007fa620007f4846200074f565b6200054a565b9050808382526020820190506020840283018581111562000820576200081f62000682565b5b835b818110156200084d5780620008388882620007cc565b84526020840193505060208101905062000822565b5050509392505050565b600082601f8301126200086f576200086e620004ca565b5b815162000881848260208601620007e3565b91505092915050565b60008060008060808587031215620008a757620008a6620004c0565b5b600085015167ffffffffffffffff811115620008c857620008c7620004c5565b5b620008d68782880162000620565b945050602085015167ffffffffffffffff811115620008fa57620008f9620004c5565b5b620009088782880162000620565b935050604085015167ffffffffffffffff8111156200092c576200092b620004c5565b5b6200093a878288016200071c565b925050606085015167ffffffffffffffff8111156200095e576200095d620004c5565b5b6200096c8782880162000857565b91505092959194509250565b600081519050919050565b600082825260208201905092915050565b6000620009a18262000978565b620009ad818562000983565b9350620009bf8185602086016200059f565b620009ca81620004d4565b840191505092915050565b60006020820190508181036000830152620009f1818462000994565b905092915050565b600081519050919050565b600082825260208201905092915050565b6000819050602082019050919050565b600082825260208201905092915050565b600062000a438262000978565b62000a4f818562000a25565b935062000a618185602086016200059f565b62000a6c81620004d4565b840191505092915050565b600062000a85838362000a36565b905092915050565b6000602082019050919050565b600062000aa782620009f9565b62000ab3818562000a04565b93508360208202850162000ac78562000a15565b8060005b8581101562000b09578484038952815162000ae7858262000a77565b945062000af48362000a8d565b925060208a0199505060018101905062000acb565b50829750879550505050505092915050565b600081519050919050565b600082825260208201905092915050565b6000819050602082019050919050565b62000b52816200079e565b82525050565b600062000b66838362000b47565b60208301905092915050565b6000602082019050919050565b600062000b8c8262000b1b565b62000b98818562000b26565b935062000ba58362000b37565b8060005b8381101562000bdc57815162000bc0888262000b58565b975062000bcd8362000b72565b92505060018101905062000ba9565b5085935050505092915050565b6000604082019050818103600083015262000c05818562000a9a565b9050818103602083015262000c1b818462000b7f565b90509392505050565b7f4e487b7100000000000000000000000000000000000000000000000000000000600052602260045260246000fd5b6000600282049050600182168062000c6c57607f821691505b6020821081141562000c835762000c8262000c24565b5b50919050565b616db48062000c996000396000f3fe6080604052600436106102305760003560e01c8063905449841161012e578063c2133213116100ab578063d8dd5eae1161006f578063d8dd5eae14610808578063dd487eba14610831578063e017b5891461085a578063e210f33014610883578063fa8d3a22146108c757610230565b8063c213321314610756578063c300db4714610781578063c55dae63146107aa578063cd84593b146107d5578063d0e30db0146107fe57610230565b8063a85ef678116100f2578063a85ef6781461069d578063aa6ca808146106a7578063bbdf680d146106d2578063be5d69ae146106fb578063c19d93fb1461072757610230565b8063905449841461059957806392a86e1a146105da5780639342cb8f146106055780639c1faa3514610649578063a0bfa1e01461067257610230565b80632e1a7d4d116101bc5780635493458d116101805780635493458d146104b257806355a31dd8146104db57806367e3c4d41461050657806368398209146105315780636e7ddea81461055c57610230565b80632e1a7d4d146103c857806331243ba8146103f157806346d75c8c1461041a5780634e2d251a146104435780634f0e0ef31461048757610230565b80631865c57d116102035780631865c57d1461030557806319d0a9a2146103305780631a0387a51461035b5780631d8557d714610386578063257aff351461039d57610230565b8063025abd581461023557806306fdde03146102725780630f137b5b1461029d57806311973f13146102c8575b600080fd5b34801561024157600080fd5b5061025c60048036038101906102579190614745565b6108f2565b60405161026991906147a7565b60405180910390f35b34801561027e57600080fd5b506102876109ca565b604051610294919061484a565b60405180910390f35b3480156102a957600080fd5b506102b2610a58565b6040516102bf91906147a7565b60405180910390f35b3480156102d457600080fd5b506102ef60048036038101906102ea91906148ca565b610a5e565b6040516102fc9190614aeb565b60405180910390f35b34801561031157600080fd5b5061031a610c62565b6040516103279190614baf565b60405180910390f35b34801561033c57600080fd5b50610345610ed8565b6040516103529190614bf2565b60405180910390f35b34801561036757600080fd5b50610370610efe565b60405161037d9190614e69565b60405180910390f35b34801561039257600080fd5b5061039b611139565b005b3480156103a957600080fd5b506103b26119aa565b6040516103bf919061484a565b60405180910390f35b3480156103d457600080fd5b506103ef60048036038101906103ea9190614eb7565b611a38565b005b3480156103fd57600080fd5b5061041860048036038101906104139190614fca565b6120bd565b005b34801561042657600080fd5b50610441600480360381019061043c9190614745565b6123b3565b005b34801561044f57600080fd5b5061046a60048036038101906104659190614745565b6123d3565b60405161047e989796959493929190615044565b60405180910390f35b34801561049357600080fd5b5061049c6124d9565b6040516104a991906150c9565b60405180910390f35b3480156104be57600080fd5b506104d960048036038101906104d4919061522e565b6124ff565b005b3480156104e757600080fd5b506104f0612587565b6040516104fd91906150c9565b60405180910390f35b34801561051257600080fd5b5061051b6125ad565b60405161052891906152d6565b60405180910390f35b34801561053d57600080fd5b506105466125d1565b60405161055391906147a7565b60405180910390f35b34801561056857600080fd5b50610583600480360381019061057e9190614eb7565b6126d9565b604051610590919061484a565b60405180910390f35b3480156105a557600080fd5b506105c060048036038101906105bb9190614eb7565b612785565b6040516105d19594939291906152f1565b60405180910390f35b3480156105e657600080fd5b506105ef612853565b6040516105fc919061540d565b60405180910390f35b34801561061157600080fd5b5061062c60048036038101906106279190614eb7565b6129e2565b604051610640989796959493929190615044565b60405180910390f35b34801561065557600080fd5b50610670600480360381019061066b91906154f2565b612ae2565b005b34801561067e57600080fd5b50610687612d2b565b604051610694919061484a565b60405180910390f35b6106a5612dc3565b005b3480156106b357600080fd5b506106bc612eae565b6040516106c9919061562c565b60405180910390f35b3480156106de57600080fd5b506106f960048036038101906106f49190614745565b612f87565b005b34801561070757600080fd5b50610710612fa7565b60405161071e9291906156ac565b60405180910390f35b34801561073357600080fd5b5061073c613201565b60405161074d9594939291906152f1565b60405180910390f35b34801561076257600080fd5b5061076b6132ad565b60405161077891906147a7565b60405180910390f35b34801561078d57600080fd5b506107a860048036038101906107a391906156e3565b6133b5565b005b3480156107b657600080fd5b506107bf6134e5565b6040516107cc919061484a565b60405180910390f35b3480156107e157600080fd5b506107fc60048036038101906107f79190615764565b613573565b005b61080661363c565b005b34801561081457600080fd5b5061082f600480360381019061082a9190615896565b613832565b005b34801561083d57600080fd5b5061085860048036038101906108539190614745565b613e85565b005b34801561086657600080fd5b50610881600480360381019061087c91906148ca565b613ea2565b005b34801561088f57600080fd5b506108aa60048036038101906108a59190615921565b613ee5565b6040516108be989796959493929190615044565b60405180910390f35b3480156108d357600080fd5b506108dc613ffe565b6040516108e9919061484a565b60405180910390f35b600080600e83604051610905919061599d565b908152602001604051809103902060000160009054906101000a900473ffffffffffffffffffffffffffffffffffffffff1690508073ffffffffffffffffffffffffffffffffffffffff166370a08231306040518263ffffffff1660e01b815260040161097291906150c9565b60206040518083038186803b15801561098a57600080fd5b505afa15801561099e573d6000803e3d6000fd5b505050506040513d601f19601f820116820180604052508101906109c291906159c9565b915050919050565b600180546109d790615a25565b80601f0160208091040260200160405190810160405280929190818152602001828054610a0390615a25565b8015610a505780601f10610a2557610100808354040283529160200191610a50565b820191906000526020600020905b815481529060010190602001808311610a3357829003601f168201915b505050505081565b60185481565b606060008060009054906101000a900473ffffffffffffffffffffffffffffffffffffffff1673ffffffffffffffffffffffffffffffffffffffff16633d7660e6846040518263ffffffff1660e01b8152600401610abc91906150c9565b60006040518083038186803b158015610ad457600080fd5b505afa158015610ae8573d6000803e3d6000fd5b505050506040513d6000823e3d601f19601f82011682018060405250810190610b119190615ce4565b905060005b8151811015610c58576000828281518110610b3457610b33615d2d565b5b60200260200101516060015160200151601260010154610b549190615d8b565b90506000811015610b9a576040517f08c379a0000000000000000000000000000000000000000000000000000000008152600401610b9190615e31565b60405180910390fd5b6000838381518110610baf57610bae615d2d565b5b6020026020010151606001516000015160185483601260000154610bd39190615d8b565b610bdd9190615e51565b610be79190615eda565b9050601854848481518110610bff57610bfe615d2d565b5b60200260200101516000015182610c169190615e51565b610c209190615eda565b848481518110610c3357610c32615d2d565b5b6020026020010151602001818152505050508080610c5090615f0b565b915050610b16565b5080915050919050565b610c6a614244565b6002604051806040016040529081600082018054610c8790615a25565b80601f0160208091040260200160405190810160405280929190818152602001828054610cb390615a25565b8015610d005780601f10610cd557610100808354040283529160200191610d00565b820191906000526020600020905b815481529060010190602001808311610ce357829003601f168201915b5050505050815260200160018201604051806060016040529081600082018054610d2990615a25565b80601f0160208091040260200160405190810160405280929190818152602001828054610d5590615a25565b8015610da25780601f10610d7757610100808354040283529160200191610da2565b820191906000526020600020905b815481529060010190602001808311610d8557829003601f168201915b50505050508152602001600182018054610dbb90615a25565b80601f0160208091040260200160405190810160405280929190818152602001828054610de790615a25565b8015610e345780601f10610e0957610100808354040283529160200191610e34565b820191906000526020600020905b815481529060010190602001808311610e1757829003601f168201915b50505050508152602001600282018054610e4d90615a25565b80601f0160208091040260200160405190810160405280929190818152602001828054610e7990615a25565b8015610ec65780601f10610e9b57610100808354040283529160200191610ec6565b820191906000526020600020905b815481529060010190602001808311610ea957829003601f168201915b50505050508152505081525050905090565b600a60009054906101000a900473ffffffffffffffffffffffffffffffffffffffff1681565b6060600060108054905067ffffffffffffffff811115610f2157610f2061461a565b5b604051908082528060200260200182016040528015610f5457816020015b6060815260200190600190039081610f3f5790505b50905060005b6010805490508110156111315760108181548110610f7b57610f7a615d2d565b5b90600052602060002001805480602002602001604051908101604052809291908181526020016000905b828210156110fc5783829060005260206000209060080201604051806101000160405290816000820160009054906101000a900473ffffffffffffffffffffffffffffffffffffffff1673ffffffffffffffffffffffffffffffffffffffff1673ffffffffffffffffffffffffffffffffffffffff16815260200160018201805461102f90615a25565b80601f016020809104026020016040519081016040528092919081815260200182805461105b90615a25565b80156110a85780601f1061107d576101008083540402835291602001916110a8565b820191906000526020600020905b81548152906001019060200180831161108b57829003601f168201915b50505050508152602001600282015481526020016003820154815260200160048201548152602001600582015481526020016006820154815260200160078201548152505081526020019060010190610fa5565b5050505082828151811061111357611112615d2d565b5b6020026020010181905250808061112990615f0b565b915050610f5a565b508091505090565b60006012600001819055504360126003018190555060005b6011805490508110156115925760006011828154811061117457611173615d2d565b5b906000526020600020019050600061121482805461119190615a25565b80601f01602080910402602001604051908101604052809291908181526020018280546111bd90615a25565b801561120a5780601f106111df5761010080835404028352916020019161120a565b820191906000526020600020905b8154815290600101906020018083116111ed57829003601f168201915b50505050506108f2565b90506000600267ffffffffffffffff8111156112335761123261461a565b5b6040519080825280602002602001820160405280156112615781602001602082028036833780820191505090505b509050600e836040516112749190615fe8565b908152602001604051809103902060000160009054906101000a900473ffffffffffffffffffffffffffffffffffffffff16816000815181106112ba576112b9615d2d565b5b602002602001019073ffffffffffffffffffffffffffffffffffffffff16908173ffffffffffffffffffffffffffffffffffffffff1681525050600e60126004016040516113089190616093565b908152602001604051809103902060000160009054906101000a900473ffffffffffffffffffffffffffffffffffffffff168160018151811061134e5761134d615d2d565b5b602002602001019073ffffffffffffffffffffffffffffffffffffffff16908173ffffffffffffffffffffffffffffffffffffffff168152505081600e846040516113999190615fe8565b908152602001604051809103902060030181905550600082111561157c57806001815181106113cb576113ca615d2d565b5b602002602001015173ffffffffffffffffffffffffffffffffffffffff16816000815181106113fd576113fc615d2d565b5b602002602001015173ffffffffffffffffffffffffffffffffffffffff161461151757600b60009054906101000a900473ffffffffffffffffffffffffffffffffffffffff1673ffffffffffffffffffffffffffffffffffffffff1663d06ca61f83836040518363ffffffff1660e01b815260040161147d929190616159565b60006040518083038186803b15801561149557600080fd5b505afa1580156114a9573d6000803e3d6000fd5b505050506040513d6000823e3d601f19601f820116820180604052508101906114d29190616220565b6001815181106114e5576114e4615d2d565b5b6020026020010151600e846040516114fd9190615fe8565b90815260200160405180910390206002018190555061153e565b81600e846040516115289190615fe8565b9081526020016040518091039020600201819055505b600e8360405161154e9190615fe8565b908152602001604051809103902060020154601260000160008282546115749190616269565b925050819055505b505050808061158a90615f0b565b915050611151565b5060005b6011805490508110156118c05760016012600001546115b59190616269565b601854600e601184815481106115ce576115cd615d2d565b5b906000526020600020016040516115e59190616093565b9081526020016040518091039020600201546116019190615e51565b61160b9190615eda565b600e6011838154811061162157611620615d2d565b5b906000526020600020016040516116389190616093565b908152602001604051809103902060040181905550600f80549050811061178957600f600e6011838154811061167157611670615d2d565b5b906000526020600020016040516116889190616093565b908152602001604051809103902090806001815401808255809150506001900390600052602060002090600802016000909190919091506000820160009054906101000a900473ffffffffffffffffffffffffffffffffffffffff168160000160006101000a81548173ffffffffffffffffffffffffffffffffffffffff021916908373ffffffffffffffffffffffffffffffffffffffff160217905550600182018160010190805461173a90615a25565b611745929190614264565b5060028201548160020155600382015481600301556004820154816004015560058201548160050155600682015481600601556007820154816007015550506118ad565b600e6011828154811061179f5761179e615d2d565b5b906000526020600020016040516117b69190616093565b9081526020016040518091039020600f82815481106117d8576117d7615d2d565b5b90600052602060002090600802016000820160009054906101000a900473ffffffffffffffffffffffffffffffffffffffff168160000160006101000a81548173ffffffffffffffffffffffffffffffffffffffff021916908373ffffffffffffffffffffffffffffffffffffffff160217905550600182018160010190805461186190615a25565b61186c929190614264565b506002820154816002015560038201548160030155600482015481600401556005820154816005015560068201548160060155600782015481600701559050505b80806118b890615f0b565b915050611596565b506010600f908060018154018082558091505060019003906000526020600020016000909190919091509080546118f89291906142f1565b5060176012908060018154018082558091505060019003906000526020600020906005020160009091909190915060008201548160000155600182015481600101556002820154816002015560038201548160030155600482018160040190805461196290615a25565b61196d929190614264565b5050507f29eb3e5b78a72b1e23647a2447ea2184d402e3ef9ddeee0ed6d0610d2a58537260126040516119a09190616413565b60405180910390a1565b600680546119b790615a25565b80601f01602080910402602001604051908101604052809291908181526020018280546119e390615a25565b8015611a305780601f10611a0557610100808354040283529160200191611a30565b820191906000526020600020905b815481529060010190602001808311611a1357829003601f168201915b505050505081565b601854811115611a485760185490505b611a50611139565b60008060009054906101000a900473ffffffffffffffffffffffffffffffffffffffff1673ffffffffffffffffffffffffffffffffffffffff16632cc34a62336040518263ffffffff1660e01b8152600401611aac91906150c9565b60006040518083038186803b158015611ac457600080fd5b505afa158015611ad8573d6000803e3d6000fd5b505050506040513d6000823e3d601f19601f82011682018060405250810190611b01919061648d565b90506000611b0e33610a5e565b905060005b81518110156120b75760185484838381518110611b3357611b32615d2d565b5b602002602001015160200151611b499190615e51565b611b539190615eda565b828281518110611b6657611b65615d2d565b5b602002602001015160200181815250506000601260000154601854848481518110611b9457611b93615d2d565b5b602002602001015160200151611baa9190615e51565b611bb49190615eda565b905060005b601180549050811015611ebb576000600e60118381548110611bde57611bdd615d2d565b5b90600052602060002001604051611bf59190616093565b90815260200160405180910390206003015490507f6bcbf9e304d3c345bbd2288549950e709e5df8a1cf3b331680de7ae080db3d2a3360118481548110611c3f57611c3e615d2d565b5b906000526020600020018584604051611c5b9493929190616556565b60405180910390a16000811115611ea7576000600e60118481548110611c8457611c83615d2d565b5b90600052602060002001604051611c9b9190616093565b908152602001604051809103902060020154905060006018548584611cc09190615e51565b611cca9190615eda565b905060006018548684611cdd9190615e51565b611ce79190615eda565b9050600e60118681548110611cff57611cfe615d2d565b5b90600052602060002001604051611d169190616093565b908152602001604051809103902060000160009054906101000a900473ffffffffffffffffffffffffffffffffffffffff1673ffffffffffffffffffffffffffffffffffffffff1663a9059cbb33846040518363ffffffff1660e01b8152600401611d829291906165a2565b602060405180830381600087803b158015611d9c57600080fd5b505af1158015611db0573d6000803e3d6000fd5b505050506040513d601f19601f82011682018060405250810190611dd491906165e0565b50601854888881518110611deb57611dea615d2d565b5b6020026020010151600001518b601854611e059190615d8b565b611e0f9190615e51565b611e199190615eda565b888881518110611e2c57611e2b615d2d565b5b60200260200101516000018181525050601854888881518110611e5257611e51615d2d565b5b6020026020010151602001518b601854611e6c9190615d8b565b611e769190615e51565b611e809190615eda565b888881518110611e9357611e92615d2d565b5b602002602001015160200181815250505050505b508080611eb390615f0b565b915050611bb9565b506000838381518110611ed157611ed0615d2d565b5b6020026020010151600001511415611f915760008054906101000a900473ffffffffffffffffffffffffffffffffffffffff1673ffffffffffffffffffffffffffffffffffffffff166342966c6885600001518481518110611f3657611f35615d2d565b5b60200260200101516040518263ffffffff1660e01b8152600401611f5a91906147a7565b600060405180830381600087803b158015611f7457600080fd5b505af1158015611f88573d6000803e3d6000fd5b505050506120a3565b6000838381518110611fa657611fa5615d2d565b5b60200260200101516000015111156120a25743838381518110611fcc57611fcb615d2d565b5b6020026020010151604001818152505060008054906101000a900473ffffffffffffffffffffffffffffffffffffffff1673ffffffffffffffffffffffffffffffffffffffff166346e5573e8560000151848151811061202f5761202e615d2d565b5b602002602001015185858151811061204a57612049615d2d565b5b60200260200101516040518363ffffffff1660e01b815260040161206f929190616670565b600060405180830381600087803b15801561208957600080fd5b505af115801561209d573d6000803e3d6000fd5b505050505b5b5080806120af90615f0b565b915050611b13565b50505050565b6000825167ffffffffffffffff8111156120da576120d961461a565b5b6040519080825280602002602001820160405280156121085781602001602082028036833780820191505090505b50905060005b815181101561225d57600e84828151811061212c5761212b615d2d565b5b6020026020010151604051612141919061599d565b908152602001604051809103902060000160009054906101000a900473ffffffffffffffffffffffffffffffffffffffff1682828151811061218657612185615d2d565b5b602002602001019073ffffffffffffffffffffffffffffffffffffffff16908173ffffffffffffffffffffffffffffffffffffffff1681525050600073ffffffffffffffffffffffffffffffffffffffff168282815181106121eb576121ea615d2d565b5b602002602001015173ffffffffffffffffffffffffffffffffffffffff16141561224a576040517f08c379a000000000000000000000000000000000000000000000000000000000815260040161224190616738565b60405180910390fd5b808061225590615f0b565b91505061210e565b507f75a464f58860044bcb7b0ddbde1c4c37c4d04db7626764710e98132327a830ef838360405161228f929190616758565b60405180910390a16122df816000815181106122ae576122ad615d2d565b5b6020026020010151600b60009054906101000a900473ffffffffffffffffffffffffffffffffffffffff1684614096565b6000612710426122ef9190616269565b9050600b60009054906101000a900473ffffffffffffffffffffffffffffffffffffffff1673ffffffffffffffffffffffffffffffffffffffff166338ed17398460008530866040518663ffffffff1660e01b81526004016123559594939291906167c3565b600060405180830381600087803b15801561236f57600080fd5b505af1158015612383573d6000803e3d6000fd5b505050506040513d6000823e3d601f19601f820116820180604052508101906123ac9190616220565b5050505050565b80600260010160010190805190602001906123cf92919061440c565b5050565b600e818051602081018201805184825260208301602085012081835280955050505050506000915090508060000160009054906101000a900473ffffffffffffffffffffffffffffffffffffffff169080600101805461243290615a25565b80601f016020809104026020016040519081016040528092919081815260200182805461245e90615a25565b80156124ab5780601f10612480576101008083540402835291602001916124ab565b820191906000526020600020905b81548152906001019060200180831161248e57829003601f168201915b5050505050908060020154908060030154908060040154908060050154908060060154908060070154905088565b600860009054906101000a900473ffffffffffffffffffffffffffffffffffffffff1681565b806002600082015181600001908051906020019061251e92919061440c565b50602082015181600101600082015181600001908051906020019061254492919061440c565b50602082015181600101908051906020019061256192919061440c565b50604082015181600201908051906020019061257e92919061440c565b50505090505050565b600c60009054906101000a900473ffffffffffffffffffffffffffffffffffffffff1681565b60008054906101000a900473ffffffffffffffffffffffffffffffffffffffff1681565b60008060008054906101000a900473ffffffffffffffffffffffffffffffffffffffff1673ffffffffffffffffffffffffffffffffffffffff16633d7660e6336040518263ffffffff1660e01b815260040161262d91906150c9565b60006040518083038186803b15801561264557600080fd5b505afa158015612659573d6000803e3d6000fd5b505050506040513d6000823e3d601f19601f820116820180604052508101906126829190615ce4565b90506000805b82518110156126d0578281815181106126a4576126a3615d2d565b5b602002602001015160000151826126bb9190616269565b915080806126c890615f0b565b915050612688565b50809250505090565b601181815481106126e957600080fd5b90600052602060002001600091509050805461270490615a25565b80601f016020809104026020016040519081016040528092919081815260200182805461273090615a25565b801561277d5780601f106127525761010080835404028352916020019161277d565b820191906000526020600020905b81548152906001019060200180831161276057829003601f168201915b505050505081565b6017818154811061279557600080fd5b90600052602060002090600502016000915090508060000154908060010154908060020154908060030154908060040180546127d090615a25565b80601f01602080910402602001604051908101604052809291908181526020018280546127fc90615a25565b80156128495780601f1061281e57610100808354040283529160200191612849565b820191906000526020600020905b81548152906001019060200180831161282c57829003601f168201915b5050505050905085565b6060600060178054905067ffffffffffffffff8111156128765761287561461a565b5b6040519080825280602002602001820160405280156128af57816020015b61289c614492565b8152602001906001900390816128945790505b50905060005b6017805490508110156129da57601781815481106128d6576128d5615d2d565b5b90600052602060002090600502016040518060a00160405290816000820154815260200160018201548152602001600282015481526020016003820154815260200160048201805461292790615a25565b80601f016020809104026020016040519081016040528092919081815260200182805461295390615a25565b80156129a05780601f10612975576101008083540402835291602001916129a0565b820191906000526020600020905b81548152906001019060200180831161298357829003601f168201915b5050505050815250508282815181106129bc576129bb615d2d565b5b602002602001018190525080806129d290615f0b565b9150506128b5565b508091505090565b600f81815481106129f257600080fd5b90600052602060002090600802016000915090508060000160009054906101000a900473ffffffffffffffffffffffffffffffffffffffff1690806001018054612a3b90615a25565b80601f0160208091040260200160405190810160405280929190818152602001828054612a6790615a25565b8015612ab45780601f10612a8957610100808354040283529160200191612ab4565b820191906000526020600020905b815481529060010190602001808311612a9757829003601f168201915b5050505050908060020154908060030154908060040154908060050154908060060154908060070154905088565b60005b8251811015612d2657600073ffffffffffffffffffffffffffffffffffffffff16600e848381518110612b1b57612b1a615d2d565b5b6020026020010151604051612b30919061599d565b908152602001604051809103902060000160009054906101000a900473ffffffffffffffffffffffffffffffffffffffff1673ffffffffffffffffffffffffffffffffffffffff161415612d1357818181518110612b9157612b90615d2d565b5b6020026020010151600e848381518110612bae57612bad615d2d565b5b6020026020010151604051612bc3919061599d565b908152602001604051809103902060000160006101000a81548173ffffffffffffffffffffffffffffffffffffffff021916908373ffffffffffffffffffffffffffffffffffffffff160217905550828181518110612c2557612c24615d2d565b5b6020026020010151600e848381518110612c4257612c41615d2d565b5b6020026020010151604051612c57919061599d565b90815260200160405180910390206001019080519060200190612c7b92919061440c565b506011838281518110612c9157612c90615d2d565b5b6020026020010151908060018154018082558091505060019003906000526020600020016000909190919091509080519060200190612cd192919061440c565b5080600e848381518110612ce857612ce7615d2d565b5b6020026020010151604051612cfd919061599d565b9081526020016040518091039020600701819055505b8080612d1e90615f0b565b915050612ae5565b505050565b606060026001016001018054612d4090615a25565b80601f0160208091040260200160405190810160405280929190818152602001828054612d6c90615a25565b8015612db95780601f10612d8e57610100808354040283529160200191612db9565b820191906000526020600020905b815481529060010190602001808311612d9c57829003601f168201915b5050505050905090565b600047905060008111612e0b576040517f08c379a0000000000000000000000000000000000000000000000000000000008152600401612e0290616869565b60405180910390fd5b600e604051612e19906168d5565b908152602001604051809103902060000160009054906101000a900473ffffffffffffffffffffffffffffffffffffffff1673ffffffffffffffffffffffffffffffffffffffff1663d0e30db0826040518263ffffffff1660e01b81526004016000604051808303818588803b158015612e9257600080fd5b505af1158015612ea6573d6000803e3d6000fd5b505050505050565b60606011805480602002602001604051908101604052809291908181526020016000905b82821015612f7e578382906000526020600020018054612ef190615a25565b80601f0160208091040260200160405190810160405280929190818152602001828054612f1d90615a25565b8015612f6a5780601f10612f3f57610100808354040283529160200191612f6a565b820191906000526020600020905b815481529060010190602001808311612f4d57829003601f168201915b505050505081526020019060010190612ed2565b50505050905090565b8060026001016000019080519060200190612fa392919061440c565b5050565b6002806000018054612fb890615a25565b80601f0160208091040260200160405190810160405280929190818152602001828054612fe490615a25565b80156130315780601f1061300657610100808354040283529160200191613031565b820191906000526020600020905b81548152906001019060200180831161301457829003601f168201915b5050505050908060010160405180606001604052908160008201805461305690615a25565b80601f016020809104026020016040519081016040528092919081815260200182805461308290615a25565b80156130cf5780601f106130a4576101008083540402835291602001916130cf565b820191906000526020600020905b8154815290600101906020018083116130b257829003601f168201915b505050505081526020016001820180546130e890615a25565b80601f016020809104026020016040519081016040528092919081815260200182805461311490615a25565b80156131615780601f1061313657610100808354040283529160200191613161565b820191906000526020600020905b81548152906001019060200180831161314457829003601f168201915b5050505050815260200160028201805461317a90615a25565b80601f01602080910402602001604051908101604052809291908181526020018280546131a690615a25565b80156131f35780601f106131c8576101008083540402835291602001916131f3565b820191906000526020600020905b8154815290600101906020018083116131d657829003601f168201915b505050505081525050905082565b601280600001549080600101549080600201549080600301549080600401805461322a90615a25565b80601f016020809104026020016040519081016040528092919081815260200182805461325690615a25565b80156132a35780601f10613278576101008083540402835291602001916132a3565b820191906000526020600020905b81548152906001019060200180831161328657829003601f168201915b5050505050905085565b60008060008054906101000a900473ffffffffffffffffffffffffffffffffffffffff1673ffffffffffffffffffffffffffffffffffffffff16633d7660e6336040518263ffffffff1660e01b815260040161330991906150c9565b60006040518083038186803b15801561332157600080fd5b505afa158015613335573d6000803e3d6000fd5b505050506040513d6000823e3d601f19601f8201168201806040525081019061335e9190615ce4565b90506000805b82518110156133ac578281815181106133805761337f615d2d565b5b602002602001015160200151826133979190616269565b915080806133a490615f0b565b915050613364565b50809250505090565b60005b81518110156134e1576000600e8383815181106133d8576133d7615d2d565b5b60200260200101516040516133ed919061599d565b90815260200160405180910390206007015490506011818154811061341557613414615d2d565b5b90600052602060002001600061342b91906144c1565b600e8383815181106134405761343f615d2d565b5b6020026020010151604051613455919061599d565b9081526020016040518091039020600080820160006101000a81549073ffffffffffffffffffffffffffffffffffffffff021916905560018201600061349b91906144c1565b60028201600090556003820160009055600482016000905560058201600090556006820160009055600782016000905550505080806134d990615f0b565b9150506133b8565b5050565b600780546134f290615a25565b80601f016020809104026020016040519081016040528092919081815260200182805461351e90615a25565b801561356b5780601f106135405761010080835404028352916020019161356b565b820191906000526020600020905b81548152906001019060200180831161354e57829003601f168201915b505050505081565b7f75a464f58860044bcb7b0ddbde1c4c37c4d04db7626764710e98132327a830ef83836040516135a4929190616758565b60405180910390a18015613637576000601854836135dc866000815181106135cf576135ce615d2d565b5b60200260200101516108f2565b6135e69190615e51565b6135f09190615eda565b90507f75a464f58860044bcb7b0ddbde1c4c37c4d04db7626764710e98132327a830ef8482604051613623929190616758565b60405180910390a161363584826120bd565b505b505050565b6000341161367f576040517f08c379a000000000000000000000000000000000000000000000000000000000815260040161367690616936565b60405180910390fd5b613687612dc3565b61368f611139565b346012600101546136a09190616269565b6012600101819055506136b1614501565b3481600001818152505080600001518160200181815250504381604001818152505060126040518060a00160405290816000820154815260200160018201548152602001600282015481526020016003820154815260200160048201805461371890615a25565b80601f016020809104026020016040519081016040528092919081815260200182805461374490615a25565b80156137915780601f1061376657610100808354040283529160200191613791565b820191906000526020600020905b81548152906001019060200180831161377457829003601f168201915b505050505081525050816060018190525060008054906101000a900473ffffffffffffffffffffffffffffffffffffffff1673ffffffffffffffffffffffffffffffffffffffff1663b1d1d00b33836040518363ffffffff1660e01b81526004016137fd929190616956565b600060405180830381600087803b15801561381757600080fd5b505af115801561382b573d6000803e3d6000fd5b5050505050565b61383a611139565b6000600267ffffffffffffffff8111156138575761385661461a565b5b60405190808252806020026020018201604052801561388a57816020015b60608152602001906001900390816138755790505b509050606060008060005b8751811015613cc0578781815181106138b1576138b0615d2d565b5b6020026020010151935061395b601260040180546138ce90615a25565b80601f01602080910402602001604051908101604052809291908181526020018280546138fa90615a25565b80156139475780601f1061391c57610100808354040283529160200191613947565b820191906000526020600020905b81548152906001019060200180831161392a57829003601f168201915b5050505050856141eb90919063ffffffff16565b1561396557613cad565b600073ffffffffffffffffffffffffffffffffffffffff16600e8560405161398d919061599d565b908152602001604051809103902060000160009054906101000a900473ffffffffffffffffffffffffffffffffffffffff1673ffffffffffffffffffffffffffffffffffffffff161415613a16576040517f08c379a0000000000000000000000000000000000000000000000000000000008152600401613a0d906169f8565b60405180910390fd5b600e84604051613a26919061599d565b908152602001604051809103902060040154878281518110613a4b57613a4a615d2d565b5b6020026020010151613a5d9190616a18565b92506000600e85604051613a71919061599d565b90815260200160405180910390206003015490506000841215613c0b578486600081518110613aa357613aa2615d2d565b5b602002602001018190525060068054613abb90615a25565b80601f0160208091040260200160405190810160405280929190818152602001828054613ae790615a25565b8015613b345780601f10613b0957610100808354040283529160200191613b34565b820191906000526020600020905b815481529060010190602001808311613b1757829003601f168201915b505050505086600181518110613b4d57613b4c615d2d565b5b6020026020010181905250600e85604051613b68919061599d565b90815260200160405180910390206004015460185485613b889190616aac565b613b929190616bc3565b92506018548184613ba39190616aac565b613bad9190616bc3565b600e86604051613bbd919061599d565b908152602001604051809103902060050181905550613c0686600e87604051613be6919061599d565b908152602001604051809103902060050154613c0190616c2d565b6120bd565b613c4f565b60185460126000015485613c1f9190616aac565b613c299190616bc3565b600e86604051613c39919061599d565b9081526020016040518091039020600501819055505b7f9b0c6cc9262d1c15ce375ddefd7d9b7d501bcf383890fe59fdb2d99370818bfa85600e87604051613c81919061599d565b90815260200160405180910390206005015483604051613ca393929190616c76565b60405180910390a1505b8080613cb890615f0b565b915050613895565b5060005b8751811015613e7357878181518110613ce057613cdf615d2d565b5b60200260200101519350613d8a60126004018054613cfd90615a25565b80601f0160208091040260200160405190810160405280929190818152602001828054613d2990615a25565b8015613d765780601f10613d4b57610100808354040283529160200191613d76565b820191906000526020600020905b815481529060010190602001808311613d5957829003601f168201915b5050505050856141eb90919063ffffffff16565b15613d9457613e60565b6000600e85604051613da6919061599d565b9081526020016040518091039020600501541315613e5f576040518060400160405280600481526020017f574554480000000000000000000000000000000000000000000000000000000081525085600081518110613e0857613e07615d2d565b5b60200260200101819052508385600181518110613e2857613e27615d2d565b5b6020026020010181905250613e5e85600e86604051613e47919061599d565b9081526020016040518091039020600501546120bd565b5b5b8080613e6b90615f0b565b915050613cc4565b50613e7c611139565b50505050505050565b8060126004019080519060200190613e9e92919061440c565b5050565b806000806101000a81548173ffffffffffffffffffffffffffffffffffffffff021916908373ffffffffffffffffffffffffffffffffffffffff16021790555050565b60108281548110613ef557600080fd5b906000526020600020018181548110613f0d57600080fd5b9060005260206000209060080201600091509150508060000160009054906101000a900473ffffffffffffffffffffffffffffffffffffffff1690806001018054613f5790615a25565b80601f0160208091040260200160405190810160405280929190818152602001828054613f8390615a25565b8015613fd05780601f10613fa557610100808354040283529160200191613fd0565b820191906000526020600020905b815481529060010190602001808311613fb357829003601f168201915b5050505050908060020154908060030154908060040154908060050154908060060154908060070154905088565b60606002600101600001805461401390615a25565b80601f016020809104026020016040519081016040528092919081815260200182805461403f90615a25565b801561408c5780601f106140615761010080835404028352916020019161408c565b820191906000526020600020905b81548152906001019060200180831161406f57829003601f168201915b5050505050905090565b6000808473ffffffffffffffffffffffffffffffffffffffff1663095ea7b360e01b85856040516024016140cb9291906165a2565b604051602081830303815290604052907bffffffffffffffffffffffffffffffffffffffffffffffffffffffff19166020820180517bffffffffffffffffffffffffffffffffffffffffffffffffffffffff83818316178352505050506040516141359190616cfb565b6000604051808303816000865af19150503d8060008114614172576040519150601f19603f3d011682016040523d82523d6000602084013e614177565b606091505b50915091508180156141a557506000815114806141a45750808060200190518101906141a391906165e0565b5b5b6141e4576040517f08c379a00000000000000000000000000000000000000000000000000000000081526004016141db90616d5e565b60405180910390fd5b5050505050565b6000816040516020016141fe919061599d565b6040516020818303038152906040528051906020012083604051602001614225919061599d565b6040516020818303038152906040528051906020012014905092915050565b60405180604001604052806060815260200161425e61452f565b81525090565b82805461427090615a25565b90600052602060002090601f01602090048101928261429257600085556142e0565b82601f106142a357805485556142e0565b828001600101855582156142e057600052602060002091601f016020900482015b828111156142df5782548255916001019190600101906142c4565b5b5090506142ed9190614550565b5090565b8280548282559060005260206000209060080281019282156143fb5760005260206000209160080282015b828111156143fa5782826000820160009054906101000a900473ffffffffffffffffffffffffffffffffffffffff168160000160006101000a81548173ffffffffffffffffffffffffffffffffffffffff021916908373ffffffffffffffffffffffffffffffffffffffff16021790555060018201816001019080546143a190615a25565b6143ac929190614264565b5060028201548160020155600382015481600301556004820154816004015560058201548160050155600682015481600601556007820154816007015550509160080191906008019061431c565b5b509050614408919061456d565b5090565b82805461441890615a25565b90600052602060002090601f01602090048101928261443a5760008555614481565b82601f1061445357805160ff1916838001178555614481565b82800160010185558215614481579182015b82811115614480578251825591602001919060010190614465565b5b50905061448e9190614550565b5090565b6040518060a0016040528060008152602001600081526020016000815260200160008152602001606081525090565b5080546144cd90615a25565b6000825580601f106144df57506144fe565b601f0160209004906000526020600020908101906144fd9190614550565b5b50565b6040518060800160405280600081526020016000815260200160008152602001614529614492565b81525090565b60405180606001604052806060815260200160608152602001606081525090565b5b80821115614569576000816000905550600101614551565b5090565b5b808211156145e757600080820160006101000a81549073ffffffffffffffffffffffffffffffffffffffff02191690556001820160006145ae91906144c1565b6002820160009055600382016000905560048201600090556005820160009055600682016000905560078201600090555060080161456e565b5090565b6000604051905090565b600080fd5b600080fd5b600080fd5b600080fd5b6000601f19601f8301169050919050565b7f4e487b7100000000000000000000000000000000000000000000000000000000600052604160045260246000fd5b61465282614609565b810181811067ffffffffffffffff821117156146715761467061461a565b5b80604052505050565b60006146846145eb565b90506146908282614649565b919050565b600067ffffffffffffffff8211156146b0576146af61461a565b5b6146b982614609565b9050602081019050919050565b82818337600083830152505050565b60006146e86146e384614695565b61467a565b90508281526020810184848401111561470457614703614604565b5b61470f8482856146c6565b509392505050565b600082601f83011261472c5761472b6145ff565b5b813561473c8482602086016146d5565b91505092915050565b60006020828403121561475b5761475a6145f5565b5b600082013567ffffffffffffffff811115614779576147786145fa565b5b61478584828501614717565b91505092915050565b6000819050919050565b6147a18161478e565b82525050565b60006020820190506147bc6000830184614798565b92915050565b600081519050919050565b600082825260208201905092915050565b60005b838110156147fc5780820151818401526020810190506147e1565b8381111561480b576000848401525b50505050565b600061481c826147c2565b61482681856147cd565b93506148368185602086016147de565b61483f81614609565b840191505092915050565b600060208201905081810360008301526148648184614811565b905092915050565b600073ffffffffffffffffffffffffffffffffffffffff82169050919050565b60006148978261486c565b9050919050565b6148a78161488c565b81146148b257600080fd5b50565b6000813590506148c48161489e565b92915050565b6000602082840312156148e0576148df6145f5565b5b60006148ee848285016148b5565b91505092915050565b600081519050919050565b600082825260208201905092915050565b6000819050602082019050919050565b61492c8161478e565b82525050565b600082825260208201905092915050565b600061494e826147c2565b6149588185614932565b93506149688185602086016147de565b61497181614609565b840191505092915050565b600060a0830160008301516149946000860182614923565b5060208301516149a76020860182614923565b5060408301516149ba6040860182614923565b5060608301516149cd6060860182614923565b50608083015184820360808601526149e58282614943565b9150508091505092915050565b6000608083016000830151614a0a6000860182614923565b506020830151614a1d6020860182614923565b506040830151614a306040860182614923565b5060608301518482036060860152614a48828261497c565b9150508091505092915050565b6000614a6183836149f2565b905092915050565b6000602082019050919050565b6000614a81826148f7565b614a8b8185614902565b935083602082028501614a9d85614913565b8060005b85811015614ad95784840389528151614aba8582614a55565b9450614ac583614a69565b925060208a01995050600181019050614aa1565b50829750879550505050505092915050565b60006020820190508181036000830152614b058184614a76565b905092915050565b60006060830160008301518482036000860152614b2a8282614943565b91505060208301518482036020860152614b448282614943565b91505060408301518482036040860152614b5e8282614943565b9150508091505092915050565b60006040830160008301518482036000860152614b888282614943565b91505060208301518482036020860152614ba28282614b0d565b9150508091505092915050565b60006020820190508181036000830152614bc98184614b6b565b905092915050565b6000614bdc8261486c565b9050919050565b614bec81614bd1565b82525050565b6000602082019050614c076000830184614be3565b92915050565b600081519050919050565b600082825260208201905092915050565b6000819050602082019050919050565b600081519050919050565b600082825260208201905092915050565b6000819050602082019050919050565b614c6e8161488c565b82525050565b6000819050919050565b614c8781614c74565b82525050565b600061010083016000830151614ca66000860182614c65565b5060208301518482036020860152614cbe8282614943565b9150506040830151614cd36040860182614923565b506060830151614ce66060860182614923565b506080830151614cf96080860182614923565b5060a0830151614d0c60a0860182614c7e565b5060c0830151614d1f60c0860182614c7e565b5060e0830151614d3260e0860182614923565b508091505092915050565b6000614d498383614c8d565b905092915050565b6000602082019050919050565b6000614d6982614c39565b614d738185614c44565b935083602082028501614d8585614c55565b8060005b85811015614dc15784840389528151614da28582614d3d565b9450614dad83614d51565b925060208a01995050600181019050614d89565b50829750879550505050505092915050565b6000614ddf8383614d5e565b905092915050565b6000602082019050919050565b6000614dff82614c0d565b614e098185614c18565b935083602082028501614e1b85614c29565b8060005b85811015614e575784840389528151614e388582614dd3565b9450614e4383614de7565b925060208a01995050600181019050614e1f565b50829750879550505050505092915050565b60006020820190508181036000830152614e838184614df4565b905092915050565b614e948161478e565b8114614e9f57600080fd5b50565b600081359050614eb181614e8b565b92915050565b600060208284031215614ecd57614ecc6145f5565b5b6000614edb84828501614ea2565b91505092915050565b600067ffffffffffffffff821115614eff57614efe61461a565b5b602082029050602081019050919050565b600080fd5b6000614f28614f2384614ee4565b61467a565b90508083825260208201905060208402830185811115614f4b57614f4a614f10565b5b835b81811015614f9257803567ffffffffffffffff811115614f7057614f6f6145ff565b5b808601614f7d8982614717565b85526020850194505050602081019050614f4d565b5050509392505050565b600082601f830112614fb157614fb06145ff565b5b8135614fc1848260208601614f15565b91505092915050565b60008060408385031215614fe157614fe06145f5565b5b600083013567ffffffffffffffff811115614fff57614ffe6145fa565b5b61500b85828601614f9c565b925050602061501c85828601614ea2565b9150509250929050565b61502f8161488c565b82525050565b61503e81614c74565b82525050565b60006101008201905061505a600083018b615026565b818103602083015261506c818a614811565b905061507b6040830189614798565b6150886060830188614798565b6150956080830187614798565b6150a260a0830186615035565b6150af60c0830185615035565b6150bc60e0830184614798565b9998505050505050505050565b60006020820190506150de6000830184615026565b92915050565b600080fd5b600080fd5b600060608284031215615104576151036150e4565b5b61510e606061467a565b9050600082013567ffffffffffffffff81111561512e5761512d6150e9565b5b61513a84828501614717565b600083015250602082013567ffffffffffffffff81111561515e5761515d6150e9565b5b61516a84828501614717565b602083015250604082013567ffffffffffffffff81111561518e5761518d6150e9565b5b61519a84828501614717565b60408301525092915050565b6000604082840312156151bc576151bb6150e4565b5b6151c6604061467a565b9050600082013567ffffffffffffffff8111156151e6576151e56150e9565b5b6151f284828501614717565b600083015250602082013567ffffffffffffffff811115615216576152156150e9565b5b615222848285016150ee565b60208301525092915050565b600060208284031215615244576152436145f5565b5b600082013567ffffffffffffffff811115615262576152616145fa565b5b61526e848285016151a6565b91505092915050565b6000819050919050565b600061529c6152976152928461486c565b615277565b61486c565b9050919050565b60006152ae82615281565b9050919050565b60006152c0826152a3565b9050919050565b6152d0816152b5565b82525050565b60006020820190506152eb60008301846152c7565b92915050565b600060a0820190506153066000830188614798565b6153136020830187614798565b6153206040830186614798565b61532d6060830185614798565b818103608083015261533f8184614811565b90509695505050505050565b600081519050919050565b600082825260208201905092915050565b6000819050602082019050919050565b6000615383838361497c565b905092915050565b6000602082019050919050565b60006153a38261534b565b6153ad8185615356565b9350836020820285016153bf85615367565b8060005b858110156153fb57848403895281516153dc8582615377565b94506153e78361538b565b925060208a019950506001810190506153c3565b50829750879550505050505092915050565b600060208201905081810360008301526154278184615398565b905092915050565b600067ffffffffffffffff82111561544a5761544961461a565b5b602082029050602081019050919050565b600061546e6154698461542f565b61467a565b9050808382526020820190506020840283018581111561549157615490614f10565b5b835b818110156154ba57806154a688826148b5565b845260208401935050602081019050615493565b5050509392505050565b600082601f8301126154d9576154d86145ff565b5b81356154e984826020860161545b565b91505092915050565b60008060408385031215615509576155086145f5565b5b600083013567ffffffffffffffff811115615527576155266145fa565b5b61553385828601614f9c565b925050602083013567ffffffffffffffff811115615554576155536145fa565b5b615560858286016154c4565b9150509250929050565b600081519050919050565b600082825260208201905092915050565b6000819050602082019050919050565b60006155a28383614943565b905092915050565b6000602082019050919050565b60006155c28261556a565b6155cc8185615575565b9350836020820285016155de85615586565b8060005b8581101561561a57848403895281516155fb8582615596565b9450615606836155aa565b925060208a019950506001810190506155e2565b50829750879550505050505092915050565b6000602082019050818103600083015261564681846155b7565b905092915050565b6000606083016000830151848203600086015261566b8282614943565b915050602083015184820360208601526156858282614943565b9150506040830151848203604086015261569f8282614943565b9150508091505092915050565b600060408201905081810360008301526156c68185614811565b905081810360208301526156da818461564e565b90509392505050565b6000602082840312156156f9576156f86145f5565b5b600082013567ffffffffffffffff811115615717576157166145fa565b5b61572384828501614f9c565b91505092915050565b60008115159050919050565b6157418161572c565b811461574c57600080fd5b50565b60008135905061575e81615738565b92915050565b60008060006060848603121561577d5761577c6145f5565b5b600084013567ffffffffffffffff81111561579b5761579a6145fa565b5b6157a786828701614f9c565b93505060206157b886828701614ea2565b92505060406157c98682870161574f565b9150509250925092565b600067ffffffffffffffff8211156157ee576157ed61461a565b5b602082029050602081019050919050565b600061581261580d846157d3565b61467a565b9050808382526020820190506020840283018581111561583557615834614f10565b5b835b8181101561585e578061584a8882614ea2565b845260208401935050602081019050615837565b5050509392505050565b600082601f83011261587d5761587c6145ff565b5b813561588d8482602086016157ff565b91505092915050565b6000806000606084860312156158af576158ae6145f5565b5b600084013567ffffffffffffffff8111156158cd576158cc6145fa565b5b6158d986828701614f9c565b935050602084013567ffffffffffffffff8111156158fa576158f96145fa565b5b61590686828701615868565b92505060406159178682870161574f565b9150509250925092565b60008060408385031215615938576159376145f5565b5b600061594685828601614ea2565b925050602061595785828601614ea2565b9150509250929050565b600081905092915050565b6000615977826147c2565b6159818185615961565b93506159918185602086016147de565b80840191505092915050565b60006159a9828461596c565b915081905092915050565b6000815190506159c381614e8b565b92915050565b6000602082840312156159df576159de6145f5565b5b60006159ed848285016159b4565b91505092915050565b7f4e487b7100000000000000000000000000000000000000000000000000000000600052602260045260246000fd5b60006002820490506001821680615a3d57607f821691505b60208210811415615a5157615a506159f6565b5b50919050565b600067ffffffffffffffff821115615a7257615a7161461a565b5b602082029050602081019050919050565b6000615a96615a9184614695565b61467a565b905082815260208101848484011115615ab257615ab1614604565b5b615abd8482856147de565b509392505050565b600082601f830112615ada57615ad96145ff565b5b8151615aea848260208601615a83565b91505092915050565b600060a08284031215615b0957615b086150e4565b5b615b1360a061467a565b90506000615b23848285016159b4565b6000830152506020615b37848285016159b4565b6020830152506040615b4b848285016159b4565b6040830152506060615b5f848285016159b4565b606083015250608082015167ffffffffffffffff811115615b8357615b826150e9565b5b615b8f84828501615ac5565b60808301525092915050565b600060808284031215615bb157615bb06150e4565b5b615bbb608061467a565b90506000615bcb848285016159b4565b6000830152506020615bdf848285016159b4565b6020830152506040615bf3848285016159b4565b604083015250606082015167ffffffffffffffff811115615c1757615c166150e9565b5b615c2384828501615af3565b60608301525092915050565b6000615c42615c3d84615a57565b61467a565b90508083825260208201905060208402830185811115615c6557615c64614f10565b5b835b81811015615cac57805167ffffffffffffffff811115615c8a57615c896145ff565b5b808601615c978982615b9b565b85526020850194505050602081019050615c67565b5050509392505050565b600082601f830112615ccb57615cca6145ff565b5b8151615cdb848260208601615c2f565b91505092915050565b600060208284031215615cfa57615cf96145f5565b5b600082015167ffffffffffffffff811115615d1857615d176145fa565b5b615d2484828501615cb6565b91505092915050565b7f4e487b7100000000000000000000000000000000000000000000000000000000600052603260045260246000fd5b7f4e487b7100000000000000000000000000000000000000000000000000000000600052601160045260246000fd5b6000615d968261478e565b9150615da18361478e565b925082821015615db457615db3615d5c565b5b828203905092915050565b7f20746f74616c206465706f7369742076616c75652073686f756c64206265206760008201527f726561746572207468616e20746f6b656e206465706f7369742076616c756520602082015250565b6000615e1b6040836147cd565b9150615e2682615dbf565b604082019050919050565b60006020820190508181036000830152615e4a81615e0e565b9050919050565b6000615e5c8261478e565b9150615e678361478e565b9250817fffffffffffffffffffffffffffffffffffffffffffffffffffffffffffffffff0483118215151615615ea057615e9f615d5c565b5b828202905092915050565b7f4e487b7100000000000000000000000000000000000000000000000000000000600052601260045260246000fd5b6000615ee58261478e565b9150615ef08361478e565b925082615f0057615eff615eab565b5b828204905092915050565b6000615f168261478e565b91507fffffffffffffffffffffffffffffffffffffffffffffffffffffffffffffffff821415615f4957615f48615d5c565b5b600182019050919050565b60008190508160005260206000209050919050565b60008154615f7681615a25565b615f808186615961565b94506001821660008114615f9b5760018114615fac57615fdf565b60ff19831686528186019350615fdf565b615fb585615f54565b60005b83811015615fd757815481890152600182019150602081019050615fb8565b838801955050505b50505092915050565b6000615ff48284615f69565b915081905092915050565b60008190508160005260206000209050919050565b6000815461602181615a25565b61602b8186615961565b9450600182166000811461604657600181146160575761608a565b60ff1983168652818601935061608a565b61606085615fff565b60005b8381101561608257815481890152600182019150602081019050616063565b838801955050505b50505092915050565b600061609f8284616014565b915081905092915050565b600081519050919050565b600082825260208201905092915050565b6000819050602082019050919050565b60006160e28383614c65565b60208301905092915050565b6000602082019050919050565b6000616106826160aa565b61611081856160b5565b935061611b836160c6565b8060005b8381101561614c57815161613388826160d6565b975061613e836160ee565b92505060018101905061611f565b5085935050505092915050565b600060408201905061616e6000830185614798565b818103602083015261618081846160fb565b90509392505050565b600061619c616197846157d3565b61467a565b905080838252602082019050602084028301858111156161bf576161be614f10565b5b835b818110156161e857806161d488826159b4565b8452602084019350506020810190506161c1565b5050509392505050565b600082601f830112616207576162066145ff565b5b8151616217848260208601616189565b91505092915050565b600060208284031215616236576162356145f5565b5b600082015167ffffffffffffffff811115616254576162536145fa565b5b616260848285016161f2565b91505092915050565b60006162748261478e565b915061627f8361478e565b9250827fffffffffffffffffffffffffffffffffffffffffffffffffffffffffffffffff038211156162b4576162b3615d5c565b5b828201905092915050565b60008160001c9050919050565b6000819050919050565b60006162e96162e4836162bf565b6162cc565b9050919050565b600081546162fd81615a25565b6163078186614932565b94506001821660008114616322576001811461633457616367565b60ff1983168652602086019350616367565b61633d85615fff565b60005b8381101561635f57815481890152600182019150602081019050616340565b808801955050505b50505092915050565b600060a083016000808401549050616387816162d6565b6163946000870182614923565b50600184015490506163a5816162d6565b6163b26020870182614923565b50600284015490506163c3816162d6565b6163d06040870182614923565b50600384015490506163e1816162d6565b6163ee6060870182614923565b5060048401858303608087015261640583826162f0565b925050819250505092915050565b6000602082019050818103600083015261642d8184616370565b905092915050565b60006020828403121561644b5761644a6150e4565b5b616455602061467a565b9050600082015167ffffffffffffffff811115616475576164746150e9565b5b616481848285016161f2565b60008301525092915050565b6000602082840312156164a3576164a26145f5565b5b600082015167ffffffffffffffff8111156164c1576164c06145fa565b5b6164cd84828501616435565b91505092915050565b600081546164e381615a25565b6164ed81866147cd565b94506001821660008114616508576001811461651a5761654d565b60ff198316865260208601935061654d565b61652385615fff565b60005b8381101561654557815481890152600182019150602081019050616526565b808801955050505b50505092915050565b600060808201905061656b6000830187615026565b818103602083015261657d81866164d6565b905061658c6040830185614798565b6165996060830184614798565b95945050505050565b60006040820190506165b76000830185615026565b6165c46020830184614798565b9392505050565b6000815190506165da81615738565b92915050565b6000602082840312156165f6576165f56145f5565b5b6000616604848285016165cb565b91505092915050565b60006080830160008301516166256000860182614923565b5060208301516166386020860182614923565b50604083015161664b6040860182614923565b5060608301518482036060860152616663828261497c565b9150508091505092915050565b60006040820190506166856000830185614798565b8181036020830152616697818461660d565b90509392505050565b7f796f75207061737365642061206e756c6c20746f6b656e53796d626f6c20746860008201527f617420646f65736e74206d617020746f20746865206c697374206f662061646460208201527f7265737365730000000000000000000000000000000000000000000000000000604082015250565b60006167226046836147cd565b915061672d826166a0565b606082019050919050565b6000602082019050818103600083015261675181616715565b9050919050565b6000604082019050818103600083015261677281856155b7565b90506167816020830184614798565b9392505050565b6000819050919050565b60006167ad6167a86167a384616788565b615277565b61478e565b9050919050565b6167bd81616792565b82525050565b600060a0820190506167d86000830188614798565b6167e560208301876167b4565b81810360408301526167f781866160fb565b90506168066060830185615026565b6168136080830184614798565b9695505050505050565b7f4e6f2045544820617661696c61626c6520746f20777261700000000000000000600082015250565b60006168536018836147cd565b915061685e8261681d565b602082019050919050565b6000602082019050818103600083015261688281616846565b9050919050565b7f5745544800000000000000000000000000000000000000000000000000000000600082015250565b60006168bf600483615961565b91506168ca82616889565b600482019050919050565b60006168e0826168b2565b9150819050919050565b7f6d73672e76616c756520697320302066616d0000000000000000000000000000600082015250565b60006169206012836147cd565b915061692b826168ea565b602082019050919050565b6000602082019050818103600083015261694f81616913565b9050919050565b600060408201905061696b6000830185615026565b818103602083015261697d818461660d565b90509392505050565b7f5468652053796d626f6c2070726f7669646564206973206e6f7420696e20746860008201527f6520506f7274666f6c696f20546f6b656e730000000000000000000000000000602082015250565b60006169e26032836147cd565b91506169ed82616986565b604082019050919050565b60006020820190508181036000830152616a11816169d5565b9050919050565b6000616a2382614c74565b9150616a2e83614c74565b9250827f800000000000000000000000000000000000000000000000000000000000000001821260008412151615616a6957616a68615d5c565b5b827f7fffffffffffffffffffffffffffffffffffffffffffffffffffffffffffffff018213600084121615616aa157616aa0615d5c565b5b828203905092915050565b6000616ab782614c74565b9150616ac283614c74565b9250827f7fffffffffffffffffffffffffffffffffffffffffffffffffffffffffffffff0482116000841360008413161615616b0157616b00615d5c565b5b817f80000000000000000000000000000000000000000000000000000000000000000583126000841260008413161615616b3e57616b3d615d5c565b5b827f80000000000000000000000000000000000000000000000000000000000000000582126000841360008412161615616b7b57616b7a615d5c565b5b827f7fffffffffffffffffffffffffffffffffffffffffffffffffffffffffffffff0582126000841260008412161615616bb857616bb7615d5c565b5b828202905092915050565b6000616bce82614c74565b9150616bd983614c74565b925082616be957616be8615eab565b5b600160000383147f800000000000000000000000000000000000000000000000000000000000000083141615616c2257616c21615d5c565b5b828205905092915050565b6000616c3882614c74565b91507f8000000000000000000000000000000000000000000000000000000000000000821415616c6b57616c6a615d5c565b5b816000039050919050565b60006060820190508181036000830152616c908186614811565b9050616c9f6020830185615035565b616cac6040830184614798565b949350505050565b600081519050919050565b600081905092915050565b6000616cd582616cb4565b616cdf8185616cbf565b9350616cef8185602086016147de565b80840191505092915050565b6000616d078284616cca565b915081905092915050565b7f5341000000000000000000000000000000000000000000000000000000000000600082015250565b6000616d486002836147cd565b9150616d5382616d12565b602082019050919050565b60006020820190508181036000830152616d7781616d3b565b905091905056fea264697066735822122069c9bf07a839beb5021860802ae1e9908ffc1e08922a78361f2e6409eeca922164736f6c63430008090033",
  "linkReferences": {},
  "deployedLinkReferences": {}
}