{
  "_format": "hh-sol-artifact-1",
  "contractName": "ModelBase",
  "sourceName": "contracts/model/base/ModelBase.sol",
  "abi": [
    {
      "inputs": [
        {
          "internalType": "string",
          "name": "_name",
          "type": "string"
        }
      ],
      "stateMutability": "nonpayable",
      "type": "constructor"
    },
    {
      "inputs": [],
      "name": "getExplain",
      "outputs": [
        {
          "internalType": "string",
          "name": "",
          "type": "string"
        }
      ],
      "stateMutability": "view",
      "type": "function"
    },
    {
      "inputs": [],
      "name": "getModel",
      "outputs": [
        {
          "internalType": "string",
          "name": "",
          "type": "string"
        }
      ],
      "stateMutability": "view",
      "type": "function"
    },
    {
      "inputs": [],
      "name": "getState",
      "outputs": [
        {
          "components": [
            {
              "internalType": "string",
              "name": "name",
              "type": "string"
            },
            {
              "components": [
                {
                  "internalType": "string",
                  "name": "explain",
                  "type": "string"
                },
                {
                  "internalType": "string",
                  "name": "model",
                  "type": "string"
                },
                {
                  "internalType": "string",
                  "name": "code",
                  "type": "string"
                }
              ],
              "internalType": "struct ModelURI",
              "name": "uri",
              "type": "tuple"
            }
          ],
          "internalType": "struct ModelState",
          "name": "",
          "type": "tuple"
        }
      ],
      "stateMutability": "view",
      "type": "function"
    },
    {
      "inputs": [],
      "name": "modelState",
      "outputs": [
        {
          "internalType": "string",
          "name": "name",
          "type": "string"
        },
        {
          "components": [
            {
              "internalType": "string",
              "name": "explain",
              "type": "string"
            },
            {
              "internalType": "string",
              "name": "model",
              "type": "string"
            },
            {
              "internalType": "string",
              "name": "code",
              "type": "string"
            }
          ],
          "internalType": "struct ModelURI",
          "name": "uri",
          "type": "tuple"
        }
      ],
      "stateMutability": "view",
      "type": "function"
    },
    {
      "inputs": [],
      "name": "name",
      "outputs": [
        {
          "internalType": "string",
          "name": "",
          "type": "string"
        }
      ],
      "stateMutability": "view",
      "type": "function"
    },
    {
      "inputs": [
        {
          "internalType": "string",
          "name": "uri",
          "type": "string"
        }
      ],
      "name": "setExplain",
      "outputs": [],
      "stateMutability": "nonpayable",
      "type": "function"
    },
    {
      "inputs": [
        {
          "internalType": "string",
          "name": "uri",
          "type": "string"
        }
      ],
      "name": "setModel",
      "outputs": [],
      "stateMutability": "nonpayable",
      "type": "function"
    },
    {
      "inputs": [
        {
          "components": [
            {
              "internalType": "string",
              "name": "name",
              "type": "string"
            },
            {
              "components": [
                {
                  "internalType": "string",
                  "name": "explain",
                  "type": "string"
                },
                {
                  "internalType": "string",
                  "name": "model",
                  "type": "string"
                },
                {
                  "internalType": "string",
                  "name": "code",
                  "type": "string"
                }
              ],
              "internalType": "struct ModelURI",
              "name": "uri",
              "type": "tuple"
            }
          ],
          "internalType": "struct ModelState",
          "name": "_modelState",
          "type": "tuple"
        }
      ],
      "name": "setState",
      "outputs": [],
      "stateMutability": "nonpayable",
      "type": "function"
    }
  ],
  "bytecode": "0x60806040523480156200001157600080fd5b5060405162001332380380620013328339818101604052810190620000379190620002a4565b80600090805190602001906200004f92919062000057565b50506200035a565b828054620000659062000324565b90600052602060002090601f016020900481019282620000895760008555620000d5565b82601f10620000a457805160ff1916838001178555620000d5565b82800160010185558215620000d5579182015b82811115620000d4578251825591602001919060010190620000b7565b5b509050620000e49190620000e8565b5090565b5b8082111562000103576000816000905550600101620000e9565b5090565b6000604051905090565b600080fd5b600080fd5b600080fd5b600080fd5b6000601f19601f8301169050919050565b7f4e487b7100000000000000000000000000000000000000000000000000000000600052604160045260246000fd5b620001708262000125565b810181811067ffffffffffffffff8211171562000192576200019162000136565b5b80604052505050565b6000620001a762000107565b9050620001b5828262000165565b919050565b600067ffffffffffffffff821115620001d857620001d762000136565b5b620001e38262000125565b9050602081019050919050565b60005b8381101562000210578082015181840152602081019050620001f3565b8381111562000220576000848401525b50505050565b60006200023d6200023784620001ba565b6200019b565b9050828152602081018484840111156200025c576200025b62000120565b5b62000269848285620001f0565b509392505050565b600082601f8301126200028957620002886200011b565b5b81516200029b84826020860162000226565b91505092915050565b600060208284031215620002bd57620002bc62000111565b5b600082015167ffffffffffffffff811115620002de57620002dd62000116565b5b620002ec8482850162000271565b91505092915050565b7f4e487b7100000000000000000000000000000000000000000000000000000000600052602260045260246000fd5b600060028204905060018216806200033d57607f821691505b60208210811415620003545762000353620002f5565b5b50919050565b610fc8806200036a6000396000f3fe608060405234801561001057600080fd5b50600436106100885760003560e01c8063a0bfa1e01161005b578063a0bfa1e014610101578063bbdf680d1461011f578063be5d69ae1461013b578063fa8d3a221461015a57610088565b806306fdde031461008d5780631865c57d146100ab57806346d75c8c146100c95780635493458d146100e5575b600080fd5b610095610178565b6040516100a29190610a47565b60405180910390f35b6100b3610206565b6040516100c09190610b55565b60405180910390f35b6100e360048036038101906100de9190610cc0565b61047c565b005b6100ff60048036038101906100fa9190610e53565b61049b565b005b610109610523565b6040516101169190610a47565b60405180910390f35b61013960048036038101906101349190610cc0565b6105ba565b005b6101436105d9565b604051610151929190610efa565b60405180910390f35b610162610833565b60405161016f9190610a47565b60405180910390f35b6000805461018590610f60565b80601f01602080910402602001604051908101604052809291908181526020018280546101b190610f60565b80156101fe5780601f106101d3576101008083540402835291602001916101fe565b820191906000526020600020905b8154815290600101906020018083116101e157829003601f168201915b505050505081565b61020e6108ca565b600160405180604001604052908160008201805461022b90610f60565b80601f016020809104026020016040519081016040528092919081815260200182805461025790610f60565b80156102a45780601f10610279576101008083540402835291602001916102a4565b820191906000526020600020905b81548152906001019060200180831161028757829003601f168201915b50505050508152602001600182016040518060600160405290816000820180546102cd90610f60565b80601f01602080910402602001604051908101604052809291908181526020018280546102f990610f60565b80156103465780601f1061031b57610100808354040283529160200191610346565b820191906000526020600020905b81548152906001019060200180831161032957829003601f168201915b5050505050815260200160018201805461035f90610f60565b80601f016020809104026020016040519081016040528092919081815260200182805461038b90610f60565b80156103d85780601f106103ad576101008083540402835291602001916103d8565b820191906000526020600020905b8154815290600101906020018083116103bb57829003601f168201915b505050505081526020016002820180546103f190610f60565b80601f016020809104026020016040519081016040528092919081815260200182805461041d90610f60565b801561046a5780601f1061043f5761010080835404028352916020019161046a565b820191906000526020600020905b81548152906001019060200180831161044d57829003601f168201915b50505050508152505081525050905090565b806001800160010190805190602001906104979291906108ea565b5050565b80600160008201518160000190805190602001906104ba9291906108ea565b5060208201518160010160008201518160000190805190602001906104e09291906108ea565b5060208201518160010190805190602001906104fd9291906108ea565b50604082015181600201908051906020019061051a9291906108ea565b50505090505050565b606060018001600101805461053790610f60565b80601f016020809104026020016040519081016040528092919081815260200182805461056390610f60565b80156105b05780601f10610585576101008083540402835291602001916105b0565b820191906000526020600020905b81548152906001019060200180831161059357829003601f168201915b5050505050905090565b806001800160000190805190602001906105d59291906108ea565b5050565b60018060000180546105ea90610f60565b80601f016020809104026020016040519081016040528092919081815260200182805461061690610f60565b80156106635780601f1061063857610100808354040283529160200191610663565b820191906000526020600020905b81548152906001019060200180831161064657829003601f168201915b5050505050908060010160405180606001604052908160008201805461068890610f60565b80601f01602080910402602001604051908101604052809291908181526020018280546106b490610f60565b80156107015780601f106106d657610100808354040283529160200191610701565b820191906000526020600020905b8154815290600101906020018083116106e457829003601f168201915b5050505050815260200160018201805461071a90610f60565b80601f016020809104026020016040519081016040528092919081815260200182805461074690610f60565b80156107935780601f1061076857610100808354040283529160200191610793565b820191906000526020600020905b81548152906001019060200180831161077657829003601f168201915b505050505081526020016002820180546107ac90610f60565b80601f01602080910402602001604051908101604052809291908181526020018280546107d890610f60565b80156108255780601f106107fa57610100808354040283529160200191610825565b820191906000526020600020905b81548152906001019060200180831161080857829003601f168201915b505050505081525050905082565b606060018001600001805461084790610f60565b80601f016020809104026020016040519081016040528092919081815260200182805461087390610f60565b80156108c05780601f10610895576101008083540402835291602001916108c0565b820191906000526020600020905b8154815290600101906020018083116108a357829003601f168201915b5050505050905090565b6040518060400160405280606081526020016108e4610970565b81525090565b8280546108f690610f60565b90600052602060002090601f016020900481019282610918576000855561095f565b82601f1061093157805160ff191683800117855561095f565b8280016001018555821561095f579182015b8281111561095e578251825591602001919060010190610943565b5b50905061096c9190610991565b5090565b60405180606001604052806060815260200160608152602001606081525090565b5b808211156109aa576000816000905550600101610992565b5090565b600081519050919050565b600082825260208201905092915050565b60005b838110156109e85780820151818401526020810190506109cd565b838111156109f7576000848401525b50505050565b6000601f19601f8301169050919050565b6000610a19826109ae565b610a2381856109b9565b9350610a338185602086016109ca565b610a3c816109fd565b840191505092915050565b60006020820190508181036000830152610a618184610a0e565b905092915050565b600082825260208201905092915050565b6000610a85826109ae565b610a8f8185610a69565b9350610a9f8185602086016109ca565b610aa8816109fd565b840191505092915050565b60006060830160008301518482036000860152610ad08282610a7a565b91505060208301518482036020860152610aea8282610a7a565b91505060408301518482036040860152610b048282610a7a565b9150508091505092915050565b60006040830160008301518482036000860152610b2e8282610a7a565b91505060208301518482036020860152610b488282610ab3565b9150508091505092915050565b60006020820190508181036000830152610b6f8184610b11565b905092915050565b6000604051905090565b600080fd5b600080fd5b600080fd5b600080fd5b7f4e487b7100000000000000000000000000000000000000000000000000000000600052604160045260246000fd5b610bcd826109fd565b810181811067ffffffffffffffff82111715610bec57610beb610b95565b5b80604052505050565b6000610bff610b77565b9050610c0b8282610bc4565b919050565b600067ffffffffffffffff821115610c2b57610c2a610b95565b5b610c34826109fd565b9050602081019050919050565b82818337600083830152505050565b6000610c63610c5e84610c10565b610bf5565b905082815260208101848484011115610c7f57610c7e610b90565b5b610c8a848285610c41565b509392505050565b600082601f830112610ca757610ca6610b8b565b5b8135610cb7848260208601610c50565b91505092915050565b600060208284031215610cd657610cd5610b81565b5b600082013567ffffffffffffffff811115610cf457610cf3610b86565b5b610d0084828501610c92565b91505092915050565b600080fd5b600080fd5b600060608284031215610d2957610d28610d09565b5b610d336060610bf5565b9050600082013567ffffffffffffffff811115610d5357610d52610d0e565b5b610d5f84828501610c92565b600083015250602082013567ffffffffffffffff811115610d8357610d82610d0e565b5b610d8f84828501610c92565b602083015250604082013567ffffffffffffffff811115610db357610db2610d0e565b5b610dbf84828501610c92565b60408301525092915050565b600060408284031215610de157610de0610d09565b5b610deb6040610bf5565b9050600082013567ffffffffffffffff811115610e0b57610e0a610d0e565b5b610e1784828501610c92565b600083015250602082013567ffffffffffffffff811115610e3b57610e3a610d0e565b5b610e4784828501610d13565b60208301525092915050565b600060208284031215610e6957610e68610b81565b5b600082013567ffffffffffffffff811115610e8757610e86610b86565b5b610e9384828501610dcb565b91505092915050565b60006060830160008301518482036000860152610eb98282610a7a565b91505060208301518482036020860152610ed38282610a7a565b91505060408301518482036040860152610eed8282610a7a565b9150508091505092915050565b60006040820190508181036000830152610f148185610a0e565b90508181036020830152610f288184610e9c565b90509392505050565b7f4e487b7100000000000000000000000000000000000000000000000000000000600052602260045260246000fd5b60006002820490506001821680610f7857607f821691505b60208210811415610f8c57610f8b610f31565b5b5091905056fea2646970667358221220c1fb48e952428d20f3f1b0767bf8dc8471404b88e65408d20a127bb8fd54fca964736f6c63430008090033",
  "linkReferences": {},
  "deployedLinkReferences": {}
}