{
  "_format": "hh-sol-artifact-1",
  "contractName": "TokenManagerBase",
  "sourceName": "contracts/token/TokenManagerBase.sol",
  "abi": [
    {
      "inputs": [
        {
          "internalType": "bytes32",
          "name": "",
          "type": "bytes32"
        }
      ],
      "name": "symbol_address_map",
      "outputs": [
        {
          "internalType": "address",
          "name": "",
          "type": "address"
        }
      ],
      "stateMutability": "view",
      "type": "function"
    },
    {
      "inputs": [
        {
          "internalType": "bytes32",
          "name": "",
          "type": "bytes32"
        }
      ],
      "name": "symbol_token_map",
      "outputs": [
        {
          "internalType": "contract ERC20",
          "name": "",
          "type": "address"
        }
      ],
      "stateMutability": "view",
      "type": "function"
    },
    {
      "inputs": [
        {
          "internalType": "uint256",
          "name": "",
          "type": "uint256"
        }
      ],
      "name": "token_address_list",
      "outputs": [
        {
          "internalType": "address",
          "name": "",
          "type": "address"
        }
      ],
      "stateMutability": "view",
      "type": "function"
    },
    {
      "inputs": [],
      "name": "token_count",
      "outputs": [
        {
          "internalType": "uint256",
          "name": "",
          "type": "uint256"
        }
      ],
      "stateMutability": "view",
      "type": "function"
    },
    {
      "inputs": [
        {
          "internalType": "uint256",
          "name": "",
          "type": "uint256"
        }
      ],
      "name": "token_symbol_list",
      "outputs": [
        {
          "internalType": "bytes32",
          "name": "",
          "type": "bytes32"
        }
      ],
      "stateMutability": "view",
      "type": "function"
    }
  ],
  "bytecode": "0x608060405234801561001057600080fd5b50610434806100206000396000f3fe608060405234801561001057600080fd5b50600436106100575760003560e01c806323b161ab1461005c57806326d7c8461461007a578063281cdbb3146100aa57806364eb009c146100da578063f913f0211461010a575b600080fd5b61006461013a565b6040516100719190610222565b60405180910390f35b610094600480360381019061008f919061026e565b610140565b6040516100a191906102dc565b60405180910390f35b6100c460048036038101906100bf919061032d565b61017f565b6040516100d191906103b9565b60405180910390f35b6100f460048036038101906100ef919061026e565b6101b2565b60405161010191906103e3565b60405180910390f35b610124600480360381019061011f919061032d565b6101d6565b60405161013191906102dc565b60405180910390f35b60045481565b6003818154811061015057600080fd5b906000526020600020016000915054906101000a900473ffffffffffffffffffffffffffffffffffffffff1681565b60016020528060005260406000206000915054906101000a900473ffffffffffffffffffffffffffffffffffffffff1681565b600281815481106101c257600080fd5b906000526020600020016000915090505481565b60006020528060005260406000206000915054906101000a900473ffffffffffffffffffffffffffffffffffffffff1681565b6000819050919050565b61021c81610209565b82525050565b60006020820190506102376000830184610213565b92915050565b600080fd5b61024b81610209565b811461025657600080fd5b50565b60008135905061026881610242565b92915050565b6000602082840312156102845761028361023d565b5b600061029284828501610259565b91505092915050565b600073ffffffffffffffffffffffffffffffffffffffff82169050919050565b60006102c68261029b565b9050919050565b6102d6816102bb565b82525050565b60006020820190506102f160008301846102cd565b92915050565b6000819050919050565b61030a816102f7565b811461031557600080fd5b50565b60008135905061032781610301565b92915050565b6000602082840312156103435761034261023d565b5b600061035184828501610318565b91505092915050565b6000819050919050565b600061037f61037a6103758461029b565b61035a565b61029b565b9050919050565b600061039182610364565b9050919050565b60006103a382610386565b9050919050565b6103b381610398565b82525050565b60006020820190506103ce60008301846103aa565b92915050565b6103dd816102f7565b82525050565b60006020820190506103f860008301846103d4565b9291505056fea2646970667358221220c31b803b4961eed4441fed2eaf019c5142d0686dc6580c38ce1c11a49f68fe5264736f6c63430008090033",
  "linkReferences": {},
  "deployedLinkReferences": {}
}