{
  "_format": "hh-sol-artifact-1",
  "contractName": "TokenManager",
  "sourceName": "contracts/token/TokenManager.sol",
  "abi": [
    {
      "inputs": [
        {
          "internalType": "bytes32[]",
          "name": "_token_symbol_list",
          "type": "bytes32[]"
        },
        {
          "internalType": "address[]",
          "name": "_token_address_list",
          "type": "address[]"
        }
      ],
      "stateMutability": "nonpayable",
      "type": "constructor"
    },
    {
      "inputs": [
        {
          "internalType": "bytes32",
          "name": "_tokenSymbol",
          "type": "bytes32"
        },
        {
          "internalType": "address",
          "name": "_tokenAddress",
          "type": "address"
        }
      ],
      "name": "addToken",
      "outputs": [],
      "stateMutability": "nonpayable",
      "type": "function"
    },
    {
      "inputs": [
        {
          "internalType": "bytes32[]",
          "name": "_token_symbol_list",
          "type": "bytes32[]"
        },
        {
          "internalType": "address[]",
          "name": "_token_address_list",
          "type": "address[]"
        }
      ],
      "name": "addTokens",
      "outputs": [],
      "stateMutability": "nonpayable",
      "type": "function"
    },
    {
      "inputs": [
        {
          "internalType": "bytes32",
          "name": "",
          "type": "bytes32"
        }
      ],
      "name": "symbol_address_map",
      "outputs": [
        {
          "internalType": "address",
          "name": "",
          "type": "address"
        }
      ],
      "stateMutability": "view",
      "type": "function"
    },
    {
      "inputs": [
        {
          "internalType": "bytes32",
          "name": "",
          "type": "bytes32"
        }
      ],
      "name": "symbol_token_map",
      "outputs": [
        {
          "internalType": "contract ERC20",
          "name": "",
          "type": "address"
        }
      ],
      "stateMutability": "view",
      "type": "function"
    },
    {
      "inputs": [
        {
          "internalType": "uint256",
          "name": "",
          "type": "uint256"
        }
      ],
      "name": "token_address_list",
      "outputs": [
        {
          "internalType": "address",
          "name": "",
          "type": "address"
        }
      ],
      "stateMutability": "view",
      "type": "function"
    },
    {
      "inputs": [],
      "name": "token_count",
      "outputs": [
        {
          "internalType": "uint256",
          "name": "",
          "type": "uint256"
        }
      ],
      "stateMutability": "view",
      "type": "function"
    },
    {
      "inputs": [
        {
          "internalType": "uint256",
          "name": "",
          "type": "uint256"
        }
      ],
      "name": "token_symbol_list",
      "outputs": [
        {
          "internalType": "bytes32",
          "name": "",
          "type": "bytes32"
        }
      ],
      "stateMutability": "view",
      "type": "function"
    }
  ],
  "bytecode": "0x60806040523480156200001157600080fd5b5060405162001110380380620011108339818101604052810190620000379190620004cc565b6200004982826200005160201b60201c565b5050620006b0565b805182511462000098576040517f08c379a00000000000000000000000000000000000000000000000000000000081526004016200008f90620005d8565b60405180910390fd5b60005b82518110156200012157620000f1838281518110620000bf57620000be620005fa565b5b6020026020010151838381518110620000dd57620000dc620005fa565b5b60200260200101516200012660201b60201c565b60046000815480929190620001069062000662565b91905055508080620001189062000662565b9150506200009b565b505050565b8060008084815260200190815260200160002060006101000a81548173ffffffffffffffffffffffffffffffffffffffff021916908373ffffffffffffffffffffffffffffffffffffffff160217905550806001600084815260200190815260200160002060006101000a81548173ffffffffffffffffffffffffffffffffffffffff021916908373ffffffffffffffffffffffffffffffffffffffff1602179055505050565b6000604051905090565b600080fd5b600080fd5b600080fd5b6000601f19601f8301169050919050565b7f4e487b7100000000000000000000000000000000000000000000000000000000600052604160045260246000fd5b6200023182620001e6565b810181811067ffffffffffffffff82111715620002535762000252620001f7565b5b80604052505050565b600062000268620001cd565b905062000276828262000226565b919050565b600067ffffffffffffffff821115620002995762000298620001f7565b5b602082029050602081019050919050565b600080fd5b6000819050919050565b620002c481620002af565b8114620002d057600080fd5b50565b600081519050620002e481620002b9565b92915050565b600062000301620002fb846200027b565b6200025c565b90508083825260208201905060208402830185811115620003275762000326620002aa565b5b835b818110156200035457806200033f8882620002d3565b84526020840193505060208101905062000329565b5050509392505050565b600082601f830112620003765762000375620001e1565b5b815162000388848260208601620002ea565b91505092915050565b600067ffffffffffffffff821115620003af57620003ae620001f7565b5b602082029050602081019050919050565b600073ffffffffffffffffffffffffffffffffffffffff82169050919050565b6000620003ed82620003c0565b9050919050565b620003ff81620003e0565b81146200040b57600080fd5b50565b6000815190506200041f81620003f4565b92915050565b60006200043c620004368462000391565b6200025c565b90508083825260208201905060208402830185811115620004625762000461620002aa565b5b835b818110156200048f57806200047a88826200040e565b84526020840193505060208101905062000464565b5050509392505050565b600082601f830112620004b157620004b0620001e1565b5b8151620004c384826020860162000425565b91505092915050565b60008060408385031215620004e657620004e5620001d7565b5b600083015167ffffffffffffffff811115620005075762000506620001dc565b5b62000515858286016200035e565b925050602083015167ffffffffffffffff811115620005395762000538620001dc565b5b620005478582860162000499565b9150509250929050565b600082825260208201905092915050565b7f746f6b656e5f616464726573735f6c69737420616e6420746f6b656e5f73796d60008201527f626f6c5f6c697374206d75737420657175616c00000000000000000000000000602082015250565b6000620005c060338362000551565b9150620005cd8262000562565b604082019050919050565b60006020820190508181036000830152620005f381620005b1565b9050919050565b7f4e487b7100000000000000000000000000000000000000000000000000000000600052603260045260246000fd5b7f4e487b7100000000000000000000000000000000000000000000000000000000600052601160045260246000fd5b6000819050919050565b60006200066f8262000658565b91507fffffffffffffffffffffffffffffffffffffffffffffffffffffffffffffffff821415620006a557620006a462000629565b5b600182019050919050565b610a5080620006c06000396000f3fe608060405234801561001057600080fd5b506004361061007d5760003560e01c8063281cdbb31161005b578063281cdbb3146100ec57806364eb009c1461011c5780639776aacf1461014c578063f913f021146101685761007d565b806304222cdf1461008257806323b161ab1461009e57806326d7c846146100bc575b600080fd5b61009c60048036038101906100979190610690565b610198565b005b6100a6610256565b6040516100b39190610721565b60405180910390f35b6100d660048036038101906100d19190610768565b61025c565b6040516100e391906107a4565b60405180910390f35b610106600480360381019061010191906107bf565b61029b565b604051610113919061084b565b60405180910390f35b61013660048036038101906101319190610768565b6102ce565b6040516101439190610875565b60405180910390f35b61016660048036038101906101619190610890565b6102f2565b005b610182600480360381019061017d91906107bf565b610399565b60405161018f91906107a4565b60405180910390f35b80518251146101dc576040517f08c379a00000000000000000000000000000000000000000000000000000000081526004016101d390610953565b60405180910390fd5b60005b8251811015610251576102268382815181106101fe576101fd610973565b5b602002602001015183838151811061021957610218610973565b5b60200260200101516102f2565b60046000815480929190610239906109d1565b91905055508080610249906109d1565b9150506101df565b505050565b60045481565b6003818154811061026c57600080fd5b906000526020600020016000915054906101000a900473ffffffffffffffffffffffffffffffffffffffff1681565b60016020528060005260406000206000915054906101000a900473ffffffffffffffffffffffffffffffffffffffff1681565b600281815481106102de57600080fd5b906000526020600020016000915090505481565b8060008084815260200190815260200160002060006101000a81548173ffffffffffffffffffffffffffffffffffffffff021916908373ffffffffffffffffffffffffffffffffffffffff160217905550806001600084815260200190815260200160002060006101000a81548173ffffffffffffffffffffffffffffffffffffffff021916908373ffffffffffffffffffffffffffffffffffffffff1602179055505050565b60006020528060005260406000206000915054906101000a900473ffffffffffffffffffffffffffffffffffffffff1681565b6000604051905090565b600080fd5b600080fd5b600080fd5b6000601f19601f8301169050919050565b7f4e487b7100000000000000000000000000000000000000000000000000000000600052604160045260246000fd5b61042e826103e5565b810181811067ffffffffffffffff8211171561044d5761044c6103f6565b5b80604052505050565b60006104606103cc565b905061046c8282610425565b919050565b600067ffffffffffffffff82111561048c5761048b6103f6565b5b602082029050602081019050919050565b600080fd5b6000819050919050565b6104b5816104a2565b81146104c057600080fd5b50565b6000813590506104d2816104ac565b92915050565b60006104eb6104e684610471565b610456565b9050808382526020820190506020840283018581111561050e5761050d61049d565b5b835b81811015610537578061052388826104c3565b845260208401935050602081019050610510565b5050509392505050565b600082601f830112610556576105556103e0565b5b81356105668482602086016104d8565b91505092915050565b600067ffffffffffffffff82111561058a576105896103f6565b5b602082029050602081019050919050565b600073ffffffffffffffffffffffffffffffffffffffff82169050919050565b60006105c68261059b565b9050919050565b6105d6816105bb565b81146105e157600080fd5b50565b6000813590506105f3816105cd565b92915050565b600061060c6106078461056f565b610456565b9050808382526020820190506020840283018581111561062f5761062e61049d565b5b835b81811015610658578061064488826105e4565b845260208401935050602081019050610631565b5050509392505050565b600082601f830112610677576106766103e0565b5b81356106878482602086016105f9565b91505092915050565b600080604083850312156106a7576106a66103d6565b5b600083013567ffffffffffffffff8111156106c5576106c46103db565b5b6106d185828601610541565b925050602083013567ffffffffffffffff8111156106f2576106f16103db565b5b6106fe85828601610662565b9150509250929050565b6000819050919050565b61071b81610708565b82525050565b60006020820190506107366000830184610712565b92915050565b61074581610708565b811461075057600080fd5b50565b6000813590506107628161073c565b92915050565b60006020828403121561077e5761077d6103d6565b5b600061078c84828501610753565b91505092915050565b61079e816105bb565b82525050565b60006020820190506107b96000830184610795565b92915050565b6000602082840312156107d5576107d46103d6565b5b60006107e3848285016104c3565b91505092915050565b6000819050919050565b600061081161080c6108078461059b565b6107ec565b61059b565b9050919050565b6000610823826107f6565b9050919050565b600061083582610818565b9050919050565b6108458161082a565b82525050565b6000602082019050610860600083018461083c565b92915050565b61086f816104a2565b82525050565b600060208201905061088a6000830184610866565b92915050565b600080604083850312156108a7576108a66103d6565b5b60006108b5858286016104c3565b92505060206108c6858286016105e4565b9150509250929050565b600082825260208201905092915050565b7f746f6b656e5f616464726573735f6c69737420616e6420746f6b656e5f73796d60008201527f626f6c5f6c697374206d75737420657175616c00000000000000000000000000602082015250565b600061093d6033836108d0565b9150610948826108e1565b604082019050919050565b6000602082019050818103600083015261096c81610930565b9050919050565b7f4e487b7100000000000000000000000000000000000000000000000000000000600052603260045260246000fd5b7f4e487b7100000000000000000000000000000000000000000000000000000000600052601160045260246000fd5b60006109dc82610708565b91507fffffffffffffffffffffffffffffffffffffffffffffffffffffffffffffffff821415610a0f57610a0e6109a2565b5b60018201905091905056fea26469706673582212207a9895ddf74086dd66f418e1bfd354af9abdc74e093267ad4e2f3caca062a45564736f6c63430008090033",
  "linkReferences": {},
  "deployedLinkReferences": {}
}