{
  "_format": "hh-sol-artifact-1",
  "contractName": "ExplainManagerAdapter",
  "sourceName": "contracts/explain/ExplainManagerAdapter.sol",
  "abi": [
    {
      "inputs": [
        {
          "internalType": "address",
          "name": "explainAddress",
          "type": "address"
        }
      ],
      "name": "connectExplain",
      "outputs": [],
      "stateMutability": "nonpayable",
      "type": "function"
    },
    {
      "inputs": [],
      "name": "explain",
      "outputs": [
        {
          "internalType": "contract IExplainManager",
          "name": "",
          "type": "address"
        }
      ],
      "stateMutability": "view",
      "type": "function"
    },
    {
      "inputs": [
        {
          "internalType": "string",
          "name": "name",
          "type": "string"
        }
      ],
      "name": "getExplainer",
      "outputs": [
        {
          "components": [
            {
              "internalType": "string",
              "name": "name",
              "type": "string"
            },
            {
              "internalType": "string",
              "name": "uri",
              "type": "string"
            }
          ],
          "internalType": "struct ExplainSchema",
          "name": "",
          "type": "tuple"
        }
      ],
      "stateMutability": "view",
      "type": "function"
    },
    {
      "inputs": [],
      "name": "getExplainers",
      "outputs": [
        {
          "components": [
            {
              "internalType": "string",
              "name": "name",
              "type": "string"
            },
            {
              "internalType": "string",
              "name": "uri",
              "type": "string"
            }
          ],
          "internalType": "struct ExplainSchema[]",
          "name": "",
          "type": "tuple[]"
        }
      ],
      "stateMutability": "view",
      "type": "function"
    }
  ],
  "bytecode": "0x608060405234801561001057600080fd5b50610a9b806100206000396000f3fe608060405234801561001057600080fd5b506004361061004c5760003560e01c80633f9bb242146100515780635ae6634b1461006f5780636ae7a5411461009f578063ecb8d843146100bd575b600080fd5b6100596100d9565b6040516100669190610460565b60405180910390f35b610089600480360381019061008491906105cb565b610183565b6040516100969190610658565b60405180910390f35b6100a7610240565b6040516100b491906106f9565b60405180910390f35b6100d760048036038101906100d29190610752565b610264565b005b606060008054906101000a900473ffffffffffffffffffffffffffffffffffffffff1673ffffffffffffffffffffffffffffffffffffffff16633f9bb2426040518163ffffffff1660e01b815260040160006040518083038186803b15801561014157600080fd5b505afa158015610155573d6000803e3d6000fd5b505050506040513d6000823e3d601f19601f8201168201806040525081019061017e9190610967565b905090565b61018b6102a7565b60008054906101000a900473ffffffffffffffffffffffffffffffffffffffff1673ffffffffffffffffffffffffffffffffffffffff16635ae6634b836040518263ffffffff1660e01b81526004016101e491906109fa565b60006040518083038186803b1580156101fc57600080fd5b505afa158015610210573d6000803e3d6000fd5b505050506040513d6000823e3d601f19601f820116820180604052508101906102399190610a1c565b9050919050565b60008054906101000a900473ffffffffffffffffffffffffffffffffffffffff1681565b806000806101000a81548173ffffffffffffffffffffffffffffffffffffffff021916908373ffffffffffffffffffffffffffffffffffffffff16021790555050565b604051806040016040528060608152602001606081525090565b600081519050919050565b600082825260208201905092915050565b6000819050602082019050919050565b600081519050919050565b600082825260208201905092915050565b60005b8381101561032757808201518184015260208101905061030c565b83811115610336576000848401525b50505050565b6000601f19601f8301169050919050565b6000610358826102ed565b61036281856102f8565b9350610372818560208601610309565b61037b8161033c565b840191505092915050565b600060408301600083015184820360008601526103a3828261034d565b915050602083015184820360208601526103bd828261034d565b9150508091505092915050565b60006103d68383610386565b905092915050565b6000602082019050919050565b60006103f6826102c1565b61040081856102cc565b935083602082028501610412856102dd565b8060005b8581101561044e578484038952815161042f85826103ca565b945061043a836103de565b925060208a01995050600181019050610416565b50829750879550505050505092915050565b6000602082019050818103600083015261047a81846103eb565b905092915050565b6000604051905090565b600080fd5b600080fd5b600080fd5b600080fd5b7f4e487b7100000000000000000000000000000000000000000000000000000000600052604160045260246000fd5b6104d88261033c565b810181811067ffffffffffffffff821117156104f7576104f66104a0565b5b80604052505050565b600061050a610482565b905061051682826104cf565b919050565b600067ffffffffffffffff821115610536576105356104a0565b5b61053f8261033c565b9050602081019050919050565b82818337600083830152505050565b600061056e6105698461051b565b610500565b90508281526020810184848401111561058a5761058961049b565b5b61059584828561054c565b509392505050565b600082601f8301126105b2576105b1610496565b5b81356105c284826020860161055b565b91505092915050565b6000602082840312156105e1576105e061048c565b5b600082013567ffffffffffffffff8111156105ff576105fe610491565b5b61060b8482850161059d565b91505092915050565b60006040830160008301518482036000860152610631828261034d565b9150506020830151848203602086015261064b828261034d565b9150508091505092915050565b600060208201905081810360008301526106728184610614565b905092915050565b600073ffffffffffffffffffffffffffffffffffffffff82169050919050565b6000819050919050565b60006106bf6106ba6106b58461067a565b61069a565b61067a565b9050919050565b60006106d1826106a4565b9050919050565b60006106e3826106c6565b9050919050565b6106f3816106d8565b82525050565b600060208201905061070e60008301846106ea565b92915050565b600061071f8261067a565b9050919050565b61072f81610714565b811461073a57600080fd5b50565b60008135905061074c81610726565b92915050565b6000602082840312156107685761076761048c565b5b60006107768482850161073d565b91505092915050565b600067ffffffffffffffff82111561079a576107996104a0565b5b602082029050602081019050919050565b600080fd5b600080fd5b600080fd5b60006107cd6107c88461051b565b610500565b9050828152602081018484840111156107e9576107e861049b565b5b6107f4848285610309565b509392505050565b600082601f83011261081157610810610496565b5b81516108218482602086016107ba565b91505092915050565b6000604082840312156108405761083f6107b0565b5b61084a6040610500565b9050600082015167ffffffffffffffff81111561086a576108696107b5565b5b610876848285016107fc565b600083015250602082015167ffffffffffffffff81111561089a576108996107b5565b5b6108a6848285016107fc565b60208301525092915050565b60006108c56108c08461077f565b610500565b905080838252602082019050602084028301858111156108e8576108e76107ab565b5b835b8181101561092f57805167ffffffffffffffff81111561090d5761090c610496565b5b80860161091a898261082a565b855260208501945050506020810190506108ea565b5050509392505050565b600082601f83011261094e5761094d610496565b5b815161095e8482602086016108b2565b91505092915050565b60006020828403121561097d5761097c61048c565b5b600082015167ffffffffffffffff81111561099b5761099a610491565b5b6109a784828501610939565b91505092915050565b600082825260208201905092915050565b60006109cc826102ed565b6109d681856109b0565b93506109e6818560208601610309565b6109ef8161033c565b840191505092915050565b60006020820190508181036000830152610a1481846109c1565b905092915050565b600060208284031215610a3257610a3161048c565b5b600082015167ffffffffffffffff811115610a5057610a4f610491565b5b610a5c8482850161082a565b9150509291505056fea2646970667358221220003729c640921b949ee8770271bdd96f422f91a729eddf627435866714f69d5764736f6c63430008090033",
  "linkReferences": {},
  "deployedLinkReferences": {}
}