{
  "_format": "hh-sol-artifact-1",
  "contractName": "Creator",
  "sourceName": "contracts/user/Creator.sol",
  "abi": [
    {
      "inputs": [
        {
          "internalType": "string",
          "name": "_name",
          "type": "string"
        }
      ],
      "stateMutability": "nonpayable",
      "type": "constructor"
    },
    {
      "inputs": [
        {
          "internalType": "string",
          "name": "_avatarURI",
          "type": "string"
        }
      ],
      "name": "addUserAvator",
      "outputs": [],
      "stateMutability": "nonpayable",
      "type": "function"
    },
    {
      "inputs": [],
      "name": "avatarURI",
      "outputs": [
        {
          "internalType": "string",
          "name": "",
          "type": "string"
        }
      ],
      "stateMutability": "view",
      "type": "function"
    },
    {
      "inputs": [],
      "name": "name",
      "outputs": [
        {
          "internalType": "string",
          "name": "",
          "type": "string"
        }
      ],
      "stateMutability": "view",
      "type": "function"
    },
    {
      "inputs": [],
      "name": "walletAddress",
      "outputs": [
        {
          "internalType": "address",
          "name": "",
          "type": "address"
        }
      ],
      "stateMutability": "view",
      "type": "function"
    }
  ],
  "bytecode": "0x60806040523480156200001157600080fd5b50604051620009b1380380620009b18339818101604052810190620000379190620002e5565b33600160006101000a81548173ffffffffffffffffffffffffffffffffffffffff021916908373ffffffffffffffffffffffffffffffffffffffff16021790555080600090805190602001906200009092919062000098565b50506200039b565b828054620000a69062000365565b90600052602060002090601f016020900481019282620000ca576000855562000116565b82601f10620000e557805160ff191683800117855562000116565b8280016001018555821562000116579182015b8281111562000115578251825591602001919060010190620000f8565b5b50905062000125919062000129565b5090565b5b80821115620001445760008160009055506001016200012a565b5090565b6000604051905090565b600080fd5b600080fd5b600080fd5b600080fd5b6000601f19601f8301169050919050565b7f4e487b7100000000000000000000000000000000000000000000000000000000600052604160045260246000fd5b620001b18262000166565b810181811067ffffffffffffffff82111715620001d357620001d262000177565b5b80604052505050565b6000620001e862000148565b9050620001f68282620001a6565b919050565b600067ffffffffffffffff82111562000219576200021862000177565b5b620002248262000166565b9050602081019050919050565b60005b838110156200025157808201518184015260208101905062000234565b8381111562000261576000848401525b50505050565b60006200027e6200027884620001fb565b620001dc565b9050828152602081018484840111156200029d576200029c62000161565b5b620002aa84828562000231565b509392505050565b600082601f830112620002ca57620002c96200015c565b5b8151620002dc84826020860162000267565b91505092915050565b600060208284031215620002fe57620002fd62000152565b5b600082015167ffffffffffffffff8111156200031f576200031e62000157565b5b6200032d84828501620002b2565b91505092915050565b7f4e487b7100000000000000000000000000000000000000000000000000000000600052602260045260246000fd5b600060028204905060018216806200037e57607f821691505b6020821081141562000395576200039462000336565b5b50919050565b61060680620003ab6000396000f3fe608060405234801561001057600080fd5b506004361061004c5760003560e01c806306fdde03146100515780636ad5b3ea1461006f5780638cbf6de01461008d578063ac399fe4146100ab575b600080fd5b6100596100c7565b604051610066919061035f565b60405180910390f35b610077610155565b60405161008491906103c2565b60405180910390f35b61009561017b565b6040516100a2919061035f565b60405180910390f35b6100c560048036038101906100c09190610526565b610209565b005b600080546100d49061059e565b80601f01602080910402602001604051908101604052809291908181526020018280546101009061059e565b801561014d5780601f106101225761010080835404028352916020019161014d565b820191906000526020600020905b81548152906001019060200180831161013057829003601f168201915b505050505081565b600160009054906101000a900473ffffffffffffffffffffffffffffffffffffffff1681565b600280546101889061059e565b80601f01602080910402602001604051908101604052809291908181526020018280546101b49061059e565b80156102015780601f106101d657610100808354040283529160200191610201565b820191906000526020600020905b8154815290600101906020018083116101e457829003601f168201915b505050505081565b806002908051906020019061021f929190610223565b5050565b82805461022f9061059e565b90600052602060002090601f0160209004810192826102515760008555610298565b82601f1061026a57805160ff1916838001178555610298565b82800160010185558215610298579182015b8281111561029757825182559160200191906001019061027c565b5b5090506102a591906102a9565b5090565b5b808211156102c25760008160009055506001016102aa565b5090565b600081519050919050565b600082825260208201905092915050565b60005b838110156103005780820151818401526020810190506102e5565b8381111561030f576000848401525b50505050565b6000601f19601f8301169050919050565b6000610331826102c6565b61033b81856102d1565b935061034b8185602086016102e2565b61035481610315565b840191505092915050565b600060208201905081810360008301526103798184610326565b905092915050565b600073ffffffffffffffffffffffffffffffffffffffff82169050919050565b60006103ac82610381565b9050919050565b6103bc816103a1565b82525050565b60006020820190506103d760008301846103b3565b92915050565b6000604051905090565b600080fd5b600080fd5b600080fd5b600080fd5b7f4e487b7100000000000000000000000000000000000000000000000000000000600052604160045260246000fd5b61043382610315565b810181811067ffffffffffffffff82111715610452576104516103fb565b5b80604052505050565b60006104656103dd565b9050610471828261042a565b919050565b600067ffffffffffffffff821115610491576104906103fb565b5b61049a82610315565b9050602081019050919050565b82818337600083830152505050565b60006104c96104c484610476565b61045b565b9050828152602081018484840111156104e5576104e46103f6565b5b6104f08482856104a7565b509392505050565b600082601f83011261050d5761050c6103f1565b5b813561051d8482602086016104b6565b91505092915050565b60006020828403121561053c5761053b6103e7565b5b600082013567ffffffffffffffff81111561055a576105596103ec565b5b610566848285016104f8565b91505092915050565b7f4e487b7100000000000000000000000000000000000000000000000000000000600052602260045260246000fd5b600060028204905060018216806105b657607f821691505b602082108114156105ca576105c961056f565b5b5091905056fea26469706673582212203c4a76137edd93e6f23ead0ce8ab976027e16e175a33b20cdef481c8fd32c1f264736f6c63430008090033",
  "linkReferences": {},
  "deployedLinkReferences": {}
}