{
  "_format": "hh-sol-artifact-1",
  "contractName": "ERC20Adapter",
  "sourceName": "contracts/token/ERC20/ERC20Adapter.sol",
  "abi": [
    {
      "anonymous": false,
      "inputs": [
        {
          "indexed": true,
          "internalType": "address",
          "name": "owner",
          "type": "address"
        },
        {
          "indexed": true,
          "internalType": "address",
          "name": "spender",
          "type": "address"
        },
        {
          "indexed": false,
          "internalType": "uint256",
          "name": "value",
          "type": "uint256"
        }
      ],
      "name": "Approval",
      "type": "event"
    },
    {
      "anonymous": false,
      "inputs": [
        {
          "indexed": true,
          "internalType": "address",
          "name": "from",
          "type": "address"
        },
        {
          "indexed": true,
          "internalType": "address",
          "name": "to",
          "type": "address"
        },
        {
          "indexed": false,
          "internalType": "uint256",
          "name": "value",
          "type": "uint256"
        }
      ],
      "name": "Transfer",
      "type": "event"
    },
    {
      "inputs": [
        {
          "internalType": "address",
          "name": "owner",
          "type": "address"
        },
        {
          "internalType": "address",
          "name": "spender",
          "type": "address"
        }
      ],
      "name": "allowance",
      "outputs": [
        {
          "internalType": "uint256",
          "name": "",
          "type": "uint256"
        }
      ],
      "stateMutability": "view",
      "type": "function"
    },
    {
      "inputs": [
        {
          "internalType": "address",
          "name": "spender",
          "type": "address"
        },
        {
          "internalType": "uint256",
          "name": "amount",
          "type": "uint256"
        }
      ],
      "name": "approve",
      "outputs": [
        {
          "internalType": "bool",
          "name": "",
          "type": "bool"
        }
      ],
      "stateMutability": "nonpayable",
      "type": "function"
    },
    {
      "inputs": [
        {
          "internalType": "address",
          "name": "account",
          "type": "address"
        }
      ],
      "name": "balanceOf",
      "outputs": [
        {
          "internalType": "uint256",
          "name": "",
          "type": "uint256"
        }
      ],
      "stateMutability": "view",
      "type": "function"
    },
    {
      "inputs": [
        {
          "internalType": "address",
          "name": "_tokenAddress",
          "type": "address"
        }
      ],
      "name": "connectToken",
      "outputs": [],
      "stateMutability": "nonpayable",
      "type": "function"
    },
    {
      "inputs": [
        {
          "internalType": "address",
          "name": "account",
          "type": "address"
        },
        {
          "internalType": "uint256",
          "name": "amount",
          "type": "uint256"
        }
      ],
      "name": "mint",
      "outputs": [],
      "stateMutability": "nonpayable",
      "type": "function"
    },
    {
      "inputs": [],
      "name": "token",
      "outputs": [
        {
          "internalType": "contract IERC20",
          "name": "",
          "type": "address"
        }
      ],
      "stateMutability": "view",
      "type": "function"
    },
    {
      "inputs": [],
      "name": "totalSupply",
      "outputs": [
        {
          "internalType": "uint256",
          "name": "",
          "type": "uint256"
        }
      ],
      "stateMutability": "view",
      "type": "function"
    },
    {
      "inputs": [
        {
          "internalType": "address",
          "name": "recipient",
          "type": "address"
        },
        {
          "internalType": "uint256",
          "name": "amount",
          "type": "uint256"
        }
      ],
      "name": "transfer",
      "outputs": [
        {
          "internalType": "bool",
          "name": "",
          "type": "bool"
        }
      ],
      "stateMutability": "nonpayable",
      "type": "function"
    },
    {
      "inputs": [
        {
          "internalType": "address",
          "name": "sender",
          "type": "address"
        },
        {
          "internalType": "address",
          "name": "recipient",
          "type": "address"
        },
        {
          "internalType": "uint256",
          "name": "amount",
          "type": "uint256"
        }
      ],
      "name": "transferFrom",
      "outputs": [
        {
          "internalType": "bool",
          "name": "",
          "type": "bool"
        }
      ],
      "stateMutability": "nonpayable",
      "type": "function"
    }
  ],
  "bytecode": "0x608060405234801561001057600080fd5b50610b21806100206000396000f3fe608060405234801561001057600080fd5b50600436106100935760003560e01c806370a082311161006657806370a082311461013257806399413b4e14610162578063a9059cbb1461017e578063dd62ed3e146101ae578063fc0c546a146101de57610093565b8063095ea7b31461009857806318160ddd146100c857806323b872dd146100e657806340c10f1914610116575b600080fd5b6100b260048036038101906100ad91906107c3565b6101fc565b6040516100bf919061081e565b60405180910390f35b6100d06102b3565b6040516100dd9190610848565b60405180910390f35b61010060048036038101906100fb9190610863565b610359565b60405161010d919061081e565b60405180910390f35b610130600480360381019061012b91906107c3565b610413565b005b61014c600480360381019061014791906108b6565b6104a4565b6040516101599190610848565b60405180910390f35b61017c600480360381019061017791906108b6565b610557565b005b610198600480360381019061019391906107c3565b61059a565b6040516101a5919061081e565b60405180910390f35b6101c860048036038101906101c391906108e3565b610651565b6040516101d59190610848565b60405180910390f35b6101e6610706565b6040516101f39190610982565b60405180910390f35b60008060009054906101000a900473ffffffffffffffffffffffffffffffffffffffff1673ffffffffffffffffffffffffffffffffffffffff1663095ea7b384846040518363ffffffff1660e01b815260040161025a9291906109ac565b602060405180830381600087803b15801561027457600080fd5b505af1158015610288573d6000803e3d6000fd5b505050506040513d601f19601f820116820180604052508101906102ac9190610a01565b5092915050565b60008060009054906101000a900473ffffffffffffffffffffffffffffffffffffffff1673ffffffffffffffffffffffffffffffffffffffff166318160ddd6040518163ffffffff1660e01b815260040160206040518083038186803b15801561031c57600080fd5b505afa158015610330573d6000803e3d6000fd5b505050506040513d601f19601f820116820180604052508101906103549190610a43565b905090565b60008060009054906101000a900473ffffffffffffffffffffffffffffffffffffffff1673ffffffffffffffffffffffffffffffffffffffff166323b872dd8585856040518463ffffffff1660e01b81526004016103b993929190610a70565b602060405180830381600087803b1580156103d357600080fd5b505af11580156103e7573d6000803e3d6000fd5b505050506040513d601f19601f8201168201806040525081019061040b9190610a01565b509392505050565b60008054906101000a900473ffffffffffffffffffffffffffffffffffffffff1673ffffffffffffffffffffffffffffffffffffffff166340c10f1983836040518363ffffffff1660e01b815260040161046e9291906109ac565b600060405180830381600087803b15801561048857600080fd5b505af115801561049c573d6000803e3d6000fd5b505050505050565b60008060009054906101000a900473ffffffffffffffffffffffffffffffffffffffff1673ffffffffffffffffffffffffffffffffffffffff166370a08231836040518263ffffffff1660e01b81526004016105009190610aa7565b60206040518083038186803b15801561051857600080fd5b505afa15801561052c573d6000803e3d6000fd5b505050506040513d601f19601f820116820180604052508101906105509190610a43565b9050919050565b806000806101000a81548173ffffffffffffffffffffffffffffffffffffffff021916908373ffffffffffffffffffffffffffffffffffffffff16021790555050565b60008060009054906101000a900473ffffffffffffffffffffffffffffffffffffffff1673ffffffffffffffffffffffffffffffffffffffff1663a9059cbb84846040518363ffffffff1660e01b81526004016105f89291906109ac565b602060405180830381600087803b15801561061257600080fd5b505af1158015610626573d6000803e3d6000fd5b505050506040513d601f19601f8201168201806040525081019061064a9190610a01565b5092915050565b60008060009054906101000a900473ffffffffffffffffffffffffffffffffffffffff1673ffffffffffffffffffffffffffffffffffffffff1663dd62ed3e84846040518363ffffffff1660e01b81526004016106af929190610ac2565b60206040518083038186803b1580156106c757600080fd5b505afa1580156106db573d6000803e3d6000fd5b505050506040513d601f19601f820116820180604052508101906106ff9190610a43565b5092915050565b60008054906101000a900473ffffffffffffffffffffffffffffffffffffffff1681565b600080fd5b600073ffffffffffffffffffffffffffffffffffffffff82169050919050565b600061075a8261072f565b9050919050565b61076a8161074f565b811461077557600080fd5b50565b60008135905061078781610761565b92915050565b6000819050919050565b6107a08161078d565b81146107ab57600080fd5b50565b6000813590506107bd81610797565b92915050565b600080604083850312156107da576107d961072a565b5b60006107e885828601610778565b92505060206107f9858286016107ae565b9150509250929050565b60008115159050919050565b61081881610803565b82525050565b6000602082019050610833600083018461080f565b92915050565b6108428161078d565b82525050565b600060208201905061085d6000830184610839565b92915050565b60008060006060848603121561087c5761087b61072a565b5b600061088a86828701610778565b935050602061089b86828701610778565b92505060406108ac868287016107ae565b9150509250925092565b6000602082840312156108cc576108cb61072a565b5b60006108da84828501610778565b91505092915050565b600080604083850312156108fa576108f961072a565b5b600061090885828601610778565b925050602061091985828601610778565b9150509250929050565b6000819050919050565b600061094861094361093e8461072f565b610923565b61072f565b9050919050565b600061095a8261092d565b9050919050565b600061096c8261094f565b9050919050565b61097c81610961565b82525050565b60006020820190506109976000830184610973565b92915050565b6109a68161074f565b82525050565b60006040820190506109c1600083018561099d565b6109ce6020830184610839565b9392505050565b6109de81610803565b81146109e957600080fd5b50565b6000815190506109fb816109d5565b92915050565b600060208284031215610a1757610a1661072a565b5b6000610a25848285016109ec565b91505092915050565b600081519050610a3d81610797565b92915050565b600060208284031215610a5957610a5861072a565b5b6000610a6784828501610a2e565b91505092915050565b6000606082019050610a85600083018661099d565b610a92602083018561099d565b610a9f6040830184610839565b949350505050565b6000602082019050610abc600083018461099d565b92915050565b6000604082019050610ad7600083018561099d565b610ae4602083018461099d565b939250505056fea2646970667358221220a1d529e790830f81220c9444c7bc3f15a76363e6dd0a6b376b20956fe41e001464736f6c63430008090033",
  "linkReferences": {},
  "deployedLinkReferences": {}
}