{
  "_format": "hh-sol-artifact-1",
  "contractName": "MarketBase",
  "sourceName": "contracts/market/base/MarketBase.sol",
  "abi": [
    {
      "inputs": [
        {
          "internalType": "string",
          "name": "_name",
          "type": "string"
        }
      ],
      "stateMutability": "nonpayable",
      "type": "constructor"
    },
    {
      "anonymous": false,
      "inputs": [
        {
          "indexed": true,
          "internalType": "uint256",
          "name": "itemId",
          "type": "uint256"
        },
        {
          "indexed": true,
          "internalType": "address",
          "name": "nftContract",
          "type": "address"
        },
        {
          "indexed": false,
          "internalType": "string",
          "name": "name",
          "type": "string"
        },
        {
          "indexed": false,
          "internalType": "string",
          "name": "category",
          "type": "string"
        }
      ],
      "name": "ItemCreated",
      "type": "event"
    },
    {
      "inputs": [
        {
          "internalType": "address",
          "name": "modelContract",
          "type": "address"
        }
      ],
      "name": "addItem",
      "outputs": [],
      "stateMutability": "payable",
      "type": "function"
    },
    {
      "inputs": [
        {
          "internalType": "uint256",
          "name": "",
          "type": "uint256"
        }
      ],
      "name": "id2index",
      "outputs": [
        {
          "internalType": "uint256",
          "name": "",
          "type": "uint256"
        }
      ],
      "stateMutability": "view",
      "type": "function"
    },
    {
      "inputs": [
        {
          "internalType": "address",
          "name": "",
          "type": "address"
        }
      ],
      "name": "item2id",
      "outputs": [
        {
          "internalType": "uint256",
          "name": "",
          "type": "uint256"
        }
      ],
      "stateMutability": "view",
      "type": "function"
    },
    {
      "inputs": [
        {
          "internalType": "uint256",
          "name": "",
          "type": "uint256"
        }
      ],
      "name": "itemIds",
      "outputs": [
        {
          "internalType": "uint256",
          "name": "",
          "type": "uint256"
        }
      ],
      "stateMutability": "view",
      "type": "function"
    },
    {
      "inputs": [],
      "name": "listMyItems",
      "outputs": [
        {
          "components": [
            {
              "internalType": "uint256",
              "name": "id",
              "type": "uint256"
            },
            {
              "internalType": "address",
              "name": "item",
              "type": "address"
            },
            {
              "internalType": "address",
              "name": "creator",
              "type": "address"
            }
          ],
          "internalType": "struct ItemState[]",
          "name": "",
          "type": "tuple[]"
        }
      ],
      "stateMutability": "view",
      "type": "function"
    },
    {
      "inputs": [],
      "name": "listitemState",
      "outputs": [
        {
          "components": [
            {
              "internalType": "uint256",
              "name": "id",
              "type": "uint256"
            },
            {
              "internalType": "address",
              "name": "item",
              "type": "address"
            },
            {
              "internalType": "address",
              "name": "creator",
              "type": "address"
            }
          ],
          "internalType": "struct ItemState[]",
          "name": "",
          "type": "tuple[]"
        }
      ],
      "stateMutability": "view",
      "type": "function"
    },
    {
      "inputs": [],
      "name": "name",
      "outputs": [
        {
          "internalType": "string",
          "name": "",
          "type": "string"
        }
      ],
      "stateMutability": "view",
      "type": "function"
    },
    {
      "inputs": [
        {
          "internalType": "uint256",
          "name": "itemId",
          "type": "uint256"
        }
      ],
      "name": "removeItem",
      "outputs": [],
      "stateMutability": "payable",
      "type": "function"
    }
  ],
  "bytecode": "0x608060405260006002553480156200001657600080fd5b50604051620016163803806200161683398181016040528101906200003c9190620002f2565b600160008190555033600160006101000a81548173ffffffffffffffffffffffffffffffffffffffff021916908373ffffffffffffffffffffffffffffffffffffffff16021790555080600390805190602001906200009d929190620000a5565b5050620003a8565b828054620000b39062000372565b90600052602060002090601f016020900481019282620000d7576000855562000123565b82601f10620000f257805160ff191683800117855562000123565b8280016001018555821562000123579182015b828111156200012257825182559160200191906001019062000105565b5b50905062000132919062000136565b5090565b5b808211156200015157600081600090555060010162000137565b5090565b6000604051905090565b600080fd5b600080fd5b600080fd5b600080fd5b6000601f19601f8301169050919050565b7f4e487b7100000000000000000000000000000000000000000000000000000000600052604160045260246000fd5b620001be8262000173565b810181811067ffffffffffffffff82111715620001e057620001df62000184565b5b80604052505050565b6000620001f562000155565b9050620002038282620001b3565b919050565b600067ffffffffffffffff82111562000226576200022562000184565b5b620002318262000173565b9050602081019050919050565b60005b838110156200025e57808201518184015260208101905062000241565b838111156200026e576000848401525b50505050565b60006200028b620002858462000208565b620001e9565b905082815260208101848484011115620002aa57620002a96200016e565b5b620002b78482856200023e565b509392505050565b600082601f830112620002d757620002d662000169565b5b8151620002e984826020860162000274565b91505092915050565b6000602082840312156200030b576200030a6200015f565b5b600082015167ffffffffffffffff8111156200032c576200032b62000164565b5b6200033a84828501620002bf565b91505092915050565b7f4e487b7100000000000000000000000000000000000000000000000000000000600052602260045260246000fd5b600060028204905060018216806200038b57607f821691505b60208210811415620003a257620003a162000343565b5b50919050565b61125e80620003b86000396000f3fe60806040526004361061007b5760003560e01c80637cf90fcc1161004e5780637cf90fcc1461011d57806388b7458114610139578063b3dc00fe14610176578063b4a12776146101b35761007b565b806306fdde031461008057806317b46fc0146100ab578063510d4cdb146100d65780637132917114610101575b600080fd5b34801561008c57600080fd5b506100956101f0565b6040516100a29190610db2565b60405180910390f35b3480156100b757600080fd5b506100c061027e565b6040516100cd9190610f1f565b60405180910390f35b3480156100e257600080fd5b506100eb61045d565b6040516100f89190610f1f565b60405180910390f35b61011b60048036038101906101169190610f72565b610600565b005b61013760048036038101906101329190610fcb565b6109c0565b005b34801561014557600080fd5b50610160600480360381019061015b9190610fcb565b610c78565b60405161016d9190611007565b60405180910390f35b34801561018257600080fd5b5061019d60048036038101906101989190610f72565b610c90565b6040516101aa9190611007565b60405180910390f35b3480156101bf57600080fd5b506101da60048036038101906101d59190610f72565b610cb4565b6040516101e79190611007565b60405180910390f35b600380546101fd90611051565b80601f016020809104026020016040519081016040528092919081815260200182805461022990611051565b80156102765780601f1061024b57610100808354040283529160200191610276565b820191906000526020600020905b81548152906001019060200180831161025957829003601f168201915b505050505081565b60606000600460003373ffffffffffffffffffffffffffffffffffffffff1673ffffffffffffffffffffffffffffffffffffffff16815260200190815260200160002060000190506000818054905067ffffffffffffffff8111156102e6576102e5611083565b5b60405190808252806020026020018201604052801561031f57816020015b61030c610ccc565b8152602001906001900390816103045790505b50905060005b8280549050811015610454576005600060088381548110610349576103486110b2565b5b90600052602060002001548152602001908152602001600020604051806060016040529081600082015481526020016001820160009054906101000a900473ffffffffffffffffffffffffffffffffffffffff1673ffffffffffffffffffffffffffffffffffffffff1673ffffffffffffffffffffffffffffffffffffffff1681526020016002820160009054906101000a900473ffffffffffffffffffffffffffffffffffffffff1673ffffffffffffffffffffffffffffffffffffffff1673ffffffffffffffffffffffffffffffffffffffff1681525050828281518110610436576104356110b2565b5b6020026020010181905250808061044c90611110565b915050610325565b50809250505090565b60606000600254905060008167ffffffffffffffff81111561048257610481611083565b5b6040519080825280602002602001820160405280156104bb57816020015b6104a8610ccc565b8152602001906001900390816104a05790505b50905060005b6008805490508110156105f757600060056000600884815481106104e8576104e76110b2565b5b90600052602060002001548152602001908152602001600020905080604051806060016040529081600082015481526020016001820160009054906101000a900473ffffffffffffffffffffffffffffffffffffffff1673ffffffffffffffffffffffffffffffffffffffff1673ffffffffffffffffffffffffffffffffffffffff1681526020016002820160009054906101000a900473ffffffffffffffffffffffffffffffffffffffff1673ffffffffffffffffffffffffffffffffffffffff1673ffffffffffffffffffffffffffffffffffffffff16815250508383815181106105d8576105d76110b2565b5b60200260200101819052505080806105ef90611110565b9150506104c1565b50809250505090565b60026000541415610646576040517f08c379a000000000000000000000000000000000000000000000000000000000815260040161063d906111a5565b60405180910390fd5b60026000819055506000600760006005600085815260200190815260200160002060010160009054906101000a900473ffffffffffffffffffffffffffffffffffffffff1673ffffffffffffffffffffffffffffffffffffffff1673ffffffffffffffffffffffffffffffffffffffff16815260200190815260200160002054146109b5576000600460003373ffffffffffffffffffffffffffffffffffffffff1673ffffffffffffffffffffffffffffffffffffffff168152602001908152602001600020600001905060005b81805490508110156107cf5782828281548110610734576107336110b2565b5b906000526020600020015414156107bc57816001838054905061075791906111c5565b81548110610768576107676110b2565b5b9060005260206000200154828281548110610786576107856110b2565b5b9060005260206000200181905550818054806107a5576107a46111f9565b5b600190038181906000526020600020016000905590555b80806107c790611110565b915050610714565b50600660008381526020019081526020016000205460066000600860016008805490506107fc91906111c5565b8154811061080d5761080c6110b2565b5b90600052602060002001548152602001908152602001600020819055506008600160088054905061083e91906111c5565b8154811061084f5761084e6110b2565b5b90600052602060002001546008600660008581526020019081526020016000205481548110610881576108806110b2565b5b9060005260206000200181905550600660008381526020019081526020016000206000905560088054806108b8576108b76111f9565b5b60019003818190600052602060002001600090559055600760006005600085815260200190815260200160002060010160009054906101000a900473ffffffffffffffffffffffffffffffffffffffff1673ffffffffffffffffffffffffffffffffffffffff1673ffffffffffffffffffffffffffffffffffffffff16815260200190815260200160002060009055600560008381526020019081526020016000206000808201600090556001820160006101000a81549073ffffffffffffffffffffffffffffffffffffffff02191690556002820160006101000a81549073ffffffffffffffffffffffffffffffffffffffff02191690555050505b600160008190555050565b60026000541415610a06576040517f08c379a00000000000000000000000000000000000000000000000000000000081526004016109fd906111a5565b60405180910390fd5b60026000819055506000600760008373ffffffffffffffffffffffffffffffffffffffff1673ffffffffffffffffffffffffffffffffffffffff168152602001908152602001600020541415610c6d5760026000815480929190610a6990611110565b919050555060006002549050600860025490806001815401808255809150506001900390600052602060002001600090919091909150556001600880549050610ab291906111c5565b6006600083815260200190815260200160002081905550600460003373ffffffffffffffffffffffffffffffffffffffff1673ffffffffffffffffffffffffffffffffffffffff16815260200190815260200160002060000181908060018154018082558091505060019003906000526020600020016000909190919091505560405180606001604052808281526020018373ffffffffffffffffffffffffffffffffffffffff1681526020013373ffffffffffffffffffffffffffffffffffffffff16815250600560008381526020019081526020016000206000820151816000015560208201518160010160006101000a81548173ffffffffffffffffffffffffffffffffffffffff021916908373ffffffffffffffffffffffffffffffffffffffff16021790555060408201518160020160006101000a81548173ffffffffffffffffffffffffffffffffffffffff021916908373ffffffffffffffffffffffffffffffffffffffff16021790555090505080600760008473ffffffffffffffffffffffffffffffffffffffff1673ffffffffffffffffffffffffffffffffffffffff16815260200190815260200160002081905550505b600160008190555050565b60076020528060005260406000206000915090505481565b60088181548110610ca057600080fd5b906000526020600020016000915090505481565b60066020528060005260406000206000915090505481565b604051806060016040528060008152602001600073ffffffffffffffffffffffffffffffffffffffff168152602001600073ffffffffffffffffffffffffffffffffffffffff1681525090565b600081519050919050565b600082825260208201905092915050565b60005b83811015610d53578082015181840152602081019050610d38565b83811115610d62576000848401525b50505050565b6000601f19601f8301169050919050565b6000610d8482610d19565b610d8e8185610d24565b9350610d9e818560208601610d35565b610da781610d68565b840191505092915050565b60006020820190508181036000830152610dcc8184610d79565b905092915050565b600081519050919050565b600082825260208201905092915050565b6000819050602082019050919050565b6000819050919050565b610e1381610e00565b82525050565b600073ffffffffffffffffffffffffffffffffffffffff82169050919050565b6000610e4482610e19565b9050919050565b610e5481610e39565b82525050565b606082016000820151610e706000850182610e0a565b506020820151610e836020850182610e4b565b506040820151610e966040850182610e4b565b50505050565b6000610ea88383610e5a565b60608301905092915050565b6000602082019050919050565b6000610ecc82610dd4565b610ed68185610ddf565b9350610ee183610df0565b8060005b83811015610f12578151610ef98882610e9c565b9750610f0483610eb4565b925050600181019050610ee5565b5085935050505092915050565b60006020820190508181036000830152610f398184610ec1565b905092915050565b600080fd5b610f4f81610e00565b8114610f5a57600080fd5b50565b600081359050610f6c81610f46565b92915050565b600060208284031215610f8857610f87610f41565b5b6000610f9684828501610f5d565b91505092915050565b610fa881610e39565b8114610fb357600080fd5b50565b600081359050610fc581610f9f565b92915050565b600060208284031215610fe157610fe0610f41565b5b6000610fef84828501610fb6565b91505092915050565b61100181610e00565b82525050565b600060208201905061101c6000830184610ff8565b92915050565b7f4e487b7100000000000000000000000000000000000000000000000000000000600052602260045260246000fd5b6000600282049050600182168061106957607f821691505b6020821081141561107d5761107c611022565b5b50919050565b7f4e487b7100000000000000000000000000000000000000000000000000000000600052604160045260246000fd5b7f4e487b7100000000000000000000000000000000000000000000000000000000600052603260045260246000fd5b7f4e487b7100000000000000000000000000000000000000000000000000000000600052601160045260246000fd5b600061111b82610e00565b91507fffffffffffffffffffffffffffffffffffffffffffffffffffffffffffffffff82141561114e5761114d6110e1565b5b600182019050919050565b7f5265656e7472616e637947756172643a207265656e7472616e742063616c6c00600082015250565b600061118f601f83610d24565b915061119a82611159565b602082019050919050565b600060208201905081810360008301526111be81611182565b9050919050565b60006111d082610e00565b91506111db83610e00565b9250828210156111ee576111ed6110e1565b5b828203905092915050565b7f4e487b7100000000000000000000000000000000000000000000000000000000600052603160045260246000fdfea2646970667358221220ff5a196e1fb0053b7cbf0a91e237a351f17510ebfb6b449d832f5bb7c877dd9664736f6c63430008090033",
  "linkReferences": {},
  "deployedLinkReferences": {}
}