{
  "_format": "hh-sol-artifact-1",
  "contractName": "CommuneTreasury",
  "sourceName": "contracts/treasury/CommuneTreasury.sol",
  "abi": [
    {
      "inputs": [
        {
          "internalType": "string",
          "name": "_name",
          "type": "string"
        },
        {
          "internalType": "string",
          "name": "_symbol",
          "type": "string"
        }
      ],
      "stateMutability": "nonpayable",
      "type": "constructor"
    },
    {
      "inputs": [
        {
          "internalType": "address",
          "name": "",
          "type": "address"
        },
        {
          "internalType": "address",
          "name": "",
          "type": "address"
        }
      ],
      "name": "_balances",
      "outputs": [
        {
          "internalType": "uint256",
          "name": "",
          "type": "uint256"
        }
      ],
      "stateMutability": "view",
      "type": "function"
    },
    {
      "inputs": [],
      "name": "accessController",
      "outputs": [
        {
          "internalType": "contract IAccessControl",
          "name": "",
          "type": "address"
        }
      ],
      "stateMutability": "view",
      "type": "function"
    },
    {
      "inputs": [
        {
          "internalType": "address",
          "name": "asset",
          "type": "address"
        },
        {
          "internalType": "uint256",
          "name": "balance",
          "type": "uint256"
        },
        {
          "internalType": "string",
          "name": "name",
          "type": "string"
        },
        {
          "internalType": "string",
          "name": "mode",
          "type": "string"
        },
        {
          "internalType": "bool",
          "name": "liquid",
          "type": "bool"
        }
      ],
      "name": "addAsset",
      "outputs": [],
      "stateMutability": "nonpayable",
      "type": "function"
    },
    {
      "inputs": [
        {
          "internalType": "address",
          "name": "",
          "type": "address"
        }
      ],
      "name": "asset2index",
      "outputs": [
        {
          "internalType": "uint256",
          "name": "",
          "type": "uint256"
        }
      ],
      "stateMutability": "view",
      "type": "function"
    },
    {
      "inputs": [
        {
          "internalType": "address",
          "name": "asset",
          "type": "address"
        }
      ],
      "name": "assetExists",
      "outputs": [
        {
          "internalType": "bool",
          "name": "",
          "type": "bool"
        }
      ],
      "stateMutability": "view",
      "type": "function"
    },
    {
      "inputs": [
        {
          "internalType": "uint256",
          "name": "",
          "type": "uint256"
        }
      ],
      "name": "assetStates",
      "outputs": [
        {
          "internalType": "address",
          "name": "asset",
          "type": "address"
        },
        {
          "internalType": "string",
          "name": "name",
          "type": "string"
        },
        {
          "internalType": "string",
          "name": "mode",
          "type": "string"
        },
        {
          "internalType": "uint256",
          "name": "balance",
          "type": "uint256"
        },
        {
          "internalType": "uint256",
          "name": "value",
          "type": "uint256"
        },
        {
          "internalType": "address",
          "name": "valueOracle",
          "type": "address"
        },
        {
          "internalType": "bool",
          "name": "liquid",
          "type": "bool"
        },
        {
          "internalType": "uint256",
          "name": "lastUpdateBlock",
          "type": "uint256"
        },
        {
          "internalType": "bytes",
          "name": "metaData",
          "type": "bytes"
        }
      ],
      "stateMutability": "view",
      "type": "function"
    },
    {
      "inputs": [
        {
          "internalType": "address",
          "name": "asset",
          "type": "address"
        },
        {
          "internalType": "uint256",
          "name": "balance",
          "type": "uint256"
        }
      ],
      "name": "balance2value",
      "outputs": [
        {
          "internalType": "uint256",
          "name": "",
          "type": "uint256"
        }
      ],
      "stateMutability": "view",
      "type": "function"
    },
    {
      "inputs": [
        {
          "internalType": "address",
          "name": "account",
          "type": "address"
        },
        {
          "internalType": "address",
          "name": "asset",
          "type": "address"
        }
      ],
      "name": "balanceOf",
      "outputs": [
        {
          "internalType": "uint256",
          "name": "",
          "type": "uint256"
        }
      ],
      "stateMutability": "view",
      "type": "function"
    },
    {
      "inputs": [
        {
          "internalType": "address[]",
          "name": "accounts",
          "type": "address[]"
        },
        {
          "internalType": "address[]",
          "name": "assets",
          "type": "address[]"
        }
      ],
      "name": "balanceOfBatch",
      "outputs": [
        {
          "internalType": "uint256[]",
          "name": "",
          "type": "uint256[]"
        }
      ],
      "stateMutability": "view",
      "type": "function"
    },
    {
      "inputs": [
        {
          "internalType": "address",
          "name": "user",
          "type": "address"
        }
      ],
      "name": "balanceOfBatch",
      "outputs": [
        {
          "internalType": "address[]",
          "name": "",
          "type": "address[]"
        },
        {
          "internalType": "uint256[]",
          "name": "",
          "type": "uint256[]"
        }
      ],
      "stateMutability": "nonpayable",
      "type": "function"
    },
    {
      "inputs": [
        {
          "internalType": "address",
          "name": "ac_acccount",
          "type": "address"
        }
      ],
      "name": "connectAccessController",
      "outputs": [],
      "stateMutability": "nonpayable",
      "type": "function"
    },
    {
      "inputs": [
        {
          "internalType": "address",
          "name": "asset",
          "type": "address"
        },
        {
          "internalType": "uint256",
          "name": "balance",
          "type": "uint256"
        },
        {
          "internalType": "string",
          "name": "name",
          "type": "string"
        },
        {
          "internalType": "string",
          "name": "mode",
          "type": "string"
        },
        {
          "internalType": "bool",
          "name": "liquid",
          "type": "bool"
        }
      ],
      "name": "deposit",
      "outputs": [],
      "stateMutability": "nonpayable",
      "type": "function"
    },
    {
      "inputs": [
        {
          "internalType": "address[]",
          "name": "assets",
          "type": "address[]"
        },
        {
          "internalType": "string",
          "name": "mode",
          "type": "string"
        }
      ],
      "name": "filterAssetsByMode",
      "outputs": [
        {
          "internalType": "address[]",
          "name": "",
          "type": "address[]"
        }
      ],
      "stateMutability": "view",
      "type": "function"
    },
    {
      "inputs": [],
      "name": "getAssetStates",
      "outputs": [
        {
          "components": [
            {
              "internalType": "address",
              "name": "asset",
              "type": "address"
            },
            {
              "internalType": "string",
              "name": "name",
              "type": "string"
            },
            {
              "internalType": "string",
              "name": "mode",
              "type": "string"
            },
            {
              "internalType": "uint256",
              "name": "balance",
              "type": "uint256"
            },
            {
              "internalType": "uint256",
              "name": "value",
              "type": "uint256"
            },
            {
              "internalType": "address",
              "name": "valueOracle",
              "type": "address"
            },
            {
              "internalType": "bool",
              "name": "liquid",
              "type": "bool"
            },
            {
              "internalType": "uint256",
              "name": "lastUpdateBlock",
              "type": "uint256"
            },
            {
              "internalType": "bytes",
              "name": "metaData",
              "type": "bytes"
            }
          ],
          "internalType": "struct AssetState[]",
          "name": "",
          "type": "tuple[]"
        }
      ],
      "stateMutability": "view",
      "type": "function"
    },
    {
      "inputs": [
        {
          "internalType": "address",
          "name": "user",
          "type": "address"
        }
      ],
      "name": "getUserValue",
      "outputs": [
        {
          "internalType": "uint256",
          "name": "",
          "type": "uint256"
        }
      ],
      "stateMutability": "view",
      "type": "function"
    },
    {
      "inputs": [
        {
          "internalType": "string",
          "name": "role",
          "type": "string"
        },
        {
          "internalType": "address",
          "name": "account",
          "type": "address"
        }
      ],
      "name": "hasRole",
      "outputs": [
        {
          "internalType": "bool",
          "name": "",
          "type": "bool"
        }
      ],
      "stateMutability": "view",
      "type": "function"
    },
    {
      "inputs": [
        {
          "internalType": "address",
          "name": "account",
          "type": "address"
        },
        {
          "internalType": "address",
          "name": "operator",
          "type": "address"
        }
      ],
      "name": "isApprovedForAll",
      "outputs": [
        {
          "internalType": "bool",
          "name": "",
          "type": "bool"
        }
      ],
      "stateMutability": "view",
      "type": "function"
    },
    {
      "inputs": [
        {
          "internalType": "address",
          "name": "from",
          "type": "address"
        },
        {
          "internalType": "address",
          "name": "to",
          "type": "address"
        },
        {
          "internalType": "address[]",
          "name": "assets",
          "type": "address[]"
        },
        {
          "internalType": "uint256[]",
          "name": "amounts",
          "type": "uint256[]"
        },
        {
          "internalType": "bytes",
          "name": "data",
          "type": "bytes"
        }
      ],
      "name": "safeBatchTransferFrom",
      "outputs": [],
      "stateMutability": "nonpayable",
      "type": "function"
    },
    {
      "inputs": [
        {
          "internalType": "address",
          "name": "operator",
          "type": "address"
        },
        {
          "internalType": "bool",
          "name": "approved",
          "type": "bool"
        }
      ],
      "name": "setApprovalForAll",
      "outputs": [],
      "stateMutability": "nonpayable",
      "type": "function"
    },
    {
      "inputs": [
        {
          "internalType": "uint256[]",
          "name": "array",
          "type": "uint256[]"
        }
      ],
      "name": "sumArray",
      "outputs": [
        {
          "internalType": "uint256",
          "name": "",
          "type": "uint256"
        }
      ],
      "stateMutability": "view",
      "type": "function"
    },
    {
      "inputs": [
        {
          "internalType": "bytes4",
          "name": "interfaceId",
          "type": "bytes4"
        }
      ],
      "name": "supportsInterface",
      "outputs": [
        {
          "internalType": "bool",
          "name": "",
          "type": "bool"
        }
      ],
      "stateMutability": "view",
      "type": "function"
    },
    {
      "inputs": [],
      "name": "treasuryAssetState",
      "outputs": [
        {
          "internalType": "address",
          "name": "asset",
          "type": "address"
        },
        {
          "internalType": "string",
          "name": "name",
          "type": "string"
        },
        {
          "internalType": "string",
          "name": "mode",
          "type": "string"
        },
        {
          "internalType": "uint256",
          "name": "balance",
          "type": "uint256"
        },
        {
          "internalType": "uint256",
          "name": "value",
          "type": "uint256"
        },
        {
          "internalType": "address",
          "name": "valueOracle",
          "type": "address"
        },
        {
          "internalType": "bool",
          "name": "liquid",
          "type": "bool"
        },
        {
          "internalType": "uint256",
          "name": "lastUpdateBlock",
          "type": "uint256"
        },
        {
          "internalType": "bytes",
          "name": "metaData",
          "type": "bytes"
        }
      ],
      "stateMutability": "view",
      "type": "function"
    },
    {
      "inputs": [
        {
          "internalType": "address",
          "name": "",
          "type": "address"
        },
        {
          "internalType": "uint256",
          "name": "",
          "type": "uint256"
        }
      ],
      "name": "user2assets",
      "outputs": [
        {
          "internalType": "address",
          "name": "",
          "type": "address"
        }
      ],
      "stateMutability": "view",
      "type": "function"
    },
    {
      "inputs": [
        {
          "internalType": "uint256",
          "name": "",
          "type": "uint256"
        }
      ],
      "name": "users",
      "outputs": [
        {
          "internalType": "address",
          "name": "",
          "type": "address"
        }
      ],
      "stateMutability": "view",
      "type": "function"
    },
    {
      "inputs": [
        {
          "internalType": "address",
          "name": "account",
          "type": "address"
        },
        {
          "internalType": "address",
          "name": "asset",
          "type": "address"
        }
      ],
      "name": "valueOf",
      "outputs": [
        {
          "internalType": "uint256",
          "name": "",
          "type": "uint256"
        }
      ],
      "stateMutability": "view",
      "type": "function"
    },
    {
      "inputs": [
        {
          "internalType": "address[]",
          "name": "accounts",
          "type": "address[]"
        },
        {
          "internalType": "address[]",
          "name": "assets",
          "type": "address[]"
        }
      ],
      "name": "valueOfBatch",
      "outputs": [
        {
          "internalType": "uint256[]",
          "name": "",
          "type": "uint256[]"
        }
      ],
      "stateMutability": "view",
      "type": "function"
    },
    {
      "inputs": [
        {
          "internalType": "address",
          "name": "asset",
          "type": "address"
        },
        {
          "internalType": "uint256",
          "name": "balance",
          "type": "uint256"
        }
      ],
      "name": "withdraw",
      "outputs": [],
      "stateMutability": "nonpayable",
      "type": "function"
    }
  ],
  "bytecode": "0x60806040526127106001553480156200001757600080fd5b50604051620069b8380380620069b883398181016040528101906200003d9190620002ad565b30600960000160006101000a81548173ffffffffffffffffffffffffffffffffffffffff021916908373ffffffffffffffffffffffffffffffffffffffff16021790555030604051620000909062000102565b6200009c9190620003d8565b604051809103906000f080158015620000b9573d6000803e3d6000fd5b50601160006101000a81548173ffffffffffffffffffffffffffffffffffffffff021916908373ffffffffffffffffffffffffffffffffffffffff16021790555050506200040a565b6122a5806200471383390190565b6000604051905090565b600080fd5b600080fd5b600080fd5b600080fd5b6000601f19601f8301169050919050565b7f4e487b7100000000000000000000000000000000000000000000000000000000600052604160045260246000fd5b62000179826200012e565b810181811067ffffffffffffffff821117156200019b576200019a6200013f565b5b80604052505050565b6000620001b062000110565b9050620001be82826200016e565b919050565b600067ffffffffffffffff821115620001e157620001e06200013f565b5b620001ec826200012e565b9050602081019050919050565b60005b8381101562000219578082015181840152602081019050620001fc565b8381111562000229576000848401525b50505050565b6000620002466200024084620001c3565b620001a4565b90508281526020810184848401111562000265576200026462000129565b5b62000272848285620001f9565b509392505050565b600082601f83011262000292576200029162000124565b5b8151620002a48482602086016200022f565b91505092915050565b60008060408385031215620002c757620002c66200011a565b5b600083015167ffffffffffffffff811115620002e857620002e76200011f565b5b620002f6858286016200027a565b925050602083015167ffffffffffffffff8111156200031a57620003196200011f565b5b62000328858286016200027a565b9150509250929050565b600073ffffffffffffffffffffffffffffffffffffffff82169050919050565b60006200035f8262000332565b9050919050565b620003718162000352565b82525050565b600082825260208201905092915050565b7f7472656173757279000000000000000000000000000000000000000000000000600082015250565b6000620003c060088362000377565b9150620003cd8262000388565b602082019050919050565b6000604082019050620003ef600083018462000366565b81810360208301526200040281620003b1565b905092915050565b6142f9806200041a6000396000f3fe608060405234801561001057600080fd5b50600436106101a95760003560e01c8063a22cb465116100f9578063df6e991411610097578063e985e9c511610071578063e985e9c514610574578063f3fef3a3146105a4578063f7888aec146105c0578063fc8f7b4e146105f0576101a9565b8063df6e9914146104f8578063e1f9b3ed14610514578063e21d072314610544576101a9565b8063ad4d4c89116100d3578063ad4d4c8914610470578063bc43cbaf146104a0578063bf1bd768146104be578063d536cdd6146104da576101a9565b8063a22cb46514610408578063a78c849b14610424578063a8e7fd6114610454576101a9565b806352e5eb79116101665780636c9cd097116101405780636c9cd097146103405780636f79c494146103705780638a342a88146103a0578063973353c9146103d8576101a9565b806352e5eb79146102ce57806367d9083b146102ea5780636c5a5ff11461031a576101a9565b806301ffc9a7146101ae5780630ffc231c146101de5780631e2aea061461020e57806328520eb91461023e578063365b98b21461026e5780634125ee3f1461029e575b600080fd5b6101c860048036038101906101c39190612bcb565b610621565b6040516101d59190612c13565b60405180910390f35b6101f860048036038101906101f39190612cc2565b61068b565b6040516102059190612d11565b60405180910390f35b61022860048036038101906102239190612e85565b610745565b6040516102359190612d11565b60405180910390f35b61025860048036038101906102539190612ece565b61079d565b6040516102659190612d11565b60405180910390f35b61028860048036038101906102839190612efb565b6107b5565b6040516102959190612f37565b60405180910390f35b6102b860048036038101906102b39190612cc2565b6107f4565b6040516102c59190612f37565b60405180910390f35b6102e860048036038101906102e39190612ece565b610842565b005b61030460048036038101906102ff9190613015565b610885565b604051610311919061314b565b60405180910390f35b6103226109c1565b6040516103379998979695949392919061324a565b60405180910390f35b61035a600480360381019061035591906133a1565b610be2565b6040516103679190612c13565b60405180910390f35b61038a600480360381019061038591906133fd565b610c98565b6040516103979190612d11565b60405180910390f35b6103ba60048036038101906103b59190612efb565b610d97565b6040516103cf9998979695949392919061324a565b60405180910390f35b6103f260048036038101906103ed9190613015565b610fda565b6040516103ff919061314b565b60405180910390f35b610422600480360381019061041d9190613469565b6110f3565b005b61043e60048036038101906104399190612ece565b611109565b60405161044b9190612d11565b60405180910390f35b61046e600480360381019061046991906134a9565b6112a9565b005b61048a60048036038101906104859190612ece565b61146f565b6040516104979190612c13565b60405180910390f35b6104a8611542565b6040516104b591906135bb565b60405180910390f35b6104d860048036038101906104d391906134a9565b611566565b005b6104e261167f565b6040516104ef919061381d565b60405180910390f35b610512600480360381019061050d91906138e0565b611980565b005b61052e600480360381019061052991906139af565b611a21565b60405161053b9190613ad6565b60405180910390f35b61055e600480360381019061055991906133fd565b611c09565b60405161056b9190612d11565b60405180910390f35b61058e600480360381019061058991906133fd565b611c2e565b60405161059b9190612c13565b60405180910390f35b6105be60048036038101906105b99190612cc2565b611cc2565b005b6105da60048036038101906105d591906133fd565b611d79565b6040516105e79190612d11565b60405180910390f35b61060a60048036038101906106059190612ece565b611e6f565b604051610618929190613af8565b60405180910390f35b60007f01ffc9a7000000000000000000000000000000000000000000000000000000007bffffffffffffffffffffffffffffffffffffffffffffffffffffffff1916827bffffffffffffffffffffffffffffffffffffffffffffffffffffffff1916149050919050565b600080600360008573ffffffffffffffffffffffffffffffffffffffff1673ffffffffffffffffffffffffffffffffffffffff1681526020019081526020016000205490506000600682815481106106e6576106e5613b2f565b5b9060005260206000209060080201905060008160040154600154836003015461070f9190613b8d565b6107199190613c16565b90506000600154828761072c9190613b8d565b6107369190613c16565b90508094505050505092915050565b6000806000905060005b83518110156107935783818151811061076b5761076a613b2f565b5b60200260200101518261077e9190613c47565b9150808061078b90613c9d565b91505061074f565b5080915050919050565b60036020528060005260406000206000915090505481565b600581815481106107c557600080fd5b906000526020600020016000915054906101000a900473ffffffffffffffffffffffffffffffffffffffff1681565b6004602052816000526040600020818154811061081057600080fd5b906000526020600020016000915091509054906101000a900473ffffffffffffffffffffffffffffffffffffffff1681565b806000806101000a81548173ffffffffffffffffffffffffffffffffffffffff021916908373ffffffffffffffffffffffffffffffffffffffff16021790555050565b606081518351146108cb576040517f08c379a00000000000000000000000000000000000000000000000000000000081526004016108c290613d58565b60405180910390fd5b6000835167ffffffffffffffff8111156108e8576108e7612d42565b5b6040519080825280602002602001820160405280156109165781602001602082028036833780820191505090505b50905060005b84518110156109b65761098684828151811061093b5761093a613b2f565b5b602002602001015161098187848151811061095957610958613b2f565b5b602002602001015187858151811061097457610973613b2f565b5b6020026020010151611d79565b61068b565b82828151811061099957610998613b2f565b5b602002602001018181525050806109af90613c9d565b905061091c565b508091505092915050565b60098060000160009054906101000a900473ffffffffffffffffffffffffffffffffffffffff16908060010180546109f890613da7565b80601f0160208091040260200160405190810160405280929190818152602001828054610a2490613da7565b8015610a715780601f10610a4657610100808354040283529160200191610a71565b820191906000526020600020905b815481529060010190602001808311610a5457829003601f168201915b505050505090806002018054610a8690613da7565b80601f0160208091040260200160405190810160405280929190818152602001828054610ab290613da7565b8015610aff5780601f10610ad457610100808354040283529160200191610aff565b820191906000526020600020905b815481529060010190602001808311610ae257829003601f168201915b5050505050908060030154908060040154908060050160009054906101000a900473ffffffffffffffffffffffffffffffffffffffff16908060050160149054906101000a900460ff1690806006015490806007018054610b5f90613da7565b80601f0160208091040260200160405190810160405280929190818152602001828054610b8b90613da7565b8015610bd85780601f10610bad57610100808354040283529160200191610bd8565b820191906000526020600020905b815481529060010190602001808311610bbb57829003601f168201915b5050505050905089565b60008060009054906101000a900473ffffffffffffffffffffffffffffffffffffffff1673ffffffffffffffffffffffffffffffffffffffff16636c9cd09784846040518363ffffffff1660e01b8152600401610c40929190613dd9565b60206040518083038186803b158015610c5857600080fd5b505afa158015610c6c573d6000803e3d6000fd5b505050506040513d601f19601f82011682018060405250810190610c909190613e1e565b905092915050565b60008073ffffffffffffffffffffffffffffffffffffffff168373ffffffffffffffffffffffffffffffffffffffff161415610d09576040517f08c379a0000000000000000000000000000000000000000000000000000000008152600401610d0090613ebd565b60405180910390fd5b610d8f82600260008573ffffffffffffffffffffffffffffffffffffffff1673ffffffffffffffffffffffffffffffffffffffff16815260200190815260200160002060008673ffffffffffffffffffffffffffffffffffffffff1673ffffffffffffffffffffffffffffffffffffffff1681526020019081526020016000205461068b565b905092915050565b60068181548110610da757600080fd5b90600052602060002090600802016000915090508060000160009054906101000a900473ffffffffffffffffffffffffffffffffffffffff1690806001018054610df090613da7565b80601f0160208091040260200160405190810160405280929190818152602001828054610e1c90613da7565b8015610e695780601f10610e3e57610100808354040283529160200191610e69565b820191906000526020600020905b815481529060010190602001808311610e4c57829003601f168201915b505050505090806002018054610e7e90613da7565b80601f0160208091040260200160405190810160405280929190818152602001828054610eaa90613da7565b8015610ef75780601f10610ecc57610100808354040283529160200191610ef7565b820191906000526020600020905b815481529060010190602001808311610eda57829003601f168201915b5050505050908060030154908060040154908060050160009054906101000a900473ffffffffffffffffffffffffffffffffffffffff16908060050160149054906101000a900460ff1690806006015490806007018054610f5790613da7565b80601f0160208091040260200160405190810160405280929190818152602001828054610f8390613da7565b8015610fd05780601f10610fa557610100808354040283529160200191610fd0565b820191906000526020600020905b815481529060010190602001808311610fb357829003601f168201915b5050505050905089565b60608151835114611020576040517f08c379a000000000000000000000000000000000000000000000000000000000815260040161101790613d58565b60405180910390fd5b6000835167ffffffffffffffff81111561103d5761103c612d42565b5b60405190808252806020026020018201604052801561106b5781602001602082028036833780820191505090505b50905060005b84518110156110e8576110b88582815181106110905761108f613b2f565b5b60200260200101518583815181106110ab576110aa613b2f565b5b6020026020010151611d79565b8282815181106110cb576110ca613b2f565b5b602002602001018181525050806110e190613c9d565b9050611071565b508091505092915050565b6111056110fe612053565b838361205b565b5050565b600080600460008473ffffffffffffffffffffffffffffffffffffffff1673ffffffffffffffffffffffffffffffffffffffff1681526020019081526020016000208054806020026020016040519081016040528092919081815260200182805480156111cb57602002820191906000526020600020905b8160009054906101000a900473ffffffffffffffffffffffffffffffffffffffff1673ffffffffffffffffffffffffffffffffffffffff1681526020019060010190808311611181575b505050505090506000815167ffffffffffffffff8111156111ef576111ee612d42565b5b60405190808252806020026020018201604052801561121d5781602001602082028036833780820191505090505b50905060005b825181101561128d57848282815181106112405761123f613b2f565b5b602002602001019073ffffffffffffffffffffffffffffffffffffffff16908173ffffffffffffffffffffffffffffffffffffffff1681525050808061128590613c9d565b915050611223565b506112a061129b8284610885565b610745565b92505050919050565b6112b16129bc565b85816000019073ffffffffffffffffffffffffffffffffffffffff16908173ffffffffffffffffffffffffffffffffffffffff168152505083816020018190525084816060018181525050828160400181905250818160c0019015159081151581525050600681908060018154018082558091505060019003906000526020600020906008020160009091909190915060008201518160000160006101000a81548173ffffffffffffffffffffffffffffffffffffffff021916908373ffffffffffffffffffffffffffffffffffffffff16021790555060208201518160010190805190602001906113a4929190612a36565b5060408201518160020190805190602001906113c1929190612a36565b50606082015181600301556080820151816004015560a08201518160050160006101000a81548173ffffffffffffffffffffffffffffffffffffffff021916908373ffffffffffffffffffffffffffffffffffffffff16021790555060c08201518160050160146101000a81548160ff02191690831515021790555060e08201518160060155610100820151816007019080519060200190611464929190612abc565b505050505050505050565b6000806006805490501415611487576000905061153d565b8173ffffffffffffffffffffffffffffffffffffffff166006600360008573ffffffffffffffffffffffffffffffffffffffff1673ffffffffffffffffffffffffffffffffffffffff16815260200190815260200160002054815481106114f1576114f0613b2f565b5b906000526020600020906008020160000160009054906101000a900473ffffffffffffffffffffffffffffffffffffffff1673ffffffffffffffffffffffffffffffffffffffff161490505b919050565b60008054906101000a900473ffffffffffffffffffffffffffffffffffffffff1681565b61156f8561146f565b6115815761158085858585856112a9565b5b600061158b612053565b90506000600360008873ffffffffffffffffffffffffffffffffffffffff1673ffffffffffffffffffffffffffffffffffffffff16815260200190815260200160002054905085600260008973ffffffffffffffffffffffffffffffffffffffff1673ffffffffffffffffffffffffffffffffffffffff16815260200190815260200160002060008473ffffffffffffffffffffffffffffffffffffffff1673ffffffffffffffffffffffffffffffffffffffff168152602001908152602001600020600082825461165d9190613c47565b9250508190555061166e8288612163565b611676612328565b50505050505050565b606060006006805480602002602001604051908101604052809291908181526020016000905b828210156119735783829060005260206000209060080201604051806101200160405290816000820160009054906101000a900473ffffffffffffffffffffffffffffffffffffffff1673ffffffffffffffffffffffffffffffffffffffff1673ffffffffffffffffffffffffffffffffffffffff16815260200160018201805461172f90613da7565b80601f016020809104026020016040519081016040528092919081815260200182805461175b90613da7565b80156117a85780601f1061177d576101008083540402835291602001916117a8565b820191906000526020600020905b81548152906001019060200180831161178b57829003601f168201915b505050505081526020016002820180546117c190613da7565b80601f01602080910402602001604051908101604052809291908181526020018280546117ed90613da7565b801561183a5780601f1061180f5761010080835404028352916020019161183a565b820191906000526020600020905b81548152906001019060200180831161181d57829003601f168201915b5050505050815260200160038201548152602001600482015481526020016005820160009054906101000a900473ffffffffffffffffffffffffffffffffffffffff1673ffffffffffffffffffffffffffffffffffffffff1673ffffffffffffffffffffffffffffffffffffffff1681526020016005820160149054906101000a900460ff16151515158152602001600682015481526020016007820180546118e290613da7565b80601f016020809104026020016040519081016040528092919081815260200182805461190e90613da7565b801561195b5780601f106119305761010080835404028352916020019161195b565b820191906000526020600020905b81548152906001019060200180831161193e57829003601f168201915b505050505081525050815260200190600101906116a5565b5050505090508091505090565b611988612053565b73ffffffffffffffffffffffffffffffffffffffff168573ffffffffffffffffffffffffffffffffffffffff1614806119ce57506119cd856119c8612053565b611c2e565b5b611a0d576040517f08c379a0000000000000000000000000000000000000000000000000000000008152600401611a0490613f4f565b60405180910390fd5b611a1a8585858585612464565b5050505050565b60606000805b8451811015611b2957600060036000878481518110611a4957611a48613b2f565b5b602002602001015173ffffffffffffffffffffffffffffffffffffffff1673ffffffffffffffffffffffffffffffffffffffff16815260200190815260200160002054905084604051602001611a9f9190613fab565b6040516020818303038152906040528051906020012060068281548110611ac957611ac8613b2f565b5b9060005260206000209060080201600201604051602001611aea9190614056565b604051602081830303815290604052805190602001201415611b15578280611b1190613c9d565b9350505b508080611b2190613c9d565b915050611a27565b5060008167ffffffffffffffff811115611b4657611b45612d42565b5b604051908082528060200260200182016040528015611b745781602001602082028036833780820191505090505b50905060005b82811015611bfd57858181518110611b9557611b94613b2f565b5b6020026020010151828281518110611bb057611baf613b2f565b5b602002602001019073ffffffffffffffffffffffffffffffffffffffff16908173ffffffffffffffffffffffffffffffffffffffff16815250508080611bf590613c9d565b915050611b7a565b50809250505092915050565b6002602052816000526040600020602052806000526040600020600091509150505481565b6000600860008473ffffffffffffffffffffffffffffffffffffffff1673ffffffffffffffffffffffffffffffffffffffff16815260200190815260200160002060008373ffffffffffffffffffffffffffffffffffffffff1673ffffffffffffffffffffffffffffffffffffffff16815260200190815260200160002060009054906101000a900460ff16905092915050565b6000600360008473ffffffffffffffffffffffffffffffffffffffff1673ffffffffffffffffffffffffffffffffffffffff168152602001908152602001600020549050600060068281548110611d1c57611d1b613b2f565b5b90600052602060002090600802019050611d3a816003015484612773565b9250828160030154611d4c919061406d565b8160030181905550600081600301541415611d7357611d72611d6c612053565b8561278d565b5b50505050565b60008073ffffffffffffffffffffffffffffffffffffffff168373ffffffffffffffffffffffffffffffffffffffff161415611dea576040517f08c379a0000000000000000000000000000000000000000000000000000000008152600401611de190613ebd565b60405180910390fd5b600260008373ffffffffffffffffffffffffffffffffffffffff1673ffffffffffffffffffffffffffffffffffffffff16815260200190815260200160002060008473ffffffffffffffffffffffffffffffffffffffff1673ffffffffffffffffffffffffffffffffffffffff16815260200190815260200160002054905092915050565b6060806000600460008573ffffffffffffffffffffffffffffffffffffffff1673ffffffffffffffffffffffffffffffffffffffff168152602001908152602001600020805480602002602001604051908101604052809291908181526020018280548015611f3357602002820191906000526020600020905b8160009054906101000a900473ffffffffffffffffffffffffffffffffffffffff1673ffffffffffffffffffffffffffffffffffffffff1681526020019060010190808311611ee9575b505050505090506000815167ffffffffffffffff811115611f5757611f56612d42565b5b604051908082528060200260200182016040528015611f855781602001602082028036833780820191505090505b50905060005b825181101561204557600660036000858481518110611fad57611fac613b2f565b5b602002602001015173ffffffffffffffffffffffffffffffffffffffff1673ffffffffffffffffffffffffffffffffffffffff168152602001908152602001600020548154811061200157612000613b2f565b5b90600052602060002090600802016003015482828151811061202657612025613b2f565b5b602002602001018181525050808061203d90613c9d565b915050611f8b565b508181935093505050915091565b600033905090565b8173ffffffffffffffffffffffffffffffffffffffff168373ffffffffffffffffffffffffffffffffffffffff1614156120ca576040517f08c379a00000000000000000000000000000000000000000000000000000000081526004016120c1906140ed565b60405180910390fd5b80600860008573ffffffffffffffffffffffffffffffffffffffff1673ffffffffffffffffffffffffffffffffffffffff16815260200190815260200160002060008473ffffffffffffffffffffffffffffffffffffffff1673ffffffffffffffffffffffffffffffffffffffff16815260200190815260200160002060006101000a81548160ff021916908315150217905550505050565b6000805b600460008573ffffffffffffffffffffffffffffffffffffffff1673ffffffffffffffffffffffffffffffffffffffff1681526020019081526020016000208054905081101561227c578273ffffffffffffffffffffffffffffffffffffffff16600460008673ffffffffffffffffffffffffffffffffffffffff1673ffffffffffffffffffffffffffffffffffffffff168152602001908152602001600020828154811061221957612218613b2f565b5b9060005260206000200160009054906101000a900473ffffffffffffffffffffffffffffffffffffffff1673ffffffffffffffffffffffffffffffffffffffff161415612269576001915061227c565b808061227490613c9d565b915050612167565b508061232357600460008473ffffffffffffffffffffffffffffffffffffffff1673ffffffffffffffffffffffffffffffffffffffff168152602001908152602001600020829080600181540180825580915050600190039060005260206000200160009091909190916101000a81548173ffffffffffffffffffffffffffffffffffffffff021916908373ffffffffffffffffffffffffffffffffffffffff1602179055505b505050565b60005b6006805490508110156124615760006123886006838154811061235157612350613b2f565b5b906000526020600020906008020160000160009054906101000a900473ffffffffffffffffffffffffffffffffffffffff16612920565b90506006828154811061239e5761239d613b2f565b5b906000526020600020906008020160030154816123bb9190613b8d565b600683815481106123cf576123ce613b2f565b5b90600052602060002090600802016004018190555043600683815481106123f9576123f8613b2f565b5b9060005260206000209060080201600601819055506006828154811061242257612421613b2f565b5b9060005260206000209060080201600401546009600401546124449190613c47565b60096004018190555050808061245990613c9d565b91505061232b565b50565b81518351146124a8576040517f08c379a000000000000000000000000000000000000000000000000000000000815260040161249f9061417f565b60405180910390fd5b600073ffffffffffffffffffffffffffffffffffffffff168473ffffffffffffffffffffffffffffffffffffffff161415612518576040517f08c379a000000000000000000000000000000000000000000000000000000000815260040161250f90614211565b60405180910390fd5b6000612522612053565b90506125328187878787876129b4565b60005b845181101561276a57600085828151811061255357612552613b2f565b5b60200260200101519050600085838151811061257257612571613b2f565b5b602002602001015190506000600260008473ffffffffffffffffffffffffffffffffffffffff1673ffffffffffffffffffffffffffffffffffffffff16815260200190815260200160002060008b73ffffffffffffffffffffffffffffffffffffffff1673ffffffffffffffffffffffffffffffffffffffff16815260200190815260200160002054905081811015612640576040517f08c379a0000000000000000000000000000000000000000000000000000000008152600401612637906142a3565b60405180910390fd5b818103600260008573ffffffffffffffffffffffffffffffffffffffff1673ffffffffffffffffffffffffffffffffffffffff16815260200190815260200160002060008c73ffffffffffffffffffffffffffffffffffffffff1673ffffffffffffffffffffffffffffffffffffffff1681526020019081526020016000208190555081600260008573ffffffffffffffffffffffffffffffffffffffff1673ffffffffffffffffffffffffffffffffffffffff16815260200190815260200160002060008b73ffffffffffffffffffffffffffffffffffffffff1673ffffffffffffffffffffffffffffffffffffffff168152602001908152602001600020600082825461274f9190613c47565b925050819055505050508061276390613c9d565b9050612535565b50505050505050565b6000818310156127835781612785565b825b905092915050565b60005b600460008473ffffffffffffffffffffffffffffffffffffffff1673ffffffffffffffffffffffffffffffffffffffff1681526020019081526020016000208054905081101561291b578173ffffffffffffffffffffffffffffffffffffffff16600460008573ffffffffffffffffffffffffffffffffffffffff1673ffffffffffffffffffffffffffffffffffffffff168152602001908152602001600020828154811061284257612841613b2f565b5b9060005260206000200160009054906101000a900473ffffffffffffffffffffffffffffffffffffffff1673ffffffffffffffffffffffffffffffffffffffff16141561290857600460008473ffffffffffffffffffffffffffffffffffffffff1673ffffffffffffffffffffffffffffffffffffffff16815260200190815260200160002081815481106128da576128d9613b2f565b5b9060005260206000200160006101000a81549073ffffffffffffffffffffffffffffffffffffffff02191690555b808061291390613c9d565b915050612790565b505050565b6000806006600360008573ffffffffffffffffffffffffffffffffffffffff1673ffffffffffffffffffffffffffffffffffffffff168152602001908152602001600020548154811061297657612975613b2f565b5b906000526020600020906008020160050160009054906101000a900473ffffffffffffffffffffffffffffffffffffffff1690506002915050919050565b505050505050565b604051806101200160405280600073ffffffffffffffffffffffffffffffffffffffff16815260200160608152602001606081526020016000815260200160008152602001600073ffffffffffffffffffffffffffffffffffffffff16815260200160001515815260200160008152602001606081525090565b828054612a4290613da7565b90600052602060002090601f016020900481019282612a645760008555612aab565b82601f10612a7d57805160ff1916838001178555612aab565b82800160010185558215612aab579182015b82811115612aaa578251825591602001919060010190612a8f565b5b509050612ab89190612b42565b5090565b828054612ac890613da7565b90600052602060002090601f016020900481019282612aea5760008555612b31565b82601f10612b0357805160ff1916838001178555612b31565b82800160010185558215612b31579182015b82811115612b30578251825591602001919060010190612b15565b5b509050612b3e9190612b42565b5090565b5b80821115612b5b576000816000905550600101612b43565b5090565b6000604051905090565b600080fd5b600080fd5b60007fffffffff0000000000000000000000000000000000000000000000000000000082169050919050565b612ba881612b73565b8114612bb357600080fd5b50565b600081359050612bc581612b9f565b92915050565b600060208284031215612be157612be0612b69565b5b6000612bef84828501612bb6565b91505092915050565b60008115159050919050565b612c0d81612bf8565b82525050565b6000602082019050612c286000830184612c04565b92915050565b600073ffffffffffffffffffffffffffffffffffffffff82169050919050565b6000612c5982612c2e565b9050919050565b612c6981612c4e565b8114612c7457600080fd5b50565b600081359050612c8681612c60565b92915050565b6000819050919050565b612c9f81612c8c565b8114612caa57600080fd5b50565b600081359050612cbc81612c96565b92915050565b60008060408385031215612cd957612cd8612b69565b5b6000612ce785828601612c77565b9250506020612cf885828601612cad565b9150509250929050565b612d0b81612c8c565b82525050565b6000602082019050612d266000830184612d02565b92915050565b600080fd5b6000601f19601f8301169050919050565b7f4e487b7100000000000000000000000000000000000000000000000000000000600052604160045260246000fd5b612d7a82612d31565b810181811067ffffffffffffffff82111715612d9957612d98612d42565b5b80604052505050565b6000612dac612b5f565b9050612db88282612d71565b919050565b600067ffffffffffffffff821115612dd857612dd7612d42565b5b602082029050602081019050919050565b600080fd5b6000612e01612dfc84612dbd565b612da2565b90508083825260208201905060208402830185811115612e2457612e23612de9565b5b835b81811015612e4d5780612e398882612cad565b845260208401935050602081019050612e26565b5050509392505050565b600082601f830112612e6c57612e6b612d2c565b5b8135612e7c848260208601612dee565b91505092915050565b600060208284031215612e9b57612e9a612b69565b5b600082013567ffffffffffffffff811115612eb957612eb8612b6e565b5b612ec584828501612e57565b91505092915050565b600060208284031215612ee457612ee3612b69565b5b6000612ef284828501612c77565b91505092915050565b600060208284031215612f1157612f10612b69565b5b6000612f1f84828501612cad565b91505092915050565b612f3181612c4e565b82525050565b6000602082019050612f4c6000830184612f28565b92915050565b600067ffffffffffffffff821115612f6d57612f6c612d42565b5b602082029050602081019050919050565b6000612f91612f8c84612f52565b612da2565b90508083825260208201905060208402830185811115612fb457612fb3612de9565b5b835b81811015612fdd5780612fc98882612c77565b845260208401935050602081019050612fb6565b5050509392505050565b600082601f830112612ffc57612ffb612d2c565b5b813561300c848260208601612f7e565b91505092915050565b6000806040838503121561302c5761302b612b69565b5b600083013567ffffffffffffffff81111561304a57613049612b6e565b5b61305685828601612fe7565b925050602083013567ffffffffffffffff81111561307757613076612b6e565b5b61308385828601612fe7565b9150509250929050565b600081519050919050565b600082825260208201905092915050565b6000819050602082019050919050565b6130c281612c8c565b82525050565b60006130d483836130b9565b60208301905092915050565b6000602082019050919050565b60006130f88261308d565b6131028185613098565b935061310d836130a9565b8060005b8381101561313e57815161312588826130c8565b9750613130836130e0565b925050600181019050613111565b5085935050505092915050565b6000602082019050818103600083015261316581846130ed565b905092915050565b600081519050919050565b600082825260208201905092915050565b60005b838110156131a757808201518184015260208101905061318c565b838111156131b6576000848401525b50505050565b60006131c78261316d565b6131d18185613178565b93506131e1818560208601613189565b6131ea81612d31565b840191505092915050565b600081519050919050565b600082825260208201905092915050565b600061321c826131f5565b6132268185613200565b9350613236818560208601613189565b61323f81612d31565b840191505092915050565b600061012082019050613260600083018c612f28565b8181036020830152613272818b6131bc565b90508181036040830152613286818a6131bc565b90506132956060830189612d02565b6132a26080830188612d02565b6132af60a0830187612f28565b6132bc60c0830186612c04565b6132c960e0830185612d02565b8181036101008301526132dc8184613211565b90509a9950505050505050505050565b600080fd5b600067ffffffffffffffff82111561330c5761330b612d42565b5b61331582612d31565b9050602081019050919050565b82818337600083830152505050565b600061334461333f846132f1565b612da2565b9050828152602081018484840111156133605761335f6132ec565b5b61336b848285613322565b509392505050565b600082601f83011261338857613387612d2c565b5b8135613398848260208601613331565b91505092915050565b600080604083850312156133b8576133b7612b69565b5b600083013567ffffffffffffffff8111156133d6576133d5612b6e565b5b6133e285828601613373565b92505060206133f385828601612c77565b9150509250929050565b6000806040838503121561341457613413612b69565b5b600061342285828601612c77565b925050602061343385828601612c77565b9150509250929050565b61344681612bf8565b811461345157600080fd5b50565b6000813590506134638161343d565b92915050565b600080604083850312156134805761347f612b69565b5b600061348e85828601612c77565b925050602061349f85828601613454565b9150509250929050565b600080600080600060a086880312156134c5576134c4612b69565b5b60006134d388828901612c77565b95505060206134e488828901612cad565b945050604086013567ffffffffffffffff81111561350557613504612b6e565b5b61351188828901613373565b935050606086013567ffffffffffffffff81111561353257613531612b6e565b5b61353e88828901613373565b925050608061354f88828901613454565b9150509295509295909350565b6000819050919050565b600061358161357c61357784612c2e565b61355c565b612c2e565b9050919050565b600061359382613566565b9050919050565b60006135a582613588565b9050919050565b6135b58161359a565b82525050565b60006020820190506135d060008301846135ac565b92915050565b600081519050919050565b600082825260208201905092915050565b6000819050602082019050919050565b61360b81612c4e565b82525050565b600082825260208201905092915050565b600061362d8261316d565b6136378185613611565b9350613647818560208601613189565b61365081612d31565b840191505092915050565b61366481612bf8565b82525050565b600082825260208201905092915050565b6000613686826131f5565b613690818561366a565b93506136a0818560208601613189565b6136a981612d31565b840191505092915050565b6000610120830160008301516136cd6000860182613602565b50602083015184820360208601526136e58282613622565b915050604083015184820360408601526136ff8282613622565b915050606083015161371460608601826130b9565b50608083015161372760808601826130b9565b5060a083015161373a60a0860182613602565b5060c083015161374d60c086018261365b565b5060e083015161376060e08601826130b9565b5061010083015184820361010086015261377a828261367b565b9150508091505092915050565b600061379383836136b4565b905092915050565b6000602082019050919050565b60006137b3826135d6565b6137bd81856135e1565b9350836020820285016137cf856135f2565b8060005b8581101561380b57848403895281516137ec8582613787565b94506137f78361379b565b925060208a019950506001810190506137d3565b50829750879550505050505092915050565b6000602082019050818103600083015261383781846137a8565b905092915050565b600067ffffffffffffffff82111561385a57613859612d42565b5b61386382612d31565b9050602081019050919050565b600061388361387e8461383f565b612da2565b90508281526020810184848401111561389f5761389e6132ec565b5b6138aa848285613322565b509392505050565b600082601f8301126138c7576138c6612d2c565b5b81356138d7848260208601613870565b91505092915050565b600080600080600060a086880312156138fc576138fb612b69565b5b600061390a88828901612c77565b955050602061391b88828901612c77565b945050604086013567ffffffffffffffff81111561393c5761393b612b6e565b5b61394888828901612fe7565b935050606086013567ffffffffffffffff81111561396957613968612b6e565b5b61397588828901612e57565b925050608086013567ffffffffffffffff81111561399657613995612b6e565b5b6139a2888289016138b2565b9150509295509295909350565b600080604083850312156139c6576139c5612b69565b5b600083013567ffffffffffffffff8111156139e4576139e3612b6e565b5b6139f085828601612fe7565b925050602083013567ffffffffffffffff811115613a1157613a10612b6e565b5b613a1d85828601613373565b9150509250929050565b600081519050919050565b600082825260208201905092915050565b6000819050602082019050919050565b6000613a5f8383613602565b60208301905092915050565b6000602082019050919050565b6000613a8382613a27565b613a8d8185613a32565b9350613a9883613a43565b8060005b83811015613ac9578151613ab08882613a53565b9750613abb83613a6b565b925050600181019050613a9c565b5085935050505092915050565b60006020820190508181036000830152613af08184613a78565b905092915050565b60006040820190508181036000830152613b128185613a78565b90508181036020830152613b2681846130ed565b90509392505050565b7f4e487b7100000000000000000000000000000000000000000000000000000000600052603260045260246000fd5b7f4e487b7100000000000000000000000000000000000000000000000000000000600052601160045260246000fd5b6000613b9882612c8c565b9150613ba383612c8c565b9250817fffffffffffffffffffffffffffffffffffffffffffffffffffffffffffffffff0483118215151615613bdc57613bdb613b5e565b5b828202905092915050565b7f4e487b7100000000000000000000000000000000000000000000000000000000600052601260045260246000fd5b6000613c2182612c8c565b9150613c2c83612c8c565b925082613c3c57613c3b613be7565b5b828204905092915050565b6000613c5282612c8c565b9150613c5d83612c8c565b9250827fffffffffffffffffffffffffffffffffffffffffffffffffffffffffffffffff03821115613c9257613c91613b5e565b5b828201905092915050565b6000613ca882612c8c565b91507fffffffffffffffffffffffffffffffffffffffffffffffffffffffffffffffff821415613cdb57613cda613b5e565b5b600182019050919050565b7f455243313135353a206163636f756e747320616e6420617373657473206c656e60008201527f677468206d69736d617463680000000000000000000000000000000000000000602082015250565b6000613d42602c83613178565b9150613d4d82613ce6565b604082019050919050565b60006020820190508181036000830152613d7181613d35565b9050919050565b7f4e487b7100000000000000000000000000000000000000000000000000000000600052602260045260246000fd5b60006002820490506001821680613dbf57607f821691505b60208210811415613dd357613dd2613d78565b5b50919050565b60006040820190508181036000830152613df381856131bc565b9050613e026020830184612f28565b9392505050565b600081519050613e188161343d565b92915050565b600060208284031215613e3457613e33612b69565b5b6000613e4284828501613e09565b91505092915050565b7f455243313135353a2062616c616e636520717565727920666f7220746865207a60008201527f65726f2061646472657373000000000000000000000000000000000000000000602082015250565b6000613ea7602b83613178565b9150613eb282613e4b565b604082019050919050565b60006020820190508181036000830152613ed681613e9a565b9050919050565b7f455243313135353a207472616e736665722063616c6c6572206973206e6f742060008201527f6f776e6572206e6f7220617070726f7665640000000000000000000000000000602082015250565b6000613f39603283613178565b9150613f4482613edd565b604082019050919050565b60006020820190508181036000830152613f6881613f2c565b9050919050565b600081905092915050565b6000613f858261316d565b613f8f8185613f6f565b9350613f9f818560208601613189565b80840191505092915050565b6000613fb78284613f7a565b915081905092915050565b60008190508160005260206000209050919050565b60008154613fe481613da7565b613fee8186613f6f565b94506001821660008114614009576001811461401a5761404d565b60ff1983168652818601935061404d565b61402385613fc2565b60005b8381101561404557815481890152600182019150602081019050614026565b838801955050505b50505092915050565b60006140628284613fd7565b915081905092915050565b600061407882612c8c565b915061408383612c8c565b92508282101561409657614095613b5e565b5b828203905092915050565b7f4552433732313a20617070726f766520746f2063616c6c657200000000000000600082015250565b60006140d7601983613178565b91506140e2826140a1565b602082019050919050565b60006020820190508181036000830152614106816140ca565b9050919050565b7f455243313135353a2061737365747320616e6420616d6f756e7473206c656e6760008201527f7468206d69736d61746368000000000000000000000000000000000000000000602082015250565b6000614169602b83613178565b91506141748261410d565b604082019050919050565b600060208201905081810360008301526141988161415c565b9050919050565b7f455243313135353a207472616e7366657220746f20746865207a65726f20616460008201527f6472657373000000000000000000000000000000000000000000000000000000602082015250565b60006141fb602583613178565b91506142068261419f565b604082019050919050565b6000602082019050818103600083015261422a816141ee565b9050919050565b7f455243313135353a20696e73756666696369656e742062616c616e636520666f60008201527f72207472616e7366657200000000000000000000000000000000000000000000602082015250565b600061428d602a83613178565b915061429882614231565b604082019050919050565b600060208201905081810360008301526142bc81614280565b905091905056fea26469706673582212209d9819bc4d7838d1d94ba50cd3f733bab474f6d1d19762ce81cf247a8bd1658a64736f6c6343000809003360806040523480156200001157600080fd5b50604051620022a5380380620022a5833981810160405281019062000037919062000351565b81600360000160006101000a81548173ffffffffffffffffffffffffffffffffffffffff021916908373ffffffffffffffffffffffffffffffffffffffff1602179055508060036002019080519060200190620000969291906200009f565b5050506200041c565b828054620000ad90620003e6565b90600052602060002090601f016020900481019282620000d157600085556200011d565b82601f10620000ec57805160ff19168380011785556200011d565b828001600101855582156200011d579182015b828111156200011c578251825591602001919060010190620000ff565b5b5090506200012c919062000130565b5090565b5b808211156200014b57600081600090555060010162000131565b5090565b6000604051905090565b600080fd5b600080fd5b600073ffffffffffffffffffffffffffffffffffffffff82169050919050565b6000620001908262000163565b9050919050565b620001a28162000183565b8114620001ae57600080fd5b50565b600081519050620001c28162000197565b92915050565b600080fd5b600080fd5b6000601f19601f8301169050919050565b7f4e487b7100000000000000000000000000000000000000000000000000000000600052604160045260246000fd5b6200021d82620001d2565b810181811067ffffffffffffffff821117156200023f576200023e620001e3565b5b80604052505050565b6000620002546200014f565b905062000262828262000212565b919050565b600067ffffffffffffffff821115620002855762000284620001e3565b5b6200029082620001d2565b9050602081019050919050565b60005b83811015620002bd578082015181840152602081019050620002a0565b83811115620002cd576000848401525b50505050565b6000620002ea620002e48462000267565b62000248565b905082815260208101848484011115620003095762000308620001cd565b5b620003168482856200029d565b509392505050565b600082601f830112620003365762000335620001c8565b5b815162000348848260208601620002d3565b91505092915050565b600080604083850312156200036b576200036a62000159565b5b60006200037b85828601620001b1565b925050602083015167ffffffffffffffff8111156200039f576200039e6200015e565b5b620003ad858286016200031e565b9150509250929050565b7f4e487b7100000000000000000000000000000000000000000000000000000000600052602260045260246000fd5b60006002820490506001821680620003ff57607f821691505b60208210811415620004165762000415620003b7565b5b50919050565b611e79806200042c6000396000f3fe6080604052600436106101095760003560e01c80638b49d47e11610095578063a457c2d711610064578063a457c2d71461038a578063a9059cbb146103c7578063c877097d14610404578063d0e30db01461042f578063dd62ed3e1461043957610109565b80638b49d47e146102d757806395d89b411461030357806398fa582a1461032e5780639dc29fac1461036157610109565b806323b872dd116100dc57806323b872dd146101cc578063313ce56714610209578063395093511461023457806340c10f191461027157806370a082311461029a57610109565b806306fdde031461010e578063095ea7b314610139578063119df25f1461017657806318160ddd146101a1575b600080fd5b34801561011a57600080fd5b50610123610476565b60405161013091906113c8565b60405180910390f35b34801561014557600080fd5b50610160600480360381019061015b9190611483565b610508565b60405161016d91906114de565b60405180910390f35b34801561018257600080fd5b5061018b610526565b6040516101989190611508565b60405180910390f35b3480156101ad57600080fd5b506101b661052e565b6040516101c39190611532565b60405180910390f35b3480156101d857600080fd5b506101f360048036038101906101ee919061154d565b610538565b60405161020091906114de565b60405180910390f35b34801561021557600080fd5b5061021e61062f565b60405161022b91906115bc565b60405180910390f35b34801561024057600080fd5b5061025b60048036038101906102569190611483565b610638565b60405161026891906114de565b60405180910390f35b34801561027d57600080fd5b5061029860048036038101906102939190611483565b6106e4565b005b3480156102a657600080fd5b506102c160048036038101906102bc91906115d7565b6106f2565b6040516102ce9190611532565b60405180910390f35b3480156102e357600080fd5b506102ec61073a565b6040516102fa929190611651565b60405180910390f35b34801561030f57600080fd5b50610318610747565b60405161032591906113c8565b60405180910390f35b34801561033a57600080fd5b506103436107d9565b604051610358999897969594939291906116b9565b60405180910390f35b34801561036d57600080fd5b5061038860048036038101906103839190611483565b6109fa565b005b34801561039657600080fd5b506103b160048036038101906103ac9190611483565b610a08565b6040516103be91906114de565b60405180910390f35b3480156103d357600080fd5b506103ee60048036038101906103e99190611483565b610af3565b6040516103fb91906114de565b60405180910390f35b34801561041057600080fd5b50610419610b11565b6040516104269190611508565b60405180910390f35b610437610b19565b005b34801561044557600080fd5b50610460600480360381019061045b919061175b565b610b1b565b60405161046d9190611532565b60405180910390f35b6060600b8054610485906117ca565b80601f01602080910402602001604051908101604052809291908181526020018280546104b1906117ca565b80156104fe5780601f106104d3576101008083540402835291602001916104fe565b820191906000526020600020905b8154815290600101906020018083116104e157829003601f168201915b5050505050905090565b600061051c610515610526565b8484610ba2565b6001905092915050565b600033905090565b6000600254905090565b600080600160008673ffffffffffffffffffffffffffffffffffffffff1673ffffffffffffffffffffffffffffffffffffffff1681526020019081526020016000206000610584610526565b73ffffffffffffffffffffffffffffffffffffffff1673ffffffffffffffffffffffffffffffffffffffff16815260200190815260200160002054905082811015610604576040517f08c379a00000000000000000000000000000000000000000000000000000000081526004016105fb9061186e565b60405180910390fd5b61060f858585610d6d565b6106238561061b610526565b858403610ba2565b60019150509392505050565b60006012905090565b60006106da610645610526565b848460016000610653610526565b73ffffffffffffffffffffffffffffffffffffffff1673ffffffffffffffffffffffffffffffffffffffff16815260200190815260200160002060008873ffffffffffffffffffffffffffffffffffffffff1673ffffffffffffffffffffffffffffffffffffffff168152602001908152602001600020546106d591906118bd565b610ba2565b6001905092915050565b6106ee8282610fee565b5050565b60008060008373ffffffffffffffffffffffffffffffffffffffff1673ffffffffffffffffffffffffffffffffffffffff168152602001908152602001600020549050919050565b3660008036915091509091565b6060600c8054610756906117ca565b80601f0160208091040260200160405190810160405280929190818152602001828054610782906117ca565b80156107cf5780601f106107a4576101008083540402835291602001916107cf565b820191906000526020600020905b8154815290600101906020018083116107b257829003601f168201915b5050505050905090565b60038060000160009054906101000a900473ffffffffffffffffffffffffffffffffffffffff1690806001018054610810906117ca565b80601f016020809104026020016040519081016040528092919081815260200182805461083c906117ca565b80156108895780601f1061085e57610100808354040283529160200191610889565b820191906000526020600020905b81548152906001019060200180831161086c57829003601f168201915b50505050509080600201805461089e906117ca565b80601f01602080910402602001604051908101604052809291908181526020018280546108ca906117ca565b80156109175780601f106108ec57610100808354040283529160200191610917565b820191906000526020600020905b8154815290600101906020018083116108fa57829003601f168201915b5050505050908060030154908060040154908060050160009054906101000a900473ffffffffffffffffffffffffffffffffffffffff16908060050160149054906101000a900460ff1690806006015490806007018054610977906117ca565b80601f01602080910402602001604051908101604052809291908181526020018280546109a3906117ca565b80156109f05780601f106109c5576101008083540402835291602001916109f0565b820191906000526020600020905b8154815290600101906020018083116109d357829003601f168201915b5050505050905089565b610a04828261114e565b5050565b60008060016000610a17610526565b73ffffffffffffffffffffffffffffffffffffffff1673ffffffffffffffffffffffffffffffffffffffff16815260200190815260200160002060008573ffffffffffffffffffffffffffffffffffffffff1673ffffffffffffffffffffffffffffffffffffffff16815260200190815260200160002054905082811015610ad4576040517f08c379a0000000000000000000000000000000000000000000000000000000008152600401610acb90611985565b60405180910390fd5b610ae8610adf610526565b85858403610ba2565b600191505092915050565b6000610b07610b00610526565b8484610d6d565b6001905092915050565b600032905090565b565b6000600160008473ffffffffffffffffffffffffffffffffffffffff1673ffffffffffffffffffffffffffffffffffffffff16815260200190815260200160002060008373ffffffffffffffffffffffffffffffffffffffff1673ffffffffffffffffffffffffffffffffffffffff16815260200190815260200160002054905092915050565b600073ffffffffffffffffffffffffffffffffffffffff168373ffffffffffffffffffffffffffffffffffffffff161415610c12576040517f08c379a0000000000000000000000000000000000000000000000000000000008152600401610c0990611a17565b60405180910390fd5b600073ffffffffffffffffffffffffffffffffffffffff168273ffffffffffffffffffffffffffffffffffffffff161415610c82576040517f08c379a0000000000000000000000000000000000000000000000000000000008152600401610c7990611aa9565b60405180910390fd5b80600160008573ffffffffffffffffffffffffffffffffffffffff1673ffffffffffffffffffffffffffffffffffffffff16815260200190815260200160002060008473ffffffffffffffffffffffffffffffffffffffff1673ffffffffffffffffffffffffffffffffffffffff168152602001908152602001600020819055508173ffffffffffffffffffffffffffffffffffffffff168373ffffffffffffffffffffffffffffffffffffffff167f8c5be1e5ebec7d5bd14f71427d1e84f3dd0314c0f7b2291e5b200ac8c7c3b92583604051610d609190611532565b60405180910390a3505050565b600073ffffffffffffffffffffffffffffffffffffffff168373ffffffffffffffffffffffffffffffffffffffff161415610ddd576040517f08c379a0000000000000000000000000000000000000000000000000000000008152600401610dd490611b3b565b60405180910390fd5b600073ffffffffffffffffffffffffffffffffffffffff168273ffffffffffffffffffffffffffffffffffffffff161415610e4d576040517f08c379a0000000000000000000000000000000000000000000000000000000008152600401610e4490611bcd565b60405180910390fd5b610e58838383611325565b60008060008573ffffffffffffffffffffffffffffffffffffffff1673ffffffffffffffffffffffffffffffffffffffff16815260200190815260200160002054905081811015610ede576040517f08c379a0000000000000000000000000000000000000000000000000000000008152600401610ed590611c5f565b60405180910390fd5b8181036000808673ffffffffffffffffffffffffffffffffffffffff1673ffffffffffffffffffffffffffffffffffffffff16815260200190815260200160002081905550816000808573ffffffffffffffffffffffffffffffffffffffff1673ffffffffffffffffffffffffffffffffffffffff1681526020019081526020016000206000828254610f7191906118bd565b925050819055508273ffffffffffffffffffffffffffffffffffffffff168473ffffffffffffffffffffffffffffffffffffffff167fddf252ad1be2c89b69c2b068fc378daa952ba7f163c4a11628f55a4df523b3ef84604051610fd59190611532565b60405180910390a3610fe884848461132a565b50505050565b600073ffffffffffffffffffffffffffffffffffffffff168273ffffffffffffffffffffffffffffffffffffffff16141561105e576040517f08c379a000000000000000000000000000000000000000000000000000000000815260040161105590611ccb565b60405180910390fd5b61106a60008383611325565b806002600082825461107c91906118bd565b92505081905550806000808473ffffffffffffffffffffffffffffffffffffffff1673ffffffffffffffffffffffffffffffffffffffff16815260200190815260200160002060008282546110d191906118bd565b925050819055508173ffffffffffffffffffffffffffffffffffffffff16600073ffffffffffffffffffffffffffffffffffffffff167fddf252ad1be2c89b69c2b068fc378daa952ba7f163c4a11628f55a4df523b3ef836040516111369190611532565b60405180910390a361114a6000838361132a565b5050565b600073ffffffffffffffffffffffffffffffffffffffff168273ffffffffffffffffffffffffffffffffffffffff1614156111be576040517f08c379a00000000000000000000000000000000000000000000000000000000081526004016111b590611d5d565b60405180910390fd5b6111ca82600083611325565b60008060008473ffffffffffffffffffffffffffffffffffffffff1673ffffffffffffffffffffffffffffffffffffffff16815260200190815260200160002054905081811015611250576040517f08c379a000000000000000000000000000000000000000000000000000000000815260040161124790611def565b60405180910390fd5b8181036000808573ffffffffffffffffffffffffffffffffffffffff1673ffffffffffffffffffffffffffffffffffffffff1681526020019081526020016000208190555081600260008282546112a79190611e0f565b92505081905550600073ffffffffffffffffffffffffffffffffffffffff168373ffffffffffffffffffffffffffffffffffffffff167fddf252ad1be2c89b69c2b068fc378daa952ba7f163c4a11628f55a4df523b3ef8460405161130c9190611532565b60405180910390a36113208360008461132a565b505050565b505050565b505050565b600081519050919050565b600082825260208201905092915050565b60005b8381101561136957808201518184015260208101905061134e565b83811115611378576000848401525b50505050565b6000601f19601f8301169050919050565b600061139a8261132f565b6113a4818561133a565b93506113b481856020860161134b565b6113bd8161137e565b840191505092915050565b600060208201905081810360008301526113e2818461138f565b905092915050565b600080fd5b600073ffffffffffffffffffffffffffffffffffffffff82169050919050565b600061141a826113ef565b9050919050565b61142a8161140f565b811461143557600080fd5b50565b60008135905061144781611421565b92915050565b6000819050919050565b6114608161144d565b811461146b57600080fd5b50565b60008135905061147d81611457565b92915050565b6000806040838503121561149a576114996113ea565b5b60006114a885828601611438565b92505060206114b98582860161146e565b9150509250929050565b60008115159050919050565b6114d8816114c3565b82525050565b60006020820190506114f360008301846114cf565b92915050565b6115028161140f565b82525050565b600060208201905061151d60008301846114f9565b92915050565b61152c8161144d565b82525050565b60006020820190506115476000830184611523565b92915050565b600080600060608486031215611566576115656113ea565b5b600061157486828701611438565b935050602061158586828701611438565b92505060406115968682870161146e565b9150509250925092565b600060ff82169050919050565b6115b6816115a0565b82525050565b60006020820190506115d160008301846115ad565b92915050565b6000602082840312156115ed576115ec6113ea565b5b60006115fb84828501611438565b91505092915050565b600082825260208201905092915050565b82818337600083830152505050565b60006116308385611604565b935061163d838584611615565b6116468361137e565b840190509392505050565b6000602082019050818103600083015261166c818486611624565b90509392505050565b600081519050919050565b600061168b82611675565b6116958185611604565b93506116a581856020860161134b565b6116ae8161137e565b840191505092915050565b6000610120820190506116cf600083018c6114f9565b81810360208301526116e1818b61138f565b905081810360408301526116f5818a61138f565b90506117046060830189611523565b6117116080830188611523565b61171e60a08301876114f9565b61172b60c08301866114cf565b61173860e0830185611523565b81810361010083015261174b8184611680565b90509a9950505050505050505050565b60008060408385031215611772576117716113ea565b5b600061178085828601611438565b925050602061179185828601611438565b9150509250929050565b7f4e487b7100000000000000000000000000000000000000000000000000000000600052602260045260246000fd5b600060028204905060018216806117e257607f821691505b602082108114156117f6576117f561179b565b5b50919050565b7f45524332303a207472616e7366657220616d6f756e742065786365656473206160008201527f6c6c6f77616e6365000000000000000000000000000000000000000000000000602082015250565b600061185860288361133a565b9150611863826117fc565b604082019050919050565b600060208201905081810360008301526118878161184b565b9050919050565b7f4e487b7100000000000000000000000000000000000000000000000000000000600052601160045260246000fd5b60006118c88261144d565b91506118d38361144d565b9250827fffffffffffffffffffffffffffffffffffffffffffffffffffffffffffffffff038211156119085761190761188e565b5b828201905092915050565b7f45524332303a2064656372656173656420616c6c6f77616e63652062656c6f7760008201527f207a65726f000000000000000000000000000000000000000000000000000000602082015250565b600061196f60258361133a565b915061197a82611913565b604082019050919050565b6000602082019050818103600083015261199e81611962565b9050919050565b7f45524332303a20617070726f76652066726f6d20746865207a65726f2061646460008201527f7265737300000000000000000000000000000000000000000000000000000000602082015250565b6000611a0160248361133a565b9150611a0c826119a5565b604082019050919050565b60006020820190508181036000830152611a30816119f4565b9050919050565b7f45524332303a20617070726f766520746f20746865207a65726f20616464726560008201527f7373000000000000000000000000000000000000000000000000000000000000602082015250565b6000611a9360228361133a565b9150611a9e82611a37565b604082019050919050565b60006020820190508181036000830152611ac281611a86565b9050919050565b7f45524332303a207472616e736665722066726f6d20746865207a65726f20616460008201527f6472657373000000000000000000000000000000000000000000000000000000602082015250565b6000611b2560258361133a565b9150611b3082611ac9565b604082019050919050565b60006020820190508181036000830152611b5481611b18565b9050919050565b7f45524332303a207472616e7366657220746f20746865207a65726f206164647260008201527f6573730000000000000000000000000000000000000000000000000000000000602082015250565b6000611bb760238361133a565b9150611bc282611b5b565b604082019050919050565b60006020820190508181036000830152611be681611baa565b9050919050565b7f45524332303a207472616e7366657220616d6f756e742065786365656473206260008201527f616c616e63650000000000000000000000000000000000000000000000000000602082015250565b6000611c4960268361133a565b9150611c5482611bed565b604082019050919050565b60006020820190508181036000830152611c7881611c3c565b9050919050565b7f45524332303a206d696e7420746f20746865207a65726f206164647265737300600082015250565b6000611cb5601f8361133a565b9150611cc082611c7f565b602082019050919050565b60006020820190508181036000830152611ce481611ca8565b9050919050565b7f45524332303a206275726e2066726f6d20746865207a65726f2061646472657360008201527f7300000000000000000000000000000000000000000000000000000000000000602082015250565b6000611d4760218361133a565b9150611d5282611ceb565b604082019050919050565b60006020820190508181036000830152611d7681611d3a565b9050919050565b7f45524332303a206275726e20616d6f756e7420657863656564732062616c616e60008201527f6365000000000000000000000000000000000000000000000000000000000000602082015250565b6000611dd960228361133a565b9150611de482611d7d565b604082019050919050565b60006020820190508181036000830152611e0881611dcc565b9050919050565b6000611e1a8261144d565b9150611e258361144d565b925082821015611e3857611e3761188e565b5b82820390509291505056fea2646970667358221220e597ec8fd1d4ef03605b2fcc3ff38fd13776f22c8915b1d7cf4113707858dc9464736f6c63430008090033",
  "linkReferences": {},
  "deployedLinkReferences": {}
}