{
  "_format": "hh-sol-artifact-1",
  "contractName": "ModelCommune",
  "sourceName": "contracts/commune/base/CommuneBase.sol",
  "abi": [
    {
      "inputs": [
        {
          "internalType": "string",
          "name": "_name",
          "type": "string"
        }
      ],
      "stateMutability": "nonpayable",
      "type": "constructor"
    },
    {
      "inputs": [
        {
          "internalType": "address",
          "name": "modelContract",
          "type": "address"
        }
      ],
      "name": "addItem",
      "outputs": [],
      "stateMutability": "payable",
      "type": "function"
    },
    {
      "inputs": [],
      "name": "category",
      "outputs": [
        {
          "internalType": "string",
          "name": "",
          "type": "string"
        }
      ],
      "stateMutability": "view",
      "type": "function"
    },
    {
      "inputs": [
        {
          "internalType": "uint256",
          "name": "",
          "type": "uint256"
        }
      ],
      "name": "id2index",
      "outputs": [
        {
          "internalType": "uint256",
          "name": "",
          "type": "uint256"
        }
      ],
      "stateMutability": "view",
      "type": "function"
    },
    {
      "inputs": [
        {
          "internalType": "uint256",
          "name": "",
          "type": "uint256"
        }
      ],
      "name": "itemIds",
      "outputs": [
        {
          "internalType": "uint256",
          "name": "",
          "type": "uint256"
        }
      ],
      "stateMutability": "view",
      "type": "function"
    },
    {
      "inputs": [],
      "name": "listItems",
      "outputs": [
        {
          "components": [
            {
              "internalType": "uint256",
              "name": "id",
              "type": "uint256"
            },
            {
              "internalType": "address",
              "name": "model",
              "type": "address"
            },
            {
              "internalType": "address",
              "name": "creator",
              "type": "address"
            }
          ],
          "internalType": "struct CommuneItem[]",
          "name": "",
          "type": "tuple[]"
        }
      ],
      "stateMutability": "view",
      "type": "function"
    },
    {
      "inputs": [],
      "name": "listMyItems",
      "outputs": [
        {
          "components": [
            {
              "internalType": "uint256",
              "name": "id",
              "type": "uint256"
            },
            {
              "internalType": "address",
              "name": "model",
              "type": "address"
            },
            {
              "internalType": "address",
              "name": "creator",
              "type": "address"
            }
          ],
          "internalType": "struct CommuneItem[]",
          "name": "",
          "type": "tuple[]"
        }
      ],
      "stateMutability": "view",
      "type": "function"
    },
    {
      "inputs": [
        {
          "internalType": "address",
          "name": "",
          "type": "address"
        }
      ],
      "name": "model2id",
      "outputs": [
        {
          "internalType": "uint256",
          "name": "",
          "type": "uint256"
        }
      ],
      "stateMutability": "view",
      "type": "function"
    },
    {
      "inputs": [],
      "name": "name",
      "outputs": [
        {
          "internalType": "string",
          "name": "",
          "type": "string"
        }
      ],
      "stateMutability": "view",
      "type": "function"
    },
    {
      "inputs": [
        {
          "internalType": "uint256",
          "name": "itemId",
          "type": "uint256"
        }
      ],
      "name": "removeItem",
      "outputs": [],
      "stateMutability": "payable",
      "type": "function"
    }
  ],
  "bytecode": "0x608060405260006002553480156200001657600080fd5b50604051620016da380380620016da83398181016040528101906200003c9190620002f2565b600160008190555033600160006101000a81548173ffffffffffffffffffffffffffffffffffffffff021916908373ffffffffffffffffffffffffffffffffffffffff16021790555080600390805190602001906200009d929190620000a5565b5050620003a8565b828054620000b39062000372565b90600052602060002090601f016020900481019282620000d7576000855562000123565b82601f10620000f257805160ff191683800117855562000123565b8280016001018555821562000123579182015b828111156200012257825182559160200191906001019062000105565b5b50905062000132919062000136565b5090565b5b808211156200015157600081600090555060010162000137565b5090565b6000604051905090565b600080fd5b600080fd5b600080fd5b600080fd5b6000601f19601f8301169050919050565b7f4e487b7100000000000000000000000000000000000000000000000000000000600052604160045260246000fd5b620001be8262000173565b810181811067ffffffffffffffff82111715620001e057620001df62000184565b5b80604052505050565b6000620001f562000155565b9050620002038282620001b3565b919050565b600067ffffffffffffffff82111562000226576200022562000184565b5b620002318262000173565b9050602081019050919050565b60005b838110156200025e57808201518184015260208101905062000241565b838111156200026e576000848401525b50505050565b60006200028b620002858462000208565b620001e9565b905082815260208101848484011115620002aa57620002a96200016e565b5b620002b78482856200023e565b509392505050565b600082601f830112620002d757620002d662000169565b5b8151620002e984826020860162000274565b91505092915050565b6000602082840312156200030b576200030a6200015f565b5b600082015167ffffffffffffffff8111156200032c576200032b62000164565b5b6200033a84828501620002bf565b91505092915050565b7f4e487b7100000000000000000000000000000000000000000000000000000000600052602260045260246000fd5b600060028204905060018216806200038b57607f821691505b60208210811415620003a257620003a162000343565b5b50919050565b61132280620003b86000396000f3fe6080604052600436106100865760003560e01c80637cf90fcc116100595780637cf90fcc14610128578063994e08b514610144578063b3dc00fe14610181578063b4a12776146101be578063ef430aa6146101fb57610086565b806306fdde031461008b57806317b46fc0146100b6578063355eefc8146100e1578063713291711461010c575b600080fd5b34801561009757600080fd5b506100a0610226565b6040516100ad9190610e76565b60405180910390f35b3480156100c257600080fd5b506100cb6102b4565b6040516100d89190610fe3565b60405180910390f35b3480156100ed57600080fd5b506100f6610493565b6040516101039190610fe3565b60405180910390f35b61012660048036038101906101219190611036565b610636565b005b610142600480360381019061013d919061108f565b6109f6565b005b34801561015057600080fd5b5061016b6004803603810190610166919061108f565b610cae565b60405161017891906110cb565b60405180910390f35b34801561018d57600080fd5b506101a860048036038101906101a39190611036565b610cc6565b6040516101b591906110cb565b60405180910390f35b3480156101ca57600080fd5b506101e560048036038101906101e09190611036565b610cea565b6040516101f291906110cb565b60405180910390f35b34801561020757600080fd5b50610210610d02565b60405161021d9190610e76565b60405180910390f35b6003805461023390611115565b80601f016020809104026020016040519081016040528092919081815260200182805461025f90611115565b80156102ac5780601f10610281576101008083540402835291602001916102ac565b820191906000526020600020905b81548152906001019060200180831161028f57829003601f168201915b505050505081565b60606000600560003373ffffffffffffffffffffffffffffffffffffffff1673ffffffffffffffffffffffffffffffffffffffff16815260200190815260200160002060000190506000818054905067ffffffffffffffff81111561031c5761031b611147565b5b60405190808252806020026020018201604052801561035557816020015b610342610d90565b81526020019060019003908161033a5790505b50905060005b828054905081101561048a57600660006009838154811061037f5761037e611176565b5b90600052602060002001548152602001908152602001600020604051806060016040529081600082015481526020016001820160009054906101000a900473ffffffffffffffffffffffffffffffffffffffff1673ffffffffffffffffffffffffffffffffffffffff1673ffffffffffffffffffffffffffffffffffffffff1681526020016002820160009054906101000a900473ffffffffffffffffffffffffffffffffffffffff1673ffffffffffffffffffffffffffffffffffffffff1673ffffffffffffffffffffffffffffffffffffffff168152505082828151811061046c5761046b611176565b5b60200260200101819052508080610482906111d4565b91505061035b565b50809250505090565b60606000600254905060008167ffffffffffffffff8111156104b8576104b7611147565b5b6040519080825280602002602001820160405280156104f157816020015b6104de610d90565b8152602001906001900390816104d65790505b50905060005b60098054905081101561062d576000600660006009848154811061051e5761051d611176565b5b90600052602060002001548152602001908152602001600020905080604051806060016040529081600082015481526020016001820160009054906101000a900473ffffffffffffffffffffffffffffffffffffffff1673ffffffffffffffffffffffffffffffffffffffff1673ffffffffffffffffffffffffffffffffffffffff1681526020016002820160009054906101000a900473ffffffffffffffffffffffffffffffffffffffff1673ffffffffffffffffffffffffffffffffffffffff1673ffffffffffffffffffffffffffffffffffffffff168152505083838151811061060e5761060d611176565b5b6020026020010181905250508080610625906111d4565b9150506104f7565b50809250505090565b6002600054141561067c576040517f08c379a000000000000000000000000000000000000000000000000000000000815260040161067390611269565b60405180910390fd5b60026000819055506000600860006006600085815260200190815260200160002060010160009054906101000a900473ffffffffffffffffffffffffffffffffffffffff1673ffffffffffffffffffffffffffffffffffffffff1673ffffffffffffffffffffffffffffffffffffffff16815260200190815260200160002054146109eb576000600560003373ffffffffffffffffffffffffffffffffffffffff1673ffffffffffffffffffffffffffffffffffffffff168152602001908152602001600020600001905060005b8180549050811015610805578282828154811061076a57610769611176565b5b906000526020600020015414156107f257816001838054905061078d9190611289565b8154811061079e5761079d611176565b5b90600052602060002001548282815481106107bc576107bb611176565b5b9060005260206000200181905550818054806107db576107da6112bd565b5b600190038181906000526020600020016000905590555b80806107fd906111d4565b91505061074a565b50600760008381526020019081526020016000205460076000600960016009805490506108329190611289565b8154811061084357610842611176565b5b9060005260206000200154815260200190815260200160002081905550600960016009805490506108749190611289565b8154811061088557610884611176565b5b906000526020600020015460096007600085815260200190815260200160002054815481106108b7576108b6611176565b5b9060005260206000200181905550600760008381526020019081526020016000206000905560098054806108ee576108ed6112bd565b5b60019003818190600052602060002001600090559055600860006006600085815260200190815260200160002060010160009054906101000a900473ffffffffffffffffffffffffffffffffffffffff1673ffffffffffffffffffffffffffffffffffffffff1673ffffffffffffffffffffffffffffffffffffffff16815260200190815260200160002060009055600660008381526020019081526020016000206000808201600090556001820160006101000a81549073ffffffffffffffffffffffffffffffffffffffff02191690556002820160006101000a81549073ffffffffffffffffffffffffffffffffffffffff02191690555050505b600160008190555050565b60026000541415610a3c576040517f08c379a0000000000000000000000000000000000000000000000000000000008152600401610a3390611269565b60405180910390fd5b60026000819055506000600860008373ffffffffffffffffffffffffffffffffffffffff1673ffffffffffffffffffffffffffffffffffffffff168152602001908152602001600020541415610ca35760026000815480929190610a9f906111d4565b919050555060006002549050600960025490806001815401808255809150506001900390600052602060002001600090919091909150556001600980549050610ae89190611289565b6007600083815260200190815260200160002081905550600560003373ffffffffffffffffffffffffffffffffffffffff1673ffffffffffffffffffffffffffffffffffffffff16815260200190815260200160002060000181908060018154018082558091505060019003906000526020600020016000909190919091505560405180606001604052808281526020018373ffffffffffffffffffffffffffffffffffffffff1681526020013373ffffffffffffffffffffffffffffffffffffffff16815250600660008381526020019081526020016000206000820151816000015560208201518160010160006101000a81548173ffffffffffffffffffffffffffffffffffffffff021916908373ffffffffffffffffffffffffffffffffffffffff16021790555060408201518160020160006101000a81548173ffffffffffffffffffffffffffffffffffffffff021916908373ffffffffffffffffffffffffffffffffffffffff16021790555090505080600860008473ffffffffffffffffffffffffffffffffffffffff1673ffffffffffffffffffffffffffffffffffffffff16815260200190815260200160002081905550505b600160008190555050565b60086020528060005260406000206000915090505481565b60098181548110610cd657600080fd5b906000526020600020016000915090505481565b60076020528060005260406000206000915090505481565b60048054610d0f90611115565b80601f0160208091040260200160405190810160405280929190818152602001828054610d3b90611115565b8015610d885780601f10610d5d57610100808354040283529160200191610d88565b820191906000526020600020905b815481529060010190602001808311610d6b57829003601f168201915b505050505081565b604051806060016040528060008152602001600073ffffffffffffffffffffffffffffffffffffffff168152602001600073ffffffffffffffffffffffffffffffffffffffff1681525090565b600081519050919050565b600082825260208201905092915050565b60005b83811015610e17578082015181840152602081019050610dfc565b83811115610e26576000848401525b50505050565b6000601f19601f8301169050919050565b6000610e4882610ddd565b610e528185610de8565b9350610e62818560208601610df9565b610e6b81610e2c565b840191505092915050565b60006020820190508181036000830152610e908184610e3d565b905092915050565b600081519050919050565b600082825260208201905092915050565b6000819050602082019050919050565b6000819050919050565b610ed781610ec4565b82525050565b600073ffffffffffffffffffffffffffffffffffffffff82169050919050565b6000610f0882610edd565b9050919050565b610f1881610efd565b82525050565b606082016000820151610f346000850182610ece565b506020820151610f476020850182610f0f565b506040820151610f5a6040850182610f0f565b50505050565b6000610f6c8383610f1e565b60608301905092915050565b6000602082019050919050565b6000610f9082610e98565b610f9a8185610ea3565b9350610fa583610eb4565b8060005b83811015610fd6578151610fbd8882610f60565b9750610fc883610f78565b925050600181019050610fa9565b5085935050505092915050565b60006020820190508181036000830152610ffd8184610f85565b905092915050565b600080fd5b61101381610ec4565b811461101e57600080fd5b50565b6000813590506110308161100a565b92915050565b60006020828403121561104c5761104b611005565b5b600061105a84828501611021565b91505092915050565b61106c81610efd565b811461107757600080fd5b50565b60008135905061108981611063565b92915050565b6000602082840312156110a5576110a4611005565b5b60006110b38482850161107a565b91505092915050565b6110c581610ec4565b82525050565b60006020820190506110e060008301846110bc565b92915050565b7f4e487b7100000000000000000000000000000000000000000000000000000000600052602260045260246000fd5b6000600282049050600182168061112d57607f821691505b60208210811415611141576111406110e6565b5b50919050565b7f4e487b7100000000000000000000000000000000000000000000000000000000600052604160045260246000fd5b7f4e487b7100000000000000000000000000000000000000000000000000000000600052603260045260246000fd5b7f4e487b7100000000000000000000000000000000000000000000000000000000600052601160045260246000fd5b60006111df82610ec4565b91507fffffffffffffffffffffffffffffffffffffffffffffffffffffffffffffffff821415611212576112116111a5565b5b600182019050919050565b7f5265656e7472616e637947756172643a207265656e7472616e742063616c6c00600082015250565b6000611253601f83610de8565b915061125e8261121d565b602082019050919050565b6000602082019050818103600083015261128281611246565b9050919050565b600061129482610ec4565b915061129f83610ec4565b9250828210156112b2576112b16111a5565b5b828203905092915050565b7f4e487b7100000000000000000000000000000000000000000000000000000000600052603160045260246000fdfea26469706673582212207c507c7a1ccd04e6aed3a00e05017a49736f2be7a711b79cc5286ce1b525d88564736f6c63430008090033",
  "linkReferences": {},
  "deployedLinkReferences": {}
}