{
  "_format": "hh-sol-artifact-1",
  "contractName": "DepositNFT",
  "sourceName": "contracts/model/portfolio/token/DepositNFT.sol",
  "abi": [
    {
      "inputs": [
        {
          "internalType": "string",
          "name": "_name",
          "type": "string"
        },
        {
          "internalType": "string",
          "name": "_symbol",
          "type": "string"
        }
      ],
      "stateMutability": "nonpayable",
      "type": "constructor"
    },
    {
      "anonymous": false,
      "inputs": [
        {
          "indexed": true,
          "internalType": "address",
          "name": "owner",
          "type": "address"
        },
        {
          "indexed": true,
          "internalType": "address",
          "name": "approved",
          "type": "address"
        },
        {
          "indexed": true,
          "internalType": "uint256",
          "name": "tokenId",
          "type": "uint256"
        }
      ],
      "name": "Approval",
      "type": "event"
    },
    {
      "anonymous": false,
      "inputs": [
        {
          "indexed": true,
          "internalType": "address",
          "name": "owner",
          "type": "address"
        },
        {
          "indexed": true,
          "internalType": "address",
          "name": "operator",
          "type": "address"
        },
        {
          "indexed": false,
          "internalType": "bool",
          "name": "approved",
          "type": "bool"
        }
      ],
      "name": "ApprovalForAll",
      "type": "event"
    },
    {
      "anonymous": false,
      "inputs": [
        {
          "indexed": false,
          "internalType": "address",
          "name": "to",
          "type": "address"
        },
        {
          "indexed": false,
          "internalType": "uint256",
          "name": "tokenId",
          "type": "uint256"
        },
        {
          "indexed": false,
          "internalType": "uint256",
          "name": "blockNumber",
          "type": "uint256"
        },
        {
          "components": [
            {
              "internalType": "uint256[]",
              "name": "tokenIds",
              "type": "uint256[]"
            }
          ],
          "indexed": false,
          "internalType": "struct NFTOwnerState",
          "name": "ownerState",
          "type": "tuple"
        }
      ],
      "name": "MintToken",
      "type": "event"
    },
    {
      "anonymous": false,
      "inputs": [
        {
          "indexed": true,
          "internalType": "address",
          "name": "from",
          "type": "address"
        },
        {
          "indexed": true,
          "internalType": "address",
          "name": "to",
          "type": "address"
        },
        {
          "indexed": true,
          "internalType": "uint256",
          "name": "tokenId",
          "type": "uint256"
        }
      ],
      "name": "Transfer",
      "type": "event"
    },
    {
      "inputs": [],
      "name": "accessController",
      "outputs": [
        {
          "internalType": "contract IAccessControl",
          "name": "",
          "type": "address"
        }
      ],
      "stateMutability": "view",
      "type": "function"
    },
    {
      "inputs": [
        {
          "internalType": "address",
          "name": "to",
          "type": "address"
        },
        {
          "internalType": "uint256",
          "name": "tokenId",
          "type": "uint256"
        }
      ],
      "name": "approve",
      "outputs": [],
      "stateMutability": "nonpayable",
      "type": "function"
    },
    {
      "inputs": [
        {
          "internalType": "address",
          "name": "owner",
          "type": "address"
        }
      ],
      "name": "balanceOf",
      "outputs": [
        {
          "internalType": "uint256",
          "name": "",
          "type": "uint256"
        }
      ],
      "stateMutability": "view",
      "type": "function"
    },
    {
      "inputs": [
        {
          "internalType": "uint256",
          "name": "tokenId",
          "type": "uint256"
        }
      ],
      "name": "burn",
      "outputs": [],
      "stateMutability": "nonpayable",
      "type": "function"
    },
    {
      "inputs": [
        {
          "internalType": "address",
          "name": "ac_acccount",
          "type": "address"
        }
      ],
      "name": "connectAccessController",
      "outputs": [],
      "stateMutability": "nonpayable",
      "type": "function"
    },
    {
      "inputs": [
        {
          "internalType": "address",
          "name": "owner",
          "type": "address"
        }
      ],
      "name": "getAllOwnerTokenStates",
      "outputs": [
        {
          "components": [
            {
              "internalType": "uint256",
              "name": "depositValue",
              "type": "uint256"
            },
            {
              "internalType": "uint256",
              "name": "marketValue",
              "type": "uint256"
            },
            {
              "internalType": "uint256",
              "name": "lastUpdateBlock",
              "type": "uint256"
            },
            {
              "components": [
                {
                  "internalType": "uint256",
                  "name": "marketValue",
                  "type": "uint256"
                },
                {
                  "internalType": "uint256",
                  "name": "depositValue",
                  "type": "uint256"
                },
                {
                  "internalType": "uint256",
                  "name": "timestamp",
                  "type": "uint256"
                },
                {
                  "internalType": "uint256",
                  "name": "blockNumber",
                  "type": "uint256"
                },
                {
                  "internalType": "string",
                  "name": "baseTokenSymbol",
                  "type": "string"
                }
              ],
              "internalType": "struct PortfolioState",
              "name": "portfolio",
              "type": "tuple"
            }
          ],
          "internalType": "struct NFTState[]",
          "name": "",
          "type": "tuple[]"
        }
      ],
      "stateMutability": "view",
      "type": "function"
    },
    {
      "inputs": [
        {
          "internalType": "uint256",
          "name": "tokenId",
          "type": "uint256"
        }
      ],
      "name": "getApproved",
      "outputs": [
        {
          "internalType": "address",
          "name": "",
          "type": "address"
        }
      ],
      "stateMutability": "view",
      "type": "function"
    },
    {
      "inputs": [
        {
          "internalType": "address",
          "name": "owner",
          "type": "address"
        }
      ],
      "name": "getOwnerDepositValue",
      "outputs": [
        {
          "internalType": "uint256",
          "name": "",
          "type": "uint256"
        }
      ],
      "stateMutability": "view",
      "type": "function"
    },
    {
      "inputs": [
        {
          "internalType": "address",
          "name": "owner",
          "type": "address"
        }
      ],
      "name": "getOwnerMarketValue",
      "outputs": [
        {
          "internalType": "uint256",
          "name": "",
          "type": "uint256"
        }
      ],
      "stateMutability": "view",
      "type": "function"
    },
    {
      "inputs": [
        {
          "internalType": "address",
          "name": "owner",
          "type": "address"
        }
      ],
      "name": "getOwnerState",
      "outputs": [
        {
          "components": [
            {
              "internalType": "uint256[]",
              "name": "tokenIds",
              "type": "uint256[]"
            }
          ],
          "internalType": "struct NFTOwnerState",
          "name": "",
          "type": "tuple"
        }
      ],
      "stateMutability": "view",
      "type": "function"
    },
    {
      "inputs": [
        {
          "internalType": "uint256",
          "name": "tokenId",
          "type": "uint256"
        }
      ],
      "name": "getTokenState",
      "outputs": [
        {
          "components": [
            {
              "internalType": "uint256",
              "name": "depositValue",
              "type": "uint256"
            },
            {
              "internalType": "uint256",
              "name": "marketValue",
              "type": "uint256"
            },
            {
              "internalType": "uint256",
              "name": "lastUpdateBlock",
              "type": "uint256"
            },
            {
              "components": [
                {
                  "internalType": "uint256",
                  "name": "marketValue",
                  "type": "uint256"
                },
                {
                  "internalType": "uint256",
                  "name": "depositValue",
                  "type": "uint256"
                },
                {
                  "internalType": "uint256",
                  "name": "timestamp",
                  "type": "uint256"
                },
                {
                  "internalType": "uint256",
                  "name": "blockNumber",
                  "type": "uint256"
                },
                {
                  "internalType": "string",
                  "name": "baseTokenSymbol",
                  "type": "string"
                }
              ],
              "internalType": "struct PortfolioState",
              "name": "portfolio",
              "type": "tuple"
            }
          ],
          "internalType": "struct NFTState",
          "name": "",
          "type": "tuple"
        }
      ],
      "stateMutability": "view",
      "type": "function"
    },
    {
      "inputs": [
        {
          "internalType": "string",
          "name": "role",
          "type": "string"
        },
        {
          "internalType": "address",
          "name": "account",
          "type": "address"
        }
      ],
      "name": "hasRole",
      "outputs": [
        {
          "internalType": "bool",
          "name": "",
          "type": "bool"
        }
      ],
      "stateMutability": "view",
      "type": "function"
    },
    {
      "inputs": [
        {
          "internalType": "address",
          "name": "owner",
          "type": "address"
        },
        {
          "internalType": "address",
          "name": "operator",
          "type": "address"
        }
      ],
      "name": "isApprovedForAll",
      "outputs": [
        {
          "internalType": "bool",
          "name": "",
          "type": "bool"
        }
      ],
      "stateMutability": "view",
      "type": "function"
    },
    {
      "inputs": [
        {
          "internalType": "address",
          "name": "to",
          "type": "address"
        },
        {
          "components": [
            {
              "internalType": "uint256",
              "name": "depositValue",
              "type": "uint256"
            },
            {
              "internalType": "uint256",
              "name": "marketValue",
              "type": "uint256"
            },
            {
              "internalType": "uint256",
              "name": "lastUpdateBlock",
              "type": "uint256"
            },
            {
              "components": [
                {
                  "internalType": "uint256",
                  "name": "marketValue",
                  "type": "uint256"
                },
                {
                  "internalType": "uint256",
                  "name": "depositValue",
                  "type": "uint256"
                },
                {
                  "internalType": "uint256",
                  "name": "timestamp",
                  "type": "uint256"
                },
                {
                  "internalType": "uint256",
                  "name": "blockNumber",
                  "type": "uint256"
                },
                {
                  "internalType": "string",
                  "name": "baseTokenSymbol",
                  "type": "string"
                }
              ],
              "internalType": "struct PortfolioState",
              "name": "portfolio",
              "type": "tuple"
            }
          ],
          "internalType": "struct NFTState",
          "name": "tokenState",
          "type": "tuple"
        }
      ],
      "name": "mint",
      "outputs": [],
      "stateMutability": "nonpayable",
      "type": "function"
    },
    {
      "inputs": [],
      "name": "name",
      "outputs": [
        {
          "internalType": "string",
          "name": "",
          "type": "string"
        }
      ],
      "stateMutability": "view",
      "type": "function"
    },
    {
      "inputs": [
        {
          "internalType": "uint256",
          "name": "tokenId",
          "type": "uint256"
        }
      ],
      "name": "ownerOf",
      "outputs": [
        {
          "internalType": "address",
          "name": "",
          "type": "address"
        }
      ],
      "stateMutability": "view",
      "type": "function"
    },
    {
      "inputs": [
        {
          "internalType": "address",
          "name": "owner",
          "type": "address"
        }
      ],
      "name": "ownerTokenCount",
      "outputs": [
        {
          "internalType": "uint256",
          "name": "",
          "type": "uint256"
        }
      ],
      "stateMutability": "view",
      "type": "function"
    },
    {
      "inputs": [
        {
          "internalType": "address",
          "name": "from",
          "type": "address"
        },
        {
          "internalType": "address",
          "name": "to",
          "type": "address"
        },
        {
          "internalType": "uint256",
          "name": "tokenId",
          "type": "uint256"
        }
      ],
      "name": "safeTransferFrom",
      "outputs": [],
      "stateMutability": "nonpayable",
      "type": "function"
    },
    {
      "inputs": [
        {
          "internalType": "address",
          "name": "from",
          "type": "address"
        },
        {
          "internalType": "address",
          "name": "to",
          "type": "address"
        },
        {
          "internalType": "uint256",
          "name": "tokenId",
          "type": "uint256"
        },
        {
          "internalType": "bytes",
          "name": "_data",
          "type": "bytes"
        }
      ],
      "name": "safeTransferFrom",
      "outputs": [],
      "stateMutability": "nonpayable",
      "type": "function"
    },
    {
      "inputs": [
        {
          "internalType": "address",
          "name": "operator",
          "type": "address"
        },
        {
          "internalType": "bool",
          "name": "approved",
          "type": "bool"
        }
      ],
      "name": "setApprovalForAll",
      "outputs": [],
      "stateMutability": "nonpayable",
      "type": "function"
    },
    {
      "inputs": [],
      "name": "state",
      "outputs": [
        {
          "internalType": "uint256",
          "name": "ownerCount",
          "type": "uint256"
        },
        {
          "internalType": "uint256",
          "name": "tokenCount",
          "type": "uint256"
        }
      ],
      "stateMutability": "view",
      "type": "function"
    },
    {
      "inputs": [
        {
          "internalType": "bytes4",
          "name": "interfaceId",
          "type": "bytes4"
        }
      ],
      "name": "supportsInterface",
      "outputs": [
        {
          "internalType": "bool",
          "name": "",
          "type": "bool"
        }
      ],
      "stateMutability": "view",
      "type": "function"
    },
    {
      "inputs": [],
      "name": "symbol",
      "outputs": [
        {
          "internalType": "string",
          "name": "",
          "type": "string"
        }
      ],
      "stateMutability": "view",
      "type": "function"
    },
    {
      "inputs": [
        {
          "internalType": "address",
          "name": "from",
          "type": "address"
        },
        {
          "internalType": "address",
          "name": "to",
          "type": "address"
        },
        {
          "internalType": "uint256",
          "name": "tokenId",
          "type": "uint256"
        }
      ],
      "name": "transferFrom",
      "outputs": [],
      "stateMutability": "nonpayable",
      "type": "function"
    },
    {
      "inputs": [
        {
          "internalType": "uint256",
          "name": "tokenId",
          "type": "uint256"
        },
        {
          "components": [
            {
              "internalType": "uint256",
              "name": "depositValue",
              "type": "uint256"
            },
            {
              "internalType": "uint256",
              "name": "marketValue",
              "type": "uint256"
            },
            {
              "internalType": "uint256",
              "name": "lastUpdateBlock",
              "type": "uint256"
            },
            {
              "components": [
                {
                  "internalType": "uint256",
                  "name": "marketValue",
                  "type": "uint256"
                },
                {
                  "internalType": "uint256",
                  "name": "depositValue",
                  "type": "uint256"
                },
                {
                  "internalType": "uint256",
                  "name": "timestamp",
                  "type": "uint256"
                },
                {
                  "internalType": "uint256",
                  "name": "blockNumber",
                  "type": "uint256"
                },
                {
                  "internalType": "string",
                  "name": "baseTokenSymbol",
                  "type": "string"
                }
              ],
              "internalType": "struct PortfolioState",
              "name": "portfolio",
              "type": "tuple"
            }
          ],
          "internalType": "struct NFTState",
          "name": "tokenState",
          "type": "tuple"
        }
      ],
      "name": "updateTokenState",
      "outputs": [],
      "stateMutability": "nonpayable",
      "type": "function"
    }
  ],
  "bytecode": "0x608060405260006005553480156200001657600080fd5b5060405162003e9e38038062003e9e83398181016040528101906200003c9190620002c3565b81600390805190602001906200005492919062000076565b5080600490805190602001906200006d92919062000076565b505050620003ad565b828054620000849062000377565b90600052602060002090601f016020900481019282620000a85760008555620000f4565b82601f10620000c357805160ff1916838001178555620000f4565b82800160010185558215620000f4579182015b82811115620000f3578251825591602001919060010190620000d6565b5b50905062000103919062000107565b5090565b5b808211156200012257600081600090555060010162000108565b5090565b6000604051905090565b600080fd5b600080fd5b600080fd5b600080fd5b6000601f19601f8301169050919050565b7f4e487b7100000000000000000000000000000000000000000000000000000000600052604160045260246000fd5b6200018f8262000144565b810181811067ffffffffffffffff82111715620001b157620001b062000155565b5b80604052505050565b6000620001c662000126565b9050620001d4828262000184565b919050565b600067ffffffffffffffff821115620001f757620001f662000155565b5b620002028262000144565b9050602081019050919050565b60005b838110156200022f57808201518184015260208101905062000212565b838111156200023f576000848401525b50505050565b60006200025c6200025684620001d9565b620001ba565b9050828152602081018484840111156200027b576200027a6200013f565b5b620002888482856200020f565b509392505050565b600082601f830112620002a857620002a76200013a565b5b8151620002ba84826020860162000245565b91505092915050565b60008060408385031215620002dd57620002dc62000130565b5b600083015167ffffffffffffffff811115620002fe57620002fd62000135565b5b6200030c8582860162000290565b925050602083015167ffffffffffffffff81111562000330576200032f62000135565b5b6200033e8582860162000290565b9150509250929050565b7f4e487b7100000000000000000000000000000000000000000000000000000000600052602260045260246000fd5b600060028204905060018216806200039057607f821691505b60208210811415620003a757620003a662000348565b5b50919050565b613ae180620003bd6000396000f3fe608060405234801561001057600080fd5b50600436106101735760003560e01c80636352211e116100de578063b1d1d00b11610097578063c19d93fb11610071578063c19d93fb1461047e578063c2fb09a81461049d578063e985e9c5146104cd578063f45fd0f3146104fd57610173565b8063b1d1d00b14610428578063b88d4fde14610444578063bc43cbaf1461046057610173565b80636352211e1461032e578063650655c31461035e5780636c9cd0971461038e57806370a08231146103be57806395d89b41146103ee578063a22cb4651461040c57610173565b80633d7660e6116101305780633d7660e61461025e57806342842e0e1461028e57806342966c68146102aa57806346e5573e146102c657806348f5adce146102e257806352e5eb791461031257610173565b806301ffc9a71461017857806306fdde03146101a8578063081812fc146101c6578063095ea7b3146101f657806323b872dd146102125780632cc34a621461022e575b600080fd5b610192600480360381019061018d919061222f565b61052d565b60405161019f9190612277565b60405180910390f35b6101b0610597565b6040516101bd919061232b565b60405180910390f35b6101e060048036038101906101db9190612383565b610625565b6040516101ed91906123f1565b60405180910390f35b610210600480360381019061020b9190612438565b6106aa565b005b61022c60048036038101906102279190612478565b6107c2565b005b610248600480360381019061024391906124cb565b610822565b60405161025591906125e0565b60405180910390f35b610278600480360381019061027391906124cb565b6108d9565b60405161028591906127e7565b60405180910390f35b6102a860048036038101906102a39190612478565b6109ee565b005b6102c460048036038101906102bf9190612383565b610a0e565b005b6102e060048036038101906102db9190612a84565b610a1a565b005b6102fc60048036038101906102f791906124cb565b610aa3565b6040516103099190612aef565b60405180910390f35b61032c600480360381019061032791906124cb565b610b59565b005b61034860048036038101906103439190612383565b610b9c565b60405161035591906123f1565b60405180910390f35b610378600480360381019061037391906124cb565b610c4e565b6040516103859190612aef565b60405180910390f35b6103a860048036038101906103a39190612b0a565b610d04565b6040516103b59190612277565b60405180910390f35b6103d860048036038101906103d391906124cb565b610dba565b6040516103e59190612aef565b60405180910390f35b6103f6610e78565b604051610403919061232b565b60405180910390f35b61042660048036038101906104219190612b92565b610f06565b005b610442600480360381019061043d9190612bd2565b610f1c565b005b61045e60048036038101906104599190612ccf565b61104a565b005b6104686110ac565b6040516104759190612db1565b60405180910390f35b6104866110d0565b604051610494929190612dcc565b60405180910390f35b6104b760048036038101906104b291906124cb565b6110e2565b6040516104c49190612aef565b60405180910390f35b6104e760048036038101906104e29190612df5565b611131565b6040516104f49190612277565b60405180910390f35b61051760048036038101906105129190612383565b6111c5565b6040516105249190612e98565b60405180910390f35b60007f01ffc9a7000000000000000000000000000000000000000000000000000000007bffffffffffffffffffffffffffffffffffffffffffffffffffffffff1916827bffffffffffffffffffffffffffffffffffffffffffffffffffffffff1916149050919050565b600380546105a490612ee9565b80601f01602080910402602001604051908101604052809291908181526020018280546105d090612ee9565b801561061d5780601f106105f25761010080835404028352916020019161061d565b820191906000526020600020905b81548152906001019060200180831161060057829003601f168201915b505050505081565b6000610630826112e4565b61066f576040517f08c379a000000000000000000000000000000000000000000000000000000000815260040161066690612f8d565b60405180910390fd5b6009600083815260200190815260200160002060009054906101000a900473ffffffffffffffffffffffffffffffffffffffff169050919050565b60006106b582610b9c565b90508073ffffffffffffffffffffffffffffffffffffffff168373ffffffffffffffffffffffffffffffffffffffff161415610726576040517f08c379a000000000000000000000000000000000000000000000000000000000815260040161071d9061301f565b60405180910390fd5b8073ffffffffffffffffffffffffffffffffffffffff16610745611350565b73ffffffffffffffffffffffffffffffffffffffff16148061077457506107738161076e611350565b611131565b5b6107b3576040517f08c379a00000000000000000000000000000000000000000000000000000000081526004016107aa906130b1565b60405180910390fd5b6107bd8383611358565b505050565b6107d36107cd611350565b82611411565b610812576040517f08c379a000000000000000000000000000000000000000000000000000000000815260040161080990613143565b60405180910390fd5b61081d8383836114ef565b505050565b61082a6120b0565b6000600660008473ffffffffffffffffffffffffffffffffffffffff1673ffffffffffffffffffffffffffffffffffffffff168152602001908152602001600020604051806020016040529081600082018054806020026020016040519081016040528092919081815260200182805480156108c557602002820191906000526020600020905b8154815260200190600101908083116108b1575b505050505081525050905080915050919050565b60606000600660008473ffffffffffffffffffffffffffffffffffffffff1673ffffffffffffffffffffffffffffffffffffffff16815260200190815260200160002060000190506000818054905067ffffffffffffffff8111156109415761094061280e565b5b60405190808252806020026020018201604052801561097a57816020015b6109676120c3565b81526020019060019003908161095f5790505b50905060005b82805490508110156109e3576109b28382815481106109a2576109a1613163565b5b90600052602060002001546111c5565b8282815181106109c5576109c4613163565b5b602002602001018190525080806109db906131c1565b915050610980565b508092505050919050565b610a098383836040518060200160405280600081525061104a565b505050565b610a1781611706565b50565b8060076000848152602001908152602001600020600082015181600001556020820151816001015560408201518160020155606082015181600301600082015181600001556020820151816001015560408201518160020155606082015181600301556080820151816004019080519060200190610a999291906120f1565b5050509050505050565b600080600660008473ffffffffffffffffffffffffffffffffffffffff1673ffffffffffffffffffffffffffffffffffffffff16815260200190815260200160002060000190506000805b8280549050811015610b4e5760076000848381548110610b1157610b10613163565b5b906000526020600020015481526020019081526020016000206001015482610b39919061320a565b91508080610b46906131c1565b915050610aee565b508092505050919050565b806000806101000a81548173ffffffffffffffffffffffffffffffffffffffff021916908373ffffffffffffffffffffffffffffffffffffffff16021790555050565b6000806008600084815260200190815260200160002060009054906101000a900473ffffffffffffffffffffffffffffffffffffffff169050600073ffffffffffffffffffffffffffffffffffffffff168173ffffffffffffffffffffffffffffffffffffffff161415610c45576040517f08c379a0000000000000000000000000000000000000000000000000000000008152600401610c3c906132d2565b60405180910390fd5b80915050919050565b600080600660008473ffffffffffffffffffffffffffffffffffffffff1673ffffffffffffffffffffffffffffffffffffffff16815260200190815260200160002060000190506000805b8280549050811015610cf95760076000848381548110610cbc57610cbb613163565b5b906000526020600020015481526020019081526020016000206000015482610ce4919061320a565b91508080610cf1906131c1565b915050610c99565b508092505050919050565b60008060009054906101000a900473ffffffffffffffffffffffffffffffffffffffff1673ffffffffffffffffffffffffffffffffffffffff16636c9cd09784846040518363ffffffff1660e01b8152600401610d629291906132f2565b60206040518083038186803b158015610d7a57600080fd5b505afa158015610d8e573d6000803e3d6000fd5b505050506040513d601f19601f82011682018060405250810190610db29190613337565b905092915050565b60008073ffffffffffffffffffffffffffffffffffffffff168273ffffffffffffffffffffffffffffffffffffffff161415610e2b576040517f08c379a0000000000000000000000000000000000000000000000000000000008152600401610e22906133d6565b60405180910390fd5b600660008373ffffffffffffffffffffffffffffffffffffffff1673ffffffffffffffffffffffffffffffffffffffff168152602001908152602001600020600001805490509050919050565b60048054610e8590612ee9565b80601f0160208091040260200160405190810160405280929190818152602001828054610eb190612ee9565b8015610efe5780601f10610ed357610100808354040283529160200191610efe565b820191906000526020600020905b815481529060010190602001808311610ee157829003601f168201915b505050505081565b610f18610f11611350565b8383611ac4565b5050565b600160056000828254610f2f919061320a565b92505081905550610f4282600554611c31565b80600760006005548152602001908152602001600020600082015181600001556020820151816001015560408201518160020155606082015181600301600082015181600001556020820151816001015560408201518160020155606082015181600301556080820151816004019080519060200190610fc39291906120f1565b5050509050507fb8b1c58d1488f8bff2b71422d8aaab70b7fab5d1db4a430a7d3232d2bc0adb838260055443600660008773ffffffffffffffffffffffffffffffffffffffff1673ffffffffffffffffffffffffffffffffffffffff16815260200190815260200160002060405161103e94939291906134f7565b60405180910390a15050565b61105b611055611350565b83611411565b61109a576040517f08c379a000000000000000000000000000000000000000000000000000000000815260040161109190613143565b60405180910390fd5b6110a684848484611e95565b50505050565b60008054906101000a900473ffffffffffffffffffffffffffffffffffffffff1681565b60018060000154908060010154905082565b6000600660008373ffffffffffffffffffffffffffffffffffffffff1673ffffffffffffffffffffffffffffffffffffffff168152602001908152602001600020600001805490509050919050565b6000600a60008473ffffffffffffffffffffffffffffffffffffffff1673ffffffffffffffffffffffffffffffffffffffff16815260200190815260200160002060008373ffffffffffffffffffffffffffffffffffffffff1673ffffffffffffffffffffffffffffffffffffffff16815260200190815260200160002060009054906101000a900460ff16905092915050565b6111cd6120c3565b600060076000848152602001908152602001600020604051806080016040529081600082015481526020016001820154815260200160028201548152602001600382016040518060a00160405290816000820154815260200160018201548152602001600282015481526020016003820154815260200160048201805461125390612ee9565b80601f016020809104026020016040519081016040528092919081815260200182805461127f90612ee9565b80156112cc5780601f106112a1576101008083540402835291602001916112cc565b820191906000526020600020905b8154815290600101906020018083116112af57829003601f168201915b50505050508152505081525050905080915050919050565b60008073ffffffffffffffffffffffffffffffffffffffff166008600084815260200190815260200160002060009054906101000a900473ffffffffffffffffffffffffffffffffffffffff1673ffffffffffffffffffffffffffffffffffffffff1614159050919050565b600033905090565b816009600083815260200190815260200160002060006101000a81548173ffffffffffffffffffffffffffffffffffffffff021916908373ffffffffffffffffffffffffffffffffffffffff160217905550808273ffffffffffffffffffffffffffffffffffffffff166113cb83610b9c565b73ffffffffffffffffffffffffffffffffffffffff167f8c5be1e5ebec7d5bd14f71427d1e84f3dd0314c0f7b2291e5b200ac8c7c3b92560405160405180910390a45050565b600061141c826112e4565b61145b576040517f08c379a0000000000000000000000000000000000000000000000000000000008152600401611452906135b5565b60405180910390fd5b600061146683610b9c565b90508073ffffffffffffffffffffffffffffffffffffffff168473ffffffffffffffffffffffffffffffffffffffff1614806114d557508373ffffffffffffffffffffffffffffffffffffffff166114bd84610625565b73ffffffffffffffffffffffffffffffffffffffff16145b806114e657506114e58185611131565b5b91505092915050565b8273ffffffffffffffffffffffffffffffffffffffff1661150f82610b9c565b73ffffffffffffffffffffffffffffffffffffffff1614611565576040517f08c379a000000000000000000000000000000000000000000000000000000000815260040161155c90613647565b60405180910390fd5b600073ffffffffffffffffffffffffffffffffffffffff168273ffffffffffffffffffffffffffffffffffffffff1614156115d5576040517f08c379a00000000000000000000000000000000000000000000000000000000081526004016115cc906136d9565b60405180910390fd5b6115e0838383611ef1565b6115eb600082611358565b600660008373ffffffffffffffffffffffffffffffffffffffff1673ffffffffffffffffffffffffffffffffffffffff168152602001908152602001600020600001819080600181540180825580915050600190039060005260206000200160009091909190915055816008600083815260200190815260200160002060006101000a81548173ffffffffffffffffffffffffffffffffffffffff021916908373ffffffffffffffffffffffffffffffffffffffff160217905550808273ffffffffffffffffffffffffffffffffffffffff168473ffffffffffffffffffffffffffffffffffffffff167fddf252ad1be2c89b69c2b068fc378daa952ba7f163c4a11628f55a4df523b3ef60405160405180910390a4505050565b600061171182610b9c565b9050600073ffffffffffffffffffffffffffffffffffffffff168173ffffffffffffffffffffffffffffffffffffffff161415611783576040517f08c379a000000000000000000000000000000000000000000000000000000000815260040161177a90613745565b60405180910390fd5b61178f81600084611ef1565b61179a600083611358565b81600073ffffffffffffffffffffffffffffffffffffffff168273ffffffffffffffffffffffffffffffffffffffff167fddf252ad1be2c89b69c2b068fc378daa952ba7f163c4a11628f55a4df523b3ef60405160405180910390a4600080600660008473ffffffffffffffffffffffffffffffffffffffff1673ffffffffffffffffffffffffffffffffffffffff16815260200190815260200160002060000180549050905060005b81811015611abd57600660008573ffffffffffffffffffffffffffffffffffffffff1673ffffffffffffffffffffffffffffffffffffffff16815260200190815260200160002060000181815481106118a05761189f613163565b5b90600052602060002001548514156119f057600660008573ffffffffffffffffffffffffffffffffffffffff1673ffffffffffffffffffffffffffffffffffffffff1681526020019081526020016000206000016001836119019190613765565b8154811061191257611911613163565b5b9060005260206000200154600660008673ffffffffffffffffffffffffffffffffffffffff1673ffffffffffffffffffffffffffffffffffffffff168152602001908152602001600020600001828154811061197157611970613163565b5b9060005260206000200181905550600660008573ffffffffffffffffffffffffffffffffffffffff1673ffffffffffffffffffffffffffffffffffffffff1681526020019081526020016000206000018054806119d1576119d0613799565b5b6001900381819060005260206000200160009055905560019250611abd565b6008600086815260200190815260200160002060006101000a81549073ffffffffffffffffffffffffffffffffffffffff02191690556000600660008673ffffffffffffffffffffffffffffffffffffffff1673ffffffffffffffffffffffffffffffffffffffff168152602001908152602001600020600001805490501415611a905760016000016000815480929190611a8a906137c8565b91905055505b600180016000815480929190611aa5906137c8565b91905055508080611ab5906131c1565b915050611844565b5050505050565b8173ffffffffffffffffffffffffffffffffffffffff168373ffffffffffffffffffffffffffffffffffffffff161415611b33576040517f08c379a0000000000000000000000000000000000000000000000000000000008152600401611b2a9061383e565b60405180910390fd5b80600a60008573ffffffffffffffffffffffffffffffffffffffff1673ffffffffffffffffffffffffffffffffffffffff16815260200190815260200160002060008473ffffffffffffffffffffffffffffffffffffffff1673ffffffffffffffffffffffffffffffffffffffff16815260200190815260200160002060006101000a81548160ff0219169083151502179055508173ffffffffffffffffffffffffffffffffffffffff168373ffffffffffffffffffffffffffffffffffffffff167f17307eab39ab6107e8899845ad3d59bd9653f200f220920489ca2b5937696c3183604051611c249190612277565b60405180910390a3505050565b600073ffffffffffffffffffffffffffffffffffffffff168273ffffffffffffffffffffffffffffffffffffffff161415611ca1576040517f08c379a0000000000000000000000000000000000000000000000000000000008152600401611c98906138aa565b60405180910390fd5b611caa816112e4565b15611cea576040517f08c379a0000000000000000000000000000000000000000000000000000000008152600401611ce190613916565b60405180910390fd5b611cf660008383611ef1565b600660008373ffffffffffffffffffffffffffffffffffffffff1673ffffffffffffffffffffffffffffffffffffffff168152602001908152602001600020600001819080600181540180825580915050600190039060005260206000200160009091909190915055816008600083815260200190815260200160002060006101000a81548173ffffffffffffffffffffffffffffffffffffffff021916908373ffffffffffffffffffffffffffffffffffffffff160217905550808273ffffffffffffffffffffffffffffffffffffffff16600073ffffffffffffffffffffffffffffffffffffffff167fddf252ad1be2c89b69c2b068fc378daa952ba7f163c4a11628f55a4df523b3ef60405160405180910390a46001600660008473ffffffffffffffffffffffffffffffffffffffff1673ffffffffffffffffffffffffffffffffffffffff168152602001908152602001600020600001805490501415611e775760016000016000815480929190611e71906131c1565b91905055505b600180016000815480929190611e8c906131c1565b91905055505050565b611ea08484846114ef565b611eac84848484611ef6565b611eeb576040517f08c379a0000000000000000000000000000000000000000000000000000000008152600401611ee2906139a8565b60405180910390fd5b50505050565b505050565b6000611f178473ffffffffffffffffffffffffffffffffffffffff1661208d565b15612080578373ffffffffffffffffffffffffffffffffffffffff1663150b7a02611f40611350565b8786866040518563ffffffff1660e01b8152600401611f629493929190613a1d565b602060405180830381600087803b158015611f7c57600080fd5b505af1925050508015611fad57506040513d601f19601f82011682018060405250810190611faa9190613a7e565b60015b612030573d8060008114611fdd576040519150601f19603f3d011682016040523d82523d6000602084013e611fe2565b606091505b50600081511415612028576040517f08c379a000000000000000000000000000000000000000000000000000000000815260040161201f906139a8565b60405180910390fd5b805181602001fd5b63150b7a0260e01b7bffffffffffffffffffffffffffffffffffffffffffffffffffffffff1916817bffffffffffffffffffffffffffffffffffffffffffffffffffffffff191614915050612085565b600190505b949350505050565b6000808273ffffffffffffffffffffffffffffffffffffffff163b119050919050565b6040518060200160405280606081525090565b60405180608001604052806000815260200160008152602001600081526020016120eb612177565b81525090565b8280546120fd90612ee9565b90600052602060002090601f01602090048101928261211f5760008555612166565b82601f1061213857805160ff1916838001178555612166565b82800160010185558215612166579182015b8281111561216557825182559160200191906001019061214a565b5b50905061217391906121a6565b5090565b6040518060a0016040528060008152602001600081526020016000815260200160008152602001606081525090565b5b808211156121bf5760008160009055506001016121a7565b5090565b6000604051905090565b600080fd5b600080fd5b60007fffffffff0000000000000000000000000000000000000000000000000000000082169050919050565b61220c816121d7565b811461221757600080fd5b50565b60008135905061222981612203565b92915050565b600060208284031215612245576122446121cd565b5b60006122538482850161221a565b91505092915050565b60008115159050919050565b6122718161225c565b82525050565b600060208201905061228c6000830184612268565b92915050565b600081519050919050565b600082825260208201905092915050565b60005b838110156122cc5780820151818401526020810190506122b1565b838111156122db576000848401525b50505050565b6000601f19601f8301169050919050565b60006122fd82612292565b612307818561229d565b93506123178185602086016122ae565b612320816122e1565b840191505092915050565b6000602082019050818103600083015261234581846122f2565b905092915050565b6000819050919050565b6123608161234d565b811461236b57600080fd5b50565b60008135905061237d81612357565b92915050565b600060208284031215612399576123986121cd565b5b60006123a78482850161236e565b91505092915050565b600073ffffffffffffffffffffffffffffffffffffffff82169050919050565b60006123db826123b0565b9050919050565b6123eb816123d0565b82525050565b600060208201905061240660008301846123e2565b92915050565b612415816123d0565b811461242057600080fd5b50565b6000813590506124328161240c565b92915050565b6000806040838503121561244f5761244e6121cd565b5b600061245d85828601612423565b925050602061246e8582860161236e565b9150509250929050565b600080600060608486031215612491576124906121cd565b5b600061249f86828701612423565b93505060206124b086828701612423565b92505060406124c18682870161236e565b9150509250925092565b6000602082840312156124e1576124e06121cd565b5b60006124ef84828501612423565b91505092915050565b600081519050919050565b600082825260208201905092915050565b6000819050602082019050919050565b61252d8161234d565b82525050565b600061253f8383612524565b60208301905092915050565b6000602082019050919050565b6000612563826124f8565b61256d8185612503565b935061257883612514565b8060005b838110156125a95781516125908882612533565b975061259b8361254b565b92505060018101905061257c565b5085935050505092915050565b600060208301600083015184820360008601526125d38282612558565b9150508091505092915050565b600060208201905081810360008301526125fa81846125b6565b905092915050565b600081519050919050565b600082825260208201905092915050565b6000819050602082019050919050565b600082825260208201905092915050565b600061264a82612292565b612654818561262e565b93506126648185602086016122ae565b61266d816122e1565b840191505092915050565b600060a0830160008301516126906000860182612524565b5060208301516126a36020860182612524565b5060408301516126b66040860182612524565b5060608301516126c96060860182612524565b50608083015184820360808601526126e1828261263f565b9150508091505092915050565b60006080830160008301516127066000860182612524565b5060208301516127196020860182612524565b50604083015161272c6040860182612524565b50606083015184820360608601526127448282612678565b9150508091505092915050565b600061275d83836126ee565b905092915050565b6000602082019050919050565b600061277d82612602565b612787818561260d565b9350836020820285016127998561261e565b8060005b858110156127d557848403895281516127b68582612751565b94506127c183612765565b925060208a0199505060018101905061279d565b50829750879550505050505092915050565b600060208201905081810360008301526128018184612772565b905092915050565b600080fd5b7f4e487b7100000000000000000000000000000000000000000000000000000000600052604160045260246000fd5b612846826122e1565b810181811067ffffffffffffffff821117156128655761286461280e565b5b80604052505050565b60006128786121c3565b9050612884828261283d565b919050565b600080fd5b600080fd5b600080fd5b600067ffffffffffffffff8211156128b3576128b261280e565b5b6128bc826122e1565b9050602081019050919050565b82818337600083830152505050565b60006128eb6128e684612898565b61286e565b90508281526020810184848401111561290757612906612893565b5b6129128482856128c9565b509392505050565b600082601f83011261292f5761292e61288e565b5b813561293f8482602086016128d8565b91505092915050565b600060a0828403121561295e5761295d612809565b5b61296860a061286e565b905060006129788482850161236e565b600083015250602061298c8482850161236e565b60208301525060406129a08482850161236e565b60408301525060606129b48482850161236e565b606083015250608082013567ffffffffffffffff8111156129d8576129d7612889565b5b6129e48482850161291a565b60808301525092915050565b600060808284031215612a0657612a05612809565b5b612a10608061286e565b90506000612a208482850161236e565b6000830152506020612a348482850161236e565b6020830152506040612a488482850161236e565b604083015250606082013567ffffffffffffffff811115612a6c57612a6b612889565b5b612a7884828501612948565b60608301525092915050565b60008060408385031215612a9b57612a9a6121cd565b5b6000612aa98582860161236e565b925050602083013567ffffffffffffffff811115612aca57612ac96121d2565b5b612ad6858286016129f0565b9150509250929050565b612ae98161234d565b82525050565b6000602082019050612b046000830184612ae0565b92915050565b60008060408385031215612b2157612b206121cd565b5b600083013567ffffffffffffffff811115612b3f57612b3e6121d2565b5b612b4b8582860161291a565b9250506020612b5c85828601612423565b9150509250929050565b612b6f8161225c565b8114612b7a57600080fd5b50565b600081359050612b8c81612b66565b92915050565b60008060408385031215612ba957612ba86121cd565b5b6000612bb785828601612423565b9250506020612bc885828601612b7d565b9150509250929050565b60008060408385031215612be957612be86121cd565b5b6000612bf785828601612423565b925050602083013567ffffffffffffffff811115612c1857612c176121d2565b5b612c24858286016129f0565b9150509250929050565b600067ffffffffffffffff821115612c4957612c4861280e565b5b612c52826122e1565b9050602081019050919050565b6000612c72612c6d84612c2e565b61286e565b905082815260208101848484011115612c8e57612c8d612893565b5b612c998482856128c9565b509392505050565b600082601f830112612cb657612cb561288e565b5b8135612cc6848260208601612c5f565b91505092915050565b60008060008060808587031215612ce957612ce86121cd565b5b6000612cf787828801612423565b9450506020612d0887828801612423565b9350506040612d198782880161236e565b925050606085013567ffffffffffffffff811115612d3a57612d396121d2565b5b612d4687828801612ca1565b91505092959194509250565b6000819050919050565b6000612d77612d72612d6d846123b0565b612d52565b6123b0565b9050919050565b6000612d8982612d5c565b9050919050565b6000612d9b82612d7e565b9050919050565b612dab81612d90565b82525050565b6000602082019050612dc66000830184612da2565b92915050565b6000604082019050612de16000830185612ae0565b612dee6020830184612ae0565b9392505050565b60008060408385031215612e0c57612e0b6121cd565b5b6000612e1a85828601612423565b9250506020612e2b85828601612423565b9150509250929050565b6000608083016000830151612e4d6000860182612524565b506020830151612e606020860182612524565b506040830151612e736040860182612524565b5060608301518482036060860152612e8b8282612678565b9150508091505092915050565b60006020820190508181036000830152612eb28184612e35565b905092915050565b7f4e487b7100000000000000000000000000000000000000000000000000000000600052602260045260246000fd5b60006002820490506001821680612f0157607f821691505b60208210811415612f1557612f14612eba565b5b50919050565b7f4552433732313a20617070726f76656420717565727920666f72206e6f6e657860008201527f697374656e7420746f6b656e0000000000000000000000000000000000000000602082015250565b6000612f77602c8361229d565b9150612f8282612f1b565b604082019050919050565b60006020820190508181036000830152612fa681612f6a565b9050919050565b7f4552433732313a20617070726f76616c20746f2063757272656e74206f776e6560008201527f7200000000000000000000000000000000000000000000000000000000000000602082015250565b600061300960218361229d565b915061301482612fad565b604082019050919050565b6000602082019050818103600083015261303881612ffc565b9050919050565b7f4552433732313a20617070726f76652063616c6c6572206973206e6f74206f7760008201527f6e6572206e6f7220617070726f76656420666f7220616c6c0000000000000000602082015250565b600061309b60388361229d565b91506130a68261303f565b604082019050919050565b600060208201905081810360008301526130ca8161308e565b9050919050565b7f4552433732313a207472616e736665722063616c6c6572206973206e6f74206f60008201527f776e6572206e6f7220617070726f766564000000000000000000000000000000602082015250565b600061312d60318361229d565b9150613138826130d1565b604082019050919050565b6000602082019050818103600083015261315c81613120565b9050919050565b7f4e487b7100000000000000000000000000000000000000000000000000000000600052603260045260246000fd5b7f4e487b7100000000000000000000000000000000000000000000000000000000600052601160045260246000fd5b60006131cc8261234d565b91507fffffffffffffffffffffffffffffffffffffffffffffffffffffffffffffffff8214156131ff576131fe613192565b5b600182019050919050565b60006132158261234d565b91506132208361234d565b9250827fffffffffffffffffffffffffffffffffffffffffffffffffffffffffffffffff0382111561325557613254613192565b5b828201905092915050565b7f4552433732313a206f776e657220717565727920666f72206e6f6e657869737460008201527f656e7420746f6b656e0000000000000000000000000000000000000000000000602082015250565b60006132bc60298361229d565b91506132c782613260565b604082019050919050565b600060208201905081810360008301526132eb816132af565b9050919050565b6000604082019050818103600083015261330c81856122f2565b905061331b60208301846123e2565b9392505050565b60008151905061333181612b66565b92915050565b60006020828403121561334d5761334c6121cd565b5b600061335b84828501613322565b91505092915050565b7f4552433732313a2062616c616e636520717565727920666f7220746865207a6560008201527f726f206164647265737300000000000000000000000000000000000000000000602082015250565b60006133c0602a8361229d565b91506133cb82613364565b604082019050919050565b600060208201905081810360008301526133ef816133b3565b9050919050565b600081549050919050565b60008190508160005260206000209050919050565b60008160001c9050919050565b6000819050919050565b600061344061343b83613416565b613423565b9050919050565b6000613453825461342d565b9050919050565b6000600182019050919050565b6000613472826133f6565b61347c8185612503565b935061348783613401565b8060005b838110156134bf5761349c82613447565b6134a68882612533565b97506134b18361345a565b92505060018101905061348b565b5085935050505092915050565b600060208301600080840185830360008701526134e98382613467565b925050819250505092915050565b600060808201905061350c60008301876123e2565b6135196020830186612ae0565b6135266040830185612ae0565b818103606083015261353881846134cc565b905095945050505050565b7f4552433732313a206f70657261746f7220717565727920666f72206e6f6e657860008201527f697374656e7420746f6b656e0000000000000000000000000000000000000000602082015250565b600061359f602c8361229d565b91506135aa82613543565b604082019050919050565b600060208201905081810360008301526135ce81613592565b9050919050565b7f4552433732313a207472616e73666572206f6620746f6b656e2074686174206960008201527f73206e6f74206f776e0000000000000000000000000000000000000000000000602082015250565b600061363160298361229d565b915061363c826135d5565b604082019050919050565b6000602082019050818103600083015261366081613624565b9050919050565b7f4552433732313a207472616e7366657220746f20746865207a65726f2061646460008201527f7265737300000000000000000000000000000000000000000000000000000000602082015250565b60006136c360248361229d565b91506136ce82613667565b604082019050919050565b600060208201905081810360008301526136f2816136b6565b9050919050565b7f54686520746f6b656e20646f6573206e6f742065787369737400000000000000600082015250565b600061372f60198361229d565b915061373a826136f9565b602082019050919050565b6000602082019050818103600083015261375e81613722565b9050919050565b60006137708261234d565b915061377b8361234d565b92508282101561378e5761378d613192565b5b828203905092915050565b7f4e487b7100000000000000000000000000000000000000000000000000000000600052603160045260246000fd5b60006137d38261234d565b915060008214156137e7576137e6613192565b5b600182039050919050565b7f4552433732313a20617070726f766520746f2063616c6c657200000000000000600082015250565b600061382860198361229d565b9150613833826137f2565b602082019050919050565b600060208201905081810360008301526138578161381b565b9050919050565b7f4552433732313a206d696e7420746f20746865207a65726f2061646472657373600082015250565b600061389460208361229d565b915061389f8261385e565b602082019050919050565b600060208201905081810360008301526138c381613887565b9050919050565b7f4552433732313a20746f6b656e20616c7265616479206d696e74656400000000600082015250565b6000613900601c8361229d565b915061390b826138ca565b602082019050919050565b6000602082019050818103600083015261392f816138f3565b9050919050565b7f4552433732313a207472616e7366657220746f206e6f6e20455243373231526560008201527f63656976657220696d706c656d656e7465720000000000000000000000000000602082015250565b600061399260328361229d565b915061399d82613936565b604082019050919050565b600060208201905081810360008301526139c181613985565b9050919050565b600081519050919050565b600082825260208201905092915050565b60006139ef826139c8565b6139f981856139d3565b9350613a098185602086016122ae565b613a12816122e1565b840191505092915050565b6000608082019050613a3260008301876123e2565b613a3f60208301866123e2565b613a4c6040830185612ae0565b8181036060830152613a5e81846139e4565b905095945050505050565b600081519050613a7881612203565b92915050565b600060208284031215613a9457613a936121cd565b5b6000613aa284828501613a69565b9150509291505056fea264697066735822122077c4b35cb47e875695f6512ea718c9fd0a50032b77e451cc0e5399f8da3af30b64736f6c63430008090033",
  "linkReferences": {},
  "deployedLinkReferences": {}
}