{
  "_format": "hh-sol-artifact-1",
  "contractName": "ModelToken",
  "sourceName": "contracts/token/ERC20/ModelToken.sol",
  "abi": [
    {
      "inputs": [
        {
          "internalType": "string",
          "name": "name_",
          "type": "string"
        },
        {
          "internalType": "string",
          "name": "symbol_",
          "type": "string"
        }
      ],
      "stateMutability": "nonpayable",
      "type": "constructor"
    },
    {
      "anonymous": false,
      "inputs": [
        {
          "indexed": true,
          "internalType": "address",
          "name": "owner",
          "type": "address"
        },
        {
          "indexed": true,
          "internalType": "address",
          "name": "spender",
          "type": "address"
        },
        {
          "indexed": false,
          "internalType": "uint256",
          "name": "value",
          "type": "uint256"
        }
      ],
      "name": "Approval",
      "type": "event"
    },
    {
      "anonymous": false,
      "inputs": [
        {
          "indexed": true,
          "internalType": "address",
          "name": "from",
          "type": "address"
        },
        {
          "indexed": true,
          "internalType": "address",
          "name": "to",
          "type": "address"
        },
        {
          "indexed": false,
          "internalType": "uint256",
          "name": "value",
          "type": "uint256"
        }
      ],
      "name": "Transfer",
      "type": "event"
    },
    {
      "inputs": [],
      "name": "ALPHA",
      "outputs": [
        {
          "internalType": "uint256",
          "name": "",
          "type": "uint256"
        }
      ],
      "stateMutability": "view",
      "type": "function"
    },
    {
      "inputs": [],
      "name": "PERCENT_BASE",
      "outputs": [
        {
          "internalType": "uint256",
          "name": "",
          "type": "uint256"
        }
      ],
      "stateMutability": "view",
      "type": "function"
    },
    {
      "inputs": [],
      "name": "TOKENS_PER_CALL",
      "outputs": [
        {
          "internalType": "uint256",
          "name": "",
          "type": "uint256"
        }
      ],
      "stateMutability": "view",
      "type": "function"
    },
    {
      "inputs": [
        {
          "internalType": "address",
          "name": "owner",
          "type": "address"
        },
        {
          "internalType": "address",
          "name": "spender",
          "type": "address"
        },
        {
          "internalType": "uint256",
          "name": "amount",
          "type": "uint256"
        }
      ],
      "name": "_spendAllowance",
      "outputs": [],
      "stateMutability": "nonpayable",
      "type": "function"
    },
    {
      "inputs": [
        {
          "internalType": "uint256",
          "name": "amount",
          "type": "uint256"
        }
      ],
      "name": "add_stake",
      "outputs": [],
      "stateMutability": "nonpayable",
      "type": "function"
    },
    {
      "inputs": [
        {
          "internalType": "address",
          "name": "owner",
          "type": "address"
        },
        {
          "internalType": "address",
          "name": "spender",
          "type": "address"
        }
      ],
      "name": "allowance",
      "outputs": [
        {
          "internalType": "uint256",
          "name": "",
          "type": "uint256"
        }
      ],
      "stateMutability": "view",
      "type": "function"
    },
    {
      "inputs": [
        {
          "internalType": "address",
          "name": "spender",
          "type": "address"
        },
        {
          "internalType": "uint256",
          "name": "amount",
          "type": "uint256"
        }
      ],
      "name": "approve",
      "outputs": [
        {
          "internalType": "bool",
          "name": "",
          "type": "bool"
        }
      ],
      "stateMutability": "nonpayable",
      "type": "function"
    },
    {
      "inputs": [
        {
          "internalType": "address",
          "name": "account",
          "type": "address"
        }
      ],
      "name": "balanceOf",
      "outputs": [
        {
          "internalType": "uint256",
          "name": "",
          "type": "uint256"
        }
      ],
      "stateMutability": "view",
      "type": "function"
    },
    {
      "inputs": [
        {
          "internalType": "address",
          "name": "user",
          "type": "address"
        }
      ],
      "name": "bill_user_per_call",
      "outputs": [],
      "stateMutability": "nonpayable",
      "type": "function"
    },
    {
      "inputs": [],
      "name": "decimals",
      "outputs": [
        {
          "internalType": "uint8",
          "name": "",
          "type": "uint8"
        }
      ],
      "stateMutability": "view",
      "type": "function"
    },
    {
      "inputs": [
        {
          "internalType": "address",
          "name": "spender",
          "type": "address"
        },
        {
          "internalType": "uint256",
          "name": "subtractedValue",
          "type": "uint256"
        }
      ],
      "name": "decreaseAllowance",
      "outputs": [
        {
          "internalType": "bool",
          "name": "",
          "type": "bool"
        }
      ],
      "stateMutability": "nonpayable",
      "type": "function"
    },
    {
      "inputs": [
        {
          "internalType": "address",
          "name": "",
          "type": "address"
        }
      ],
      "name": "dev2state",
      "outputs": [
        {
          "internalType": "uint256",
          "name": "stake",
          "type": "uint256"
        },
        {
          "internalType": "uint256",
          "name": "score",
          "type": "uint256"
        },
        {
          "internalType": "uint256",
          "name": "block_number",
          "type": "uint256"
        }
      ],
      "stateMutability": "view",
      "type": "function"
    },
    {
      "inputs": [
        {
          "internalType": "uint256",
          "name": "",
          "type": "uint256"
        }
      ],
      "name": "devs",
      "outputs": [
        {
          "internalType": "address",
          "name": "",
          "type": "address"
        }
      ],
      "stateMutability": "view",
      "type": "function"
    },
    {
      "inputs": [
        {
          "internalType": "address",
          "name": "dev",
          "type": "address"
        }
      ],
      "name": "get_dev_index",
      "outputs": [
        {
          "internalType": "uint256",
          "name": "",
          "type": "uint256"
        }
      ],
      "stateMutability": "view",
      "type": "function"
    },
    {
      "inputs": [
        {
          "internalType": "address",
          "name": "user",
          "type": "address"
        }
      ],
      "name": "get_score",
      "outputs": [
        {
          "internalType": "uint256",
          "name": "",
          "type": "uint256"
        }
      ],
      "stateMutability": "view",
      "type": "function"
    },
    {
      "inputs": [
        {
          "internalType": "address",
          "name": "user",
          "type": "address"
        }
      ],
      "name": "get_stake",
      "outputs": [
        {
          "internalType": "uint256",
          "name": "",
          "type": "uint256"
        }
      ],
      "stateMutability": "view",
      "type": "function"
    },
    {
      "inputs": [
        {
          "internalType": "address",
          "name": "spender",
          "type": "address"
        },
        {
          "internalType": "uint256",
          "name": "addedValue",
          "type": "uint256"
        }
      ],
      "name": "increaseAllowance",
      "outputs": [
        {
          "internalType": "bool",
          "name": "",
          "type": "bool"
        }
      ],
      "stateMutability": "nonpayable",
      "type": "function"
    },
    {
      "inputs": [
        {
          "internalType": "address",
          "name": "dev",
          "type": "address"
        }
      ],
      "name": "is_dev",
      "outputs": [
        {
          "internalType": "bool",
          "name": "",
          "type": "bool"
        }
      ],
      "stateMutability": "view",
      "type": "function"
    },
    {
      "inputs": [
        {
          "internalType": "address",
          "name": "account",
          "type": "address"
        },
        {
          "internalType": "uint256",
          "name": "amount",
          "type": "uint256"
        }
      ],
      "name": "mint",
      "outputs": [
        {
          "internalType": "uint256",
          "name": "",
          "type": "uint256"
        }
      ],
      "stateMutability": "nonpayable",
      "type": "function"
    },
    {
      "inputs": [],
      "name": "name",
      "outputs": [
        {
          "internalType": "string",
          "name": "",
          "type": "string"
        }
      ],
      "stateMutability": "view",
      "type": "function"
    },
    {
      "inputs": [
        {
          "internalType": "uint256",
          "name": "stake",
          "type": "uint256"
        }
      ],
      "name": "remove_stake",
      "outputs": [
        {
          "internalType": "uint256",
          "name": "",
          "type": "uint256"
        }
      ],
      "stateMutability": "nonpayable",
      "type": "function"
    },
    {
      "inputs": [
        {
          "internalType": "uint256",
          "name": "alpha",
          "type": "uint256"
        }
      ],
      "name": "set_alpha",
      "outputs": [],
      "stateMutability": "nonpayable",
      "type": "function"
    },
    {
      "inputs": [
        {
          "internalType": "uint256[]",
          "name": "votes",
          "type": "uint256[]"
        },
        {
          "internalType": "address[]",
          "name": "to_devs",
          "type": "address[]"
        }
      ],
      "name": "set_votes",
      "outputs": [],
      "stateMutability": "nonpayable",
      "type": "function"
    },
    {
      "inputs": [],
      "name": "symbol",
      "outputs": [
        {
          "internalType": "string",
          "name": "",
          "type": "string"
        }
      ],
      "stateMutability": "view",
      "type": "function"
    },
    {
      "inputs": [],
      "name": "totalSupply",
      "outputs": [
        {
          "internalType": "uint256",
          "name": "",
          "type": "uint256"
        }
      ],
      "stateMutability": "view",
      "type": "function"
    },
    {
      "inputs": [
        {
          "internalType": "address",
          "name": "to",
          "type": "address"
        },
        {
          "internalType": "uint256",
          "name": "amount",
          "type": "uint256"
        }
      ],
      "name": "transfer",
      "outputs": [
        {
          "internalType": "bool",
          "name": "",
          "type": "bool"
        }
      ],
      "stateMutability": "nonpayable",
      "type": "function"
    },
    {
      "inputs": [
        {
          "internalType": "address",
          "name": "from",
          "type": "address"
        },
        {
          "internalType": "address",
          "name": "to",
          "type": "address"
        },
        {
          "internalType": "uint256",
          "name": "amount",
          "type": "uint256"
        }
      ],
      "name": "transferFrom",
      "outputs": [
        {
          "internalType": "bool",
          "name": "",
          "type": "bool"
        }
      ],
      "stateMutability": "nonpayable",
      "type": "function"
    },
    {
      "inputs": [
        {
          "internalType": "address",
          "name": "",
          "type": "address"
        }
      ],
      "name": "users2calls",
      "outputs": [
        {
          "internalType": "uint256",
          "name": "",
          "type": "uint256"
        }
      ],
      "stateMutability": "view",
      "type": "function"
    },
    {
      "inputs": [
        {
          "internalType": "address",
          "name": "",
          "type": "address"
        },
        {
          "internalType": "address",
          "name": "",
          "type": "address"
        }
      ],
      "name": "voter2dev_vote_map",
      "outputs": [
        {
          "internalType": "uint256",
          "name": "score",
          "type": "uint256"
        },
        {
          "internalType": "uint256",
          "name": "block_number",
          "type": "uint256"
        }
      ],
      "stateMutability": "view",
      "type": "function"
    }
  ],
  "bytecode": "0x608060405260026008556001600955611388600b553480156200002157600080fd5b5060405162002e7a38038062002e7a8339818101604052810190620000479190620002ce565b81600390805190602001906200005f92919062000081565b5080600490805190602001906200007892919062000081565b505050620003b8565b8280546200008f9062000382565b90600052602060002090601f016020900481019282620000b35760008555620000ff565b82601f10620000ce57805160ff1916838001178555620000ff565b82800160010185558215620000ff579182015b82811115620000fe578251825591602001919060010190620000e1565b5b5090506200010e919062000112565b5090565b5b808211156200012d57600081600090555060010162000113565b5090565b6000604051905090565b600080fd5b600080fd5b600080fd5b600080fd5b6000601f19601f8301169050919050565b7f4e487b7100000000000000000000000000000000000000000000000000000000600052604160045260246000fd5b6200019a826200014f565b810181811067ffffffffffffffff82111715620001bc57620001bb62000160565b5b80604052505050565b6000620001d162000131565b9050620001df82826200018f565b919050565b600067ffffffffffffffff82111562000202576200020162000160565b5b6200020d826200014f565b9050602081019050919050565b60005b838110156200023a5780820151818401526020810190506200021d565b838111156200024a576000848401525b50505050565b6000620002676200026184620001e4565b620001c5565b9050828152602081018484840111156200028657620002856200014a565b5b620002938482856200021a565b509392505050565b600082601f830112620002b357620002b262000145565b5b8151620002c584826020860162000250565b91505092915050565b60008060408385031215620002e857620002e76200013b565b5b600083015167ffffffffffffffff81111562000309576200030862000140565b5b62000317858286016200029b565b925050602083015167ffffffffffffffff8111156200033b576200033a62000140565b5b62000349858286016200029b565b9150509250929050565b7f4e487b7100000000000000000000000000000000000000000000000000000000600052602260045260246000fd5b600060028204905060018216806200039b57607f821691505b60208210811415620003b257620003b162000353565b5b50919050565b612ab280620003c86000396000f3fe608060405234801561001057600080fd5b50600436106101cf5760003560e01c806370a0823111610104578063a457c2d7116100a2578063ca0ab0b611610071578063ca0ab0b6146105cd578063dd62ed3e146105e9578063e1118bc014610619578063fd11157914610635576101cf565b8063a457c2d71461051f578063a9059cbb1461054f578063b0bb1c5a1461057f578063c4441cce1461059d576101cf565b80638f4cc684116100de5780638f4cc6841461048357806391b3006c146104b357806395d89b41146104cf5780639a6d84cc146104ed576101cf565b806370a082311461041957806375ee5bcf14610449578063805d835d14610465576101cf565b806332ebe18c1161017157806340c10f191161014b57806340c10f191461035857806351a6ff75146103885780635eeacb5f146103b9578063698839fd146103e9576101cf565b806332ebe18c146102da578063356177e31461030a5780633950935114610328576101cf565b806318160ddd116101ad57806318160ddd1461023e5780631a3a5eac1461025c57806323b872dd1461028c578063313ce567146102bc576101cf565b806306fdde03146101d4578063095ea7b3146101f25780631532335e14610222575b600080fd5b6101dc610665565b6040516101e99190611c2f565b60405180910390f35b61020c60048036038101906102079190611cf9565b6106f7565b6040516102199190611d54565b60405180910390f35b61023c60048036038101906102379190611d6f565b61071a565b005b6102466107a6565b6040516102539190611dd1565b60405180910390f35b61027660048036038101906102719190611dec565b6107b0565b6040516102839190611dd1565b60405180910390f35b6102a660048036038101906102a19190611d6f565b6107c8565b6040516102b39190611d54565b60405180910390f35b6102c46107ec565b6040516102d19190611e35565b60405180910390f35b6102f460048036038101906102ef9190611dec565b6107f5565b6040516103019190611d54565b60405180910390f35b61031261089c565b60405161031f9190611dd1565b60405180910390f35b610342600480360381019061033d9190611cf9565b6108a2565b60405161034f9190611d54565b60405180910390f35b610372600480360381019061036d9190611cf9565b6108d9565b60405161037f9190611dd1565b60405180910390f35b6103a2600480360381019061039d9190611e50565b6108f6565b6040516103b0929190611e90565b60405180910390f35b6103d360048036038101906103ce9190611eb9565b610927565b6040516103e09190611ef5565b60405180910390f35b61040360048036038101906103fe9190611dec565b610966565b6040516104109190611dd1565b60405180910390f35b610433600480360381019061042e9190611dec565b6109b2565b6040516104409190611dd1565b60405180910390f35b610463600480360381019061045e9190611dec565b6109fa565b005b61046d610aae565b60405161047a9190611dd1565b60405180910390f35b61049d60048036038101906104989190611dec565b610ab4565b6040516104aa9190611dd1565b60405180910390f35b6104cd60048036038101906104c89190611eb9565b610b00565b005b6104d7610b71565b6040516104e49190611c2f565b60405180910390f35b61050760048036038101906105029190611dec565b610c03565b60405161051693929190611f10565b60405180910390f35b61053960048036038101906105349190611cf9565b610c2d565b6040516105469190611d54565b60405180910390f35b61056960048036038101906105649190611cf9565b610ca4565b6040516105769190611d54565b60405180910390f35b610587610cc7565b6040516105949190611dd1565b60405180910390f35b6105b760048036038101906105b29190611eb9565b610ccd565b6040516105c49190611dd1565b60405180910390f35b6105e760048036038101906105e29190612152565b610eda565b005b61060360048036038101906105fe9190611e50565b6113fb565b6040516106109190611dd1565b60405180910390f35b610633600480360381019061062e9190611eb9565b611482565b005b61064f600480360381019061064a9190611dec565b6114d0565b60405161065c9190611dd1565b60405180910390f35b606060038054610674906121f9565b80601f01602080910402602001604051908101604052809291908181526020018280546106a0906121f9565b80156106ed5780601f106106c2576101008083540402835291602001916106ed565b820191906000526020600020905b8154815290600101906020018083116106d057829003601f168201915b5050505050905090565b600080610702611576565b905061070f81858561157e565b600191505092915050565b600061072684846113fb565b90507fffffffffffffffffffffffffffffffffffffffffffffffffffffffffffffffff81146107a05781811015610792576040517f08c379a000000000000000000000000000000000000000000000000000000000815260040161078990612277565b60405180910390fd5b61079f848484840361157e565b5b50505050565b6000600254905090565b600a6020528060005260406000206000915090505481565b6000806107d3611576565b90506107e0858585611749565b60019150509392505050565b60006012905090565b60008060005b600580549050811015610892578373ffffffffffffffffffffffffffffffffffffffff166005828154811061083357610832612297565b5b9060005260206000200160009054906101000a900473ffffffffffffffffffffffffffffffffffffffff1673ffffffffffffffffffffffffffffffffffffffff16141561087f57600191505b808061088a906122f5565b9150506107fb565b5080915050919050565b60095481565b6000806108ad611576565b90506108ce8185856108bf85896113fb565b6108c9919061233e565b61157e565b600191505092915050565b60006108e583836119c1565b6108ee336109b2565b905092915050565b6007602052816000526040600020602052806000526040600020600091509150508060000154908060010154905082565b6005818154811061093757600080fd5b906000526020600020016000915054906101000a900473ffffffffffffffffffffffffffffffffffffffff1681565b6000600660008373ffffffffffffffffffffffffffffffffffffffff1673ffffffffffffffffffffffffffffffffffffffff168152602001908152602001600020600001549050919050565b60008060008373ffffffffffffffffffffffffffffffffffffffff1673ffffffffffffffffffffffffffffffffffffffff168152602001908152602001600020549050919050565b6009546000808373ffffffffffffffffffffffffffffffffffffffff1673ffffffffffffffffffffffffffffffffffffffff1681526020019081526020016000205411610a4657600080fd5b610a5333306009546107c8565b506001600a60003373ffffffffffffffffffffffffffffffffffffffff1673ffffffffffffffffffffffffffffffffffffffff1681526020019081526020016000206000828254610aa4919061233e565b9250508190555050565b61271081565b6000600660008373ffffffffffffffffffffffffffffffffffffffff1673ffffffffffffffffffffffffffffffffffffffff168152602001908152602001600020600101549050919050565b610b0b3330836107c8565b5080600660003373ffffffffffffffffffffffffffffffffffffffff1673ffffffffffffffffffffffffffffffffffffffff1681526020019081526020016000206000016000828254610b5e919061233e565b92505081905550610b6e33611b18565b50565b606060048054610b80906121f9565b80601f0160208091040260200160405190810160405280929190818152602001828054610bac906121f9565b8015610bf95780601f10610bce57610100808354040283529160200191610bf9565b820191906000526020600020905b815481529060010190602001808311610bdc57829003601f168201915b5050505050905090565b60066020528060005260406000206000915090508060000154908060010154908060020154905083565b600080610c38611576565b90506000610c4682866113fb565b905083811015610c8b576040517f08c379a0000000000000000000000000000000000000000000000000000000008152600401610c8290612406565b60405180910390fd5b610c98828686840361157e565b60019250505092915050565b600080610caf611576565b9050610cbc818585611749565b600191505092915050565b600b5481565b6000600660003373ffffffffffffffffffffffffffffffffffffffff1673ffffffffffffffffffffffffffffffffffffffff168152602001908152602001600020600001548210610d5e57600660003373ffffffffffffffffffffffffffffffffffffffff1673ffffffffffffffffffffffffffffffffffffffff1681526020019081526020016000206000015491505b81600660003373ffffffffffffffffffffffffffffffffffffffff1673ffffffffffffffffffffffffffffffffffffffff16815260200190815260200160002060000154610dac9190612426565b600660003373ffffffffffffffffffffffffffffffffffffffff1673ffffffffffffffffffffffffffffffffffffffff16815260200190815260200160002060000181905550610dfd3330846107c8565b506000600660003373ffffffffffffffffffffffffffffffffffffffff1673ffffffffffffffffffffffffffffffffffffffff168152602001908152602001600020600001541415610e9057600660003373ffffffffffffffffffffffffffffffffffffffff1673ffffffffffffffffffffffffffffffffffffffff168152602001908152602001600020600001600090555b600660003373ffffffffffffffffffffffffffffffffffffffff1673ffffffffffffffffffffffffffffffffffffffff168152602001908152602001600020600001549050919050565b8051825114610f1e576040517f08c379a0000000000000000000000000000000000000000000000000000000008152600401610f15906124cc565b60405180910390fd5b612710825110610f63576040517f08c379a0000000000000000000000000000000000000000000000000000000008152600401610f5a9061255e565b60405180910390fd5b6000600660003373ffffffffffffffffffffffffffffffffffffffff1673ffffffffffffffffffffffffffffffffffffffff1681526020019081526020016000206000015411610fe8576040517f08c379a0000000000000000000000000000000000000000000000000000000008152600401610fdf906125ca565b60405180910390fd5b6000808060003390506000806000905060005b885181101561121f5787818151811061101757611016612297565b5b60200260200101519250600660008473ffffffffffffffffffffffffffffffffffffffff1673ffffffffffffffffffffffffffffffffffffffff168152602001908152602001600020600101549450612710600660003373ffffffffffffffffffffffffffffffffffffffff1673ffffffffffffffffffffffffffffffffffffffff168152602001908152602001600020600001548a83815181106110bf576110be612297565b5b60200260200101516110d191906125ea565b6110db91906125ea565b9550612710600b546127106110f09190612426565b866110fb91906125ea565b600b548861110991906125ea565b611113919061233e565b61111d9190612673565b600660008573ffffffffffffffffffffffffffffffffffffffff1673ffffffffffffffffffffffffffffffffffffffff168152602001908152602001600020600101600082825461116e919061233e565b9250508190555043600660008573ffffffffffffffffffffffffffffffffffffffff1673ffffffffffffffffffffffffffffffffffffffff16815260200190815260200160002060020181905550600660008473ffffffffffffffffffffffffffffffffffffffff1673ffffffffffffffffffffffffffffffffffffffff168152602001908152602001600020600101548761120a919061233e565b96508080611217906122f5565b915050610ffb565b5060005b88518110156113f05787818151811061123f5761123e612297565b5b6020026020010151925086612710600660008673ffffffffffffffffffffffffffffffffffffffff1673ffffffffffffffffffffffffffffffffffffffff1681526020019081526020016000206001015461129a91906125ea565b6112a49190612673565b600660008573ffffffffffffffffffffffffffffffffffffffff1673ffffffffffffffffffffffffffffffffffffffff168152602001908152602001600020600101819055506040518060400160405280600660008673ffffffffffffffffffffffffffffffffffffffff1673ffffffffffffffffffffffffffffffffffffffff16815260200190815260200160002060010154815260200143815250600760008673ffffffffffffffffffffffffffffffffffffffff1673ffffffffffffffffffffffffffffffffffffffff16815260200190815260200160002060008573ffffffffffffffffffffffffffffffffffffffff1673ffffffffffffffffffffffffffffffffffffffff16815260200190815260200160002060008201518160000155602082015181600101559050506113dd83611b18565b80806113e8906122f5565b915050611223565b505050505050505050565b6000600160008473ffffffffffffffffffffffffffffffffffffffff1673ffffffffffffffffffffffffffffffffffffffff16815260200190815260200160002060008373ffffffffffffffffffffffffffffffffffffffff1673ffffffffffffffffffffffffffffffffffffffff16815260200190815260200160002054905092915050565b61271081106114c6576040517f08c379a00000000000000000000000000000000000000000000000000000000081526004016114bd90612716565b60405180910390fd5b80600b8190555050565b60008060005b60058054905081101561156c578373ffffffffffffffffffffffffffffffffffffffff166005828154811061150e5761150d612297565b5b9060005260206000200160009054906101000a900473ffffffffffffffffffffffffffffffffffffffff1673ffffffffffffffffffffffffffffffffffffffff161415611559578091505b8080611564906122f5565b9150506114d6565b5080915050919050565b600033905090565b600073ffffffffffffffffffffffffffffffffffffffff168373ffffffffffffffffffffffffffffffffffffffff1614156115ee576040517f08c379a00000000000000000000000000000000000000000000000000000000081526004016115e5906127a8565b60405180910390fd5b600073ffffffffffffffffffffffffffffffffffffffff168273ffffffffffffffffffffffffffffffffffffffff16141561165e576040517f08c379a00000000000000000000000000000000000000000000000000000000081526004016116559061283a565b60405180910390fd5b80600160008573ffffffffffffffffffffffffffffffffffffffff1673ffffffffffffffffffffffffffffffffffffffff16815260200190815260200160002060008473ffffffffffffffffffffffffffffffffffffffff1673ffffffffffffffffffffffffffffffffffffffff168152602001908152602001600020819055508173ffffffffffffffffffffffffffffffffffffffff168373ffffffffffffffffffffffffffffffffffffffff167f8c5be1e5ebec7d5bd14f71427d1e84f3dd0314c0f7b2291e5b200ac8c7c3b9258360405161173c9190611dd1565b60405180910390a3505050565b600073ffffffffffffffffffffffffffffffffffffffff168373ffffffffffffffffffffffffffffffffffffffff1614156117b9576040517f08c379a00000000000000000000000000000000000000000000000000000000081526004016117b0906128cc565b60405180910390fd5b600073ffffffffffffffffffffffffffffffffffffffff168273ffffffffffffffffffffffffffffffffffffffff161415611829576040517f08c379a00000000000000000000000000000000000000000000000000000000081526004016118209061295e565b60405180910390fd5b611834838383611b8c565b60008060008573ffffffffffffffffffffffffffffffffffffffff1673ffffffffffffffffffffffffffffffffffffffff168152602001908152602001600020549050818110156118ba576040517f08c379a00000000000000000000000000000000000000000000000000000000081526004016118b1906129f0565b60405180910390fd5b8181036000808673ffffffffffffffffffffffffffffffffffffffff1673ffffffffffffffffffffffffffffffffffffffff16815260200190815260200160002081905550816000808573ffffffffffffffffffffffffffffffffffffffff1673ffffffffffffffffffffffffffffffffffffffff168152602001908152602001600020600082825401925050819055508273ffffffffffffffffffffffffffffffffffffffff168473ffffffffffffffffffffffffffffffffffffffff167fddf252ad1be2c89b69c2b068fc378daa952ba7f163c4a11628f55a4df523b3ef846040516119a89190611dd1565b60405180910390a36119bb848484611b91565b50505050565b600073ffffffffffffffffffffffffffffffffffffffff168273ffffffffffffffffffffffffffffffffffffffff161415611a31576040517f08c379a0000000000000000000000000000000000000000000000000000000008152600401611a2890612a5c565b60405180910390fd5b611a3d60008383611b8c565b8060026000828254611a4f919061233e565b92505081905550806000808473ffffffffffffffffffffffffffffffffffffffff1673ffffffffffffffffffffffffffffffffffffffff168152602001908152602001600020600082825401925050819055508173ffffffffffffffffffffffffffffffffffffffff16600073ffffffffffffffffffffffffffffffffffffffff167fddf252ad1be2c89b69c2b068fc378daa952ba7f163c4a11628f55a4df523b3ef83604051611b009190611dd1565b60405180910390a3611b1460008383611b91565b5050565b611b21816107f5565b611b89576005819080600181540180825580915050600190039060005260206000200160009091909190916101000a81548173ffffffffffffffffffffffffffffffffffffffff021916908373ffffffffffffffffffffffffffffffffffffffff1602179055505b50565b505050565b505050565b600081519050919050565b600082825260208201905092915050565b60005b83811015611bd0578082015181840152602081019050611bb5565b83811115611bdf576000848401525b50505050565b6000601f19601f8301169050919050565b6000611c0182611b96565b611c0b8185611ba1565b9350611c1b818560208601611bb2565b611c2481611be5565b840191505092915050565b60006020820190508181036000830152611c498184611bf6565b905092915050565b6000604051905090565b600080fd5b600080fd5b600073ffffffffffffffffffffffffffffffffffffffff82169050919050565b6000611c9082611c65565b9050919050565b611ca081611c85565b8114611cab57600080fd5b50565b600081359050611cbd81611c97565b92915050565b6000819050919050565b611cd681611cc3565b8114611ce157600080fd5b50565b600081359050611cf381611ccd565b92915050565b60008060408385031215611d1057611d0f611c5b565b5b6000611d1e85828601611cae565b9250506020611d2f85828601611ce4565b9150509250929050565b60008115159050919050565b611d4e81611d39565b82525050565b6000602082019050611d696000830184611d45565b92915050565b600080600060608486031215611d8857611d87611c5b565b5b6000611d9686828701611cae565b9350506020611da786828701611cae565b9250506040611db886828701611ce4565b9150509250925092565b611dcb81611cc3565b82525050565b6000602082019050611de66000830184611dc2565b92915050565b600060208284031215611e0257611e01611c5b565b5b6000611e1084828501611cae565b91505092915050565b600060ff82169050919050565b611e2f81611e19565b82525050565b6000602082019050611e4a6000830184611e26565b92915050565b60008060408385031215611e6757611e66611c5b565b5b6000611e7585828601611cae565b9250506020611e8685828601611cae565b9150509250929050565b6000604082019050611ea56000830185611dc2565b611eb26020830184611dc2565b9392505050565b600060208284031215611ecf57611ece611c5b565b5b6000611edd84828501611ce4565b91505092915050565b611eef81611c85565b82525050565b6000602082019050611f0a6000830184611ee6565b92915050565b6000606082019050611f256000830186611dc2565b611f326020830185611dc2565b611f3f6040830184611dc2565b949350505050565b600080fd5b7f4e487b7100000000000000000000000000000000000000000000000000000000600052604160045260246000fd5b611f8482611be5565b810181811067ffffffffffffffff82111715611fa357611fa2611f4c565b5b80604052505050565b6000611fb6611c51565b9050611fc28282611f7b565b919050565b600067ffffffffffffffff821115611fe257611fe1611f4c565b5b602082029050602081019050919050565b600080fd5b600061200b61200684611fc7565b611fac565b9050808382526020820190506020840283018581111561202e5761202d611ff3565b5b835b8181101561205757806120438882611ce4565b845260208401935050602081019050612030565b5050509392505050565b600082601f83011261207657612075611f47565b5b8135612086848260208601611ff8565b91505092915050565b600067ffffffffffffffff8211156120aa576120a9611f4c565b5b602082029050602081019050919050565b60006120ce6120c98461208f565b611fac565b905080838252602082019050602084028301858111156120f1576120f0611ff3565b5b835b8181101561211a57806121068882611cae565b8452602084019350506020810190506120f3565b5050509392505050565b600082601f83011261213957612138611f47565b5b81356121498482602086016120bb565b91505092915050565b6000806040838503121561216957612168611c5b565b5b600083013567ffffffffffffffff81111561218757612186611c60565b5b61219385828601612061565b925050602083013567ffffffffffffffff8111156121b4576121b3611c60565b5b6121c085828601612124565b9150509250929050565b7f4e487b7100000000000000000000000000000000000000000000000000000000600052602260045260246000fd5b6000600282049050600182168061221157607f821691505b60208210811415612225576122246121ca565b5b50919050565b7f45524332303a20696e73756666696369656e7420616c6c6f77616e6365000000600082015250565b6000612261601d83611ba1565b915061226c8261222b565b602082019050919050565b6000602082019050818103600083015261229081612254565b9050919050565b7f4e487b7100000000000000000000000000000000000000000000000000000000600052603260045260246000fd5b7f4e487b7100000000000000000000000000000000000000000000000000000000600052601160045260246000fd5b600061230082611cc3565b91507fffffffffffffffffffffffffffffffffffffffffffffffffffffffffffffffff821415612333576123326122c6565b5b600182019050919050565b600061234982611cc3565b915061235483611cc3565b9250827fffffffffffffffffffffffffffffffffffffffffffffffffffffffffffffffff03821115612389576123886122c6565b5b828201905092915050565b7f45524332303a2064656372656173656420616c6c6f77616e63652062656c6f7760008201527f207a65726f000000000000000000000000000000000000000000000000000000602082015250565b60006123f0602583611ba1565b91506123fb82612394565b604082019050919050565b6000602082019050818103600083015261241f816123e3565b9050919050565b600061243182611cc3565b915061243c83611cc3565b92508282101561244f5761244e6122c6565b5b828203905092915050565b7f766f74657320616e642064657673206861766520746f2062652073616d65206c60008201527f656e6774682062726f0000000000000000000000000000000000000000000000602082015250565b60006124b6602983611ba1565b91506124c18261245a565b604082019050919050565b600060208201905081810360008301526124e5816124a9565b9050919050565b7f7468652073697a65206f6620796f7520766f7465727320697320746f6f20626960008201527f672066616d000000000000000000000000000000000000000000000000000000602082015250565b6000612548602583611ba1565b9150612553826124ec565b604082019050919050565b600060208201905081810360008301526125778161253b565b9050919050565b7f796f75206e65656420746f207374616b652067726561746572207468616e2030600082015250565b60006125b4602083611ba1565b91506125bf8261257e565b602082019050919050565b600060208201905081810360008301526125e3816125a7565b9050919050565b60006125f582611cc3565b915061260083611cc3565b9250817fffffffffffffffffffffffffffffffffffffffffffffffffffffffffffffffff0483118215151615612639576126386122c6565b5b828202905092915050565b7f4e487b7100000000000000000000000000000000000000000000000000000000600052601260045260246000fd5b600061267e82611cc3565b915061268983611cc3565b92508261269957612698612644565b5b828204905092915050565b7f414c504841206e6565647320746f206265204c6f776572207468616e2050657260008201527f63656e7420426173650000000000000000000000000000000000000000000000602082015250565b6000612700602983611ba1565b915061270b826126a4565b604082019050919050565b6000602082019050818103600083015261272f816126f3565b9050919050565b7f45524332303a20617070726f76652066726f6d20746865207a65726f2061646460008201527f7265737300000000000000000000000000000000000000000000000000000000602082015250565b6000612792602483611ba1565b915061279d82612736565b604082019050919050565b600060208201905081810360008301526127c181612785565b9050919050565b7f45524332303a20617070726f766520746f20746865207a65726f20616464726560008201527f7373000000000000000000000000000000000000000000000000000000000000602082015250565b6000612824602283611ba1565b915061282f826127c8565b604082019050919050565b6000602082019050818103600083015261285381612817565b9050919050565b7f45524332303a207472616e736665722066726f6d20746865207a65726f20616460008201527f6472657373000000000000000000000000000000000000000000000000000000602082015250565b60006128b6602583611ba1565b91506128c18261285a565b604082019050919050565b600060208201905081810360008301526128e5816128a9565b9050919050565b7f45524332303a207472616e7366657220746f20746865207a65726f206164647260008201527f6573730000000000000000000000000000000000000000000000000000000000602082015250565b6000612948602383611ba1565b9150612953826128ec565b604082019050919050565b600060208201905081810360008301526129778161293b565b9050919050565b7f45524332303a207472616e7366657220616d6f756e742065786365656473206260008201527f616c616e63650000000000000000000000000000000000000000000000000000602082015250565b60006129da602683611ba1565b91506129e58261297e565b604082019050919050565b60006020820190508181036000830152612a09816129cd565b9050919050565b7f45524332303a206d696e7420746f20746865207a65726f206164647265737300600082015250565b6000612a46601f83611ba1565b9150612a5182612a10565b602082019050919050565b60006020820190508181036000830152612a7581612a39565b905091905056fea26469706673582212208d07cfc685ca98e3ddcfd1ab3470904e9188f192f00706eaefa61a1e9b5ae19364736f6c63430008090033",
  "linkReferences": {},
  "deployedLinkReferences": {}
}