{
  "_format": "hh-sol-artifact-1",
  "contractName": "ModelToken",
  "sourceName": "contracts/token/ERC20/ModelToken.sol",
  "abi": [
    {
      "inputs": [
        {
          "internalType": "string",
          "name": "name_",
          "type": "string"
        },
        {
          "internalType": "string",
          "name": "symbol_",
          "type": "string"
        }
      ],
      "stateMutability": "nonpayable",
      "type": "constructor"
    },
    {
      "anonymous": false,
      "inputs": [
        {
          "indexed": true,
          "internalType": "address",
          "name": "owner",
          "type": "address"
        },
        {
          "indexed": true,
          "internalType": "address",
          "name": "spender",
          "type": "address"
        },
        {
          "indexed": false,
          "internalType": "uint256",
          "name": "value",
          "type": "uint256"
        }
      ],
      "name": "Approval",
      "type": "event"
    },
    {
      "anonymous": false,
      "inputs": [
        {
          "indexed": true,
          "internalType": "address",
          "name": "from",
          "type": "address"
        },
        {
          "indexed": true,
          "internalType": "address",
          "name": "to",
          "type": "address"
        },
        {
          "indexed": false,
          "internalType": "uint256",
          "name": "value",
          "type": "uint256"
        }
      ],
      "name": "Transfer",
      "type": "event"
    },
    {
      "inputs": [],
      "name": "ALPHA",
      "outputs": [
        {
          "internalType": "uint256",
          "name": "",
          "type": "uint256"
        }
      ],
      "stateMutability": "view",
      "type": "function"
    },
    {
      "inputs": [],
      "name": "PERCENT_BASE",
      "outputs": [
        {
          "internalType": "uint256",
          "name": "",
          "type": "uint256"
        }
      ],
      "stateMutability": "view",
      "type": "function"
    },
    {
      "inputs": [
        {
          "internalType": "address",
          "name": "owner",
          "type": "address"
        },
        {
          "internalType": "address",
          "name": "spender",
          "type": "address"
        },
        {
          "internalType": "uint256",
          "name": "amount",
          "type": "uint256"
        }
      ],
      "name": "_spendAllowance",
      "outputs": [],
      "stateMutability": "nonpayable",
      "type": "function"
    },
    {
      "inputs": [
        {
          "internalType": "uint256",
          "name": "amount",
          "type": "uint256"
        }
      ],
      "name": "add_stake",
      "outputs": [],
      "stateMutability": "nonpayable",
      "type": "function"
    },
    {
      "inputs": [
        {
          "internalType": "address",
          "name": "owner",
          "type": "address"
        },
        {
          "internalType": "address",
          "name": "spender",
          "type": "address"
        }
      ],
      "name": "allowance",
      "outputs": [
        {
          "internalType": "uint256",
          "name": "",
          "type": "uint256"
        }
      ],
      "stateMutability": "view",
      "type": "function"
    },
    {
      "inputs": [
        {
          "internalType": "address",
          "name": "spender",
          "type": "address"
        },
        {
          "internalType": "uint256",
          "name": "amount",
          "type": "uint256"
        }
      ],
      "name": "approve",
      "outputs": [
        {
          "internalType": "bool",
          "name": "",
          "type": "bool"
        }
      ],
      "stateMutability": "nonpayable",
      "type": "function"
    },
    {
      "inputs": [
        {
          "internalType": "address",
          "name": "account",
          "type": "address"
        }
      ],
      "name": "balanceOf",
      "outputs": [
        {
          "internalType": "uint256",
          "name": "",
          "type": "uint256"
        }
      ],
      "stateMutability": "view",
      "type": "function"
    },
    {
      "inputs": [],
      "name": "decimals",
      "outputs": [
        {
          "internalType": "uint8",
          "name": "",
          "type": "uint8"
        }
      ],
      "stateMutability": "view",
      "type": "function"
    },
    {
      "inputs": [
        {
          "internalType": "address",
          "name": "spender",
          "type": "address"
        },
        {
          "internalType": "uint256",
          "name": "subtractedValue",
          "type": "uint256"
        }
      ],
      "name": "decreaseAllowance",
      "outputs": [
        {
          "internalType": "bool",
          "name": "",
          "type": "bool"
        }
      ],
      "stateMutability": "nonpayable",
      "type": "function"
    },
    {
      "inputs": [
        {
          "internalType": "address",
          "name": "",
          "type": "address"
        }
      ],
      "name": "dev2state",
      "outputs": [
        {
          "internalType": "uint256",
          "name": "stake",
          "type": "uint256"
        },
        {
          "internalType": "uint256",
          "name": "score",
          "type": "uint256"
        },
        {
          "internalType": "uint256",
          "name": "block_number",
          "type": "uint256"
        }
      ],
      "stateMutability": "view",
      "type": "function"
    },
    {
      "inputs": [
        {
          "internalType": "uint256",
          "name": "",
          "type": "uint256"
        }
      ],
      "name": "devs",
      "outputs": [
        {
          "internalType": "address",
          "name": "",
          "type": "address"
        }
      ],
      "stateMutability": "view",
      "type": "function"
    },
    {
      "inputs": [
        {
          "internalType": "address",
          "name": "dev",
          "type": "address"
        }
      ],
      "name": "get_dev_index",
      "outputs": [
        {
          "internalType": "uint256",
          "name": "",
          "type": "uint256"
        }
      ],
      "stateMutability": "view",
      "type": "function"
    },
    {
      "inputs": [
        {
          "internalType": "address",
          "name": "user",
          "type": "address"
        }
      ],
      "name": "get_score",
      "outputs": [
        {
          "internalType": "uint256",
          "name": "",
          "type": "uint256"
        }
      ],
      "stateMutability": "view",
      "type": "function"
    },
    {
      "inputs": [
        {
          "internalType": "address",
          "name": "user",
          "type": "address"
        }
      ],
      "name": "get_stake",
      "outputs": [
        {
          "internalType": "uint256",
          "name": "",
          "type": "uint256"
        }
      ],
      "stateMutability": "view",
      "type": "function"
    },
    {
      "inputs": [
        {
          "internalType": "address",
          "name": "dev",
          "type": "address"
        }
      ],
      "name": "has_dev",
      "outputs": [
        {
          "internalType": "bool",
          "name": "",
          "type": "bool"
        }
      ],
      "stateMutability": "view",
      "type": "function"
    },
    {
      "inputs": [
        {
          "internalType": "address",
          "name": "spender",
          "type": "address"
        },
        {
          "internalType": "uint256",
          "name": "addedValue",
          "type": "uint256"
        }
      ],
      "name": "increaseAllowance",
      "outputs": [
        {
          "internalType": "bool",
          "name": "",
          "type": "bool"
        }
      ],
      "stateMutability": "nonpayable",
      "type": "function"
    },
    {
      "inputs": [
        {
          "internalType": "address",
          "name": "account",
          "type": "address"
        },
        {
          "internalType": "uint256",
          "name": "amount",
          "type": "uint256"
        }
      ],
      "name": "mint",
      "outputs": [
        {
          "internalType": "uint256",
          "name": "",
          "type": "uint256"
        }
      ],
      "stateMutability": "nonpayable",
      "type": "function"
    },
    {
      "inputs": [],
      "name": "name",
      "outputs": [
        {
          "internalType": "string",
          "name": "",
          "type": "string"
        }
      ],
      "stateMutability": "view",
      "type": "function"
    },
    {
      "inputs": [
        {
          "internalType": "uint256",
          "name": "stake",
          "type": "uint256"
        }
      ],
      "name": "remove_stake",
      "outputs": [
        {
          "internalType": "uint256",
          "name": "",
          "type": "uint256"
        }
      ],
      "stateMutability": "nonpayable",
      "type": "function"
    },
    {
      "inputs": [
        {
          "internalType": "uint256",
          "name": "alpha",
          "type": "uint256"
        }
      ],
      "name": "set_alpha",
      "outputs": [],
      "stateMutability": "nonpayable",
      "type": "function"
    },
    {
      "inputs": [
        {
          "internalType": "uint256[]",
          "name": "votes",
          "type": "uint256[]"
        },
        {
          "internalType": "address[]",
          "name": "to_devs",
          "type": "address[]"
        }
      ],
      "name": "set_votes",
      "outputs": [],
      "stateMutability": "nonpayable",
      "type": "function"
    },
    {
      "inputs": [],
      "name": "symbol",
      "outputs": [
        {
          "internalType": "string",
          "name": "",
          "type": "string"
        }
      ],
      "stateMutability": "view",
      "type": "function"
    },
    {
      "inputs": [],
      "name": "totalSupply",
      "outputs": [
        {
          "internalType": "uint256",
          "name": "",
          "type": "uint256"
        }
      ],
      "stateMutability": "view",
      "type": "function"
    },
    {
      "inputs": [
        {
          "internalType": "address",
          "name": "to",
          "type": "address"
        },
        {
          "internalType": "uint256",
          "name": "amount",
          "type": "uint256"
        }
      ],
      "name": "transfer",
      "outputs": [
        {
          "internalType": "bool",
          "name": "",
          "type": "bool"
        }
      ],
      "stateMutability": "nonpayable",
      "type": "function"
    },
    {
      "inputs": [
        {
          "internalType": "address",
          "name": "from",
          "type": "address"
        },
        {
          "internalType": "address",
          "name": "to",
          "type": "address"
        },
        {
          "internalType": "uint256",
          "name": "amount",
          "type": "uint256"
        }
      ],
      "name": "transferFrom",
      "outputs": [
        {
          "internalType": "bool",
          "name": "",
          "type": "bool"
        }
      ],
      "stateMutability": "nonpayable",
      "type": "function"
    },
    {
      "inputs": [
        {
          "internalType": "address",
          "name": "",
          "type": "address"
        },
        {
          "internalType": "address",
          "name": "",
          "type": "address"
        }
      ],
      "name": "voter2dev_vote_map",
      "outputs": [
        {
          "internalType": "uint256",
          "name": "score",
          "type": "uint256"
        },
        {
          "internalType": "uint256",
          "name": "block_number",
          "type": "uint256"
        }
      ],
      "stateMutability": "view",
      "type": "function"
    }
  ],
  "bytecode": "0x608060405260026008556113886009553480156200001c57600080fd5b5060405162002cf838038062002cf88339818101604052810190620000429190620002c9565b81600390805190602001906200005a9291906200007c565b508060049080519060200190620000739291906200007c565b505050620003b3565b8280546200008a906200037d565b90600052602060002090601f016020900481019282620000ae5760008555620000fa565b82601f10620000c957805160ff1916838001178555620000fa565b82800160010185558215620000fa579182015b82811115620000f9578251825591602001919060010190620000dc565b5b5090506200010991906200010d565b5090565b5b80821115620001285760008160009055506001016200010e565b5090565b6000604051905090565b600080fd5b600080fd5b600080fd5b600080fd5b6000601f19601f8301169050919050565b7f4e487b7100000000000000000000000000000000000000000000000000000000600052604160045260246000fd5b62000195826200014a565b810181811067ffffffffffffffff82111715620001b757620001b66200015b565b5b80604052505050565b6000620001cc6200012c565b9050620001da82826200018a565b919050565b600067ffffffffffffffff821115620001fd57620001fc6200015b565b5b62000208826200014a565b9050602081019050919050565b60005b838110156200023557808201518184015260208101905062000218565b8381111562000245576000848401525b50505050565b6000620002626200025c84620001df565b620001c0565b90508281526020810184848401111562000281576200028062000145565b5b6200028e84828562000215565b509392505050565b600082601f830112620002ae57620002ad62000140565b5b8151620002c08482602086016200024b565b91505092915050565b60008060408385031215620002e357620002e262000136565b5b600083015167ffffffffffffffff8111156200030457620003036200013b565b5b620003128582860162000296565b925050602083015167ffffffffffffffff8111156200033657620003356200013b565b5b620003448582860162000296565b9150509250929050565b7f4e487b7100000000000000000000000000000000000000000000000000000000600052602260045260246000fd5b600060028204905060018216806200039657607f821691505b60208210811415620003ad57620003ac6200034e565b5b50919050565b61293580620003c36000396000f3fe608060405234801561001057600080fd5b506004361061018e5760003560e01c80638f4cc684116100de578063b0bb1c5a11610097578063ca0ab0b611610071578063ca0ab0b614610522578063dd62ed3e1461053e578063e1118bc01461056e578063fd1115791461058a5761018e565b8063b0bb1c5a146104a4578063c0b7f281146104c2578063c4441cce146104f25761018e565b80638f4cc684146103a857806391b3006c146103d857806395d89b41146103f45780639a6d84cc14610412578063a457c2d714610444578063a9059cbb146104745761018e565b8063395093511161014b5780635eeacb5f116101255780635eeacb5f146102fa578063698839fd1461032a57806370a082311461035a578063805d835d1461038a5761018e565b8063395093511461026957806340c10f191461029957806351a6ff75146102c95761018e565b806306fdde0314610193578063095ea7b3146101b15780631532335e146101e157806318160ddd146101fd57806323b872dd1461021b578063313ce5671461024b575b600080fd5b61019b6105ba565b6040516101a89190611ab2565b60405180910390f35b6101cb60048036038101906101c69190611b7c565b61064c565b6040516101d89190611bd7565b60405180910390f35b6101fb60048036038101906101f69190611bf2565b61066f565b005b6102056106fb565b6040516102129190611c54565b60405180910390f35b61023560048036038101906102309190611bf2565b610705565b6040516102429190611bd7565b60405180910390f35b610253610729565b6040516102609190611c8b565b60405180910390f35b610283600480360381019061027e9190611b7c565b610732565b6040516102909190611bd7565b60405180910390f35b6102b360048036038101906102ae9190611b7c565b610769565b6040516102c09190611c54565b60405180910390f35b6102e360048036038101906102de9190611ca6565b610786565b6040516102f1929190611ce6565b60405180910390f35b610314600480360381019061030f9190611d0f565b6107b7565b6040516103219190611d4b565b60405180910390f35b610344600480360381019061033f9190611d66565b6107f6565b6040516103519190611c54565b60405180910390f35b610374600480360381019061036f9190611d66565b610842565b6040516103819190611c54565b60405180910390f35b61039261088a565b60405161039f9190611c54565b60405180910390f35b6103c260048036038101906103bd9190611d66565b610890565b6040516103cf9190611c54565b60405180910390f35b6103f260048036038101906103ed9190611d0f565b6108dc565b005b6103fc61094d565b6040516104099190611ab2565b60405180910390f35b61042c60048036038101906104279190611d66565b6109df565b60405161043b93929190611d93565b60405180910390f35b61045e60048036038101906104599190611b7c565b610a09565b60405161046b9190611bd7565b60405180910390f35b61048e60048036038101906104899190611b7c565b610a80565b60405161049b9190611bd7565b60405180910390f35b6104ac610aa3565b6040516104b99190611c54565b60405180910390f35b6104dc60048036038101906104d79190611d66565b610aa9565b6040516104e99190611bd7565b60405180910390f35b61050c60048036038101906105079190611d0f565b610b50565b6040516105199190611c54565b60405180910390f35b61053c60048036038101906105379190611fd5565b610d5d565b005b61055860048036038101906105539190611ca6565b61127e565b6040516105659190611c54565b60405180910390f35b61058860048036038101906105839190611d0f565b611305565b005b6105a4600480360381019061059f9190611d66565b611353565b6040516105b19190611c54565b60405180910390f35b6060600380546105c99061207c565b80601f01602080910402602001604051908101604052809291908181526020018280546105f59061207c565b80156106425780601f1061061757610100808354040283529160200191610642565b820191906000526020600020905b81548152906001019060200180831161062557829003601f168201915b5050505050905090565b6000806106576113f9565b9050610664818585611401565b600191505092915050565b600061067b848461127e565b90507fffffffffffffffffffffffffffffffffffffffffffffffffffffffffffffffff81146106f557818110156106e7576040517f08c379a00000000000000000000000000000000000000000000000000000000081526004016106de906120fa565b60405180910390fd5b6106f48484848403611401565b5b50505050565b6000600254905090565b6000806107106113f9565b905061071d8585856115cc565b60019150509392505050565b60006012905090565b60008061073d6113f9565b905061075e81858561074f858961127e565b6107599190612149565b611401565b600191505092915050565b60006107758383611844565b61077e33610842565b905092915050565b6007602052816000526040600020602052806000526040600020600091509150508060000154908060010154905082565b600581815481106107c757600080fd5b906000526020600020016000915054906101000a900473ffffffffffffffffffffffffffffffffffffffff1681565b6000600660008373ffffffffffffffffffffffffffffffffffffffff1673ffffffffffffffffffffffffffffffffffffffff168152602001908152602001600020600001549050919050565b60008060008373ffffffffffffffffffffffffffffffffffffffff1673ffffffffffffffffffffffffffffffffffffffff168152602001908152602001600020549050919050565b61271081565b6000600660008373ffffffffffffffffffffffffffffffffffffffff1673ffffffffffffffffffffffffffffffffffffffff168152602001908152602001600020600101549050919050565b6108e7333083610705565b5080600660003373ffffffffffffffffffffffffffffffffffffffff1673ffffffffffffffffffffffffffffffffffffffff168152602001908152602001600020600001600082825461093a9190612149565b9250508190555061094a3361199b565b50565b60606004805461095c9061207c565b80601f01602080910402602001604051908101604052809291908181526020018280546109889061207c565b80156109d55780601f106109aa576101008083540402835291602001916109d5565b820191906000526020600020905b8154815290600101906020018083116109b857829003601f168201915b5050505050905090565b60066020528060005260406000206000915090508060000154908060010154908060020154905083565b600080610a146113f9565b90506000610a22828661127e565b905083811015610a67576040517f08c379a0000000000000000000000000000000000000000000000000000000008152600401610a5e90612211565b60405180910390fd5b610a748286868403611401565b60019250505092915050565b600080610a8b6113f9565b9050610a988185856115cc565b600191505092915050565b60095481565b60008060005b600580549050811015610b46578373ffffffffffffffffffffffffffffffffffffffff1660058281548110610ae757610ae6612231565b5b9060005260206000200160009054906101000a900473ffffffffffffffffffffffffffffffffffffffff1673ffffffffffffffffffffffffffffffffffffffff161415610b3357600191505b8080610b3e90612260565b915050610aaf565b5080915050919050565b6000600660003373ffffffffffffffffffffffffffffffffffffffff1673ffffffffffffffffffffffffffffffffffffffff168152602001908152602001600020600001548210610be157600660003373ffffffffffffffffffffffffffffffffffffffff1673ffffffffffffffffffffffffffffffffffffffff1681526020019081526020016000206000015491505b81600660003373ffffffffffffffffffffffffffffffffffffffff1673ffffffffffffffffffffffffffffffffffffffff16815260200190815260200160002060000154610c2f91906122a9565b600660003373ffffffffffffffffffffffffffffffffffffffff1673ffffffffffffffffffffffffffffffffffffffff16815260200190815260200160002060000181905550610c80333084610705565b506000600660003373ffffffffffffffffffffffffffffffffffffffff1673ffffffffffffffffffffffffffffffffffffffff168152602001908152602001600020600001541415610d1357600660003373ffffffffffffffffffffffffffffffffffffffff1673ffffffffffffffffffffffffffffffffffffffff168152602001908152602001600020600001600090555b600660003373ffffffffffffffffffffffffffffffffffffffff1673ffffffffffffffffffffffffffffffffffffffff168152602001908152602001600020600001549050919050565b8051825114610da1576040517f08c379a0000000000000000000000000000000000000000000000000000000008152600401610d989061234f565b60405180910390fd5b612710825110610de6576040517f08c379a0000000000000000000000000000000000000000000000000000000008152600401610ddd906123e1565b60405180910390fd5b6000600660003373ffffffffffffffffffffffffffffffffffffffff1673ffffffffffffffffffffffffffffffffffffffff1681526020019081526020016000206000015411610e6b576040517f08c379a0000000000000000000000000000000000000000000000000000000008152600401610e629061244d565b60405180910390fd5b6000808060003390506000806000905060005b88518110156110a257878181518110610e9a57610e99612231565b5b60200260200101519250600660008473ffffffffffffffffffffffffffffffffffffffff1673ffffffffffffffffffffffffffffffffffffffff168152602001908152602001600020600101549450612710600660003373ffffffffffffffffffffffffffffffffffffffff1673ffffffffffffffffffffffffffffffffffffffff168152602001908152602001600020600001548a8381518110610f4257610f41612231565b5b6020026020010151610f54919061246d565b610f5e919061246d565b9550612710600954612710610f7391906122a9565b86610f7e919061246d565b60095488610f8c919061246d565b610f969190612149565b610fa091906124f6565b600660008573ffffffffffffffffffffffffffffffffffffffff1673ffffffffffffffffffffffffffffffffffffffff1681526020019081526020016000206001016000828254610ff19190612149565b9250508190555043600660008573ffffffffffffffffffffffffffffffffffffffff1673ffffffffffffffffffffffffffffffffffffffff16815260200190815260200160002060020181905550600660008473ffffffffffffffffffffffffffffffffffffffff1673ffffffffffffffffffffffffffffffffffffffff168152602001908152602001600020600101548761108d9190612149565b9650808061109a90612260565b915050610e7e565b5060005b8851811015611273578781815181106110c2576110c1612231565b5b6020026020010151925086612710600660008673ffffffffffffffffffffffffffffffffffffffff1673ffffffffffffffffffffffffffffffffffffffff1681526020019081526020016000206001015461111d919061246d565b61112791906124f6565b600660008573ffffffffffffffffffffffffffffffffffffffff1673ffffffffffffffffffffffffffffffffffffffff168152602001908152602001600020600101819055506040518060400160405280600660008673ffffffffffffffffffffffffffffffffffffffff1673ffffffffffffffffffffffffffffffffffffffff16815260200190815260200160002060010154815260200143815250600760008673ffffffffffffffffffffffffffffffffffffffff1673ffffffffffffffffffffffffffffffffffffffff16815260200190815260200160002060008573ffffffffffffffffffffffffffffffffffffffff1673ffffffffffffffffffffffffffffffffffffffff16815260200190815260200160002060008201518160000155602082015181600101559050506112608361199b565b808061126b90612260565b9150506110a6565b505050505050505050565b6000600160008473ffffffffffffffffffffffffffffffffffffffff1673ffffffffffffffffffffffffffffffffffffffff16815260200190815260200160002060008373ffffffffffffffffffffffffffffffffffffffff1673ffffffffffffffffffffffffffffffffffffffff16815260200190815260200160002054905092915050565b6127108110611349576040517f08c379a000000000000000000000000000000000000000000000000000000000815260040161134090612599565b60405180910390fd5b8060098190555050565b60008060005b6005805490508110156113ef578373ffffffffffffffffffffffffffffffffffffffff166005828154811061139157611390612231565b5b9060005260206000200160009054906101000a900473ffffffffffffffffffffffffffffffffffffffff1673ffffffffffffffffffffffffffffffffffffffff1614156113dc578091505b80806113e790612260565b915050611359565b5080915050919050565b600033905090565b600073ffffffffffffffffffffffffffffffffffffffff168373ffffffffffffffffffffffffffffffffffffffff161415611471576040517f08c379a00000000000000000000000000000000000000000000000000000000081526004016114689061262b565b60405180910390fd5b600073ffffffffffffffffffffffffffffffffffffffff168273ffffffffffffffffffffffffffffffffffffffff1614156114e1576040517f08c379a00000000000000000000000000000000000000000000000000000000081526004016114d8906126bd565b60405180910390fd5b80600160008573ffffffffffffffffffffffffffffffffffffffff1673ffffffffffffffffffffffffffffffffffffffff16815260200190815260200160002060008473ffffffffffffffffffffffffffffffffffffffff1673ffffffffffffffffffffffffffffffffffffffff168152602001908152602001600020819055508173ffffffffffffffffffffffffffffffffffffffff168373ffffffffffffffffffffffffffffffffffffffff167f8c5be1e5ebec7d5bd14f71427d1e84f3dd0314c0f7b2291e5b200ac8c7c3b925836040516115bf9190611c54565b60405180910390a3505050565b600073ffffffffffffffffffffffffffffffffffffffff168373ffffffffffffffffffffffffffffffffffffffff16141561163c576040517f08c379a00000000000000000000000000000000000000000000000000000000081526004016116339061274f565b60405180910390fd5b600073ffffffffffffffffffffffffffffffffffffffff168273ffffffffffffffffffffffffffffffffffffffff1614156116ac576040517f08c379a00000000000000000000000000000000000000000000000000000000081526004016116a3906127e1565b60405180910390fd5b6116b7838383611a0f565b60008060008573ffffffffffffffffffffffffffffffffffffffff1673ffffffffffffffffffffffffffffffffffffffff1681526020019081526020016000205490508181101561173d576040517f08c379a000000000000000000000000000000000000000000000000000000000815260040161173490612873565b60405180910390fd5b8181036000808673ffffffffffffffffffffffffffffffffffffffff1673ffffffffffffffffffffffffffffffffffffffff16815260200190815260200160002081905550816000808573ffffffffffffffffffffffffffffffffffffffff1673ffffffffffffffffffffffffffffffffffffffff168152602001908152602001600020600082825401925050819055508273ffffffffffffffffffffffffffffffffffffffff168473ffffffffffffffffffffffffffffffffffffffff167fddf252ad1be2c89b69c2b068fc378daa952ba7f163c4a11628f55a4df523b3ef8460405161182b9190611c54565b60405180910390a361183e848484611a14565b50505050565b600073ffffffffffffffffffffffffffffffffffffffff168273ffffffffffffffffffffffffffffffffffffffff1614156118b4576040517f08c379a00000000000000000000000000000000000000000000000000000000081526004016118ab906128df565b60405180910390fd5b6118c060008383611a0f565b80600260008282546118d29190612149565b92505081905550806000808473ffffffffffffffffffffffffffffffffffffffff1673ffffffffffffffffffffffffffffffffffffffff168152602001908152602001600020600082825401925050819055508173ffffffffffffffffffffffffffffffffffffffff16600073ffffffffffffffffffffffffffffffffffffffff167fddf252ad1be2c89b69c2b068fc378daa952ba7f163c4a11628f55a4df523b3ef836040516119839190611c54565b60405180910390a361199760008383611a14565b5050565b6119a481610aa9565b611a0c576005819080600181540180825580915050600190039060005260206000200160009091909190916101000a81548173ffffffffffffffffffffffffffffffffffffffff021916908373ffffffffffffffffffffffffffffffffffffffff1602179055505b50565b505050565b505050565b600081519050919050565b600082825260208201905092915050565b60005b83811015611a53578082015181840152602081019050611a38565b83811115611a62576000848401525b50505050565b6000601f19601f8301169050919050565b6000611a8482611a19565b611a8e8185611a24565b9350611a9e818560208601611a35565b611aa781611a68565b840191505092915050565b60006020820190508181036000830152611acc8184611a79565b905092915050565b6000604051905090565b600080fd5b600080fd5b600073ffffffffffffffffffffffffffffffffffffffff82169050919050565b6000611b1382611ae8565b9050919050565b611b2381611b08565b8114611b2e57600080fd5b50565b600081359050611b4081611b1a565b92915050565b6000819050919050565b611b5981611b46565b8114611b6457600080fd5b50565b600081359050611b7681611b50565b92915050565b60008060408385031215611b9357611b92611ade565b5b6000611ba185828601611b31565b9250506020611bb285828601611b67565b9150509250929050565b60008115159050919050565b611bd181611bbc565b82525050565b6000602082019050611bec6000830184611bc8565b92915050565b600080600060608486031215611c0b57611c0a611ade565b5b6000611c1986828701611b31565b9350506020611c2a86828701611b31565b9250506040611c3b86828701611b67565b9150509250925092565b611c4e81611b46565b82525050565b6000602082019050611c696000830184611c45565b92915050565b600060ff82169050919050565b611c8581611c6f565b82525050565b6000602082019050611ca06000830184611c7c565b92915050565b60008060408385031215611cbd57611cbc611ade565b5b6000611ccb85828601611b31565b9250506020611cdc85828601611b31565b9150509250929050565b6000604082019050611cfb6000830185611c45565b611d086020830184611c45565b9392505050565b600060208284031215611d2557611d24611ade565b5b6000611d3384828501611b67565b91505092915050565b611d4581611b08565b82525050565b6000602082019050611d606000830184611d3c565b92915050565b600060208284031215611d7c57611d7b611ade565b5b6000611d8a84828501611b31565b91505092915050565b6000606082019050611da86000830186611c45565b611db56020830185611c45565b611dc26040830184611c45565b949350505050565b600080fd5b7f4e487b7100000000000000000000000000000000000000000000000000000000600052604160045260246000fd5b611e0782611a68565b810181811067ffffffffffffffff82111715611e2657611e25611dcf565b5b80604052505050565b6000611e39611ad4565b9050611e458282611dfe565b919050565b600067ffffffffffffffff821115611e6557611e64611dcf565b5b602082029050602081019050919050565b600080fd5b6000611e8e611e8984611e4a565b611e2f565b90508083825260208201905060208402830185811115611eb157611eb0611e76565b5b835b81811015611eda5780611ec68882611b67565b845260208401935050602081019050611eb3565b5050509392505050565b600082601f830112611ef957611ef8611dca565b5b8135611f09848260208601611e7b565b91505092915050565b600067ffffffffffffffff821115611f2d57611f2c611dcf565b5b602082029050602081019050919050565b6000611f51611f4c84611f12565b611e2f565b90508083825260208201905060208402830185811115611f7457611f73611e76565b5b835b81811015611f9d5780611f898882611b31565b845260208401935050602081019050611f76565b5050509392505050565b600082601f830112611fbc57611fbb611dca565b5b8135611fcc848260208601611f3e565b91505092915050565b60008060408385031215611fec57611feb611ade565b5b600083013567ffffffffffffffff81111561200a57612009611ae3565b5b61201685828601611ee4565b925050602083013567ffffffffffffffff81111561203757612036611ae3565b5b61204385828601611fa7565b9150509250929050565b7f4e487b7100000000000000000000000000000000000000000000000000000000600052602260045260246000fd5b6000600282049050600182168061209457607f821691505b602082108114156120a8576120a761204d565b5b50919050565b7f45524332303a20696e73756666696369656e7420616c6c6f77616e6365000000600082015250565b60006120e4601d83611a24565b91506120ef826120ae565b602082019050919050565b60006020820190508181036000830152612113816120d7565b9050919050565b7f4e487b7100000000000000000000000000000000000000000000000000000000600052601160045260246000fd5b600061215482611b46565b915061215f83611b46565b9250827fffffffffffffffffffffffffffffffffffffffffffffffffffffffffffffffff038211156121945761219361211a565b5b828201905092915050565b7f45524332303a2064656372656173656420616c6c6f77616e63652062656c6f7760008201527f207a65726f000000000000000000000000000000000000000000000000000000602082015250565b60006121fb602583611a24565b91506122068261219f565b604082019050919050565b6000602082019050818103600083015261222a816121ee565b9050919050565b7f4e487b7100000000000000000000000000000000000000000000000000000000600052603260045260246000fd5b600061226b82611b46565b91507fffffffffffffffffffffffffffffffffffffffffffffffffffffffffffffffff82141561229e5761229d61211a565b5b600182019050919050565b60006122b482611b46565b91506122bf83611b46565b9250828210156122d2576122d161211a565b5b828203905092915050565b7f766f74657320616e642064657673206861766520746f2062652073616d65206c60008201527f656e6774682062726f0000000000000000000000000000000000000000000000602082015250565b6000612339602983611a24565b9150612344826122dd565b604082019050919050565b600060208201905081810360008301526123688161232c565b9050919050565b7f7468652073697a65206f6620796f7520766f7465727320697320746f6f20626960008201527f672066616d000000000000000000000000000000000000000000000000000000602082015250565b60006123cb602583611a24565b91506123d68261236f565b604082019050919050565b600060208201905081810360008301526123fa816123be565b9050919050565b7f796f75206e65656420746f207374616b652067726561746572207468616e2030600082015250565b6000612437602083611a24565b915061244282612401565b602082019050919050565b600060208201905081810360008301526124668161242a565b9050919050565b600061247882611b46565b915061248383611b46565b9250817fffffffffffffffffffffffffffffffffffffffffffffffffffffffffffffffff04831182151516156124bc576124bb61211a565b5b828202905092915050565b7f4e487b7100000000000000000000000000000000000000000000000000000000600052601260045260246000fd5b600061250182611b46565b915061250c83611b46565b92508261251c5761251b6124c7565b5b828204905092915050565b7f414c504841206e6565647320746f206265204c6f776572207468616e2050657260008201527f63656e7420426173650000000000000000000000000000000000000000000000602082015250565b6000612583602983611a24565b915061258e82612527565b604082019050919050565b600060208201905081810360008301526125b281612576565b9050919050565b7f45524332303a20617070726f76652066726f6d20746865207a65726f2061646460008201527f7265737300000000000000000000000000000000000000000000000000000000602082015250565b6000612615602483611a24565b9150612620826125b9565b604082019050919050565b6000602082019050818103600083015261264481612608565b9050919050565b7f45524332303a20617070726f766520746f20746865207a65726f20616464726560008201527f7373000000000000000000000000000000000000000000000000000000000000602082015250565b60006126a7602283611a24565b91506126b28261264b565b604082019050919050565b600060208201905081810360008301526126d68161269a565b9050919050565b7f45524332303a207472616e736665722066726f6d20746865207a65726f20616460008201527f6472657373000000000000000000000000000000000000000000000000000000602082015250565b6000612739602583611a24565b9150612744826126dd565b604082019050919050565b600060208201905081810360008301526127688161272c565b9050919050565b7f45524332303a207472616e7366657220746f20746865207a65726f206164647260008201527f6573730000000000000000000000000000000000000000000000000000000000602082015250565b60006127cb602383611a24565b91506127d68261276f565b604082019050919050565b600060208201905081810360008301526127fa816127be565b9050919050565b7f45524332303a207472616e7366657220616d6f756e742065786365656473206260008201527f616c616e63650000000000000000000000000000000000000000000000000000602082015250565b600061285d602683611a24565b915061286882612801565b604082019050919050565b6000602082019050818103600083015261288c81612850565b9050919050565b7f45524332303a206d696e7420746f20746865207a65726f206164647265737300600082015250565b60006128c9601f83611a24565b91506128d482612893565b602082019050919050565b600060208201905081810360008301526128f8816128bc565b905091905056fea2646970667358221220c4c5ec3c58724cafc199889856677b4a93028b7e8e1a6896e0137047fbb2de9564736f6c63430008090033",
  "linkReferences": {},
  "deployedLinkReferences": {}
}