{
  "_format": "hh-sol-artifact-1",
  "contractName": "ModelToken",
  "sourceName": "contracts/token/ERC20/ModelToken.sol",
  "abi": [
    {
      "inputs": [
        {
          "internalType": "string",
          "name": "name_",
          "type": "string"
        },
        {
          "internalType": "string",
          "name": "symbol_",
          "type": "string"
        }
      ],
      "stateMutability": "nonpayable",
      "type": "constructor"
    },
    {
      "anonymous": false,
      "inputs": [
        {
          "indexed": true,
          "internalType": "address",
          "name": "owner",
          "type": "address"
        },
        {
          "indexed": true,
          "internalType": "address",
          "name": "spender",
          "type": "address"
        },
        {
          "indexed": false,
          "internalType": "uint256",
          "name": "value",
          "type": "uint256"
        }
      ],
      "name": "Approval",
      "type": "event"
    },
    {
      "anonymous": false,
      "inputs": [
        {
          "indexed": true,
          "internalType": "address",
          "name": "from",
          "type": "address"
        },
        {
          "indexed": true,
          "internalType": "address",
          "name": "to",
          "type": "address"
        },
        {
          "indexed": false,
          "internalType": "uint256",
          "name": "value",
          "type": "uint256"
        }
      ],
      "name": "Transfer",
      "type": "event"
    },
    {
      "inputs": [],
      "name": "ALPHA",
      "outputs": [
        {
          "internalType": "uint256",
          "name": "",
          "type": "uint256"
        }
      ],
      "stateMutability": "view",
      "type": "function"
    },
    {
      "inputs": [],
      "name": "PERCENT_BASE",
      "outputs": [
        {
          "internalType": "uint256",
          "name": "",
          "type": "uint256"
        }
      ],
      "stateMutability": "view",
      "type": "function"
    },
    {
      "inputs": [],
      "name": "add_stake",
      "outputs": [],
      "stateMutability": "payable",
      "type": "function"
    },
    {
      "inputs": [
        {
          "internalType": "address",
          "name": "owner",
          "type": "address"
        },
        {
          "internalType": "address",
          "name": "spender",
          "type": "address"
        }
      ],
      "name": "allowance",
      "outputs": [
        {
          "internalType": "uint256",
          "name": "",
          "type": "uint256"
        }
      ],
      "stateMutability": "view",
      "type": "function"
    },
    {
      "inputs": [
        {
          "internalType": "address",
          "name": "spender",
          "type": "address"
        },
        {
          "internalType": "uint256",
          "name": "amount",
          "type": "uint256"
        }
      ],
      "name": "approve",
      "outputs": [
        {
          "internalType": "bool",
          "name": "",
          "type": "bool"
        }
      ],
      "stateMutability": "nonpayable",
      "type": "function"
    },
    {
      "inputs": [
        {
          "internalType": "address",
          "name": "account",
          "type": "address"
        }
      ],
      "name": "balanceOf",
      "outputs": [
        {
          "internalType": "uint256",
          "name": "",
          "type": "uint256"
        }
      ],
      "stateMutability": "view",
      "type": "function"
    },
    {
      "inputs": [],
      "name": "decimals",
      "outputs": [
        {
          "internalType": "uint8",
          "name": "",
          "type": "uint8"
        }
      ],
      "stateMutability": "view",
      "type": "function"
    },
    {
      "inputs": [
        {
          "internalType": "address",
          "name": "spender",
          "type": "address"
        },
        {
          "internalType": "uint256",
          "name": "subtractedValue",
          "type": "uint256"
        }
      ],
      "name": "decreaseAllowance",
      "outputs": [
        {
          "internalType": "bool",
          "name": "",
          "type": "bool"
        }
      ],
      "stateMutability": "nonpayable",
      "type": "function"
    },
    {
      "inputs": [
        {
          "internalType": "address",
          "name": "",
          "type": "address"
        }
      ],
      "name": "dev2state",
      "outputs": [
        {
          "internalType": "uint256",
          "name": "stake",
          "type": "uint256"
        },
        {
          "internalType": "uint256",
          "name": "score",
          "type": "uint256"
        },
        {
          "internalType": "uint256",
          "name": "block_number",
          "type": "uint256"
        }
      ],
      "stateMutability": "view",
      "type": "function"
    },
    {
      "inputs": [
        {
          "internalType": "uint256",
          "name": "",
          "type": "uint256"
        }
      ],
      "name": "devs",
      "outputs": [
        {
          "internalType": "address",
          "name": "",
          "type": "address"
        }
      ],
      "stateMutability": "view",
      "type": "function"
    },
    {
      "inputs": [
        {
          "internalType": "address",
          "name": "dev",
          "type": "address"
        }
      ],
      "name": "get_dev_index",
      "outputs": [
        {
          "internalType": "uint256",
          "name": "",
          "type": "uint256"
        }
      ],
      "stateMutability": "view",
      "type": "function"
    },
    {
      "inputs": [
        {
          "internalType": "address",
          "name": "user",
          "type": "address"
        }
      ],
      "name": "get_stake",
      "outputs": [
        {
          "internalType": "uint256",
          "name": "",
          "type": "uint256"
        }
      ],
      "stateMutability": "view",
      "type": "function"
    },
    {
      "inputs": [
        {
          "internalType": "address",
          "name": "dev",
          "type": "address"
        }
      ],
      "name": "has_dev",
      "outputs": [
        {
          "internalType": "bool",
          "name": "",
          "type": "bool"
        }
      ],
      "stateMutability": "view",
      "type": "function"
    },
    {
      "inputs": [
        {
          "internalType": "address",
          "name": "spender",
          "type": "address"
        },
        {
          "internalType": "uint256",
          "name": "addedValue",
          "type": "uint256"
        }
      ],
      "name": "increaseAllowance",
      "outputs": [
        {
          "internalType": "bool",
          "name": "",
          "type": "bool"
        }
      ],
      "stateMutability": "nonpayable",
      "type": "function"
    },
    {
      "inputs": [],
      "name": "name",
      "outputs": [
        {
          "internalType": "string",
          "name": "",
          "type": "string"
        }
      ],
      "stateMutability": "view",
      "type": "function"
    },
    {
      "inputs": [
        {
          "internalType": "uint256",
          "name": "stake",
          "type": "uint256"
        }
      ],
      "name": "remove_stake",
      "outputs": [
        {
          "internalType": "uint256",
          "name": "",
          "type": "uint256"
        }
      ],
      "stateMutability": "nonpayable",
      "type": "function"
    },
    {
      "inputs": [
        {
          "internalType": "uint256",
          "name": "alpha",
          "type": "uint256"
        }
      ],
      "name": "set_alpha",
      "outputs": [],
      "stateMutability": "nonpayable",
      "type": "function"
    },
    {
      "inputs": [
        {
          "internalType": "uint256[]",
          "name": "votes",
          "type": "uint256[]"
        },
        {
          "internalType": "address[]",
          "name": "to_devs",
          "type": "address[]"
        }
      ],
      "name": "set_votes",
      "outputs": [],
      "stateMutability": "nonpayable",
      "type": "function"
    },
    {
      "inputs": [],
      "name": "symbol",
      "outputs": [
        {
          "internalType": "string",
          "name": "",
          "type": "string"
        }
      ],
      "stateMutability": "view",
      "type": "function"
    },
    {
      "inputs": [],
      "name": "totalSupply",
      "outputs": [
        {
          "internalType": "uint256",
          "name": "",
          "type": "uint256"
        }
      ],
      "stateMutability": "view",
      "type": "function"
    },
    {
      "inputs": [
        {
          "internalType": "address",
          "name": "to",
          "type": "address"
        },
        {
          "internalType": "uint256",
          "name": "amount",
          "type": "uint256"
        }
      ],
      "name": "transfer",
      "outputs": [
        {
          "internalType": "bool",
          "name": "",
          "type": "bool"
        }
      ],
      "stateMutability": "nonpayable",
      "type": "function"
    },
    {
      "inputs": [
        {
          "internalType": "address",
          "name": "from",
          "type": "address"
        },
        {
          "internalType": "address",
          "name": "to",
          "type": "address"
        },
        {
          "internalType": "uint256",
          "name": "amount",
          "type": "uint256"
        }
      ],
      "name": "transferFrom",
      "outputs": [
        {
          "internalType": "bool",
          "name": "",
          "type": "bool"
        }
      ],
      "stateMutability": "nonpayable",
      "type": "function"
    },
    {
      "inputs": [
        {
          "internalType": "address",
          "name": "",
          "type": "address"
        },
        {
          "internalType": "address",
          "name": "",
          "type": "address"
        }
      ],
      "name": "voter2dev_vote_map",
      "outputs": [
        {
          "internalType": "uint256",
          "name": "score",
          "type": "uint256"
        },
        {
          "internalType": "uint256",
          "name": "block_number",
          "type": "uint256"
        }
      ],
      "stateMutability": "view",
      "type": "function"
    }
  ],
  "bytecode": "0x608060405260026008556113886009553480156200001c57600080fd5b5060405162002b3e38038062002b3e833981810160405281019062000042919062000457565b81600390805190602001906200005a9291906200020a565b508060049080519060200190620000739291906200020a565b506200008a33633b9aca006200009260201b60201c565b505062000688565b600073ffffffffffffffffffffffffffffffffffffffff168273ffffffffffffffffffffffffffffffffffffffff16141562000105576040517f08c379a0000000000000000000000000000000000000000000000000000000008152600401620000fc906200053d565b60405180910390fd5b62000119600083836200020060201b60201c565b80600260008282546200012d919062000598565b92505081905550806000808473ffffffffffffffffffffffffffffffffffffffff1673ffffffffffffffffffffffffffffffffffffffff168152602001908152602001600020600082825401925050819055508173ffffffffffffffffffffffffffffffffffffffff16600073ffffffffffffffffffffffffffffffffffffffff167fddf252ad1be2c89b69c2b068fc378daa952ba7f163c4a11628f55a4df523b3ef83604051620001e0919062000606565b60405180910390a3620001fc600083836200020560201b60201c565b5050565b505050565b505050565b828054620002189062000652565b90600052602060002090601f0160209004810192826200023c576000855562000288565b82601f106200025757805160ff191683800117855562000288565b8280016001018555821562000288579182015b82811115620002875782518255916020019190600101906200026a565b5b5090506200029791906200029b565b5090565b5b80821115620002b65760008160009055506001016200029c565b5090565b6000604051905090565b600080fd5b600080fd5b600080fd5b600080fd5b6000601f19601f8301169050919050565b7f4e487b7100000000000000000000000000000000000000000000000000000000600052604160045260246000fd5b6200032382620002d8565b810181811067ffffffffffffffff82111715620003455762000344620002e9565b5b80604052505050565b60006200035a620002ba565b905062000368828262000318565b919050565b600067ffffffffffffffff8211156200038b576200038a620002e9565b5b6200039682620002d8565b9050602081019050919050565b60005b83811015620003c3578082015181840152602081019050620003a6565b83811115620003d3576000848401525b50505050565b6000620003f0620003ea846200036d565b6200034e565b9050828152602081018484840111156200040f576200040e620002d3565b5b6200041c848285620003a3565b509392505050565b600082601f8301126200043c576200043b620002ce565b5b81516200044e848260208601620003d9565b91505092915050565b60008060408385031215620004715762000470620002c4565b5b600083015167ffffffffffffffff811115620004925762000491620002c9565b5b620004a08582860162000424565b925050602083015167ffffffffffffffff811115620004c457620004c3620002c9565b5b620004d28582860162000424565b9150509250929050565b600082825260208201905092915050565b7f45524332303a206d696e7420746f20746865207a65726f206164647265737300600082015250565b600062000525601f83620004dc565b91506200053282620004ed565b602082019050919050565b60006020820190508181036000830152620005588162000516565b9050919050565b6000819050919050565b7f4e487b7100000000000000000000000000000000000000000000000000000000600052601160045260246000fd5b6000620005a5826200055f565b9150620005b2836200055f565b9250827fffffffffffffffffffffffffffffffffffffffffffffffffffffffffffffffff03821115620005ea57620005e962000569565b5b828201905092915050565b62000600816200055f565b82525050565b60006020820190506200061d6000830184620005f5565b92915050565b7f4e487b7100000000000000000000000000000000000000000000000000000000600052602260045260246000fd5b600060028204905060018216806200066b57607f821691505b6020821081141562000682576200068162000623565b5b50919050565b6124a680620006986000396000f3fe6080604052600436106101405760003560e01c8063805d835d116100b6578063c0b7f2811161006f578063c0b7f281146104b6578063c4441cce146104f3578063ca0ab0b614610530578063dd62ed3e14610559578063e1118bc014610596578063fd111579146105bf57610140565b8063805d835d1461037c57806395d89b41146103a75780639a6d84cc146103d2578063a457c2d714610411578063a9059cbb1461044e578063b0bb1c5a1461048b57610140565b8063313ce56711610108578063313ce5671461021f578063395093511461024a57806351a6ff75146102875780635eeacb5f146102c5578063698839fd1461030257806370a082311461033f57610140565b806304c278361461014557806306fdde031461014f578063095ea7b31461017a57806318160ddd146101b757806323b872dd146101e2575b600080fd5b61014d6105fc565b005b34801561015b57600080fd5b50610164610660565b604051610171919061168f565b60405180910390f35b34801561018657600080fd5b506101a1600480360381019061019c9190611759565b6106f2565b6040516101ae91906117b4565b60405180910390f35b3480156101c357600080fd5b506101cc610715565b6040516101d991906117de565b60405180910390f35b3480156101ee57600080fd5b50610209600480360381019061020491906117f9565b61071f565b60405161021691906117b4565b60405180910390f35b34801561022b57600080fd5b5061023461074e565b6040516102419190611868565b60405180910390f35b34801561025657600080fd5b50610271600480360381019061026c9190611759565b610757565b60405161027e91906117b4565b60405180910390f35b34801561029357600080fd5b506102ae60048036038101906102a99190611883565b61078e565b6040516102bc9291906118c3565b60405180910390f35b3480156102d157600080fd5b506102ec60048036038101906102e791906118ec565b6107bf565b6040516102f99190611928565b60405180910390f35b34801561030e57600080fd5b5061032960048036038101906103249190611943565b6107fe565b60405161033691906117de565b60405180910390f35b34801561034b57600080fd5b5061036660048036038101906103619190611943565b61084a565b60405161037391906117de565b60405180910390f35b34801561038857600080fd5b50610391610892565b60405161039e91906117de565b60405180910390f35b3480156103b357600080fd5b506103bc610898565b6040516103c9919061168f565b60405180910390f35b3480156103de57600080fd5b506103f960048036038101906103f49190611943565b61092a565b60405161040893929190611970565b60405180910390f35b34801561041d57600080fd5b5061043860048036038101906104339190611759565b610954565b60405161044591906117b4565b60405180910390f35b34801561045a57600080fd5b5061047560048036038101906104709190611759565b6109cb565b60405161048291906117b4565b60405180910390f35b34801561049757600080fd5b506104a06109ee565b6040516104ad91906117de565b60405180910390f35b3480156104c257600080fd5b506104dd60048036038101906104d89190611943565b6109f4565b6040516104ea91906117b4565b60405180910390f35b3480156104ff57600080fd5b5061051a600480360381019061051591906118ec565b610a9b565b60405161052791906117de565b60405180910390f35b34801561053c57600080fd5b5061055760048036038101906105529190611bb2565b610ae7565b005b34801561056557600080fd5b50610580600480360381019061057b9190611883565b610f26565b60405161058d91906117de565b60405180910390f35b3480156105a257600080fd5b506105bd60048036038101906105b891906118ec565b610fad565b005b3480156105cb57600080fd5b506105e660048036038101906105e19190611943565b610ffb565b6040516105f391906117de565b60405180910390f35b34600660003373ffffffffffffffffffffffffffffffffffffffff1673ffffffffffffffffffffffffffffffffffffffff168152602001908152602001600020600001600082825461064e9190611c59565b9250508190555061065e336110a1565b565b60606003805461066f90611cde565b80601f016020809104026020016040519081016040528092919081815260200182805461069b90611cde565b80156106e85780601f106106bd576101008083540402835291602001916106e8565b820191906000526020600020905b8154815290600101906020018083116106cb57829003601f168201915b5050505050905090565b6000806106fd611115565b905061070a81858561111d565b600191505092915050565b6000600254905090565b60008061072a611115565b90506107378582856112e8565b610742858585611374565b60019150509392505050565b60006012905090565b600080610762611115565b90506107838185856107748589610f26565b61077e9190611c59565b61111d565b600191505092915050565b6007602052816000526040600020602052806000526040600020600091509150508060000154908060010154905082565b600581815481106107cf57600080fd5b906000526020600020016000915054906101000a900473ffffffffffffffffffffffffffffffffffffffff1681565b6000600660008373ffffffffffffffffffffffffffffffffffffffff1673ffffffffffffffffffffffffffffffffffffffff168152602001908152602001600020600001549050919050565b60008060008373ffffffffffffffffffffffffffffffffffffffff1673ffffffffffffffffffffffffffffffffffffffff168152602001908152602001600020549050919050565b61271081565b6060600480546108a790611cde565b80601f01602080910402602001604051908101604052809291908181526020018280546108d390611cde565b80156109205780601f106108f557610100808354040283529160200191610920565b820191906000526020600020905b81548152906001019060200180831161090357829003601f168201915b5050505050905090565b60066020528060005260406000206000915090508060000154908060010154908060020154905083565b60008061095f611115565b9050600061096d8286610f26565b9050838110156109b2576040517f08c379a00000000000000000000000000000000000000000000000000000000081526004016109a990611d82565b60405180910390fd5b6109bf828686840361111d565b60019250505092915050565b6000806109d6611115565b90506109e3818585611374565b600191505092915050565b60095481565b60008060005b600580549050811015610a91578373ffffffffffffffffffffffffffffffffffffffff1660058281548110610a3257610a31611da2565b5b9060005260206000200160009054906101000a900473ffffffffffffffffffffffffffffffffffffffff1673ffffffffffffffffffffffffffffffffffffffff161415610a7e57600191505b8080610a8990611dd1565b9150506109fa565b5080915050919050565b6000600660003373ffffffffffffffffffffffffffffffffffffffff1673ffffffffffffffffffffffffffffffffffffffff168152602001908152602001600020600001549050919050565b8051825114610b2b576040517f08c379a0000000000000000000000000000000000000000000000000000000008152600401610b2290611e8c565b60405180910390fd5b612710825110610b70576040517f08c379a0000000000000000000000000000000000000000000000000000000008152600401610b6790611f1e565b60405180910390fd5b6000600660003373ffffffffffffffffffffffffffffffffffffffff1673ffffffffffffffffffffffffffffffffffffffff1681526020019081526020016000206000015411610bf5576040517f08c379a0000000000000000000000000000000000000000000000000000000008152600401610bec90611f8a565b60405180910390fd5b6000805b8351811015610c3d57838181518110610c1557610c14611da2565b5b602002602001015182610c289190611c59565b91508080610c3590611dd1565b915050610bf9565b5060008060003390506000805b8751811015610f1c57868181518110610c6657610c65611da2565b5b60200260200101519150600660008373ffffffffffffffffffffffffffffffffffffffff1673ffffffffffffffffffffffffffffffffffffffff16815260200190815260200160002060010154935085612710600660003373ffffffffffffffffffffffffffffffffffffffff1673ffffffffffffffffffffffffffffffffffffffff168152602001908152602001600020600001548a8481518110610d0f57610d0e611da2565b5b6020026020010151610d219190611faa565b610d2b9190611faa565b610d359190612033565b9450612710600954612710610d4a9190612064565b85610d559190611faa565b60095487610d639190611faa565b610d6d9190611c59565b610d779190612033565b600660008473ffffffffffffffffffffffffffffffffffffffff1673ffffffffffffffffffffffffffffffffffffffff1681526020019081526020016000206001016000828254610dc89190611c59565b9250508190555043600660008473ffffffffffffffffffffffffffffffffffffffff1673ffffffffffffffffffffffffffffffffffffffff168152602001908152602001600020600201819055506040518060400160405280600660008573ffffffffffffffffffffffffffffffffffffffff1673ffffffffffffffffffffffffffffffffffffffff16815260200190815260200160002060010154815260200143815250600760008573ffffffffffffffffffffffffffffffffffffffff1673ffffffffffffffffffffffffffffffffffffffff16815260200190815260200160002060008473ffffffffffffffffffffffffffffffffffffffff1673ffffffffffffffffffffffffffffffffffffffff1681526020019081526020016000206000820151816000015560208201518160010155905050610f09826110a1565b8080610f1490611dd1565b915050610c4a565b5050505050505050565b6000600160008473ffffffffffffffffffffffffffffffffffffffff1673ffffffffffffffffffffffffffffffffffffffff16815260200190815260200160002060008373ffffffffffffffffffffffffffffffffffffffff1673ffffffffffffffffffffffffffffffffffffffff16815260200190815260200160002054905092915050565b6127108110610ff1576040517f08c379a0000000000000000000000000000000000000000000000000000000008152600401610fe89061210a565b60405180910390fd5b8060098190555050565b60008060005b600580549050811015611097578373ffffffffffffffffffffffffffffffffffffffff166005828154811061103957611038611da2565b5b9060005260206000200160009054906101000a900473ffffffffffffffffffffffffffffffffffffffff1673ffffffffffffffffffffffffffffffffffffffff161415611084578091505b808061108f90611dd1565b915050611001565b5080915050919050565b6110aa816109f4565b611112576005819080600181540180825580915050600190039060005260206000200160009091909190916101000a81548173ffffffffffffffffffffffffffffffffffffffff021916908373ffffffffffffffffffffffffffffffffffffffff1602179055505b50565b600033905090565b600073ffffffffffffffffffffffffffffffffffffffff168373ffffffffffffffffffffffffffffffffffffffff16141561118d576040517f08c379a00000000000000000000000000000000000000000000000000000000081526004016111849061219c565b60405180910390fd5b600073ffffffffffffffffffffffffffffffffffffffff168273ffffffffffffffffffffffffffffffffffffffff1614156111fd576040517f08c379a00000000000000000000000000000000000000000000000000000000081526004016111f49061222e565b60405180910390fd5b80600160008573ffffffffffffffffffffffffffffffffffffffff1673ffffffffffffffffffffffffffffffffffffffff16815260200190815260200160002060008473ffffffffffffffffffffffffffffffffffffffff1673ffffffffffffffffffffffffffffffffffffffff168152602001908152602001600020819055508173ffffffffffffffffffffffffffffffffffffffff168373ffffffffffffffffffffffffffffffffffffffff167f8c5be1e5ebec7d5bd14f71427d1e84f3dd0314c0f7b2291e5b200ac8c7c3b925836040516112db91906117de565b60405180910390a3505050565b60006112f48484610f26565b90507fffffffffffffffffffffffffffffffffffffffffffffffffffffffffffffffff811461136e5781811015611360576040517f08c379a00000000000000000000000000000000000000000000000000000000081526004016113579061229a565b60405180910390fd5b61136d848484840361111d565b5b50505050565b600073ffffffffffffffffffffffffffffffffffffffff168373ffffffffffffffffffffffffffffffffffffffff1614156113e4576040517f08c379a00000000000000000000000000000000000000000000000000000000081526004016113db9061232c565b60405180910390fd5b600073ffffffffffffffffffffffffffffffffffffffff168273ffffffffffffffffffffffffffffffffffffffff161415611454576040517f08c379a000000000000000000000000000000000000000000000000000000000815260040161144b906123be565b60405180910390fd5b61145f8383836115ec565b60008060008573ffffffffffffffffffffffffffffffffffffffff1673ffffffffffffffffffffffffffffffffffffffff168152602001908152602001600020549050818110156114e5576040517f08c379a00000000000000000000000000000000000000000000000000000000081526004016114dc90612450565b60405180910390fd5b8181036000808673ffffffffffffffffffffffffffffffffffffffff1673ffffffffffffffffffffffffffffffffffffffff16815260200190815260200160002081905550816000808573ffffffffffffffffffffffffffffffffffffffff1673ffffffffffffffffffffffffffffffffffffffff168152602001908152602001600020600082825401925050819055508273ffffffffffffffffffffffffffffffffffffffff168473ffffffffffffffffffffffffffffffffffffffff167fddf252ad1be2c89b69c2b068fc378daa952ba7f163c4a11628f55a4df523b3ef846040516115d391906117de565b60405180910390a36115e68484846115f1565b50505050565b505050565b505050565b600081519050919050565b600082825260208201905092915050565b60005b83811015611630578082015181840152602081019050611615565b8381111561163f576000848401525b50505050565b6000601f19601f8301169050919050565b6000611661826115f6565b61166b8185611601565b935061167b818560208601611612565b61168481611645565b840191505092915050565b600060208201905081810360008301526116a98184611656565b905092915050565b6000604051905090565b600080fd5b600080fd5b600073ffffffffffffffffffffffffffffffffffffffff82169050919050565b60006116f0826116c5565b9050919050565b611700816116e5565b811461170b57600080fd5b50565b60008135905061171d816116f7565b92915050565b6000819050919050565b61173681611723565b811461174157600080fd5b50565b6000813590506117538161172d565b92915050565b600080604083850312156117705761176f6116bb565b5b600061177e8582860161170e565b925050602061178f85828601611744565b9150509250929050565b60008115159050919050565b6117ae81611799565b82525050565b60006020820190506117c960008301846117a5565b92915050565b6117d881611723565b82525050565b60006020820190506117f360008301846117cf565b92915050565b600080600060608486031215611812576118116116bb565b5b60006118208682870161170e565b93505060206118318682870161170e565b925050604061184286828701611744565b9150509250925092565b600060ff82169050919050565b6118628161184c565b82525050565b600060208201905061187d6000830184611859565b92915050565b6000806040838503121561189a576118996116bb565b5b60006118a88582860161170e565b92505060206118b98582860161170e565b9150509250929050565b60006040820190506118d860008301856117cf565b6118e560208301846117cf565b9392505050565b600060208284031215611902576119016116bb565b5b600061191084828501611744565b91505092915050565b611922816116e5565b82525050565b600060208201905061193d6000830184611919565b92915050565b600060208284031215611959576119586116bb565b5b60006119678482850161170e565b91505092915050565b600060608201905061198560008301866117cf565b61199260208301856117cf565b61199f60408301846117cf565b949350505050565b600080fd5b7f4e487b7100000000000000000000000000000000000000000000000000000000600052604160045260246000fd5b6119e482611645565b810181811067ffffffffffffffff82111715611a0357611a026119ac565b5b80604052505050565b6000611a166116b1565b9050611a2282826119db565b919050565b600067ffffffffffffffff821115611a4257611a416119ac565b5b602082029050602081019050919050565b600080fd5b6000611a6b611a6684611a27565b611a0c565b90508083825260208201905060208402830185811115611a8e57611a8d611a53565b5b835b81811015611ab75780611aa38882611744565b845260208401935050602081019050611a90565b5050509392505050565b600082601f830112611ad657611ad56119a7565b5b8135611ae6848260208601611a58565b91505092915050565b600067ffffffffffffffff821115611b0a57611b096119ac565b5b602082029050602081019050919050565b6000611b2e611b2984611aef565b611a0c565b90508083825260208201905060208402830185811115611b5157611b50611a53565b5b835b81811015611b7a5780611b66888261170e565b845260208401935050602081019050611b53565b5050509392505050565b600082601f830112611b9957611b986119a7565b5b8135611ba9848260208601611b1b565b91505092915050565b60008060408385031215611bc957611bc86116bb565b5b600083013567ffffffffffffffff811115611be757611be66116c0565b5b611bf385828601611ac1565b925050602083013567ffffffffffffffff811115611c1457611c136116c0565b5b611c2085828601611b84565b9150509250929050565b7f4e487b7100000000000000000000000000000000000000000000000000000000600052601160045260246000fd5b6000611c6482611723565b9150611c6f83611723565b9250827fffffffffffffffffffffffffffffffffffffffffffffffffffffffffffffffff03821115611ca457611ca3611c2a565b5b828201905092915050565b7f4e487b7100000000000000000000000000000000000000000000000000000000600052602260045260246000fd5b60006002820490506001821680611cf657607f821691505b60208210811415611d0a57611d09611caf565b5b50919050565b7f45524332303a2064656372656173656420616c6c6f77616e63652062656c6f7760008201527f207a65726f000000000000000000000000000000000000000000000000000000602082015250565b6000611d6c602583611601565b9150611d7782611d10565b604082019050919050565b60006020820190508181036000830152611d9b81611d5f565b9050919050565b7f4e487b7100000000000000000000000000000000000000000000000000000000600052603260045260246000fd5b6000611ddc82611723565b91507fffffffffffffffffffffffffffffffffffffffffffffffffffffffffffffffff821415611e0f57611e0e611c2a565b5b600182019050919050565b7f766f74657320616e642064657673206861766520746f2062652073616d65206c60008201527f656e6774682062726f0000000000000000000000000000000000000000000000602082015250565b6000611e76602983611601565b9150611e8182611e1a565b604082019050919050565b60006020820190508181036000830152611ea581611e69565b9050919050565b7f7468652073697a65206f6620796f7520766f7465727320697320746f6f20626960008201527f672066616d000000000000000000000000000000000000000000000000000000602082015250565b6000611f08602583611601565b9150611f1382611eac565b604082019050919050565b60006020820190508181036000830152611f3781611efb565b9050919050565b7f796f75206e65656420746f207374616b652067726561746572207468616e2030600082015250565b6000611f74602083611601565b9150611f7f82611f3e565b602082019050919050565b60006020820190508181036000830152611fa381611f67565b9050919050565b6000611fb582611723565b9150611fc083611723565b9250817fffffffffffffffffffffffffffffffffffffffffffffffffffffffffffffffff0483118215151615611ff957611ff8611c2a565b5b828202905092915050565b7f4e487b7100000000000000000000000000000000000000000000000000000000600052601260045260246000fd5b600061203e82611723565b915061204983611723565b92508261205957612058612004565b5b828204905092915050565b600061206f82611723565b915061207a83611723565b92508282101561208d5761208c611c2a565b5b828203905092915050565b7f414c504841206e6565647320746f206265204c6f776572207468616e2050657260008201527f63656e7420426173650000000000000000000000000000000000000000000000602082015250565b60006120f4602983611601565b91506120ff82612098565b604082019050919050565b60006020820190508181036000830152612123816120e7565b9050919050565b7f45524332303a20617070726f76652066726f6d20746865207a65726f2061646460008201527f7265737300000000000000000000000000000000000000000000000000000000602082015250565b6000612186602483611601565b91506121918261212a565b604082019050919050565b600060208201905081810360008301526121b581612179565b9050919050565b7f45524332303a20617070726f766520746f20746865207a65726f20616464726560008201527f7373000000000000000000000000000000000000000000000000000000000000602082015250565b6000612218602283611601565b9150612223826121bc565b604082019050919050565b600060208201905081810360008301526122478161220b565b9050919050565b7f45524332303a20696e73756666696369656e7420616c6c6f77616e6365000000600082015250565b6000612284601d83611601565b915061228f8261224e565b602082019050919050565b600060208201905081810360008301526122b381612277565b9050919050565b7f45524332303a207472616e736665722066726f6d20746865207a65726f20616460008201527f6472657373000000000000000000000000000000000000000000000000000000602082015250565b6000612316602583611601565b9150612321826122ba565b604082019050919050565b6000602082019050818103600083015261234581612309565b9050919050565b7f45524332303a207472616e7366657220746f20746865207a65726f206164647260008201527f6573730000000000000000000000000000000000000000000000000000000000602082015250565b60006123a8602383611601565b91506123b38261234c565b604082019050919050565b600060208201905081810360008301526123d78161239b565b9050919050565b7f45524332303a207472616e7366657220616d6f756e742065786365656473206260008201527f616c616e63650000000000000000000000000000000000000000000000000000602082015250565b600061243a602683611601565b9150612445826123de565b604082019050919050565b600060208201905081810360008301526124698161242d565b905091905056fea2646970667358221220e4338ea96226ffcde97f9f17ea1882788235709706c11f101815ddd8dd45e50f64736f6c63430008090033",
  "linkReferences": {},
  "deployedLinkReferences": {}
}