{
  "_format": "hh-sol-artifact-1",
  "contractName": "ModelToken",
  "sourceName": "contracts/token/ERC20/ModelToken.sol",
  "abi": [
    {
      "inputs": [
        {
          "internalType": "string",
          "name": "name_",
          "type": "string"
        },
        {
          "internalType": "string",
          "name": "symbol_",
          "type": "string"
        }
      ],
      "stateMutability": "nonpayable",
      "type": "constructor"
    },
    {
      "anonymous": false,
      "inputs": [
        {
          "indexed": true,
          "internalType": "address",
          "name": "owner",
          "type": "address"
        },
        {
          "indexed": true,
          "internalType": "address",
          "name": "spender",
          "type": "address"
        },
        {
          "indexed": false,
          "internalType": "uint256",
          "name": "value",
          "type": "uint256"
        }
      ],
      "name": "Approval",
      "type": "event"
    },
    {
      "anonymous": false,
      "inputs": [
        {
          "indexed": true,
          "internalType": "address",
          "name": "from",
          "type": "address"
        },
        {
          "indexed": true,
          "internalType": "address",
          "name": "to",
          "type": "address"
        },
        {
          "indexed": false,
          "internalType": "uint256",
          "name": "value",
          "type": "uint256"
        }
      ],
      "name": "Transfer",
      "type": "event"
    },
    {
      "inputs": [],
      "name": "ALPHA",
      "outputs": [
        {
          "internalType": "uint256",
          "name": "",
          "type": "uint256"
        }
      ],
      "stateMutability": "view",
      "type": "function"
    },
    {
      "inputs": [],
      "name": "PERCENT_BASE",
      "outputs": [
        {
          "internalType": "uint256",
          "name": "",
          "type": "uint256"
        }
      ],
      "stateMutability": "view",
      "type": "function"
    },
    {
      "inputs": [],
      "name": "add_stake",
      "outputs": [],
      "stateMutability": "payable",
      "type": "function"
    },
    {
      "inputs": [
        {
          "internalType": "address",
          "name": "owner",
          "type": "address"
        },
        {
          "internalType": "address",
          "name": "spender",
          "type": "address"
        }
      ],
      "name": "allowance",
      "outputs": [
        {
          "internalType": "uint256",
          "name": "",
          "type": "uint256"
        }
      ],
      "stateMutability": "view",
      "type": "function"
    },
    {
      "inputs": [
        {
          "internalType": "address",
          "name": "spender",
          "type": "address"
        },
        {
          "internalType": "uint256",
          "name": "amount",
          "type": "uint256"
        }
      ],
      "name": "approve",
      "outputs": [
        {
          "internalType": "bool",
          "name": "",
          "type": "bool"
        }
      ],
      "stateMutability": "nonpayable",
      "type": "function"
    },
    {
      "inputs": [
        {
          "internalType": "address",
          "name": "account",
          "type": "address"
        }
      ],
      "name": "balanceOf",
      "outputs": [
        {
          "internalType": "uint256",
          "name": "",
          "type": "uint256"
        }
      ],
      "stateMutability": "view",
      "type": "function"
    },
    {
      "inputs": [],
      "name": "decimals",
      "outputs": [
        {
          "internalType": "uint8",
          "name": "",
          "type": "uint8"
        }
      ],
      "stateMutability": "view",
      "type": "function"
    },
    {
      "inputs": [
        {
          "internalType": "address",
          "name": "spender",
          "type": "address"
        },
        {
          "internalType": "uint256",
          "name": "subtractedValue",
          "type": "uint256"
        }
      ],
      "name": "decreaseAllowance",
      "outputs": [
        {
          "internalType": "bool",
          "name": "",
          "type": "bool"
        }
      ],
      "stateMutability": "nonpayable",
      "type": "function"
    },
    {
      "inputs": [
        {
          "internalType": "address",
          "name": "",
          "type": "address"
        }
      ],
      "name": "dev2state",
      "outputs": [
        {
          "internalType": "uint256",
          "name": "stake",
          "type": "uint256"
        },
        {
          "internalType": "uint256",
          "name": "score",
          "type": "uint256"
        },
        {
          "internalType": "uint256",
          "name": "block_number",
          "type": "uint256"
        }
      ],
      "stateMutability": "view",
      "type": "function"
    },
    {
      "inputs": [
        {
          "internalType": "uint256",
          "name": "",
          "type": "uint256"
        }
      ],
      "name": "devs",
      "outputs": [
        {
          "internalType": "address",
          "name": "",
          "type": "address"
        }
      ],
      "stateMutability": "view",
      "type": "function"
    },
    {
      "inputs": [
        {
          "internalType": "address",
          "name": "dev",
          "type": "address"
        }
      ],
      "name": "get_dev_index",
      "outputs": [
        {
          "internalType": "uint256",
          "name": "",
          "type": "uint256"
        }
      ],
      "stateMutability": "view",
      "type": "function"
    },
    {
      "inputs": [
        {
          "internalType": "address",
          "name": "user",
          "type": "address"
        }
      ],
      "name": "get_stake",
      "outputs": [
        {
          "internalType": "uint256",
          "name": "",
          "type": "uint256"
        }
      ],
      "stateMutability": "view",
      "type": "function"
    },
    {
      "inputs": [
        {
          "internalType": "address",
          "name": "dev",
          "type": "address"
        }
      ],
      "name": "has_dev",
      "outputs": [
        {
          "internalType": "bool",
          "name": "",
          "type": "bool"
        }
      ],
      "stateMutability": "view",
      "type": "function"
    },
    {
      "inputs": [
        {
          "internalType": "address",
          "name": "spender",
          "type": "address"
        },
        {
          "internalType": "uint256",
          "name": "addedValue",
          "type": "uint256"
        }
      ],
      "name": "increaseAllowance",
      "outputs": [
        {
          "internalType": "bool",
          "name": "",
          "type": "bool"
        }
      ],
      "stateMutability": "nonpayable",
      "type": "function"
    },
    {
      "inputs": [],
      "name": "name",
      "outputs": [
        {
          "internalType": "string",
          "name": "",
          "type": "string"
        }
      ],
      "stateMutability": "view",
      "type": "function"
    },
    {
      "inputs": [
        {
          "internalType": "uint256",
          "name": "stake",
          "type": "uint256"
        }
      ],
      "name": "remove_stake",
      "outputs": [
        {
          "internalType": "uint256",
          "name": "",
          "type": "uint256"
        }
      ],
      "stateMutability": "nonpayable",
      "type": "function"
    },
    {
      "inputs": [
        {
          "internalType": "uint256",
          "name": "alpha",
          "type": "uint256"
        }
      ],
      "name": "set_alpha",
      "outputs": [],
      "stateMutability": "nonpayable",
      "type": "function"
    },
    {
      "inputs": [
        {
          "internalType": "uint256[]",
          "name": "votes",
          "type": "uint256[]"
        },
        {
          "internalType": "address[]",
          "name": "to_devs",
          "type": "address[]"
        }
      ],
      "name": "set_votes",
      "outputs": [],
      "stateMutability": "nonpayable",
      "type": "function"
    },
    {
      "inputs": [],
      "name": "symbol",
      "outputs": [
        {
          "internalType": "string",
          "name": "",
          "type": "string"
        }
      ],
      "stateMutability": "view",
      "type": "function"
    },
    {
      "inputs": [],
      "name": "totalSupply",
      "outputs": [
        {
          "internalType": "uint256",
          "name": "",
          "type": "uint256"
        }
      ],
      "stateMutability": "view",
      "type": "function"
    },
    {
      "inputs": [
        {
          "internalType": "address",
          "name": "to",
          "type": "address"
        },
        {
          "internalType": "uint256",
          "name": "amount",
          "type": "uint256"
        }
      ],
      "name": "transfer",
      "outputs": [
        {
          "internalType": "bool",
          "name": "",
          "type": "bool"
        }
      ],
      "stateMutability": "nonpayable",
      "type": "function"
    },
    {
      "inputs": [
        {
          "internalType": "address",
          "name": "from",
          "type": "address"
        },
        {
          "internalType": "address",
          "name": "to",
          "type": "address"
        },
        {
          "internalType": "uint256",
          "name": "amount",
          "type": "uint256"
        }
      ],
      "name": "transferFrom",
      "outputs": [
        {
          "internalType": "bool",
          "name": "",
          "type": "bool"
        }
      ],
      "stateMutability": "nonpayable",
      "type": "function"
    },
    {
      "inputs": [
        {
          "internalType": "address",
          "name": "",
          "type": "address"
        },
        {
          "internalType": "address",
          "name": "",
          "type": "address"
        }
      ],
      "name": "voter2dev_vote_map",
      "outputs": [
        {
          "internalType": "uint256",
          "name": "score",
          "type": "uint256"
        },
        {
          "internalType": "uint256",
          "name": "block_number",
          "type": "uint256"
        }
      ],
      "stateMutability": "view",
      "type": "function"
    }
  ],
  "bytecode": "0x608060405260026008556113886009553480156200001c57600080fd5b5060405162002e2738038062002e27833981810160405281019062000042919062000457565b81600390805190602001906200005a9291906200020a565b508060049080519060200190620000739291906200020a565b506200008a33633b9aca006200009260201b60201c565b505062000688565b600073ffffffffffffffffffffffffffffffffffffffff168273ffffffffffffffffffffffffffffffffffffffff16141562000105576040517f08c379a0000000000000000000000000000000000000000000000000000000008152600401620000fc906200053d565b60405180910390fd5b62000119600083836200020060201b60201c565b80600260008282546200012d919062000598565b92505081905550806000808473ffffffffffffffffffffffffffffffffffffffff1673ffffffffffffffffffffffffffffffffffffffff168152602001908152602001600020600082825401925050819055508173ffffffffffffffffffffffffffffffffffffffff16600073ffffffffffffffffffffffffffffffffffffffff167fddf252ad1be2c89b69c2b068fc378daa952ba7f163c4a11628f55a4df523b3ef83604051620001e0919062000606565b60405180910390a3620001fc600083836200020560201b60201c565b5050565b505050565b505050565b828054620002189062000652565b90600052602060002090601f0160209004810192826200023c576000855562000288565b82601f106200025757805160ff191683800117855562000288565b8280016001018555821562000288579182015b82811115620002875782518255916020019190600101906200026a565b5b5090506200029791906200029b565b5090565b5b80821115620002b65760008160009055506001016200029c565b5090565b6000604051905090565b600080fd5b600080fd5b600080fd5b600080fd5b6000601f19601f8301169050919050565b7f4e487b7100000000000000000000000000000000000000000000000000000000600052604160045260246000fd5b6200032382620002d8565b810181811067ffffffffffffffff82111715620003455762000344620002e9565b5b80604052505050565b60006200035a620002ba565b905062000368828262000318565b919050565b600067ffffffffffffffff8211156200038b576200038a620002e9565b5b6200039682620002d8565b9050602081019050919050565b60005b83811015620003c3578082015181840152602081019050620003a6565b83811115620003d3576000848401525b50505050565b6000620003f0620003ea846200036d565b6200034e565b9050828152602081018484840111156200040f576200040e620002d3565b5b6200041c848285620003a3565b509392505050565b600082601f8301126200043c576200043b620002ce565b5b81516200044e848260208601620003d9565b91505092915050565b60008060408385031215620004715762000470620002c4565b5b600083015167ffffffffffffffff811115620004925762000491620002c9565b5b620004a08582860162000424565b925050602083015167ffffffffffffffff811115620004c457620004c3620002c9565b5b620004d28582860162000424565b9150509250929050565b600082825260208201905092915050565b7f45524332303a206d696e7420746f20746865207a65726f206164647265737300600082015250565b600062000525601f83620004dc565b91506200053282620004ed565b602082019050919050565b60006020820190508181036000830152620005588162000516565b9050919050565b6000819050919050565b7f4e487b7100000000000000000000000000000000000000000000000000000000600052601160045260246000fd5b6000620005a5826200055f565b9150620005b2836200055f565b9250827fffffffffffffffffffffffffffffffffffffffffffffffffffffffffffffffff03821115620005ea57620005e962000569565b5b828201905092915050565b62000600816200055f565b82525050565b60006020820190506200061d6000830184620005f5565b92915050565b7f4e487b7100000000000000000000000000000000000000000000000000000000600052602260045260246000fd5b600060028204905060018216806200066b57607f821691505b6020821081141562000682576200068162000623565b5b50919050565b61278f80620006986000396000f3fe6080604052600436106101405760003560e01c8063805d835d116100b6578063c0b7f2811161006f578063c0b7f281146104b6578063c4441cce146104f3578063ca0ab0b614610530578063dd62ed3e14610559578063e1118bc014610596578063fd111579146105bf57610140565b8063805d835d1461037c57806395d89b41146103a75780639a6d84cc146103d2578063a457c2d714610411578063a9059cbb1461044e578063b0bb1c5a1461048b57610140565b8063313ce56711610108578063313ce5671461021f578063395093511461024a57806351a6ff75146102875780635eeacb5f146102c5578063698839fd1461030257806370a082311461033f57610140565b806304c278361461014557806306fdde031461014f578063095ea7b31461017a57806318160ddd146101b757806323b872dd146101e2575b600080fd5b61014d6105fc565b005b34801561015b57600080fd5b50610164610660565b60405161017191906118c6565b60405180910390f35b34801561018657600080fd5b506101a1600480360381019061019c9190611990565b6106f2565b6040516101ae91906119eb565b60405180910390f35b3480156101c357600080fd5b506101cc610715565b6040516101d99190611a15565b60405180910390f35b3480156101ee57600080fd5b5061020960048036038101906102049190611a30565b61071f565b60405161021691906119eb565b60405180910390f35b34801561022b57600080fd5b5061023461074e565b6040516102419190611a9f565b60405180910390f35b34801561025657600080fd5b50610271600480360381019061026c9190611990565b610757565b60405161027e91906119eb565b60405180910390f35b34801561029357600080fd5b506102ae60048036038101906102a99190611aba565b61078e565b6040516102bc929190611afa565b60405180910390f35b3480156102d157600080fd5b506102ec60048036038101906102e79190611b23565b6107bf565b6040516102f99190611b5f565b60405180910390f35b34801561030e57600080fd5b5061032960048036038101906103249190611b7a565b6107fe565b6040516103369190611a15565b60405180910390f35b34801561034b57600080fd5b5061036660048036038101906103619190611b7a565b61084a565b6040516103739190611a15565b60405180910390f35b34801561038857600080fd5b50610391610892565b60405161039e9190611a15565b60405180910390f35b3480156103b357600080fd5b506103bc610898565b6040516103c991906118c6565b60405180910390f35b3480156103de57600080fd5b506103f960048036038101906103f49190611b7a565b61092a565b60405161040893929190611ba7565b60405180910390f35b34801561041d57600080fd5b5061043860048036038101906104339190611990565b610954565b60405161044591906119eb565b60405180910390f35b34801561045a57600080fd5b5061047560048036038101906104709190611990565b6109cb565b60405161048291906119eb565b60405180910390f35b34801561049757600080fd5b506104a06109ee565b6040516104ad9190611a15565b60405180910390f35b3480156104c257600080fd5b506104dd60048036038101906104d89190611b7a565b6109f4565b6040516104ea91906119eb565b60405180910390f35b3480156104ff57600080fd5b5061051a60048036038101906105159190611b23565b610a9b565b6040516105279190611a15565b60405180910390f35b34801561053c57600080fd5b5061055760048036038101906105529190611de9565b610d1e565b005b34801561056557600080fd5b50610580600480360381019061057b9190611aba565b61115d565b60405161058d9190611a15565b60405180910390f35b3480156105a257600080fd5b506105bd60048036038101906105b89190611b23565b6111e4565b005b3480156105cb57600080fd5b506105e660048036038101906105e19190611b7a565b611232565b6040516105f39190611a15565b60405180910390f35b34600660003373ffffffffffffffffffffffffffffffffffffffff1673ffffffffffffffffffffffffffffffffffffffff168152602001908152602001600020600001600082825461064e9190611e90565b9250508190555061065e336112d8565b565b60606003805461066f90611f15565b80601f016020809104026020016040519081016040528092919081815260200182805461069b90611f15565b80156106e85780601f106106bd576101008083540402835291602001916106e8565b820191906000526020600020905b8154815290600101906020018083116106cb57829003601f168201915b5050505050905090565b6000806106fd61134c565b905061070a818585611354565b600191505092915050565b6000600254905090565b60008061072a61134c565b905061073785828561151f565b6107428585856115ab565b60019150509392505050565b60006012905090565b60008061076261134c565b9050610783818585610774858961115d565b61077e9190611e90565b611354565b600191505092915050565b6007602052816000526040600020602052806000526040600020600091509150508060000154908060010154905082565b600581815481106107cf57600080fd5b906000526020600020016000915054906101000a900473ffffffffffffffffffffffffffffffffffffffff1681565b6000600660008373ffffffffffffffffffffffffffffffffffffffff1673ffffffffffffffffffffffffffffffffffffffff168152602001908152602001600020600001549050919050565b60008060008373ffffffffffffffffffffffffffffffffffffffff1673ffffffffffffffffffffffffffffffffffffffff168152602001908152602001600020549050919050565b61271081565b6060600480546108a790611f15565b80601f01602080910402602001604051908101604052809291908181526020018280546108d390611f15565b80156109205780601f106108f557610100808354040283529160200191610920565b820191906000526020600020905b81548152906001019060200180831161090357829003601f168201915b5050505050905090565b60066020528060005260406000206000915090508060000154908060010154908060020154905083565b60008061095f61134c565b9050600061096d828661115d565b9050838110156109b2576040517f08c379a00000000000000000000000000000000000000000000000000000000081526004016109a990611fb9565b60405180910390fd5b6109bf8286868403611354565b60019250505092915050565b6000806109d661134c565b90506109e38185856115ab565b600191505092915050565b60095481565b60008060005b600580549050811015610a91578373ffffffffffffffffffffffffffffffffffffffff1660058281548110610a3257610a31611fd9565b5b9060005260206000200160009054906101000a900473ffffffffffffffffffffffffffffffffffffffff1673ffffffffffffffffffffffffffffffffffffffff161415610a7e57600191505b8080610a8990612008565b9150506109fa565b5080915050919050565b6000600660003373ffffffffffffffffffffffffffffffffffffffff1673ffffffffffffffffffffffffffffffffffffffff168152602001908152602001600020600001548210610b2c57600660003373ffffffffffffffffffffffffffffffffffffffff1673ffffffffffffffffffffffffffffffffffffffff1681526020019081526020016000206000015491505b60003373ffffffffffffffffffffffffffffffffffffffff1683604051610b5290612082565b60006040518083038185875af1925050503d8060008114610b8f576040519150601f19603f3d011682016040523d82523d6000602084013e610b94565b606091505b5050905082600660003373ffffffffffffffffffffffffffffffffffffffff1673ffffffffffffffffffffffffffffffffffffffff16815260200190815260200160002060000154610be69190612097565b600660003373ffffffffffffffffffffffffffffffffffffffff1673ffffffffffffffffffffffffffffffffffffffff1681526020019081526020016000206000018190555080610c6c576040517f08c379a0000000000000000000000000000000000000000000000000000000008152600401610c6390612117565b60405180910390fd5b6000600660003373ffffffffffffffffffffffffffffffffffffffff1673ffffffffffffffffffffffffffffffffffffffff168152602001908152602001600020600001541415610cfe57600660003373ffffffffffffffffffffffffffffffffffffffff1673ffffffffffffffffffffffffffffffffffffffff168152602001908152602001600020600001600090555b3373ffffffffffffffffffffffffffffffffffffffff1631915050919050565b8051825114610d62576040517f08c379a0000000000000000000000000000000000000000000000000000000008152600401610d59906121a9565b60405180910390fd5b612710825111610da7576040517f08c379a0000000000000000000000000000000000000000000000000000000008152600401610d9e9061223b565b60405180910390fd5b6000600660003373ffffffffffffffffffffffffffffffffffffffff1673ffffffffffffffffffffffffffffffffffffffff1681526020019081526020016000206000015411610e2c576040517f08c379a0000000000000000000000000000000000000000000000000000000008152600401610e23906122a7565b60405180910390fd5b6000805b8351811015610e7457838181518110610e4c57610e4b611fd9565b5b602002602001015182610e5f9190611e90565b91508080610e6c90612008565b915050610e30565b5060008060003390506000805b875181101561115357868181518110610e9d57610e9c611fd9565b5b60200260200101519150600660008373ffffffffffffffffffffffffffffffffffffffff1673ffffffffffffffffffffffffffffffffffffffff16815260200190815260200160002060010154935085612710600660003373ffffffffffffffffffffffffffffffffffffffff1673ffffffffffffffffffffffffffffffffffffffff168152602001908152602001600020600001548a8481518110610f4657610f45611fd9565b5b6020026020010151610f5891906122c7565b610f6291906122c7565b610f6c9190612350565b9450612710600954612710610f819190612097565b85610f8c91906122c7565b60095487610f9a91906122c7565b610fa49190611e90565b610fae9190612350565b600660008473ffffffffffffffffffffffffffffffffffffffff1673ffffffffffffffffffffffffffffffffffffffff1681526020019081526020016000206001016000828254610fff9190611e90565b9250508190555043600660008473ffffffffffffffffffffffffffffffffffffffff1673ffffffffffffffffffffffffffffffffffffffff168152602001908152602001600020600201819055506040518060400160405280600660008573ffffffffffffffffffffffffffffffffffffffff1673ffffffffffffffffffffffffffffffffffffffff16815260200190815260200160002060010154815260200143815250600760008573ffffffffffffffffffffffffffffffffffffffff1673ffffffffffffffffffffffffffffffffffffffff16815260200190815260200160002060008473ffffffffffffffffffffffffffffffffffffffff1673ffffffffffffffffffffffffffffffffffffffff1681526020019081526020016000206000820151816000015560208201518160010155905050611140826112d8565b808061114b90612008565b915050610e81565b5050505050505050565b6000600160008473ffffffffffffffffffffffffffffffffffffffff1673ffffffffffffffffffffffffffffffffffffffff16815260200190815260200160002060008373ffffffffffffffffffffffffffffffffffffffff1673ffffffffffffffffffffffffffffffffffffffff16815260200190815260200160002054905092915050565b6127108110611228576040517f08c379a000000000000000000000000000000000000000000000000000000000815260040161121f906123f3565b60405180910390fd5b8060098190555050565b60008060005b6005805490508110156112ce578373ffffffffffffffffffffffffffffffffffffffff16600582815481106112705761126f611fd9565b5b9060005260206000200160009054906101000a900473ffffffffffffffffffffffffffffffffffffffff1673ffffffffffffffffffffffffffffffffffffffff1614156112bb578091505b80806112c690612008565b915050611238565b5080915050919050565b6112e1816109f4565b611349576005819080600181540180825580915050600190039060005260206000200160009091909190916101000a81548173ffffffffffffffffffffffffffffffffffffffff021916908373ffffffffffffffffffffffffffffffffffffffff1602179055505b50565b600033905090565b600073ffffffffffffffffffffffffffffffffffffffff168373ffffffffffffffffffffffffffffffffffffffff1614156113c4576040517f08c379a00000000000000000000000000000000000000000000000000000000081526004016113bb90612485565b60405180910390fd5b600073ffffffffffffffffffffffffffffffffffffffff168273ffffffffffffffffffffffffffffffffffffffff161415611434576040517f08c379a000000000000000000000000000000000000000000000000000000000815260040161142b90612517565b60405180910390fd5b80600160008573ffffffffffffffffffffffffffffffffffffffff1673ffffffffffffffffffffffffffffffffffffffff16815260200190815260200160002060008473ffffffffffffffffffffffffffffffffffffffff1673ffffffffffffffffffffffffffffffffffffffff168152602001908152602001600020819055508173ffffffffffffffffffffffffffffffffffffffff168373ffffffffffffffffffffffffffffffffffffffff167f8c5be1e5ebec7d5bd14f71427d1e84f3dd0314c0f7b2291e5b200ac8c7c3b925836040516115129190611a15565b60405180910390a3505050565b600061152b848461115d565b90507fffffffffffffffffffffffffffffffffffffffffffffffffffffffffffffffff81146115a55781811015611597576040517f08c379a000000000000000000000000000000000000000000000000000000000815260040161158e90612583565b60405180910390fd5b6115a48484848403611354565b5b50505050565b600073ffffffffffffffffffffffffffffffffffffffff168373ffffffffffffffffffffffffffffffffffffffff16141561161b576040517f08c379a000000000000000000000000000000000000000000000000000000000815260040161161290612615565b60405180910390fd5b600073ffffffffffffffffffffffffffffffffffffffff168273ffffffffffffffffffffffffffffffffffffffff16141561168b576040517f08c379a0000000000000000000000000000000000000000000000000000000008152600401611682906126a7565b60405180910390fd5b611696838383611823565b60008060008573ffffffffffffffffffffffffffffffffffffffff1673ffffffffffffffffffffffffffffffffffffffff1681526020019081526020016000205490508181101561171c576040517f08c379a000000000000000000000000000000000000000000000000000000000815260040161171390612739565b60405180910390fd5b8181036000808673ffffffffffffffffffffffffffffffffffffffff1673ffffffffffffffffffffffffffffffffffffffff16815260200190815260200160002081905550816000808573ffffffffffffffffffffffffffffffffffffffff1673ffffffffffffffffffffffffffffffffffffffff168152602001908152602001600020600082825401925050819055508273ffffffffffffffffffffffffffffffffffffffff168473ffffffffffffffffffffffffffffffffffffffff167fddf252ad1be2c89b69c2b068fc378daa952ba7f163c4a11628f55a4df523b3ef8460405161180a9190611a15565b60405180910390a361181d848484611828565b50505050565b505050565b505050565b600081519050919050565b600082825260208201905092915050565b60005b8381101561186757808201518184015260208101905061184c565b83811115611876576000848401525b50505050565b6000601f19601f8301169050919050565b60006118988261182d565b6118a28185611838565b93506118b2818560208601611849565b6118bb8161187c565b840191505092915050565b600060208201905081810360008301526118e0818461188d565b905092915050565b6000604051905090565b600080fd5b600080fd5b600073ffffffffffffffffffffffffffffffffffffffff82169050919050565b6000611927826118fc565b9050919050565b6119378161191c565b811461194257600080fd5b50565b6000813590506119548161192e565b92915050565b6000819050919050565b61196d8161195a565b811461197857600080fd5b50565b60008135905061198a81611964565b92915050565b600080604083850312156119a7576119a66118f2565b5b60006119b585828601611945565b92505060206119c68582860161197b565b9150509250929050565b60008115159050919050565b6119e5816119d0565b82525050565b6000602082019050611a0060008301846119dc565b92915050565b611a0f8161195a565b82525050565b6000602082019050611a2a6000830184611a06565b92915050565b600080600060608486031215611a4957611a486118f2565b5b6000611a5786828701611945565b9350506020611a6886828701611945565b9250506040611a798682870161197b565b9150509250925092565b600060ff82169050919050565b611a9981611a83565b82525050565b6000602082019050611ab46000830184611a90565b92915050565b60008060408385031215611ad157611ad06118f2565b5b6000611adf85828601611945565b9250506020611af085828601611945565b9150509250929050565b6000604082019050611b0f6000830185611a06565b611b1c6020830184611a06565b9392505050565b600060208284031215611b3957611b386118f2565b5b6000611b478482850161197b565b91505092915050565b611b598161191c565b82525050565b6000602082019050611b746000830184611b50565b92915050565b600060208284031215611b9057611b8f6118f2565b5b6000611b9e84828501611945565b91505092915050565b6000606082019050611bbc6000830186611a06565b611bc96020830185611a06565b611bd66040830184611a06565b949350505050565b600080fd5b7f4e487b7100000000000000000000000000000000000000000000000000000000600052604160045260246000fd5b611c1b8261187c565b810181811067ffffffffffffffff82111715611c3a57611c39611be3565b5b80604052505050565b6000611c4d6118e8565b9050611c598282611c12565b919050565b600067ffffffffffffffff821115611c7957611c78611be3565b5b602082029050602081019050919050565b600080fd5b6000611ca2611c9d84611c5e565b611c43565b90508083825260208201905060208402830185811115611cc557611cc4611c8a565b5b835b81811015611cee5780611cda888261197b565b845260208401935050602081019050611cc7565b5050509392505050565b600082601f830112611d0d57611d0c611bde565b5b8135611d1d848260208601611c8f565b91505092915050565b600067ffffffffffffffff821115611d4157611d40611be3565b5b602082029050602081019050919050565b6000611d65611d6084611d26565b611c43565b90508083825260208201905060208402830185811115611d8857611d87611c8a565b5b835b81811015611db15780611d9d8882611945565b845260208401935050602081019050611d8a565b5050509392505050565b600082601f830112611dd057611dcf611bde565b5b8135611de0848260208601611d52565b91505092915050565b60008060408385031215611e0057611dff6118f2565b5b600083013567ffffffffffffffff811115611e1e57611e1d6118f7565b5b611e2a85828601611cf8565b925050602083013567ffffffffffffffff811115611e4b57611e4a6118f7565b5b611e5785828601611dbb565b9150509250929050565b7f4e487b7100000000000000000000000000000000000000000000000000000000600052601160045260246000fd5b6000611e9b8261195a565b9150611ea68361195a565b9250827fffffffffffffffffffffffffffffffffffffffffffffffffffffffffffffffff03821115611edb57611eda611e61565b5b828201905092915050565b7f4e487b7100000000000000000000000000000000000000000000000000000000600052602260045260246000fd5b60006002820490506001821680611f2d57607f821691505b60208210811415611f4157611f40611ee6565b5b50919050565b7f45524332303a2064656372656173656420616c6c6f77616e63652062656c6f7760008201527f207a65726f000000000000000000000000000000000000000000000000000000602082015250565b6000611fa3602583611838565b9150611fae82611f47565b604082019050919050565b60006020820190508181036000830152611fd281611f96565b9050919050565b7f4e487b7100000000000000000000000000000000000000000000000000000000600052603260045260246000fd5b60006120138261195a565b91507fffffffffffffffffffffffffffffffffffffffffffffffffffffffffffffffff82141561204657612045611e61565b5b600182019050919050565b600081905092915050565b50565b600061206c600083612051565b91506120778261205c565b600082019050919050565b600061208d8261205f565b9150819050919050565b60006120a28261195a565b91506120ad8361195a565b9250828210156120c0576120bf611e61565b5b828203905092915050565b7f7472616e73616374696f6e206661696c65640000000000000000000000000000600082015250565b6000612101601283611838565b915061210c826120cb565b602082019050919050565b60006020820190508181036000830152612130816120f4565b9050919050565b7f766f74657320616e642064657673206861766520746f2062652073616d65206c60008201527f656e6774682062726f0000000000000000000000000000000000000000000000602082015250565b6000612193602983611838565b915061219e82612137565b604082019050919050565b600060208201905081810360008301526121c281612186565b9050919050565b7f7468652073697a65206f6620796f7520766f7465727320697320746f6f20626960008201527f672066616d000000000000000000000000000000000000000000000000000000602082015250565b6000612225602583611838565b9150612230826121c9565b604082019050919050565b6000602082019050818103600083015261225481612218565b9050919050565b7f796f75206e65656420746f207374616b652067726561746572207468616e2030600082015250565b6000612291602083611838565b915061229c8261225b565b602082019050919050565b600060208201905081810360008301526122c081612284565b9050919050565b60006122d28261195a565b91506122dd8361195a565b9250817fffffffffffffffffffffffffffffffffffffffffffffffffffffffffffffffff048311821515161561231657612315611e61565b5b828202905092915050565b7f4e487b7100000000000000000000000000000000000000000000000000000000600052601260045260246000fd5b600061235b8261195a565b91506123668361195a565b92508261237657612375612321565b5b828204905092915050565b7f414c504841206e6565647320746f206265204c6f776572207468616e2050657260008201527f63656e7420426173650000000000000000000000000000000000000000000000602082015250565b60006123dd602983611838565b91506123e882612381565b604082019050919050565b6000602082019050818103600083015261240c816123d0565b9050919050565b7f45524332303a20617070726f76652066726f6d20746865207a65726f2061646460008201527f7265737300000000000000000000000000000000000000000000000000000000602082015250565b600061246f602483611838565b915061247a82612413565b604082019050919050565b6000602082019050818103600083015261249e81612462565b9050919050565b7f45524332303a20617070726f766520746f20746865207a65726f20616464726560008201527f7373000000000000000000000000000000000000000000000000000000000000602082015250565b6000612501602283611838565b915061250c826124a5565b604082019050919050565b60006020820190508181036000830152612530816124f4565b9050919050565b7f45524332303a20696e73756666696369656e7420616c6c6f77616e6365000000600082015250565b600061256d601d83611838565b915061257882612537565b602082019050919050565b6000602082019050818103600083015261259c81612560565b9050919050565b7f45524332303a207472616e736665722066726f6d20746865207a65726f20616460008201527f6472657373000000000000000000000000000000000000000000000000000000602082015250565b60006125ff602583611838565b915061260a826125a3565b604082019050919050565b6000602082019050818103600083015261262e816125f2565b9050919050565b7f45524332303a207472616e7366657220746f20746865207a65726f206164647260008201527f6573730000000000000000000000000000000000000000000000000000000000602082015250565b6000612691602383611838565b915061269c82612635565b604082019050919050565b600060208201905081810360008301526126c081612684565b9050919050565b7f45524332303a207472616e7366657220616d6f756e742065786365656473206260008201527f616c616e63650000000000000000000000000000000000000000000000000000602082015250565b6000612723602683611838565b915061272e826126c7565b604082019050919050565b6000602082019050818103600083015261275281612716565b905091905056fea2646970667358221220d1d022f34396a070ec24f1da75428b1688debce9eb7d8724bc7bdea61983646064736f6c63430008090033",
  "linkReferences": {},
  "deployedLinkReferences": {}
}