{
  "_format": "hh-sol-artifact-1",
  "contractName": "ModelToken",
  "sourceName": "contracts/token/ERC20/ModelToken.sol",
  "abi": [
    {
      "inputs": [
        {
          "internalType": "string",
          "name": "name_",
          "type": "string"
        },
        {
          "internalType": "string",
          "name": "symbol_",
          "type": "string"
        }
      ],
      "stateMutability": "nonpayable",
      "type": "constructor"
    },
    {
      "anonymous": false,
      "inputs": [
        {
          "indexed": true,
          "internalType": "address",
          "name": "owner",
          "type": "address"
        },
        {
          "indexed": true,
          "internalType": "address",
          "name": "spender",
          "type": "address"
        },
        {
          "indexed": false,
          "internalType": "uint256",
          "name": "value",
          "type": "uint256"
        }
      ],
      "name": "Approval",
      "type": "event"
    },
    {
      "anonymous": false,
      "inputs": [
        {
          "indexed": true,
          "internalType": "address",
          "name": "from",
          "type": "address"
        },
        {
          "indexed": true,
          "internalType": "address",
          "name": "to",
          "type": "address"
        },
        {
          "indexed": false,
          "internalType": "uint256",
          "name": "value",
          "type": "uint256"
        }
      ],
      "name": "Transfer",
      "type": "event"
    },
    {
      "inputs": [],
      "name": "ALPHA",
      "outputs": [
        {
          "internalType": "uint256",
          "name": "",
          "type": "uint256"
        }
      ],
      "stateMutability": "view",
      "type": "function"
    },
    {
      "inputs": [],
      "name": "PERCENT_BASE",
      "outputs": [
        {
          "internalType": "uint256",
          "name": "",
          "type": "uint256"
        }
      ],
      "stateMutability": "view",
      "type": "function"
    },
    {
      "inputs": [
        {
          "internalType": "uint256",
          "name": "amount",
          "type": "uint256"
        }
      ],
      "name": "add_stake",
      "outputs": [],
      "stateMutability": "nonpayable",
      "type": "function"
    },
    {
      "inputs": [
        {
          "internalType": "address",
          "name": "owner",
          "type": "address"
        },
        {
          "internalType": "address",
          "name": "spender",
          "type": "address"
        }
      ],
      "name": "allowance",
      "outputs": [
        {
          "internalType": "uint256",
          "name": "",
          "type": "uint256"
        }
      ],
      "stateMutability": "view",
      "type": "function"
    },
    {
      "inputs": [
        {
          "internalType": "address",
          "name": "spender",
          "type": "address"
        },
        {
          "internalType": "uint256",
          "name": "amount",
          "type": "uint256"
        }
      ],
      "name": "approve",
      "outputs": [
        {
          "internalType": "bool",
          "name": "",
          "type": "bool"
        }
      ],
      "stateMutability": "nonpayable",
      "type": "function"
    },
    {
      "inputs": [
        {
          "internalType": "address",
          "name": "account",
          "type": "address"
        }
      ],
      "name": "balanceOf",
      "outputs": [
        {
          "internalType": "uint256",
          "name": "",
          "type": "uint256"
        }
      ],
      "stateMutability": "view",
      "type": "function"
    },
    {
      "inputs": [],
      "name": "decimals",
      "outputs": [
        {
          "internalType": "uint8",
          "name": "",
          "type": "uint8"
        }
      ],
      "stateMutability": "view",
      "type": "function"
    },
    {
      "inputs": [
        {
          "internalType": "address",
          "name": "spender",
          "type": "address"
        },
        {
          "internalType": "uint256",
          "name": "subtractedValue",
          "type": "uint256"
        }
      ],
      "name": "decreaseAllowance",
      "outputs": [
        {
          "internalType": "bool",
          "name": "",
          "type": "bool"
        }
      ],
      "stateMutability": "nonpayable",
      "type": "function"
    },
    {
      "inputs": [
        {
          "internalType": "address",
          "name": "",
          "type": "address"
        }
      ],
      "name": "dev2state",
      "outputs": [
        {
          "internalType": "uint256",
          "name": "stake",
          "type": "uint256"
        },
        {
          "internalType": "uint256",
          "name": "score",
          "type": "uint256"
        },
        {
          "internalType": "uint256",
          "name": "block_number",
          "type": "uint256"
        }
      ],
      "stateMutability": "view",
      "type": "function"
    },
    {
      "inputs": [
        {
          "internalType": "uint256",
          "name": "",
          "type": "uint256"
        }
      ],
      "name": "devs",
      "outputs": [
        {
          "internalType": "address",
          "name": "",
          "type": "address"
        }
      ],
      "stateMutability": "view",
      "type": "function"
    },
    {
      "inputs": [
        {
          "internalType": "address",
          "name": "dev",
          "type": "address"
        }
      ],
      "name": "get_dev_index",
      "outputs": [
        {
          "internalType": "uint256",
          "name": "",
          "type": "uint256"
        }
      ],
      "stateMutability": "view",
      "type": "function"
    },
    {
      "inputs": [
        {
          "internalType": "address",
          "name": "user",
          "type": "address"
        }
      ],
      "name": "get_stake",
      "outputs": [
        {
          "internalType": "uint256",
          "name": "",
          "type": "uint256"
        }
      ],
      "stateMutability": "view",
      "type": "function"
    },
    {
      "inputs": [
        {
          "internalType": "address",
          "name": "dev",
          "type": "address"
        }
      ],
      "name": "has_dev",
      "outputs": [
        {
          "internalType": "bool",
          "name": "",
          "type": "bool"
        }
      ],
      "stateMutability": "view",
      "type": "function"
    },
    {
      "inputs": [
        {
          "internalType": "address",
          "name": "spender",
          "type": "address"
        },
        {
          "internalType": "uint256",
          "name": "addedValue",
          "type": "uint256"
        }
      ],
      "name": "increaseAllowance",
      "outputs": [
        {
          "internalType": "bool",
          "name": "",
          "type": "bool"
        }
      ],
      "stateMutability": "nonpayable",
      "type": "function"
    },
    {
      "inputs": [
        {
          "internalType": "address",
          "name": "account",
          "type": "address"
        },
        {
          "internalType": "uint256",
          "name": "amount",
          "type": "uint256"
        }
      ],
      "name": "mint",
      "outputs": [
        {
          "internalType": "uint256",
          "name": "",
          "type": "uint256"
        }
      ],
      "stateMutability": "nonpayable",
      "type": "function"
    },
    {
      "inputs": [],
      "name": "name",
      "outputs": [
        {
          "internalType": "string",
          "name": "",
          "type": "string"
        }
      ],
      "stateMutability": "view",
      "type": "function"
    },
    {
      "inputs": [
        {
          "internalType": "uint256",
          "name": "stake",
          "type": "uint256"
        }
      ],
      "name": "remove_stake",
      "outputs": [
        {
          "internalType": "uint256",
          "name": "",
          "type": "uint256"
        }
      ],
      "stateMutability": "nonpayable",
      "type": "function"
    },
    {
      "inputs": [
        {
          "internalType": "uint256",
          "name": "alpha",
          "type": "uint256"
        }
      ],
      "name": "set_alpha",
      "outputs": [],
      "stateMutability": "nonpayable",
      "type": "function"
    },
    {
      "inputs": [
        {
          "internalType": "uint256[]",
          "name": "votes",
          "type": "uint256[]"
        },
        {
          "internalType": "address[]",
          "name": "to_devs",
          "type": "address[]"
        }
      ],
      "name": "set_votes",
      "outputs": [],
      "stateMutability": "nonpayable",
      "type": "function"
    },
    {
      "inputs": [],
      "name": "symbol",
      "outputs": [
        {
          "internalType": "string",
          "name": "",
          "type": "string"
        }
      ],
      "stateMutability": "view",
      "type": "function"
    },
    {
      "inputs": [],
      "name": "totalSupply",
      "outputs": [
        {
          "internalType": "uint256",
          "name": "",
          "type": "uint256"
        }
      ],
      "stateMutability": "view",
      "type": "function"
    },
    {
      "inputs": [
        {
          "internalType": "address",
          "name": "to",
          "type": "address"
        },
        {
          "internalType": "uint256",
          "name": "amount",
          "type": "uint256"
        }
      ],
      "name": "transfer",
      "outputs": [
        {
          "internalType": "bool",
          "name": "",
          "type": "bool"
        }
      ],
      "stateMutability": "nonpayable",
      "type": "function"
    },
    {
      "inputs": [
        {
          "internalType": "address",
          "name": "from",
          "type": "address"
        },
        {
          "internalType": "address",
          "name": "to",
          "type": "address"
        },
        {
          "internalType": "uint256",
          "name": "amount",
          "type": "uint256"
        }
      ],
      "name": "transferFrom",
      "outputs": [
        {
          "internalType": "bool",
          "name": "",
          "type": "bool"
        }
      ],
      "stateMutability": "nonpayable",
      "type": "function"
    },
    {
      "inputs": [
        {
          "internalType": "address",
          "name": "",
          "type": "address"
        },
        {
          "internalType": "address",
          "name": "",
          "type": "address"
        }
      ],
      "name": "voter2dev_vote_map",
      "outputs": [
        {
          "internalType": "uint256",
          "name": "score",
          "type": "uint256"
        },
        {
          "internalType": "uint256",
          "name": "block_number",
          "type": "uint256"
        }
      ],
      "stateMutability": "view",
      "type": "function"
    }
  ],
  "bytecode": "0x608060405260026008556113886009553480156200001c57600080fd5b5060405162002e2838038062002e28833981810160405281019062000042919062000457565b81600390805190602001906200005a9291906200020a565b508060049080519060200190620000739291906200020a565b506200008a33633b9aca006200009260201b60201c565b505062000688565b600073ffffffffffffffffffffffffffffffffffffffff168273ffffffffffffffffffffffffffffffffffffffff16141562000105576040517f08c379a0000000000000000000000000000000000000000000000000000000008152600401620000fc906200053d565b60405180910390fd5b62000119600083836200020060201b60201c565b80600260008282546200012d919062000598565b92505081905550806000808473ffffffffffffffffffffffffffffffffffffffff1673ffffffffffffffffffffffffffffffffffffffff168152602001908152602001600020600082825401925050819055508173ffffffffffffffffffffffffffffffffffffffff16600073ffffffffffffffffffffffffffffffffffffffff167fddf252ad1be2c89b69c2b068fc378daa952ba7f163c4a11628f55a4df523b3ef83604051620001e0919062000606565b60405180910390a3620001fc600083836200020560201b60201c565b5050565b505050565b505050565b828054620002189062000652565b90600052602060002090601f0160209004810192826200023c576000855562000288565b82601f106200025757805160ff191683800117855562000288565b8280016001018555821562000288579182015b82811115620002875782518255916020019190600101906200026a565b5b5090506200029791906200029b565b5090565b5b80821115620002b65760008160009055506001016200029c565b5090565b6000604051905090565b600080fd5b600080fd5b600080fd5b600080fd5b6000601f19601f8301169050919050565b7f4e487b7100000000000000000000000000000000000000000000000000000000600052604160045260246000fd5b6200032382620002d8565b810181811067ffffffffffffffff82111715620003455762000344620002e9565b5b80604052505050565b60006200035a620002ba565b905062000368828262000318565b919050565b600067ffffffffffffffff8211156200038b576200038a620002e9565b5b6200039682620002d8565b9050602081019050919050565b60005b83811015620003c3578082015181840152602081019050620003a6565b83811115620003d3576000848401525b50505050565b6000620003f0620003ea846200036d565b6200034e565b9050828152602081018484840111156200040f576200040e620002d3565b5b6200041c848285620003a3565b509392505050565b600082601f8301126200043c576200043b620002ce565b5b81516200044e848260208601620003d9565b91505092915050565b60008060408385031215620004715762000470620002c4565b5b600083015167ffffffffffffffff811115620004925762000491620002c9565b5b620004a08582860162000424565b925050602083015167ffffffffffffffff811115620004c457620004c3620002c9565b5b620004d28582860162000424565b9150509250929050565b600082825260208201905092915050565b7f45524332303a206d696e7420746f20746865207a65726f206164647265737300600082015250565b600062000525601f83620004dc565b91506200053282620004ed565b602082019050919050565b60006020820190508181036000830152620005588162000516565b9050919050565b6000819050919050565b7f4e487b7100000000000000000000000000000000000000000000000000000000600052601160045260246000fd5b6000620005a5826200055f565b9150620005b2836200055f565b9250827fffffffffffffffffffffffffffffffffffffffffffffffffffffffffffffffff03821115620005ea57620005e962000569565b5b828201905092915050565b62000600816200055f565b82525050565b60006020820190506200061d6000830184620005f5565b92915050565b7f4e487b7100000000000000000000000000000000000000000000000000000000600052602260045260246000fd5b600060028204905060018216806200066b57607f821691505b6020821081141562000682576200068162000623565b5b50919050565b61279080620006986000396000f3fe608060405234801561001057600080fd5b50600436106101585760003560e01c806391b3006c116100c3578063c0b7f2811161007c578063c0b7f28114610440578063c4441cce14610470578063ca0ab0b6146104a0578063dd62ed3e146104bc578063e1118bc0146104ec578063fd1115791461050857610158565b806391b3006c1461035657806395d89b41146103725780639a6d84cc14610390578063a457c2d7146103c2578063a9059cbb146103f2578063b0bb1c5a1461042257610158565b806340c10f191161011557806340c10f191461024757806351a6ff75146102775780635eeacb5f146102a8578063698839fd146102d857806370a0823114610308578063805d835d1461033857610158565b806306fdde031461015d578063095ea7b31461017b57806318160ddd146101ab57806323b872dd146101c9578063313ce567146101f95780633950935114610217575b600080fd5b610165610538565b604051610172919061190d565b60405180910390f35b610195600480360381019061019091906119d7565b6105ca565b6040516101a29190611a32565b60405180910390f35b6101b36105ed565b6040516101c09190611a5c565b60405180910390f35b6101e360048036038101906101de9190611a77565b6105f7565b6040516101f09190611a32565b60405180910390f35b610201610626565b60405161020e9190611ae6565b60405180910390f35b610231600480360381019061022c91906119d7565b61062f565b60405161023e9190611a32565b60405180910390f35b610261600480360381019061025c91906119d7565b610666565b60405161026e9190611a5c565b60405180910390f35b610291600480360381019061028c9190611b01565b610683565b60405161029f929190611b41565b60405180910390f35b6102c260048036038101906102bd9190611b6a565b6106b4565b6040516102cf9190611ba6565b60405180910390f35b6102f260048036038101906102ed9190611bc1565b6106f3565b6040516102ff9190611a5c565b60405180910390f35b610322600480360381019061031d9190611bc1565b61073f565b60405161032f9190611a5c565b60405180910390f35b610340610787565b60405161034d9190611a5c565b60405180910390f35b610370600480360381019061036b9190611b6a565b61078d565b005b61037a6107fe565b604051610387919061190d565b60405180910390f35b6103aa60048036038101906103a59190611bc1565b610890565b6040516103b993929190611bee565b60405180910390f35b6103dc60048036038101906103d791906119d7565b6108ba565b6040516103e99190611a32565b60405180910390f35b61040c600480360381019061040791906119d7565b610931565b6040516104199190611a32565b60405180910390f35b61042a610954565b6040516104379190611a5c565b60405180910390f35b61045a60048036038101906104559190611bc1565b61095a565b6040516104679190611a32565b60405180910390f35b61048a60048036038101906104859190611b6a565b610a01565b6040516104979190611a5c565b60405180910390f35b6104ba60048036038101906104b59190611e30565b610c0e565b005b6104d660048036038101906104d19190611b01565b61104d565b6040516104e39190611a5c565b60405180910390f35b61050660048036038101906105019190611b6a565b6110d4565b005b610522600480360381019061051d9190611bc1565b611122565b60405161052f9190611a5c565b60405180910390f35b60606003805461054790611ed7565b80601f016020809104026020016040519081016040528092919081815260200182805461057390611ed7565b80156105c05780601f10610595576101008083540402835291602001916105c0565b820191906000526020600020905b8154815290600101906020018083116105a357829003601f168201915b5050505050905090565b6000806105d56111c8565b90506105e28185856111d0565b600191505092915050565b6000600254905090565b6000806106026111c8565b905061060f85828561139b565b61061a858585611427565b60019150509392505050565b60006012905090565b60008061063a6111c8565b905061065b81858561064c858961104d565b6106569190611f38565b6111d0565b600191505092915050565b6000610672838361169f565b61067b3361073f565b905092915050565b6007602052816000526040600020602052806000526040600020600091509150508060000154908060010154905082565b600581815481106106c457600080fd5b906000526020600020016000915054906101000a900473ffffffffffffffffffffffffffffffffffffffff1681565b6000600660008373ffffffffffffffffffffffffffffffffffffffff1673ffffffffffffffffffffffffffffffffffffffff168152602001908152602001600020600001549050919050565b60008060008373ffffffffffffffffffffffffffffffffffffffff1673ffffffffffffffffffffffffffffffffffffffff168152602001908152602001600020549050919050565b61271081565b6107983330836105f7565b5080600660003373ffffffffffffffffffffffffffffffffffffffff1673ffffffffffffffffffffffffffffffffffffffff16815260200190815260200160002060000160008282546107eb9190611f38565b925050819055506107fb336117f6565b50565b60606004805461080d90611ed7565b80601f016020809104026020016040519081016040528092919081815260200182805461083990611ed7565b80156108865780601f1061085b57610100808354040283529160200191610886565b820191906000526020600020905b81548152906001019060200180831161086957829003601f168201915b5050505050905090565b60066020528060005260406000206000915090508060000154908060010154908060020154905083565b6000806108c56111c8565b905060006108d3828661104d565b905083811015610918576040517f08c379a000000000000000000000000000000000000000000000000000000000815260040161090f90612000565b60405180910390fd5b61092582868684036111d0565b60019250505092915050565b60008061093c6111c8565b9050610949818585611427565b600191505092915050565b60095481565b60008060005b6005805490508110156109f7578373ffffffffffffffffffffffffffffffffffffffff166005828154811061099857610997612020565b5b9060005260206000200160009054906101000a900473ffffffffffffffffffffffffffffffffffffffff1673ffffffffffffffffffffffffffffffffffffffff1614156109e457600191505b80806109ef9061204f565b915050610960565b5080915050919050565b6000600660003373ffffffffffffffffffffffffffffffffffffffff1673ffffffffffffffffffffffffffffffffffffffff168152602001908152602001600020600001548210610a9257600660003373ffffffffffffffffffffffffffffffffffffffff1673ffffffffffffffffffffffffffffffffffffffff1681526020019081526020016000206000015491505b81600660003373ffffffffffffffffffffffffffffffffffffffff1673ffffffffffffffffffffffffffffffffffffffff16815260200190815260200160002060000154610ae09190612098565b600660003373ffffffffffffffffffffffffffffffffffffffff1673ffffffffffffffffffffffffffffffffffffffff16815260200190815260200160002060000181905550610b313330846105f7565b506000600660003373ffffffffffffffffffffffffffffffffffffffff1673ffffffffffffffffffffffffffffffffffffffff168152602001908152602001600020600001541415610bc457600660003373ffffffffffffffffffffffffffffffffffffffff1673ffffffffffffffffffffffffffffffffffffffff168152602001908152602001600020600001600090555b600660003373ffffffffffffffffffffffffffffffffffffffff1673ffffffffffffffffffffffffffffffffffffffff168152602001908152602001600020600001549050919050565b8051825114610c52576040517f08c379a0000000000000000000000000000000000000000000000000000000008152600401610c499061213e565b60405180910390fd5b612710825110610c97576040517f08c379a0000000000000000000000000000000000000000000000000000000008152600401610c8e906121d0565b60405180910390fd5b6000600660003373ffffffffffffffffffffffffffffffffffffffff1673ffffffffffffffffffffffffffffffffffffffff1681526020019081526020016000206000015411610d1c576040517f08c379a0000000000000000000000000000000000000000000000000000000008152600401610d139061223c565b60405180910390fd5b6000805b8351811015610d6457838181518110610d3c57610d3b612020565b5b602002602001015182610d4f9190611f38565b91508080610d5c9061204f565b915050610d20565b5060008060003390506000805b875181101561104357868181518110610d8d57610d8c612020565b5b60200260200101519150600660008373ffffffffffffffffffffffffffffffffffffffff1673ffffffffffffffffffffffffffffffffffffffff16815260200190815260200160002060010154935085612710600660003373ffffffffffffffffffffffffffffffffffffffff1673ffffffffffffffffffffffffffffffffffffffff168152602001908152602001600020600001548a8481518110610e3657610e35612020565b5b6020026020010151610e48919061225c565b610e52919061225c565b610e5c91906122e5565b9450612710600954612710610e719190612098565b85610e7c919061225c565b60095487610e8a919061225c565b610e949190611f38565b610e9e91906122e5565b600660008473ffffffffffffffffffffffffffffffffffffffff1673ffffffffffffffffffffffffffffffffffffffff1681526020019081526020016000206001016000828254610eef9190611f38565b9250508190555043600660008473ffffffffffffffffffffffffffffffffffffffff1673ffffffffffffffffffffffffffffffffffffffff168152602001908152602001600020600201819055506040518060400160405280600660008573ffffffffffffffffffffffffffffffffffffffff1673ffffffffffffffffffffffffffffffffffffffff16815260200190815260200160002060010154815260200143815250600760008573ffffffffffffffffffffffffffffffffffffffff1673ffffffffffffffffffffffffffffffffffffffff16815260200190815260200160002060008473ffffffffffffffffffffffffffffffffffffffff1673ffffffffffffffffffffffffffffffffffffffff1681526020019081526020016000206000820151816000015560208201518160010155905050611030826117f6565b808061103b9061204f565b915050610d71565b5050505050505050565b6000600160008473ffffffffffffffffffffffffffffffffffffffff1673ffffffffffffffffffffffffffffffffffffffff16815260200190815260200160002060008373ffffffffffffffffffffffffffffffffffffffff1673ffffffffffffffffffffffffffffffffffffffff16815260200190815260200160002054905092915050565b6127108110611118576040517f08c379a000000000000000000000000000000000000000000000000000000000815260040161110f90612388565b60405180910390fd5b8060098190555050565b60008060005b6005805490508110156111be578373ffffffffffffffffffffffffffffffffffffffff16600582815481106111605761115f612020565b5b9060005260206000200160009054906101000a900473ffffffffffffffffffffffffffffffffffffffff1673ffffffffffffffffffffffffffffffffffffffff1614156111ab578091505b80806111b69061204f565b915050611128565b5080915050919050565b600033905090565b600073ffffffffffffffffffffffffffffffffffffffff168373ffffffffffffffffffffffffffffffffffffffff161415611240576040517f08c379a00000000000000000000000000000000000000000000000000000000081526004016112379061241a565b60405180910390fd5b600073ffffffffffffffffffffffffffffffffffffffff168273ffffffffffffffffffffffffffffffffffffffff1614156112b0576040517f08c379a00000000000000000000000000000000000000000000000000000000081526004016112a7906124ac565b60405180910390fd5b80600160008573ffffffffffffffffffffffffffffffffffffffff1673ffffffffffffffffffffffffffffffffffffffff16815260200190815260200160002060008473ffffffffffffffffffffffffffffffffffffffff1673ffffffffffffffffffffffffffffffffffffffff168152602001908152602001600020819055508173ffffffffffffffffffffffffffffffffffffffff168373ffffffffffffffffffffffffffffffffffffffff167f8c5be1e5ebec7d5bd14f71427d1e84f3dd0314c0f7b2291e5b200ac8c7c3b9258360405161138e9190611a5c565b60405180910390a3505050565b60006113a7848461104d565b90507fffffffffffffffffffffffffffffffffffffffffffffffffffffffffffffffff81146114215781811015611413576040517f08c379a000000000000000000000000000000000000000000000000000000000815260040161140a90612518565b60405180910390fd5b61142084848484036111d0565b5b50505050565b600073ffffffffffffffffffffffffffffffffffffffff168373ffffffffffffffffffffffffffffffffffffffff161415611497576040517f08c379a000000000000000000000000000000000000000000000000000000000815260040161148e906125aa565b60405180910390fd5b600073ffffffffffffffffffffffffffffffffffffffff168273ffffffffffffffffffffffffffffffffffffffff161415611507576040517f08c379a00000000000000000000000000000000000000000000000000000000081526004016114fe9061263c565b60405180910390fd5b61151283838361186a565b60008060008573ffffffffffffffffffffffffffffffffffffffff1673ffffffffffffffffffffffffffffffffffffffff16815260200190815260200160002054905081811015611598576040517f08c379a000000000000000000000000000000000000000000000000000000000815260040161158f906126ce565b60405180910390fd5b8181036000808673ffffffffffffffffffffffffffffffffffffffff1673ffffffffffffffffffffffffffffffffffffffff16815260200190815260200160002081905550816000808573ffffffffffffffffffffffffffffffffffffffff1673ffffffffffffffffffffffffffffffffffffffff168152602001908152602001600020600082825401925050819055508273ffffffffffffffffffffffffffffffffffffffff168473ffffffffffffffffffffffffffffffffffffffff167fddf252ad1be2c89b69c2b068fc378daa952ba7f163c4a11628f55a4df523b3ef846040516116869190611a5c565b60405180910390a361169984848461186f565b50505050565b600073ffffffffffffffffffffffffffffffffffffffff168273ffffffffffffffffffffffffffffffffffffffff16141561170f576040517f08c379a00000000000000000000000000000000000000000000000000000000081526004016117069061273a565b60405180910390fd5b61171b6000838361186a565b806002600082825461172d9190611f38565b92505081905550806000808473ffffffffffffffffffffffffffffffffffffffff1673ffffffffffffffffffffffffffffffffffffffff168152602001908152602001600020600082825401925050819055508173ffffffffffffffffffffffffffffffffffffffff16600073ffffffffffffffffffffffffffffffffffffffff167fddf252ad1be2c89b69c2b068fc378daa952ba7f163c4a11628f55a4df523b3ef836040516117de9190611a5c565b60405180910390a36117f26000838361186f565b5050565b6117ff8161095a565b611867576005819080600181540180825580915050600190039060005260206000200160009091909190916101000a81548173ffffffffffffffffffffffffffffffffffffffff021916908373ffffffffffffffffffffffffffffffffffffffff1602179055505b50565b505050565b505050565b600081519050919050565b600082825260208201905092915050565b60005b838110156118ae578082015181840152602081019050611893565b838111156118bd576000848401525b50505050565b6000601f19601f8301169050919050565b60006118df82611874565b6118e9818561187f565b93506118f9818560208601611890565b611902816118c3565b840191505092915050565b6000602082019050818103600083015261192781846118d4565b905092915050565b6000604051905090565b600080fd5b600080fd5b600073ffffffffffffffffffffffffffffffffffffffff82169050919050565b600061196e82611943565b9050919050565b61197e81611963565b811461198957600080fd5b50565b60008135905061199b81611975565b92915050565b6000819050919050565b6119b4816119a1565b81146119bf57600080fd5b50565b6000813590506119d1816119ab565b92915050565b600080604083850312156119ee576119ed611939565b5b60006119fc8582860161198c565b9250506020611a0d858286016119c2565b9150509250929050565b60008115159050919050565b611a2c81611a17565b82525050565b6000602082019050611a476000830184611a23565b92915050565b611a56816119a1565b82525050565b6000602082019050611a716000830184611a4d565b92915050565b600080600060608486031215611a9057611a8f611939565b5b6000611a9e8682870161198c565b9350506020611aaf8682870161198c565b9250506040611ac0868287016119c2565b9150509250925092565b600060ff82169050919050565b611ae081611aca565b82525050565b6000602082019050611afb6000830184611ad7565b92915050565b60008060408385031215611b1857611b17611939565b5b6000611b268582860161198c565b9250506020611b378582860161198c565b9150509250929050565b6000604082019050611b566000830185611a4d565b611b636020830184611a4d565b9392505050565b600060208284031215611b8057611b7f611939565b5b6000611b8e848285016119c2565b91505092915050565b611ba081611963565b82525050565b6000602082019050611bbb6000830184611b97565b92915050565b600060208284031215611bd757611bd6611939565b5b6000611be58482850161198c565b91505092915050565b6000606082019050611c036000830186611a4d565b611c106020830185611a4d565b611c1d6040830184611a4d565b949350505050565b600080fd5b7f4e487b7100000000000000000000000000000000000000000000000000000000600052604160045260246000fd5b611c62826118c3565b810181811067ffffffffffffffff82111715611c8157611c80611c2a565b5b80604052505050565b6000611c9461192f565b9050611ca08282611c59565b919050565b600067ffffffffffffffff821115611cc057611cbf611c2a565b5b602082029050602081019050919050565b600080fd5b6000611ce9611ce484611ca5565b611c8a565b90508083825260208201905060208402830185811115611d0c57611d0b611cd1565b5b835b81811015611d355780611d2188826119c2565b845260208401935050602081019050611d0e565b5050509392505050565b600082601f830112611d5457611d53611c25565b5b8135611d64848260208601611cd6565b91505092915050565b600067ffffffffffffffff821115611d8857611d87611c2a565b5b602082029050602081019050919050565b6000611dac611da784611d6d565b611c8a565b90508083825260208201905060208402830185811115611dcf57611dce611cd1565b5b835b81811015611df85780611de4888261198c565b845260208401935050602081019050611dd1565b5050509392505050565b600082601f830112611e1757611e16611c25565b5b8135611e27848260208601611d99565b91505092915050565b60008060408385031215611e4757611e46611939565b5b600083013567ffffffffffffffff811115611e6557611e6461193e565b5b611e7185828601611d3f565b925050602083013567ffffffffffffffff811115611e9257611e9161193e565b5b611e9e85828601611e02565b9150509250929050565b7f4e487b7100000000000000000000000000000000000000000000000000000000600052602260045260246000fd5b60006002820490506001821680611eef57607f821691505b60208210811415611f0357611f02611ea8565b5b50919050565b7f4e487b7100000000000000000000000000000000000000000000000000000000600052601160045260246000fd5b6000611f43826119a1565b9150611f4e836119a1565b9250827fffffffffffffffffffffffffffffffffffffffffffffffffffffffffffffffff03821115611f8357611f82611f09565b5b828201905092915050565b7f45524332303a2064656372656173656420616c6c6f77616e63652062656c6f7760008201527f207a65726f000000000000000000000000000000000000000000000000000000602082015250565b6000611fea60258361187f565b9150611ff582611f8e565b604082019050919050565b6000602082019050818103600083015261201981611fdd565b9050919050565b7f4e487b7100000000000000000000000000000000000000000000000000000000600052603260045260246000fd5b600061205a826119a1565b91507fffffffffffffffffffffffffffffffffffffffffffffffffffffffffffffffff82141561208d5761208c611f09565b5b600182019050919050565b60006120a3826119a1565b91506120ae836119a1565b9250828210156120c1576120c0611f09565b5b828203905092915050565b7f766f74657320616e642064657673206861766520746f2062652073616d65206c60008201527f656e6774682062726f0000000000000000000000000000000000000000000000602082015250565b600061212860298361187f565b9150612133826120cc565b604082019050919050565b600060208201905081810360008301526121578161211b565b9050919050565b7f7468652073697a65206f6620796f7520766f7465727320697320746f6f20626960008201527f672066616d000000000000000000000000000000000000000000000000000000602082015250565b60006121ba60258361187f565b91506121c58261215e565b604082019050919050565b600060208201905081810360008301526121e9816121ad565b9050919050565b7f796f75206e65656420746f207374616b652067726561746572207468616e2030600082015250565b600061222660208361187f565b9150612231826121f0565b602082019050919050565b6000602082019050818103600083015261225581612219565b9050919050565b6000612267826119a1565b9150612272836119a1565b9250817fffffffffffffffffffffffffffffffffffffffffffffffffffffffffffffffff04831182151516156122ab576122aa611f09565b5b828202905092915050565b7f4e487b7100000000000000000000000000000000000000000000000000000000600052601260045260246000fd5b60006122f0826119a1565b91506122fb836119a1565b92508261230b5761230a6122b6565b5b828204905092915050565b7f414c504841206e6565647320746f206265204c6f776572207468616e2050657260008201527f63656e7420426173650000000000000000000000000000000000000000000000602082015250565b600061237260298361187f565b915061237d82612316565b604082019050919050565b600060208201905081810360008301526123a181612365565b9050919050565b7f45524332303a20617070726f76652066726f6d20746865207a65726f2061646460008201527f7265737300000000000000000000000000000000000000000000000000000000602082015250565b600061240460248361187f565b915061240f826123a8565b604082019050919050565b60006020820190508181036000830152612433816123f7565b9050919050565b7f45524332303a20617070726f766520746f20746865207a65726f20616464726560008201527f7373000000000000000000000000000000000000000000000000000000000000602082015250565b600061249660228361187f565b91506124a18261243a565b604082019050919050565b600060208201905081810360008301526124c581612489565b9050919050565b7f45524332303a20696e73756666696369656e7420616c6c6f77616e6365000000600082015250565b6000612502601d8361187f565b915061250d826124cc565b602082019050919050565b60006020820190508181036000830152612531816124f5565b9050919050565b7f45524332303a207472616e736665722066726f6d20746865207a65726f20616460008201527f6472657373000000000000000000000000000000000000000000000000000000602082015250565b600061259460258361187f565b915061259f82612538565b604082019050919050565b600060208201905081810360008301526125c381612587565b9050919050565b7f45524332303a207472616e7366657220746f20746865207a65726f206164647260008201527f6573730000000000000000000000000000000000000000000000000000000000602082015250565b600061262660238361187f565b9150612631826125ca565b604082019050919050565b6000602082019050818103600083015261265581612619565b9050919050565b7f45524332303a207472616e7366657220616d6f756e742065786365656473206260008201527f616c616e63650000000000000000000000000000000000000000000000000000602082015250565b60006126b860268361187f565b91506126c38261265c565b604082019050919050565b600060208201905081810360008301526126e7816126ab565b9050919050565b7f45524332303a206d696e7420746f20746865207a65726f206164647265737300600082015250565b6000612724601f8361187f565b915061272f826126ee565b602082019050919050565b6000602082019050818103600083015261275381612717565b905091905056fea2646970667358221220c4c948d1f66e92f107e034b816dd820a9b4f3b458fe372d72d751870d635fa9c64736f6c63430008090033",
  "linkReferences": {},
  "deployedLinkReferences": {}
}