{
  "_format": "hh-sol-artifact-1",
  "contractName": "ModelToken",
  "sourceName": "contracts/token/ERC20/ModelToken.sol",
  "abi": [
    {
      "inputs": [
        {
          "internalType": "string",
          "name": "name_",
          "type": "string"
        },
        {
          "internalType": "string",
          "name": "symbol_",
          "type": "string"
        }
      ],
      "stateMutability": "nonpayable",
      "type": "constructor"
    },
    {
      "anonymous": false,
      "inputs": [
        {
          "indexed": true,
          "internalType": "address",
          "name": "owner",
          "type": "address"
        },
        {
          "indexed": true,
          "internalType": "address",
          "name": "spender",
          "type": "address"
        },
        {
          "indexed": false,
          "internalType": "uint256",
          "name": "value",
          "type": "uint256"
        }
      ],
      "name": "Approval",
      "type": "event"
    },
    {
      "anonymous": false,
      "inputs": [
        {
          "indexed": true,
          "internalType": "address",
          "name": "from",
          "type": "address"
        },
        {
          "indexed": true,
          "internalType": "address",
          "name": "to",
          "type": "address"
        },
        {
          "indexed": false,
          "internalType": "uint256",
          "name": "value",
          "type": "uint256"
        }
      ],
      "name": "Transfer",
      "type": "event"
    },
    {
      "inputs": [],
      "name": "ALPHA",
      "outputs": [
        {
          "internalType": "uint256",
          "name": "",
          "type": "uint256"
        }
      ],
      "stateMutability": "view",
      "type": "function"
    },
    {
      "inputs": [],
      "name": "PERCENT_BASE",
      "outputs": [
        {
          "internalType": "uint256",
          "name": "",
          "type": "uint256"
        }
      ],
      "stateMutability": "view",
      "type": "function"
    },
    {
      "inputs": [],
      "name": "TOKENS_PER_CALL",
      "outputs": [
        {
          "internalType": "uint256",
          "name": "",
          "type": "uint256"
        }
      ],
      "stateMutability": "view",
      "type": "function"
    },
    {
      "inputs": [
        {
          "internalType": "address",
          "name": "owner",
          "type": "address"
        },
        {
          "internalType": "address",
          "name": "spender",
          "type": "address"
        },
        {
          "internalType": "uint256",
          "name": "amount",
          "type": "uint256"
        }
      ],
      "name": "_spendAllowance",
      "outputs": [],
      "stateMutability": "nonpayable",
      "type": "function"
    },
    {
      "inputs": [
        {
          "internalType": "uint256",
          "name": "amount",
          "type": "uint256"
        }
      ],
      "name": "add_stake",
      "outputs": [],
      "stateMutability": "nonpayable",
      "type": "function"
    },
    {
      "inputs": [
        {
          "internalType": "address",
          "name": "owner",
          "type": "address"
        },
        {
          "internalType": "address",
          "name": "spender",
          "type": "address"
        }
      ],
      "name": "allowance",
      "outputs": [
        {
          "internalType": "uint256",
          "name": "",
          "type": "uint256"
        }
      ],
      "stateMutability": "view",
      "type": "function"
    },
    {
      "inputs": [
        {
          "internalType": "address",
          "name": "spender",
          "type": "address"
        },
        {
          "internalType": "uint256",
          "name": "amount",
          "type": "uint256"
        }
      ],
      "name": "approve",
      "outputs": [
        {
          "internalType": "bool",
          "name": "",
          "type": "bool"
        }
      ],
      "stateMutability": "nonpayable",
      "type": "function"
    },
    {
      "inputs": [
        {
          "internalType": "address",
          "name": "account",
          "type": "address"
        }
      ],
      "name": "balanceOf",
      "outputs": [
        {
          "internalType": "uint256",
          "name": "",
          "type": "uint256"
        }
      ],
      "stateMutability": "view",
      "type": "function"
    },
    {
      "inputs": [
        {
          "internalType": "address",
          "name": "user",
          "type": "address"
        }
      ],
      "name": "bill_user_per_call",
      "outputs": [],
      "stateMutability": "nonpayable",
      "type": "function"
    },
    {
      "inputs": [],
      "name": "decimals",
      "outputs": [
        {
          "internalType": "uint8",
          "name": "",
          "type": "uint8"
        }
      ],
      "stateMutability": "view",
      "type": "function"
    },
    {
      "inputs": [
        {
          "internalType": "address",
          "name": "spender",
          "type": "address"
        },
        {
          "internalType": "uint256",
          "name": "subtractedValue",
          "type": "uint256"
        }
      ],
      "name": "decreaseAllowance",
      "outputs": [
        {
          "internalType": "bool",
          "name": "",
          "type": "bool"
        }
      ],
      "stateMutability": "nonpayable",
      "type": "function"
    },
    {
      "inputs": [
        {
          "internalType": "address",
          "name": "",
          "type": "address"
        }
      ],
      "name": "dev2state",
      "outputs": [
        {
          "internalType": "uint256",
          "name": "stake",
          "type": "uint256"
        },
        {
          "internalType": "uint256",
          "name": "score",
          "type": "uint256"
        },
        {
          "internalType": "uint256",
          "name": "block_number",
          "type": "uint256"
        }
      ],
      "stateMutability": "view",
      "type": "function"
    },
    {
      "inputs": [
        {
          "internalType": "address",
          "name": "",
          "type": "address"
        },
        {
          "internalType": "uint256",
          "name": "",
          "type": "uint256"
        }
      ],
      "name": "dev2voters",
      "outputs": [
        {
          "internalType": "address",
          "name": "",
          "type": "address"
        }
      ],
      "stateMutability": "view",
      "type": "function"
    },
    {
      "inputs": [
        {
          "internalType": "uint256",
          "name": "",
          "type": "uint256"
        }
      ],
      "name": "devs",
      "outputs": [
        {
          "internalType": "address",
          "name": "",
          "type": "address"
        }
      ],
      "stateMutability": "view",
      "type": "function"
    },
    {
      "inputs": [
        {
          "internalType": "address",
          "name": "user",
          "type": "address"
        }
      ],
      "name": "get_score",
      "outputs": [
        {
          "internalType": "uint256",
          "name": "score",
          "type": "uint256"
        }
      ],
      "stateMutability": "view",
      "type": "function"
    },
    {
      "inputs": [
        {
          "internalType": "address",
          "name": "user",
          "type": "address"
        }
      ],
      "name": "get_stake",
      "outputs": [
        {
          "internalType": "uint256",
          "name": "",
          "type": "uint256"
        }
      ],
      "stateMutability": "view",
      "type": "function"
    },
    {
      "inputs": [
        {
          "internalType": "address",
          "name": "spender",
          "type": "address"
        },
        {
          "internalType": "uint256",
          "name": "addedValue",
          "type": "uint256"
        }
      ],
      "name": "increaseAllowance",
      "outputs": [
        {
          "internalType": "bool",
          "name": "",
          "type": "bool"
        }
      ],
      "stateMutability": "nonpayable",
      "type": "function"
    },
    {
      "inputs": [
        {
          "internalType": "address",
          "name": "dev",
          "type": "address"
        }
      ],
      "name": "is_dev",
      "outputs": [
        {
          "internalType": "bool",
          "name": "",
          "type": "bool"
        }
      ],
      "stateMutability": "view",
      "type": "function"
    },
    {
      "inputs": [
        {
          "internalType": "address",
          "name": "account",
          "type": "address"
        },
        {
          "internalType": "uint256",
          "name": "amount",
          "type": "uint256"
        }
      ],
      "name": "mint",
      "outputs": [
        {
          "internalType": "uint256",
          "name": "",
          "type": "uint256"
        }
      ],
      "stateMutability": "nonpayable",
      "type": "function"
    },
    {
      "inputs": [],
      "name": "my_score",
      "outputs": [
        {
          "internalType": "uint256",
          "name": "score",
          "type": "uint256"
        }
      ],
      "stateMutability": "view",
      "type": "function"
    },
    {
      "inputs": [],
      "name": "my_stake",
      "outputs": [
        {
          "internalType": "uint256",
          "name": "stake",
          "type": "uint256"
        }
      ],
      "stateMutability": "view",
      "type": "function"
    },
    {
      "inputs": [],
      "name": "name",
      "outputs": [
        {
          "internalType": "string",
          "name": "",
          "type": "string"
        }
      ],
      "stateMutability": "view",
      "type": "function"
    },
    {
      "inputs": [
        {
          "internalType": "uint256",
          "name": "amount",
          "type": "uint256"
        }
      ],
      "name": "remove_stake",
      "outputs": [
        {
          "internalType": "uint256",
          "name": "removed_amount",
          "type": "uint256"
        }
      ],
      "stateMutability": "nonpayable",
      "type": "function"
    },
    {
      "inputs": [
        {
          "internalType": "uint256",
          "name": "alpha",
          "type": "uint256"
        }
      ],
      "name": "set_alpha",
      "outputs": [],
      "stateMutability": "nonpayable",
      "type": "function"
    },
    {
      "inputs": [
        {
          "internalType": "uint256[]",
          "name": "votes",
          "type": "uint256[]"
        },
        {
          "internalType": "address[]",
          "name": "devs",
          "type": "address[]"
        }
      ],
      "name": "set_votes",
      "outputs": [],
      "stateMutability": "nonpayable",
      "type": "function"
    },
    {
      "inputs": [],
      "name": "symbol",
      "outputs": [
        {
          "internalType": "string",
          "name": "",
          "type": "string"
        }
      ],
      "stateMutability": "view",
      "type": "function"
    },
    {
      "inputs": [],
      "name": "totalSupply",
      "outputs": [
        {
          "internalType": "uint256",
          "name": "",
          "type": "uint256"
        }
      ],
      "stateMutability": "view",
      "type": "function"
    },
    {
      "inputs": [
        {
          "internalType": "address",
          "name": "to",
          "type": "address"
        },
        {
          "internalType": "uint256",
          "name": "amount",
          "type": "uint256"
        }
      ],
      "name": "transfer",
      "outputs": [
        {
          "internalType": "bool",
          "name": "",
          "type": "bool"
        }
      ],
      "stateMutability": "nonpayable",
      "type": "function"
    },
    {
      "inputs": [
        {
          "internalType": "address",
          "name": "from",
          "type": "address"
        },
        {
          "internalType": "address",
          "name": "to",
          "type": "address"
        },
        {
          "internalType": "uint256",
          "name": "amount",
          "type": "uint256"
        }
      ],
      "name": "transferFrom",
      "outputs": [
        {
          "internalType": "bool",
          "name": "",
          "type": "bool"
        }
      ],
      "stateMutability": "nonpayable",
      "type": "function"
    },
    {
      "inputs": [
        {
          "internalType": "address",
          "name": "",
          "type": "address"
        }
      ],
      "name": "users2calls",
      "outputs": [
        {
          "internalType": "uint256",
          "name": "",
          "type": "uint256"
        }
      ],
      "stateMutability": "view",
      "type": "function"
    },
    {
      "inputs": [
        {
          "internalType": "address",
          "name": "",
          "type": "address"
        },
        {
          "internalType": "address",
          "name": "",
          "type": "address"
        }
      ],
      "name": "voter2dev_vote_map",
      "outputs": [
        {
          "internalType": "uint256",
          "name": "score",
          "type": "uint256"
        },
        {
          "internalType": "uint256",
          "name": "block_number",
          "type": "uint256"
        }
      ],
      "stateMutability": "view",
      "type": "function"
    },
    {
      "inputs": [
        {
          "internalType": "address",
          "name": "",
          "type": "address"
        },
        {
          "internalType": "uint256",
          "name": "",
          "type": "uint256"
        }
      ],
      "name": "voter2devs",
      "outputs": [
        {
          "internalType": "address",
          "name": "",
          "type": "address"
        }
      ],
      "stateMutability": "view",
      "type": "function"
    }
  ],
  "bytecode": "0x60806040526002600a556001600b556000600d553480156200002057600080fd5b506040516200387f3803806200387f8339818101604052810190620000469190620002cd565b81600390805190602001906200005e92919062000080565b5080600490805190602001906200007792919062000080565b505050620003b7565b8280546200008e9062000381565b90600052602060002090601f016020900481019282620000b25760008555620000fe565b82601f10620000cd57805160ff1916838001178555620000fe565b82800160010185558215620000fe579182015b82811115620000fd578251825591602001919060010190620000e0565b5b5090506200010d919062000111565b5090565b5b808211156200012c57600081600090555060010162000112565b5090565b6000604051905090565b600080fd5b600080fd5b600080fd5b600080fd5b6000601f19601f8301169050919050565b7f4e487b7100000000000000000000000000000000000000000000000000000000600052604160045260246000fd5b62000199826200014e565b810181811067ffffffffffffffff82111715620001bb57620001ba6200015f565b5b80604052505050565b6000620001d062000130565b9050620001de82826200018e565b919050565b600067ffffffffffffffff8211156200020157620002006200015f565b5b6200020c826200014e565b9050602081019050919050565b60005b83811015620002395780820151818401526020810190506200021c565b8381111562000249576000848401525b50505050565b6000620002666200026084620001e3565b620001c4565b90508281526020810184848401111562000285576200028462000149565b5b6200029284828562000219565b509392505050565b600082601f830112620002b257620002b162000144565b5b8151620002c48482602086016200024f565b91505092915050565b60008060408385031215620002e757620002e66200013a565b5b600083015167ffffffffffffffff8111156200030857620003076200013f565b5b62000316858286016200029a565b925050602083015167ffffffffffffffff8111156200033a57620003396200013f565b5b62000348858286016200029a565b9150509250929050565b7f4e487b7100000000000000000000000000000000000000000000000000000000600052602260045260246000fd5b600060028204905060018216806200039a57607f821691505b60208210811415620003b157620003b062000352565b5b50919050565b6134b880620003c76000396000f3fe608060405234801561001057600080fd5b50600436106101f05760003560e01c806370a082311161010f5780639a6d84cc116100a2578063c4441cce11610071578063c4441cce1461065a578063ca0ab0b61461068a578063dd62ed3e146106a6578063e1118bc0146106d6576101f0565b80639a6d84cc146105aa578063a457c2d7146105dc578063a9059cbb1461060c578063b0bb1c5a1461063c576101f0565b806382aa729f116100de57806382aa729f146105105780638f4cc6841461054057806391b3006c1461057057806395d89b411461058c576101f0565b806370a0823114610488578063716971a3146104b857806375ee5bcf146104d6578063805d835d146104f2576101f0565b806332ebe18c1161018757806340c10f191161015657806340c10f19146103c757806351a6ff75146103f75780635eeacb5f14610428578063698839fd14610458576101f0565b806332ebe18c1461032b57806334ee79021461035b578063356177e3146103795780633950935114610397576101f0565b806318160ddd116101c357806318160ddd1461028f5780631a3a5eac146102ad57806323b872dd146102dd578063313ce5671461030d576101f0565b806306fdde03146101f5578063095ea7b3146102135780630a76723b146102435780631532335e14610273575b600080fd5b6101fd6106f2565b60405161020a9190612635565b60405180910390f35b61022d600480360381019061022891906126ff565b610784565b60405161023a919061275a565b60405180910390f35b61025d600480360381019061025891906126ff565b6107a7565b60405161026a9190612784565b60405180910390f35b61028d6004803603810190610288919061279f565b6107f5565b005b610297610881565b6040516102a49190612801565b60405180910390f35b6102c760048036038101906102c2919061281c565b61088b565b6040516102d49190612801565b60405180910390f35b6102f760048036038101906102f2919061279f565b6108a3565b604051610304919061275a565b60405180910390f35b6103156108c7565b6040516103229190612865565b60405180910390f35b6103456004803603810190610340919061281c565b6108d0565b604051610352919061275a565b60405180910390f35b61036361091e565b6040516103709190612801565b60405180910390f35b61038161092e565b60405161038e9190612801565b60405180910390f35b6103b160048036038101906103ac91906126ff565b610934565b6040516103be919061275a565b60405180910390f35b6103e160048036038101906103dc91906126ff565b61096b565b6040516103ee9190612801565b60405180910390f35b610411600480360381019061040c9190612880565b610988565b60405161041f9291906128c0565b60405180910390f35b610442600480360381019061043d91906128e9565b6109b9565b60405161044f9190612784565b60405180910390f35b610472600480360381019061046d919061281c565b6109f8565b60405161047f9190612801565b60405180910390f35b6104a2600480360381019061049d919061281c565b610a7e565b6040516104af9190612801565b60405180910390f35b6104c0610ac6565b6040516104cd9190612801565b60405180910390f35b6104f060048036038101906104eb919061281c565b610ad6565b005b6104fa610b8a565b6040516105079190612801565b60405180910390f35b61052a600480360381019061052591906126ff565b610b90565b6040516105379190612784565b60405180910390f35b61055a6004803603810190610555919061281c565b610bde565b6040516105679190612801565b60405180910390f35b61058a600480360381019061058591906128e9565b610d53565b005b610594610e42565b6040516105a19190612635565b60405180910390f35b6105c460048036038101906105bf919061281c565b610ed4565b6040516105d393929190612916565b60405180910390f35b6105f660048036038101906105f191906126ff565b610efe565b604051610603919061275a565b60405180910390f35b610626600480360381019061062191906126ff565b610f75565b604051610633919061275a565b60405180910390f35b610644610f98565b6040516106519190612801565b60405180910390f35b610674600480360381019061066f91906128e9565b610f9e565b6040516106819190612801565b60405180910390f35b6106a4600480360381019061069f9190612b58565b61113d565b005b6106c060048036038101906106bb9190612880565b611e69565b6040516106cd9190612801565b60405180910390f35b6106f060048036038101906106eb91906128e9565b611ef0565b005b60606003805461070190612bff565b80601f016020809104026020016040519081016040528092919081815260200182805461072d90612bff565b801561077a5780601f1061074f5761010080835404028352916020019161077a565b820191906000526020600020905b81548152906001019060200180831161075d57829003601f168201915b5050505050905090565b60008061078f611f3e565b905061079c818585611f46565b600191505092915050565b600860205281600052604060002081815481106107c357600080fd5b906000526020600020016000915091509054906101000a900473ffffffffffffffffffffffffffffffffffffffff1681565b60006108018484611e69565b90507fffffffffffffffffffffffffffffffffffffffffffffffffffffffffffffffff811461087b578181101561086d576040517f08c379a000000000000000000000000000000000000000000000000000000000815260040161086490612c7d565b60405180910390fd5b61087a8484848403611f46565b5b50505050565b6000600254905090565b600c6020528060005260406000206000915090505481565b6000806108ae611f3e565b90506108bb858585612111565b60019150509392505050565b60006012905090565b600080600960008473ffffffffffffffffffffffffffffffffffffffff1673ffffffffffffffffffffffffffffffffffffffff16815260200190815260200160002080549050119050919050565b600061092933610bde565b905090565b600b5481565b60008061093f611f3e565b90506109608185856109518589611e69565b61095b9190612ccc565b611f46565b600191505092915050565b60006109778383612389565b61098033610a7e565b905092915050565b6007602052816000526040600020602052806000526040600020600091509150508060000154908060010154905082565b600581815481106109c957600080fd5b906000526020600020016000915054906101000a900473ffffffffffffffffffffffffffffffffffffffff1681565b6000600160008373ffffffffffffffffffffffffffffffffffffffff1673ffffffffffffffffffffffffffffffffffffffff16815260200190815260200160002060003073ffffffffffffffffffffffffffffffffffffffff1673ffffffffffffffffffffffffffffffffffffffff168152602001908152602001600020549050919050565b60008060008373ffffffffffffffffffffffffffffffffffffffff1673ffffffffffffffffffffffffffffffffffffffff168152602001908152602001600020549050919050565b6000610ad1336109f8565b905090565b600b546000808373ffffffffffffffffffffffffffffffffffffffff1673ffffffffffffffffffffffffffffffffffffffff1681526020019081526020016000205411610b2257600080fd5b610b2f3330600b546108a3565b506001600c60003373ffffffffffffffffffffffffffffffffffffffff1673ffffffffffffffffffffffffffffffffffffffff1681526020019081526020016000206000828254610b809190612ccc565b9250508190555050565b61271081565b60096020528160005260406000208181548110610bac57600080fd5b906000526020600020016000915091509054906101000a900473ffffffffffffffffffffffffffffffffffffffff1681565b6000805b600960008473ffffffffffffffffffffffffffffffffffffffff1673ffffffffffffffffffffffffffffffffffffffff16815260200190815260200160002080549050811015610d4d576000600960008573ffffffffffffffffffffffffffffffffffffffff1673ffffffffffffffffffffffffffffffffffffffff1681526020019081526020016000208281548110610c7f57610c7e612d22565b5b9060005260206000200160009054906101000a900473ffffffffffffffffffffffffffffffffffffffff169050600760008273ffffffffffffffffffffffffffffffffffffffff1673ffffffffffffffffffffffffffffffffffffffff16815260200190815260200160002060008573ffffffffffffffffffffffffffffffffffffffff1673ffffffffffffffffffffffffffffffffffffffff1681526020019081526020016000206000015483610d379190612ccc565b9250508080610d4590612d51565b915050610be2565b50919050565b80600160003373ffffffffffffffffffffffffffffffffffffffff1673ffffffffffffffffffffffffffffffffffffffff16815260200190815260200160002060003073ffffffffffffffffffffffffffffffffffffffff1673ffffffffffffffffffffffffffffffffffffffff1681526020019081526020016000206000828254610ddf9190612ccc565b92505081905550610df03330611e69565b600660003373ffffffffffffffffffffffffffffffffffffffff1673ffffffffffffffffffffffffffffffffffffffff16815260200190815260200160002060000181905550610e3f336124e0565b50565b606060048054610e5190612bff565b80601f0160208091040260200160405190810160405280929190818152602001828054610e7d90612bff565b8015610eca5780601f10610e9f57610100808354040283529160200191610eca565b820191906000526020600020905b815481529060010190602001808311610ead57829003601f168201915b5050505050905090565b60066020528060005260406000206000915090508060000154908060010154908060020154905083565b600080610f09611f3e565b90506000610f178286611e69565b905083811015610f5c576040517f08c379a0000000000000000000000000000000000000000000000000000000008152600401610f5390612e0c565b60405180910390fd5b610f698286868403611f46565b60019250505092915050565b600080610f80611f3e565b9050610f8d818585612111565b600191505092915050565b600d5481565b6000600160003373ffffffffffffffffffffffffffffffffffffffff1673ffffffffffffffffffffffffffffffffffffffff16815260200190815260200160002060003073ffffffffffffffffffffffffffffffffffffffff1673ffffffffffffffffffffffffffffffffffffffff168152602001908152602001600020548211156110a457600160003373ffffffffffffffffffffffffffffffffffffffff1673ffffffffffffffffffffffffffffffffffffffff16815260200190815260200160002060003073ffffffffffffffffffffffffffffffffffffffff1673ffffffffffffffffffffffffffffffffffffffff1681526020019081526020016000205491505b81600160003373ffffffffffffffffffffffffffffffffffffffff1673ffffffffffffffffffffffffffffffffffffffff16815260200190815260200160002060003073ffffffffffffffffffffffffffffffffffffffff1673ffffffffffffffffffffffffffffffffffffffff16815260200190815260200160002060008282546111309190612e2c565b9250508190559050919050565b8051825114611181576040517f08c379a000000000000000000000000000000000000000000000000000000000815260040161117890612ed2565b60405180910390fd5b6127108251106111c6576040517f08c379a00000000000000000000000000000000000000000000000000000000081526004016111bd90612f64565b60405180910390fd5b6000600660003373ffffffffffffffffffffffffffffffffffffffff1673ffffffffffffffffffffffffffffffffffffffff168152602001908152602001600020600001541161124b576040517f08c379a000000000000000000000000000000000000000000000000000000000815260040161124290612fd0565b60405180910390fd5b60008080845167ffffffffffffffff81111561126a57611269612952565b5b6040519080825280602002602001820160405280156112985781602001602082028036833780820191505090505b50905060003390506000805b865181101561140857600760008473ffffffffffffffffffffffffffffffffffffffff1673ffffffffffffffffffffffffffffffffffffffff168152602001908152602001600020600088838151811061130157611300612d22565b5b602002602001015173ffffffffffffffffffffffffffffffffffffffff1673ffffffffffffffffffffffffffffffffffffffff1681526020019081526020016000206000015484828151811061135a57611359612d22565b5b602002602001018181525050600760008473ffffffffffffffffffffffffffffffffffffffff1673ffffffffffffffffffffffffffffffffffffffff16815260200190815260200160002060008373ffffffffffffffffffffffffffffffffffffffff1673ffffffffffffffffffffffffffffffffffffffff16815260200190815260200160002060008082016000905560018201600090555050808061140090612d51565b9150506112a4565b5060005b600860008473ffffffffffffffffffffffffffffffffffffffff1673ffffffffffffffffffffffffffffffffffffffff1681526020019081526020016000208054905081101561183157600860008473ffffffffffffffffffffffffffffffffffffffff1673ffffffffffffffffffffffffffffffffffffffff16815260200190815260200160002081815481106114a7576114a6612d22565b5b9060005260206000200160009054906101000a900473ffffffffffffffffffffffffffffffffffffffff1691506000600960008473ffffffffffffffffffffffffffffffffffffffff1673ffffffffffffffffffffffffffffffffffffffff16815260200190815260200160002080549050905060005b8181101561181c57600960008573ffffffffffffffffffffffffffffffffffffffff1673ffffffffffffffffffffffffffffffffffffffff168152602001908152602001600020818154811061157757611576612d22565b5b9060005260206000200160009054906101000a900473ffffffffffffffffffffffffffffffffffffffff1673ffffffffffffffffffffffffffffffffffffffff168573ffffffffffffffffffffffffffffffffffffffff16141561180957600960008573ffffffffffffffffffffffffffffffffffffffff1673ffffffffffffffffffffffffffffffffffffffff1681526020019081526020016000206001600960008773ffffffffffffffffffffffffffffffffffffffff1673ffffffffffffffffffffffffffffffffffffffff168152602001908152602001600020805490506116639190612e2c565b8154811061167457611673612d22565b5b9060005260206000200160009054906101000a900473ffffffffffffffffffffffffffffffffffffffff16600960008673ffffffffffffffffffffffffffffffffffffffff1673ffffffffffffffffffffffffffffffffffffffff16815260200190815260200160002082815481106116f0576116ef612d22565b5b9060005260206000200160006101000a81548173ffffffffffffffffffffffffffffffffffffffff021916908373ffffffffffffffffffffffffffffffffffffffff160217905550600960008573ffffffffffffffffffffffffffffffffffffffff1673ffffffffffffffffffffffffffffffffffffffff1681526020019081526020016000206001600960008773ffffffffffffffffffffffffffffffffffffffff1673ffffffffffffffffffffffffffffffffffffffff168152602001908152602001600020805490506117c69190612e2c565b815481106117d7576117d6612d22565b5b9060005260206000200160006101000a81549073ffffffffffffffffffffffffffffffffffffffff021916905561181c565b808061181490612d51565b91505061151e565b5050808061182990612d51565b91505061140c565b50600860008373ffffffffffffffffffffffffffffffffffffffff1673ffffffffffffffffffffffffffffffffffffffff168152602001908152602001600020600061187d919061255e565b60005b87518110156119d95786818151811061189c5761189b612d22565b5b60200260200101519150600660008473ffffffffffffffffffffffffffffffffffffffff1673ffffffffffffffffffffffffffffffffffffffff168152602001908152602001600020600001548882815181106118fc576118fb612d22565b5b602002602001015161190e9190612ff0565b9450604051806040016040528086815260200143815250600760008573ffffffffffffffffffffffffffffffffffffffff1673ffffffffffffffffffffffffffffffffffffffff16815260200190815260200160002060008473ffffffffffffffffffffffffffffffffffffffff1673ffffffffffffffffffffffffffffffffffffffff168152602001908152602001600020600082015181600001556020820151816001015590505084866119c49190612ccc565b955080806119d190612d51565b915050611880565b5060005b8751811015611e5f578681815181106119f9576119f8612d22565b5b60200260200101519150611a0c826124e0565b85612710600760008673ffffffffffffffffffffffffffffffffffffffff1673ffffffffffffffffffffffffffffffffffffffff16815260200190815260200160002060008573ffffffffffffffffffffffffffffffffffffffff1673ffffffffffffffffffffffffffffffffffffffff16815260200190815260200160002060000154611a9a9190612ff0565b611aa49190613079565b600760008573ffffffffffffffffffffffffffffffffffffffff1673ffffffffffffffffffffffffffffffffffffffff16815260200190815260200160002060008473ffffffffffffffffffffffffffffffffffffffff1673ffffffffffffffffffffffffffffffffffffffff16815260200190815260200160002060000181905550612710600d54612710611b3a9190612e2c565b600760008673ffffffffffffffffffffffffffffffffffffffff1673ffffffffffffffffffffffffffffffffffffffff16815260200190815260200160002060008573ffffffffffffffffffffffffffffffffffffffff1673ffffffffffffffffffffffffffffffffffffffff16815260200190815260200160002060000154611bc49190612ff0565b600d54868481518110611bda57611bd9612d22565b5b6020026020010151611bec9190612ff0565b611bf69190612ccc565b611c009190613079565b600760008573ffffffffffffffffffffffffffffffffffffffff1673ffffffffffffffffffffffffffffffffffffffff16815260200190815260200160002060008473ffffffffffffffffffffffffffffffffffffffff1673ffffffffffffffffffffffffffffffffffffffff168152602001908152602001600020600001819055506000600760008573ffffffffffffffffffffffffffffffffffffffff1673ffffffffffffffffffffffffffffffffffffffff16815260200190815260200160002060008473ffffffffffffffffffffffffffffffffffffffff1673ffffffffffffffffffffffffffffffffffffffff168152602001908152602001600020600001541115611e4c57600860008473ffffffffffffffffffffffffffffffffffffffff1673ffffffffffffffffffffffffffffffffffffffff168152602001908152602001600020829080600181540180825580915050600190039060005260206000200160009091909190916101000a81548173ffffffffffffffffffffffffffffffffffffffff021916908373ffffffffffffffffffffffffffffffffffffffff160217905550600960008373ffffffffffffffffffffffffffffffffffffffff1673ffffffffffffffffffffffffffffffffffffffff168152602001908152602001600020839080600181540180825580915050600190039060005260206000200160009091909190916101000a81548173ffffffffffffffffffffffffffffffffffffffff021916908373ffffffffffffffffffffffffffffffffffffffff1602179055505b8080611e5790612d51565b9150506119dd565b5050505050505050565b6000600160008473ffffffffffffffffffffffffffffffffffffffff1673ffffffffffffffffffffffffffffffffffffffff16815260200190815260200160002060008373ffffffffffffffffffffffffffffffffffffffff1673ffffffffffffffffffffffffffffffffffffffff16815260200190815260200160002054905092915050565b6127108110611f34576040517f08c379a0000000000000000000000000000000000000000000000000000000008152600401611f2b9061311c565b60405180910390fd5b80600d8190555050565b600033905090565b600073ffffffffffffffffffffffffffffffffffffffff168373ffffffffffffffffffffffffffffffffffffffff161415611fb6576040517f08c379a0000000000000000000000000000000000000000000000000000000008152600401611fad906131ae565b60405180910390fd5b600073ffffffffffffffffffffffffffffffffffffffff168273ffffffffffffffffffffffffffffffffffffffff161415612026576040517f08c379a000000000000000000000000000000000000000000000000000000000815260040161201d90613240565b60405180910390fd5b80600160008573ffffffffffffffffffffffffffffffffffffffff1673ffffffffffffffffffffffffffffffffffffffff16815260200190815260200160002060008473ffffffffffffffffffffffffffffffffffffffff1673ffffffffffffffffffffffffffffffffffffffff168152602001908152602001600020819055508173ffffffffffffffffffffffffffffffffffffffff168373ffffffffffffffffffffffffffffffffffffffff167f8c5be1e5ebec7d5bd14f71427d1e84f3dd0314c0f7b2291e5b200ac8c7c3b925836040516121049190612801565b60405180910390a3505050565b600073ffffffffffffffffffffffffffffffffffffffff168373ffffffffffffffffffffffffffffffffffffffff161415612181576040517f08c379a0000000000000000000000000000000000000000000000000000000008152600401612178906132d2565b60405180910390fd5b600073ffffffffffffffffffffffffffffffffffffffff168273ffffffffffffffffffffffffffffffffffffffff1614156121f1576040517f08c379a00000000000000000000000000000000000000000000000000000000081526004016121e890613364565b60405180910390fd5b6121fc838383612554565b60008060008573ffffffffffffffffffffffffffffffffffffffff1673ffffffffffffffffffffffffffffffffffffffff16815260200190815260200160002054905081811015612282576040517f08c379a0000000000000000000000000000000000000000000000000000000008152600401612279906133f6565b60405180910390fd5b8181036000808673ffffffffffffffffffffffffffffffffffffffff1673ffffffffffffffffffffffffffffffffffffffff16815260200190815260200160002081905550816000808573ffffffffffffffffffffffffffffffffffffffff1673ffffffffffffffffffffffffffffffffffffffff168152602001908152602001600020600082825401925050819055508273ffffffffffffffffffffffffffffffffffffffff168473ffffffffffffffffffffffffffffffffffffffff167fddf252ad1be2c89b69c2b068fc378daa952ba7f163c4a11628f55a4df523b3ef846040516123709190612801565b60405180910390a3612383848484612559565b50505050565b600073ffffffffffffffffffffffffffffffffffffffff168273ffffffffffffffffffffffffffffffffffffffff1614156123f9576040517f08c379a00000000000000000000000000000000000000000000000000000000081526004016123f090613462565b60405180910390fd5b61240560008383612554565b80600260008282546124179190612ccc565b92505081905550806000808473ffffffffffffffffffffffffffffffffffffffff1673ffffffffffffffffffffffffffffffffffffffff168152602001908152602001600020600082825401925050819055508173ffffffffffffffffffffffffffffffffffffffff16600073ffffffffffffffffffffffffffffffffffffffff167fddf252ad1be2c89b69c2b068fc378daa952ba7f163c4a11628f55a4df523b3ef836040516124c89190612801565b60405180910390a36124dc60008383612559565b5050565b6124e9816108d0565b612551576005819080600181540180825580915050600190039060005260206000200160009091909190916101000a81548173ffffffffffffffffffffffffffffffffffffffff021916908373ffffffffffffffffffffffffffffffffffffffff1602179055505b50565b505050565b505050565b508054600082559060005260206000209081019061257c919061257f565b50565b5b80821115612598576000816000905550600101612580565b5090565b600081519050919050565b600082825260208201905092915050565b60005b838110156125d65780820151818401526020810190506125bb565b838111156125e5576000848401525b50505050565b6000601f19601f8301169050919050565b60006126078261259c565b61261181856125a7565b93506126218185602086016125b8565b61262a816125eb565b840191505092915050565b6000602082019050818103600083015261264f81846125fc565b905092915050565b6000604051905090565b600080fd5b600080fd5b600073ffffffffffffffffffffffffffffffffffffffff82169050919050565b60006126968261266b565b9050919050565b6126a68161268b565b81146126b157600080fd5b50565b6000813590506126c38161269d565b92915050565b6000819050919050565b6126dc816126c9565b81146126e757600080fd5b50565b6000813590506126f9816126d3565b92915050565b6000806040838503121561271657612715612661565b5b6000612724858286016126b4565b9250506020612735858286016126ea565b9150509250929050565b60008115159050919050565b6127548161273f565b82525050565b600060208201905061276f600083018461274b565b92915050565b61277e8161268b565b82525050565b60006020820190506127996000830184612775565b92915050565b6000806000606084860312156127b8576127b7612661565b5b60006127c6868287016126b4565b93505060206127d7868287016126b4565b92505060406127e8868287016126ea565b9150509250925092565b6127fb816126c9565b82525050565b600060208201905061281660008301846127f2565b92915050565b60006020828403121561283257612831612661565b5b6000612840848285016126b4565b91505092915050565b600060ff82169050919050565b61285f81612849565b82525050565b600060208201905061287a6000830184612856565b92915050565b6000806040838503121561289757612896612661565b5b60006128a5858286016126b4565b92505060206128b6858286016126b4565b9150509250929050565b60006040820190506128d560008301856127f2565b6128e260208301846127f2565b9392505050565b6000602082840312156128ff576128fe612661565b5b600061290d848285016126ea565b91505092915050565b600060608201905061292b60008301866127f2565b61293860208301856127f2565b61294560408301846127f2565b949350505050565b600080fd5b7f4e487b7100000000000000000000000000000000000000000000000000000000600052604160045260246000fd5b61298a826125eb565b810181811067ffffffffffffffff821117156129a9576129a8612952565b5b80604052505050565b60006129bc612657565b90506129c88282612981565b919050565b600067ffffffffffffffff8211156129e8576129e7612952565b5b602082029050602081019050919050565b600080fd5b6000612a11612a0c846129cd565b6129b2565b90508083825260208201905060208402830185811115612a3457612a336129f9565b5b835b81811015612a5d5780612a4988826126ea565b845260208401935050602081019050612a36565b5050509392505050565b600082601f830112612a7c57612a7b61294d565b5b8135612a8c8482602086016129fe565b91505092915050565b600067ffffffffffffffff821115612ab057612aaf612952565b5b602082029050602081019050919050565b6000612ad4612acf84612a95565b6129b2565b90508083825260208201905060208402830185811115612af757612af66129f9565b5b835b81811015612b205780612b0c88826126b4565b845260208401935050602081019050612af9565b5050509392505050565b600082601f830112612b3f57612b3e61294d565b5b8135612b4f848260208601612ac1565b91505092915050565b60008060408385031215612b6f57612b6e612661565b5b600083013567ffffffffffffffff811115612b8d57612b8c612666565b5b612b9985828601612a67565b925050602083013567ffffffffffffffff811115612bba57612bb9612666565b5b612bc685828601612b2a565b9150509250929050565b7f4e487b7100000000000000000000000000000000000000000000000000000000600052602260045260246000fd5b60006002820490506001821680612c1757607f821691505b60208210811415612c2b57612c2a612bd0565b5b50919050565b7f45524332303a20696e73756666696369656e7420616c6c6f77616e6365000000600082015250565b6000612c67601d836125a7565b9150612c7282612c31565b602082019050919050565b60006020820190508181036000830152612c9681612c5a565b9050919050565b7f4e487b7100000000000000000000000000000000000000000000000000000000600052601160045260246000fd5b6000612cd7826126c9565b9150612ce2836126c9565b9250827fffffffffffffffffffffffffffffffffffffffffffffffffffffffffffffffff03821115612d1757612d16612c9d565b5b828201905092915050565b7f4e487b7100000000000000000000000000000000000000000000000000000000600052603260045260246000fd5b6000612d5c826126c9565b91507fffffffffffffffffffffffffffffffffffffffffffffffffffffffffffffffff821415612d8f57612d8e612c9d565b5b600182019050919050565b7f45524332303a2064656372656173656420616c6c6f77616e63652062656c6f7760008201527f207a65726f000000000000000000000000000000000000000000000000000000602082015250565b6000612df66025836125a7565b9150612e0182612d9a565b604082019050919050565b60006020820190508181036000830152612e2581612de9565b9050919050565b6000612e37826126c9565b9150612e42836126c9565b925082821015612e5557612e54612c9d565b5b828203905092915050565b7f766f74657320616e642064657673206861766520746f2062652073616d65206c60008201527f656e6774682062726f0000000000000000000000000000000000000000000000602082015250565b6000612ebc6029836125a7565b9150612ec782612e60565b604082019050919050565b60006020820190508181036000830152612eeb81612eaf565b9050919050565b7f7468652073697a65206f6620796f7520766f7465727320697320746f6f20626960008201527f672066616d000000000000000000000000000000000000000000000000000000602082015250565b6000612f4e6025836125a7565b9150612f5982612ef2565b604082019050919050565b60006020820190508181036000830152612f7d81612f41565b9050919050565b7f796f75206e65656420746f207374616b652067726561746572207468616e2030600082015250565b6000612fba6020836125a7565b9150612fc582612f84565b602082019050919050565b60006020820190508181036000830152612fe981612fad565b9050919050565b6000612ffb826126c9565b9150613006836126c9565b9250817fffffffffffffffffffffffffffffffffffffffffffffffffffffffffffffffff048311821515161561303f5761303e612c9d565b5b828202905092915050565b7f4e487b7100000000000000000000000000000000000000000000000000000000600052601260045260246000fd5b6000613084826126c9565b915061308f836126c9565b92508261309f5761309e61304a565b5b828204905092915050565b7f414c504841206e6565647320746f206265204c6f776572207468616e2050657260008201527f63656e7420426173650000000000000000000000000000000000000000000000602082015250565b60006131066029836125a7565b9150613111826130aa565b604082019050919050565b60006020820190508181036000830152613135816130f9565b9050919050565b7f45524332303a20617070726f76652066726f6d20746865207a65726f2061646460008201527f7265737300000000000000000000000000000000000000000000000000000000602082015250565b60006131986024836125a7565b91506131a38261313c565b604082019050919050565b600060208201905081810360008301526131c78161318b565b9050919050565b7f45524332303a20617070726f766520746f20746865207a65726f20616464726560008201527f7373000000000000000000000000000000000000000000000000000000000000602082015250565b600061322a6022836125a7565b9150613235826131ce565b604082019050919050565b600060208201905081810360008301526132598161321d565b9050919050565b7f45524332303a207472616e736665722066726f6d20746865207a65726f20616460008201527f6472657373000000000000000000000000000000000000000000000000000000602082015250565b60006132bc6025836125a7565b91506132c782613260565b604082019050919050565b600060208201905081810360008301526132eb816132af565b9050919050565b7f45524332303a207472616e7366657220746f20746865207a65726f206164647260008201527f6573730000000000000000000000000000000000000000000000000000000000602082015250565b600061334e6023836125a7565b9150613359826132f2565b604082019050919050565b6000602082019050818103600083015261337d81613341565b9050919050565b7f45524332303a207472616e7366657220616d6f756e742065786365656473206260008201527f616c616e63650000000000000000000000000000000000000000000000000000602082015250565b60006133e06026836125a7565b91506133eb82613384565b604082019050919050565b6000602082019050818103600083015261340f816133d3565b9050919050565b7f45524332303a206d696e7420746f20746865207a65726f206164647265737300600082015250565b600061344c601f836125a7565b915061345782613416565b602082019050919050565b6000602082019050818103600083015261347b8161343f565b905091905056fea2646970667358221220610be582010a8b0c5af2debd35cc57d3ce6c4f94ce3dbf9be3d9ad5eb93b249964736f6c63430008090033",
  "linkReferences": {},
  "deployedLinkReferences": {}
}