{
  "_format": "hh-sol-artifact-1",
  "contractName": "ExplainManager",
  "sourceName": "contracts/explain/ExplainManager.sol",
  "abi": [
    {
      "inputs": [
        {
          "internalType": "string",
          "name": "name",
          "type": "string"
        },
        {
          "internalType": "string",
          "name": "explainURI",
          "type": "string"
        }
      ],
      "name": "addExplain",
      "outputs": [],
      "stateMutability": "nonpayable",
      "type": "function"
    },
    {
      "inputs": [
        {
          "internalType": "uint256",
          "name": "",
          "type": "uint256"
        }
      ],
      "name": "explainModules",
      "outputs": [
        {
          "internalType": "string",
          "name": "name",
          "type": "string"
        },
        {
          "internalType": "string",
          "name": "uri",
          "type": "string"
        }
      ],
      "stateMutability": "view",
      "type": "function"
    },
    {
      "inputs": [
        {
          "internalType": "string",
          "name": "name",
          "type": "string"
        }
      ],
      "name": "getExplainer",
      "outputs": [
        {
          "components": [
            {
              "internalType": "string",
              "name": "name",
              "type": "string"
            },
            {
              "internalType": "string",
              "name": "uri",
              "type": "string"
            }
          ],
          "internalType": "struct ExplainSchema",
          "name": "",
          "type": "tuple"
        }
      ],
      "stateMutability": "view",
      "type": "function"
    },
    {
      "inputs": [],
      "name": "getExplainers",
      "outputs": [
        {
          "components": [
            {
              "internalType": "string",
              "name": "name",
              "type": "string"
            },
            {
              "internalType": "string",
              "name": "uri",
              "type": "string"
            }
          ],
          "internalType": "struct ExplainSchema[]",
          "name": "",
          "type": "tuple[]"
        }
      ],
      "stateMutability": "view",
      "type": "function"
    },
    {
      "inputs": [
        {
          "internalType": "string",
          "name": "",
          "type": "string"
        }
      ],
      "name": "name2id",
      "outputs": [
        {
          "internalType": "uint256",
          "name": "",
          "type": "uint256"
        }
      ],
      "stateMutability": "view",
      "type": "function"
    },
    {
      "inputs": [
        {
          "internalType": "string",
          "name": "name",
          "type": "string"
        }
      ],
      "name": "removeExplain",
      "outputs": [],
      "stateMutability": "nonpayable",
      "type": "function"
    }
  ],
  "bytecode": "0x608060405234801561001057600080fd5b506112fd806100206000396000f3fe608060405234801561001057600080fd5b50600436106100625760003560e01c80630dec0d38146100675780633f9bb242146100835780635ae6634b146100a15780636ecef986146100d157806399ae30ca146100ed578063d2ceef4f1461011e575b600080fd5b610081600480360381019061007c9190610bea565b61014e565b005b61008b610227565b6040516100989190610df0565b60405180910390f35b6100bb60048036038101906100b69190610e12565b6103f1565b6040516100c89190610e9f565b60405180910390f35b6100eb60048036038101906100e69190610e12565b6105d0565b005b61010760048036038101906101029190610ef7565b610794565b604051610115929190610f6e565b60405180910390f35b61013860048036038101906101339190610e12565b6108d8565b6040516101459190610fb4565b60405180910390f35b6000600183604051610160919061100b565b908152602001604051809103902054111561017f5761017e826105d0565b5b6000604051806040016040528084815260200183815250908060018154018082558091505060019003906000526020600020906002020160009091909190915060008201518160000190805190602001906101db929190610906565b5060208201518160010190805190602001906101f8929190610906565b505050600080549050600183604051610211919061100b565b9081526020016040518091039020819055505050565b60606000808054905011610270576040517f08c379a00000000000000000000000000000000000000000000000000000000081526004016102679061106e565b60405180910390fd5b6000805480602002602001604051908101604052809291908181526020016000905b828210156103e857838290600052602060002090600202016040518060400160405290816000820180546102c5906110bd565b80601f01602080910402602001604051908101604052809291908181526020018280546102f1906110bd565b801561033e5780601f106103135761010080835404028352916020019161033e565b820191906000526020600020905b81548152906001019060200180831161032157829003601f168201915b50505050508152602001600182018054610357906110bd565b80601f0160208091040260200160405190810160405280929190818152602001828054610383906110bd565b80156103d05780601f106103a5576101008083540402835291602001916103d0565b820191906000526020600020905b8154815290600101906020018083116103b357829003601f168201915b50505050508152505081526020019060010190610292565b50505050905090565b6103f961098c565b600060018360405161040b919061100b565b9081526020016040518091039020541161045a576040517f08c379a00000000000000000000000000000000000000000000000000000000081526004016104519061113b565b60405180910390fd5b600060018360405161046c919061100b565b9081526020016040518091039020548154811061048c5761048b61115b565b5b90600052602060002090600202016040518060400160405290816000820180546104b5906110bd565b80601f01602080910402602001604051908101604052809291908181526020018280546104e1906110bd565b801561052e5780601f106105035761010080835404028352916020019161052e565b820191906000526020600020905b81548152906001019060200180831161051157829003601f168201915b50505050508152602001600182018054610547906110bd565b80601f0160208091040260200160405190810160405280929190818152602001828054610573906110bd565b80156105c05780601f10610595576101008083540402835291602001916105c0565b820191906000526020600020905b8154815290600101906020018083116105a357829003601f168201915b5050505050815250509050919050565b60006001826040516105e2919061100b565b90815260200160405180910390205411610631576040517f08c379a00000000000000000000000000000000000000000000000000000000081526004016106289061113b565b60405180910390fd5b6000600182604051610643919061100b565b9081526020016040518091039020549050600080600160008054905061066991906111b9565b8154811061067a5761067961115b565b5b906000526020600020906002020190508160018260000160405161069e9190611281565b9081526020016040518091039020819055508060006001846106c091906111b9565b815481106106d1576106d061115b565b5b906000526020600020906002020160008201816000019080546106f3906110bd565b6106fe9291906109a6565b506001820181600101908054610713906110bd565b61071e9291906109a6565b50905050600080548061073457610733611298565b5b6001900381819060005260206000209060020201600080820160006107599190610a33565b6001820160006107699190610a33565b5050905560018360405161077d919061100b565b908152602001604051809103902060009055505050565b600081815481106107a457600080fd5b90600052602060002090600202016000915090508060000180546107c7906110bd565b80601f01602080910402602001604051908101604052809291908181526020018280546107f3906110bd565b80156108405780601f1061081557610100808354040283529160200191610840565b820191906000526020600020905b81548152906001019060200180831161082357829003601f168201915b505050505090806001018054610855906110bd565b80601f0160208091040260200160405190810160405280929190818152602001828054610881906110bd565b80156108ce5780601f106108a3576101008083540402835291602001916108ce565b820191906000526020600020905b8154815290600101906020018083116108b157829003601f168201915b5050505050905082565b6001818051602081018201805184825260208301602085012081835280955050505050506000915090505481565b828054610912906110bd565b90600052602060002090601f016020900481019282610934576000855561097b565b82601f1061094d57805160ff191683800117855561097b565b8280016001018555821561097b579182015b8281111561097a57825182559160200191906001019061095f565b5b5090506109889190610a73565b5090565b604051806040016040528060608152602001606081525090565b8280546109b2906110bd565b90600052602060002090601f0160209004810192826109d45760008555610a22565b82601f106109e55780548555610a22565b82800160010185558215610a2257600052602060002091601f016020900482015b82811115610a21578254825591600101919060010190610a06565b5b509050610a2f9190610a73565b5090565b508054610a3f906110bd565b6000825580601f10610a515750610a70565b601f016020900490600052602060002090810190610a6f9190610a73565b5b50565b5b80821115610a8c576000816000905550600101610a74565b5090565b6000604051905090565b600080fd5b600080fd5b600080fd5b600080fd5b6000601f19601f8301169050919050565b7f4e487b7100000000000000000000000000000000000000000000000000000000600052604160045260246000fd5b610af782610aae565b810181811067ffffffffffffffff82111715610b1657610b15610abf565b5b80604052505050565b6000610b29610a90565b9050610b358282610aee565b919050565b600067ffffffffffffffff821115610b5557610b54610abf565b5b610b5e82610aae565b9050602081019050919050565b82818337600083830152505050565b6000610b8d610b8884610b3a565b610b1f565b905082815260208101848484011115610ba957610ba8610aa9565b5b610bb4848285610b6b565b509392505050565b600082601f830112610bd157610bd0610aa4565b5b8135610be1848260208601610b7a565b91505092915050565b60008060408385031215610c0157610c00610a9a565b5b600083013567ffffffffffffffff811115610c1f57610c1e610a9f565b5b610c2b85828601610bbc565b925050602083013567ffffffffffffffff811115610c4c57610c4b610a9f565b5b610c5885828601610bbc565b9150509250929050565b600081519050919050565b600082825260208201905092915050565b6000819050602082019050919050565b600081519050919050565b600082825260208201905092915050565b60005b83811015610cc8578082015181840152602081019050610cad565b83811115610cd7576000848401525b50505050565b6000610ce882610c8e565b610cf28185610c99565b9350610d02818560208601610caa565b610d0b81610aae565b840191505092915050565b60006040830160008301518482036000860152610d338282610cdd565b91505060208301518482036020860152610d4d8282610cdd565b9150508091505092915050565b6000610d668383610d16565b905092915050565b6000602082019050919050565b6000610d8682610c62565b610d908185610c6d565b935083602082028501610da285610c7e565b8060005b85811015610dde5784840389528151610dbf8582610d5a565b9450610dca83610d6e565b925060208a01995050600181019050610da6565b50829750879550505050505092915050565b60006020820190508181036000830152610e0a8184610d7b565b905092915050565b600060208284031215610e2857610e27610a9a565b5b600082013567ffffffffffffffff811115610e4657610e45610a9f565b5b610e5284828501610bbc565b91505092915050565b60006040830160008301518482036000860152610e788282610cdd565b91505060208301518482036020860152610e928282610cdd565b9150508091505092915050565b60006020820190508181036000830152610eb98184610e5b565b905092915050565b6000819050919050565b610ed481610ec1565b8114610edf57600080fd5b50565b600081359050610ef181610ecb565b92915050565b600060208284031215610f0d57610f0c610a9a565b5b6000610f1b84828501610ee2565b91505092915050565b600082825260208201905092915050565b6000610f4082610c8e565b610f4a8185610f24565b9350610f5a818560208601610caa565b610f6381610aae565b840191505092915050565b60006040820190508181036000830152610f888185610f35565b90508181036020830152610f9c8184610f35565b90509392505050565b610fae81610ec1565b82525050565b6000602082019050610fc96000830184610fa5565b92915050565b600081905092915050565b6000610fe582610c8e565b610fef8185610fcf565b9350610fff818560208601610caa565b80840191505092915050565b60006110178284610fda565b915081905092915050565b7f456d707479204578706c61696e6572204d6f64756c6573000000000000000000600082015250565b6000611058601783610f24565b915061106382611022565b602082019050919050565b600060208201905081810360008301526110878161104b565b9050919050565b7f4e487b7100000000000000000000000000000000000000000000000000000000600052602260045260246000fd5b600060028204905060018216806110d557607f821691505b602082108114156110e9576110e861108e565b5b50919050565b7f546865206e616d6520646f6573206e6f74206578697374000000000000000000600082015250565b6000611125601783610f24565b9150611130826110ef565b602082019050919050565b6000602082019050818103600083015261115481611118565b9050919050565b7f4e487b7100000000000000000000000000000000000000000000000000000000600052603260045260246000fd5b7f4e487b7100000000000000000000000000000000000000000000000000000000600052601160045260246000fd5b60006111c482610ec1565b91506111cf83610ec1565b9250828210156111e2576111e161118a565b5b828203905092915050565b60008190508160005260206000209050919050565b6000815461120f816110bd565b6112198186610fcf565b94506001821660008114611234576001811461124557611278565b60ff19831686528186019350611278565b61124e856111ed565b60005b8381101561127057815481890152600182019150602081019050611251565b838801955050505b50505092915050565b600061128d8284611202565b915081905092915050565b7f4e487b7100000000000000000000000000000000000000000000000000000000600052603160045260246000fdfea26469706673582212201b2b40d2c2661fd26c8da9d6f4f0f235cf50c805cd8c76759c5a50081a4efe2b64736f6c63430008090033",
  "linkReferences": {},
  "deployedLinkReferences": {}
}